:020000040000fa
:080000000002040000000000f2
:020000040000fa
:040008004c030000a5
:020000040000fa
:04000c004c030000a1
:020000040000fa
:040010004c0300009d
:020000040000fa
:040014004c03000099
:020000040000fa
:040018004c03000095
:020000040000fa
:04001c004c03000091
:020000040000fa
:040020004c0300008d
:020000040000fa
:040024004c03000089
:020000040000fa
:040028004c03000085
:020000040000fa
:04002c004c03000081
:020000040000fa
:040030004c0300007d
:020000040000fa
:04003400c2240000e2
:020000040000fa
:040038004c03000075
:020000040000fa
:04003c004c03000071
:020000040000fa
:040040004c0300006d
:020000040000fa
:04004400f62300009f
:020000040000fa
:040048004c03000065
:020000040000fa
:04004c004c03000061
:020000040000fa
:040050004c0300005d
:020000040000fa
:040054004c03000059
:020000040000fa
:040058004c03000055
:020000040000fa
:04005c004c03000051
:020000040000fa
:040060004c0300004d
:020000040000fa
:040064004c03000049
:020000040000fa
:040068004c03000045
:020000040000fa
:04006c004c03000041
:020000040000fa
:040070004c0300003d
:020000040000fa
:040074004c03000039
:020000040000fa
:040078004c03000035
:020000040000fa
:04007c004c03000031
:020000040000fa
:040080004c0300002d
:020000040000fa
:040084004c03000029
:020000040000fa
:040088004c03000025
:020000040000fa
:04008c004c03000021
:020000040000fa
:040090004c0300001d
:020000040000fa
:040094004c03000019
:020000040000fa
:040098004c03000015
:020000040000fa
:04009c004c03000011
:020000040000fa
:0400a0004c0300000d
:020000040000fa
:0400a4004c03000009
:020000040000fa
:0400a8004c03000005
:020000040000fa
:0400ac004c03000001
:020000040000fa
:0400b0004c030000fd
:020000040000fa
:0400b4004c030000f9
:020000040000fa
:0400b8004c030000f5
:020000040000fa
:0400bc004c030000f1
:020000040000fa
:0400c0004c030000ed
:020000040000fa
:0400c4004c030000e9
:020000040000fa
:0400c8004c030000e5
:020000040000fa
:0400cc004c030000e1
:020000040000fa
:0400d0004c030000dd
:020000040000fa
:0400d4004c030000d9
:020000040000fa
:0400d8004c030000d5
:020000040000fa
:0400dc004c030000d1
:020000040000fa
:0400e0004c030000cd
:020000040000fa
:0400e4004c030000c9
:020000040000fa
:0400e8004c030000c5
:020000040000fa
:0400ec004c030000c1
:020000040000fa
:0400f0004c030000bd
:020000040000fa
:0400f4004c030000b9
:020000040000fa
:0400f8004c030000b5
:020000040000fa
:0400fc004c030000b1
:020000040000fa
:040100004c030000ac
:020000040000fa
:040104004c030000a8
:020000040000fa
:040108004c030000a4
:020000040000fa
:04010c004c030000a0
:020000040000fa
:040110004c0300009c
:020000040000fa
:040114004c03000098
:020000040000fa
:040118004c03000094
:020000040000fa
:04011c004c03000090
:020000040000fa
:04012000d4230000e4
:020000040000fa
:040124004c03000088
:020000040000fa
:040128004c03000084
:020000040000fa
:04012c004c03000080
:020000040000fa
:040130004c0300007c
:020000040000fa
:040134004c03000078
:020000040000fa
:040138004c03000074
:020000040000fa
:04013c004c03000070
:020000040000fa
:040140004c0300006c
:020000040000fa
:040144004c03000068
:020000040000fa
:040148004c03000064
:020000040000fa
:04014c004c03000060
:020000040000fa
:040150004c0300005c
:020000040000fa
:040154004c03000058
:020000040000fa
:040158004c03000054
:020000040000fa
:04015c004c03000050
:020000040000fa
:040160004c0300004c
:020000040000fa
:040164004c03000048
:020000040000fa
:040168004c03000044
:020000040000fa
:04016c004c03000040
:020000040000fa
:040170004c0300003c
:020000040000fa
:040174004c03000038
:020000040000fa
:040178004c03000034
:020000040000fa
:04017c004c03000030
:020000040000fa
:040180004c0300002c
:020000040000fa
:040184004c03000028
:020000040000fa
:040188004c03000024
:020000040000fa
:04018c004c03000020
:020000040000fa
:040190004c0300001c
:020000040000fa
:040194004c03000018
:020000040000fa
:040198004c03000014
:020000040000fa
:04019c004c03000010
:020000040000fa
:0401a0004c0300000c
:020000040000fa
:0401a4004c03000008
:020000040000fa
:0401a8004c03000004
:020000040000fa
:0401ac004c03000000
:020000040000fa
:0401b0004c030000fc
:020000040000fa
:0401b4004c030000f8
:020000040000fa
:0401b8004c030000f4
:020000040000fa
:0401bc004c030000f0
:020000040000fa
:0401c0004c030000ec
:020000040000fa
:0401c4004c030000e8
:020000040000fa
:0401c8004c030000e4
:020000040000fa
:0401cc004c030000e0
:020000040000fa
:0401d0004c030000dc
:020000040000fa
:0401d4004c030000d8
:020000040000fa
:0401d8004c030000d4
:020000040000fa
:0401dc004c030000d0
:020000040000fa
:0401e0004c030000cc
:020000040000fa
:0401e4004c030000c8
:020000040000fa
:0401e8004c030000c4
:020000040000fa
:0401ec004c030000c0
:020000040000fa
:0401f0004c030000bc
:020000040000fa
:0401f4004c030000b8
:020000040000fa
:0401f8004c030000b4
:020000040000fa
:0401fc004c030000b0
:020000040000fa
:040208004c030000a3
:020000040000fa
:04020c004c0300009f
:020000040000fa
:040210004c0300009b
:020000040000fa
:040214004c03000097
:020000040000fa
:040218004c03000093
:020000040000fa
:04021c004c0300008f
:020000040000fa
:040220004c0300008b
:020000040000fa
:040224004c03000087
:020000040000fa
:040228004c03000083
:020000040000fa
:04022c004c0300007f
:020000040000fa
:040230004c0300007b
:020000040000fa
:040234004c03000077
:020000040000fa
:040238004c03000073
:020000040000fa
:04023c004c0300006f
:020000040000fa
:040240004c0300006b
:020000040000fa
:040244004c03000067
:020000040000fa
:040248004c03000063
:020000040000fa
:04024c004c0300005f
:020000040000fa
:040250004c0300005b
:020000040000fa
:040254004c03000057
:020000040000fa
:040258004c03000053
:020000040000fa
:04025c004c0300004f
:020000040000fa
:040260004c0300004b
:020000040000fa
:040264004c03000047
:020000040000fa
:040268004c03000043
:020000040000fa
:04026c004c0300003f
:020000040000fa
:040270004c0300003b
:020000040000fa
:040274004c03000037
:020000040000fa
:040278004c03000033
:020000040000fa
:04027c004c0300002f
:020000040000fa
:040280004c0300002b
:020000040000fa
:040284004c03000027
:020000040000fa
:040288004c03000023
:020000040000fa
:04028c004c0300001f
:020000040000fa
:040290004c0300001b
:020000040000fa
:040294004c03000017
:020000040000fa
:040298004c03000013
:020000040000fa
:04029c004c0300000f
:020000040000fa
:0402a0004c0300000b
:020000040000fa
:0402a4004c03000007
:020000040000fa
:0402a8004c03000003
:020000040000fa
:0402ac004c030000ff
:020000040000fa
:0402b0004c030000fb
:020000040000fa
:0402b4004c030000f7
:020000040000fa
:0402b8004c030000f3
:020000040000fa
:0402bc004c030000ef
:020000040000fa
:0402c0004c030000eb
:020000040000fa
:0402c4004c030000e7
:020000040000fa
:0402c8004c030000e3
:020000040000fa
:0402cc004c030000df
:020000040000fa
:0402d0004c030000db
:020000040000fa
:0402d4004c030000d7
:020000040000fa
:0402d8004c030000d3
:020000040000fa
:0402dc004c030000cf
:020000040000fa
:0402e0004c030000cb
:020000040000fa
:0402e4004c030000c7
:020000040000fa
:0402e8004c030000c3
:020000040000fa
:0402ec004c030000bf
:020000040000fa
:0402f0004c030000bb
:020000040000fa
:0402f4004c030000b7
:020000040000fa
:0402f8004c030000b3
:020000040000fa
:0402fc004c030000af
:020000040000fa
:040300004c030000aa
:020000040000fa
:040304004c030000a6
:020000040000fa
:040308004c030000a2
:020000040000fa
:04030c004c0300009e
:020000040000fa
:040310004c0300009a
:020000040000fa
:040314004c03000096
:020000040000fa
:040318004c03000092
:020000040000fa
:04031c004c0300008e
:020000040000fa
:040320004c0300008a
:020000040000fa
:040324004c03000086
:020000040000fa
:040328004c03000082
:020000040000fa
:04032c004c0300007e
:020000040000fa
:040330004c0300007a
:020000040000fa
:040334004c03000076
:020000040000fa
:040338004c03000072
:020000040000fa
:04033c004c0300006e
:020000040000fa
:040340004c0300006a
:020000040000fa
:040344004c03000066
:020000040000fa
:040348004c03000062
:020000040000fa
:04034c004c0300005e
:020000040000fa
:040350004c0300005a
:020000040000fa
:040354004c03000056
:020000040000fa
:040358004c03000052
:020000040000fa
:04035c004c0300004e
:020000040000fa
:040360004c0300004a
:020000040000fa
:040364004c03000046
:020000040000fa
:040368004c03000042
:020000040000fa
:04036c004c0300003e
:020000040000fa
:040370004c0300003a
:020000040000fa
:040374004c03000036
:020000040000fa
:040378004c03000032
:020000040000fa
:04037c004c0300002e
:020000040000fa
:040380004c0300002a
:020000040000fa
:040384004c03000026
:020000040000fa
:040388004c03000022
:020000040000fa
:04038c004c0300001e
:020000040000fa
:040390004c0300001a
:020000040000fa
:040394004c03000016
:020000040000fa
:040398004c03000012
:020000040000fa
:04039c004c0300000e
:020000040000fa
:0403a0004c0300000a
:020000040000fa
:0403a4004c03000006
:020000040000fa
:0403a8004c03000002
:020000040000fa
:0403ac004c030000fe
:020000040000fa
:0403b0004c030000fa
:020000040000fa
:0403b4004c030000f6
:020000040000fa
:0403b8004c030000f2
:020000040000fa
:0403bc004c030000ee
:020000040000fa
:0403c0004c030000ea
:020000040000fa
:0403c4004c030000e6
:020000040000fa
:0403c8004c030000e2
:020000040000fa
:0403cc004c030000de
:020000040000fa
:0403d0004c030000da
:020000040000fa
:0403d4004c030000d6
:020000040000fa
:0403d8004c030000d2
:020000040000fa
:0403dc004c030000ce
:020000040000fa
:0403e0004c030000ca
:020000040000fa
:0403e4004c030000c6
:020000040000fa
:0403e8004c030000c2
:020000040000fa
:0403ec004c030000be
:020000040000fa
:0403f0004c030000ba
:020000040000fa
:0403f4004c030000b6
:020000040000fa
:0403f8004c030000b2
:020000040000fa
:0403fc004c030000ae
:020000040000fa
:100400008f8b20000e7f22000e018800000000006c
:10041000000020000000e000020032000001200087
:1004200020028800140007009d0007000000e00083
:1004300003003a0040802200010020000200370043
:100440000000200001002000810f70000100320038
:1004500014000700000020000000e000020032004d
:1004600000000200000000008225020000000000e1
:100470000040da000000fe004440a900e011200026
:100480000000e000030032000020200090018800fe
:100490004440a800000006008a1f78008b1f7800e7
:1004a00000000600a1028800800478000000eb0034
:1004b0001f003700e284440054a0b4009905ba003c
:1004c000e284440054a0b4009906ba00e2844400d7
:1004d00054a0b4000006eb00476fde00fd07b20039
:1004e000ae018800636ce10003003a00eaff0700f8
:1004f0000000eb000e003700606ce10008003a00dd
:10050000004deb000a05e800020039003420ec0041
:100510000af0a0008b05e900f9ff3e000400370057
:100520006168e100010032000086eb000b0007006b
:1005300019c7ba001905ba000e04e00003003a001a
:100540000a00e000dbff3a0000000600fe07b200f0
:10055000ae0288008a047800f5ff37000cd0a300b3
:10056000e20f4d001c00390089027800354dba00b9
:100570000a05e800020039003420ec000af0a0006f
:100580008b05e9000f003200254dba000a05e8008e
:10059000020039003420ec000af0a0008b05e900cd
:1005a000080032000c00e0000600320015cdba0051
:1005b0000a05e800020039003420ec000af0a0002f
:1005c0008b05e9008984e80054a0b4000b00e0002a
:1005d000e2ff3a00000006009902ba00055d7800cb
:1005e0008b05e900f7ff3200c82ade00055d7800c0
:1005f0008b05e900f3ff32000c00e000f1ff320050
:1006000019ddba00eeff37001e1e040000000000d6
:100610002a1e040000000000801e040000000000ec
:100620008c1e0400000000005a1e040000000000a0
:10063000fa1e040000000000061f04000000000075
:10064000301f0400000000003c1f040000000000f8
:10065000c01e040000000000402004000000000054
:100660008820040000000000901f0400000000002b
:100670009c1f040000000000d81f040000000000c0
:10068000e41f0400000000006c1f040000000000d4
:1006900064200400000000000040da000000fe00ba
:0406a0000000050051
:020000040000fa
:1006a40030310000323300003435000036370000aa
:1006b4003839000061620000636400006566000070
:1006c40067680000696a00006b6c00006d6e0000d2
:1006d4006f70000071720000737400007576000082
:1006e40077780000797a00002e2d00003a2000006f
:1006f40047480000003f0000065b00004f66000012
:100704006d7d0000077f00006f7700007c390000da
:100714005e790000716f0000740600000e7a00001c
:1007240038000000375c000073670000506d000063
:10073400783e000000000000006e00005b400000f6
:1007440040480000003d00007630000031320000d7
:1007540033340000353600003738000039610000ba
:100764006263000064650000666700006869000059
:100774006a6b00006c6d00006e6f00007071000009
:1007840072730000747500007677000078790000b9
:100794007a410000424300004445000046470000ff
:1007a400484900004a4b00004c4d00004e4f0000e9
:1007b4005051000052530000545500005657000099
:1007c400585900005a0000003f00000006000000d5
:1007d400db000000cf000000e6000000ed00000098
:1007e400fd00000007000000ff000000ef00000013
:1007f4005804000078040000d80000008e080000af
:10080400fb000000710000008f010000f4000000f4
:10081400060000000e00000070060000300000001a
:100824003603000037000000dc0000007102000005
:10083400870100003100000069040000c80a0000bc
:100844003e000000300a0000360c0000000f0000db
:10085400000b000048080000860a0000fd020000aa
:100864003900000000000000790000007100000061
:10087400bd000000f6000000060000000e000000ad
:100884007006000038000000360300003605000042
:100894003f000000f30000003f0400007106000068
:1008a40069040000000000003e000000300a00005f
:1008b400360c0000000f00008e010000090a000041
:1008c400373700003737000037370000373700006c
:0c08d40000310000323300000000000082
:020000040000fa
:1008e0000800fa00404798005147980032079800e6
:1008f0004e409000e74f500034003e00de40900034
:10090000f0c3b30080cf500032003e004e40900054
:100910000080fb00c200dd005e4090000080fb0014
:100920004400de00004078000080fb0000804000b2
:10093000000f78005e4090000080fb006f006000b8
:10094000100798003e0090000000e0000f00320009
:100950001e0078008000400040872000008040009a
:10096000900078001e009000120020000010dd00b2
:10097000810070001e0078000001400040872000c8
:100980000000410001087800130037001e007800c5
:1009900080004000408720000080400090007800e8
:1009a0001e009000120020000010dd000080ea0010
:1009b000808060001e007800000140004087200019
:1009c000000041000108780003003700000000002b
:1009d00001003700000000000080fa00000006005f
:1009e0000400fa002047980031479800ae4090007c
:1009f00010c3b30080cf50009c013e0011c3b30070
:100a00002e40900000cf50001e80fb00cf80de0003
:100a10001203200003002000820f5000838f580033
:100a200093013e00006001003100370037003700bd
:100a30003d00370043003700490037004f003700c2
:100a4000550037005b003700610037006700370052
:100a50006d00370073003700790037007f003700e2
:100a6000850037008b003700910037009700370072
:100a70009d003700a3003700a9003700af00370002
:100a8000b5003700bb003700c1003700c700370092
:100a9000cd003700d3003700d9003700df00370022
:100aa000e5003700eb003700f1003700f7003700b2
:100ab000fd00370003013700090137000f0137003f
:100ac000150137001b0137002101370027013700ce
:100ad0002d01370033013700390137003f0137005e
:100ae000450137004b0137005101370057013700ee
:100af0003e4090000080fb0000017800f1c3b3008d
:100b000070c0b30076ff0700590137003e409000e7
:100b10000080fb0000017800f1c3b30060c0b300a7
:100b20006fff0700520137003e4090000080fb003d
:100b300000017800f1c3b30050c0b30068ff0700a4
:100b40004b0137003e4090000080fb000001780020
:100b5000f1c3b3000040eb0061ff07004401370020
:100b60003e4090000080fb0000017800f1c3b3001c
:100b700010c0b3005aff07003d0137003e4090000f
:100b80000080fb0000017800f1c3b30020c0b30077
:100b900053ff0700360137003e4090000080fb0005
:100ba00000017800f1c3b30030c0b3004cff070070
:100bb0002f0137003e4090000080fb0000017800cc
:100bc000f1c3b30040c0b30045ff07002801370060
:100bd0003e4090000080fb0000017800e1c3b300bc
:100be00040c0b3003eff0700210137003e409000a7
:100bf0000080fb0000017800e1c3b30030c0b30007
:100c000037ff07001a0137003e4090000080fb00cc
:100c100000017800e1c3b30020c0b30030ff07003b
:100c2000130137003e4090000080fb000001780077
:100c3000e1c3b30010c0b30029ff07000c01370067
:100c40003e4090000080fb0000017800e1c3b3004b
:100c50000040eb0022ff0700050137003e409000f6
:100c60000080fb0000017800e1c3b30050c0b30076
:100c70001bff0700fe0037003e4090000080fb0095
:100c800000017800e1c3b30060c0b30014ff0700a7
:100c9000f70037003e4090000080fb000001780024
:100ca000e1c3b30070c0b3000dff0700f0003700d0
:100cb0003e4090000080fb0000017800d1c3b300eb
:100cc00070c0b30006ff0700e90037003e40900007
:100cd0000080fb0000017800d1c3b30060c0b30006
:100ce000fffe0700e20037003e4090000080fb005e
:100cf00000017800d1c3b30050c0b300f8fe070074
:100d0000db0037003e4090000080fb0000017800cf
:100d1000d1c3b3000040eb00f1fe0700d400370060
:100d20003e4090000080fb0000017800d1c3b3007a
:100d300010c0b300eafe0700cd0037003e4090002f
:100d40000080fb0000017800d1c3b30020c0b300d5
:100d5000e3fe0700c60037003e4090000080fb0025
:100d600000017800d1c3b30030c0b300dcfe07003f
:100d7000bf0037003e4090000080fb00000178007b
:100d8000d1c3b30040c0b300d5fe0700b8003700a0
:100d90003e4090000080fb0000017800c1c3b3001a
:100da00040c0b300cefe0700b10037003e409000c7
:100db0000080fb0000017800c1c3b30030c0b30065
:100dc000c7fe0700aa0037003e4090000080fb00ed
:100dd00000017800c1c3b30020c0b300c0fe07000b
:100de000a30037003e4090000080fb000001780027
:100df000c1c3b30010c0b300b9fe07009c003700a8
:100e00003e4090000080fb0000017800c1c3b300a9
:100e10000040eb00b2fe0700950037003e40900016
:100e20000080fb0000017800c1c3b30050c0b300d4
:100e3000abfe07008e0037003e4090000080fb00b4
:100e400000017800c1c3b30060c0b300a4fe070076
:100e5000870037003e4090000080fb0000017800d2
:100e6000c1c3b30070c0b3009dfe0700800037000f
:100e70003e4090000080fb0000017800b1c3b30049
:100e800070c0b30096fe0700790037003e40900026
:100e90000080fb0000017800b1c3b30060c0b30064
:100ea0008ffe0700720037003e4090000080fb007c
:100eb00000017800b1c3b30050c0b30088fe070042
:100ec0006b0037003e4090000080fb00000178007e
:100ed000b1c3b3000040eb0081fe0700640037009f
:100ee0003e4090000080fb0000017800b1c3b300d9
:100ef00010c0b3007afe07005d0037003e4090004e
:100f00000080fb0000017800b1c3b30020c0b30033
:100f100073fe0700560037003e4090000080fb0043
:100f200000017800b1c3b30030c0b3006cfe07000d
:100f30004f0037003e4090000080fb000001780029
:100f4000b1c3b30040c0b30065fe070048003700de
:100f50003e4090000080fb0000017800a1c3b30078
:100f600040c0b3005efe0700410037003e409000e5
:100f70000080fb0000017800a1c3b30030c0b300c3
:100f800057fe07003a0037003e4090000080fb000b
:100f900000017800a1c3b30020c0b30050fe0700d9
:100fa000330037003e4090000080fb0000017800d5
:100fb000a1c3b30010c0b30049fe07002c003700e6
:100fc0003e4090000080fb0000017800a1c3b30008
:100fd0000040eb0042fe0700250037003e40900035
:100fe0000080fb0000017800a1c3b30050c0b30033
:100ff0003bfe07001e0037003e4090000080fb00d3
:1010000000017800a1c3b30060c0b30034fe070044
:10101000170037003e4090000080fb000001780080
:10102000a1c3b30070c0b3002dfe0700100037004d
:101030003e4090000080fb0000017800e1c2b30058
:1010400070c0b30026fe0700090037003e40900044
:101050000080fb0000017800e1c2b30060c0b30073
:101060001ffe070000000000010037000000000024
:101070000080fa00000006000400fa0020479800f3
:10108000ae40900020c6b30080cf50000200360072
:1010900030c6b300204798002e4090000080fb002f
:1010a0000000d100204798000040eb00004f78007e
:1010b0000400370011c0b3001e40780048fe07004e
:1010c0001e4fe8002e4090009e40780080cf5000d8
:1010d000f8ff3900040037008040eb001e40780024
:1010e0003ffe07001e4fe80010c3b3009e4078008b
:1010f00080cf5000f8ff36000080fa0000000600a4
:101100000200fa000040eb00004f780004003700b6
:101110008040eb001e40780031fe07001e4fe800c3
:1011200010c3b3009e40780080cf5000f8ff360017
:101130000080fa00000006000200fa00004f78006c
:10114000114798001e407800e34f5000020036001f
:1011500040c0b300004f78001e80fb00e10f50003c
:101160001f003200e10f500003003c000000e000cf
:101170000600320021003700e20f5000110032005b
:10118000e30f5000080032001c0037001e409000a2
:101190000080fb000001780021c3b30030c0b30021
:1011a000cffd0700150037001e4090000080fb00b7
:1011b00000017800e1c2b30040c0b300c8fd0700e1
:1011c0000e0037001e4090000080fb0000017800f8
:1011d000e1c2b30030c0b300c1fd07000700370013
:1011e0001e4090000080fb000001780021c3b30086
:1011f00040c0b300bafd0700000000000080fa0004
:10120000000006000400fa0020479800ae4090005d
:1012100030c6b30080cf50000200360040c6b30095
:10122000204798002e4090008080fb009001200015
:1012300000017800110009008280d8002047980042
:101240002e4090000004e00002003a0010c0b300fd
:10125000204798000040eb00004f78000400370062
:1012600011c0b3001e407800b3ff07001e4fe80016
:101270002e4090009e40780080cf5000f8ff39004b
:10128000040037008040eb001e407800aaff0700f2
:101290001e4fe8001e407800e34f5000f9ff360073
:1012a0000080fa00000006000200fa000040eb0097
:1012b000004f7800040037008040eb001e407800ab
:1012c0009dff07001e4fe8001e407800e34f5000ce
:1012d000f9ff36000080fa00000006000200fa0064
:1012e000004f7800114798001e407800e34f5000ef
:1012f0000200360040c0b300004f78001e80fb00a3
:10130000e10f500011003200e10f500003003c00db
:101310000000e0000600320021003700e20f50001c
:1013200011003200e30f5000160032001c0037009d
:101330001e4090000080fb0000017800e1c2b30075
:1013400050c0b30066fd0700150037001e40900036
:101350000080fb0000017800e1c2b3000040eb0018
:101360005ffd07000e0037001e4090000080fb006c
:1013700000017800e1c2b30010c0b30058fd0700bf
:10138000070037001e4090000080fb00000178003d
:10139000f1c2b3000040eb0051fd07000000000067
:1013a0000080fa00000006000400fa0020479800c0
:1013b000ae40900030c6b30080cf5000020036002f
:1013c00040c6b300204798002e4090008080fb006c
:1013d0009001200000017800110009008280d800ef
:1013e000204798002e4090000004e00002003a00e0
:1013f00010c0b300204798000040eb00004f780079
:101400000400370011c0b3001e407800b3ff07008e
:101410001e4fe8002e4090009e40780080cf500084
:10142000f8ff3900040037008040eb001e407800d0
:10143000aaff07001e4fe8001e407800e34f50004f
:10144000f9ff36000080fa00000006000200fa00f2
:101450000040eb00004f7800040037008040eb00b4
:101460001e4078009dff07001e4fe8001e407800d8
:10147000e34f5000f9ff36000080fa00000006003c
:101480000200fa00004f7800114798001e407800d3
:101490000004e0000200320010c0b300004f7800ea
:1014a0001e80fb000000e00009003200e10f500048
:1014b0000e003a001e4090000080fb000001780002
:1014c000e1c2b30020c0b30005fd070007003700ec
:1014d0001e4090000080fb000001780021c3b30093
:1014e00020c0b300fefc0700000000000080fa00ee
:1014f000000006000200fa00004f780030c6b3007a
:101500009e40780080cf50000200360040c6b300f5
:10151000004f78009e80fb0020032000000178002f
:10152000110009008280d800004f78001e4078002a
:101530000004e00002003a0010c0b300004f780041
:101540001e407800e24f500007003a0011c0b3007f
:101550000040eb00caff070011c0b30010c0b30089
:10156000c7ff07000300370011c0b3000040eb00c5
:10157000c3ff07000080fa00000006000000fa0028
:101580008040eb000040eb00bdff07008040eb0017
:1015900010c0b300baff07000080fa000000060088
:1015a0000200fa00004f78001e80fb00610060001e
:1015b0000001780091c2b30070c0b300c8fc0700fe
:1015c0001e80fb00620060000001780091c2b30041
:1015d00060c0b300c2fc07001e80fb006400600016
:1015e0000001780091c2b30050c0b300bcfc0700fa
:1015f0001e80fb00680060000001780091c2b3000b
:101600000040eb00b6fc07009e80fb0000022000bb
:101610000080600000017800f1c2b30070c0b30028
:10162000affc07009e80fb000004200000806000eb
:1016300000017800f1c2b30060c0b300a8fc07004d
:101640001e80fb007000600000017800f1c2b30052
:1016500050c0b300a2fc07000080fa0000000600a2
:101660000200fa00004f78001e4078000004e000fd
:10167000050032000208200081c2b3000040eb00e8
:1016800097fc0700040037000001eb0081c2b300a3
:101690000040eb0092fc07000080fa00000006000a
:1016a0000200fa00004f78001e80fb00610060001d
:1016b00000017800c1c0b30070c0b30088fc07000f
:1016c0001e80fb006200600000017800c1c0b30012
:1016d00060c0b30082fc07001e80fb006400600055
:1016e00000017800c1c0b30050c0b3007cfc07000b
:1016f0001e80fb006800600000017800c1c0b300dc
:101700000040eb0076fc07009e80fb0000022000fa
:10171000008060000001780081c2b30070c0b30097
:101720006ffc07009e80fb0000042000008060002a
:101730000001780081c2b30060c0b30068fc0700fc
:101740001e80fb00700060000001780081c2b300c1
:1017500050c0b30062fc07000080fa0000000600e1
:101760000200fa00004f78001e4078000004e000fc
:101770000500320002082000b1c0b3000040eb00b9
:1017800057fc0700040037000001eb00b1c0b300b4
:101790000040eb0052fc07000080fa000000060049
:1017a0000200fa00004f78001e80fb00610060001c
:1017b00000017800a1c0b30070c0b30048fc07006e
:1017c0001e80fb006200600000017800a1c0b30031
:1017d00060c0b30042fc07001e80fb006400600094
:1017e00000017800a1c0b30050c0b3003cfc07006a
:1017f0001e80fb006800600000017800a1c0b300fb
:101800000040eb0036fc07009e80fb000002200039
:101810000080600000017800b1c0b30070c0b30068
:101820002ffc07009e80fb00000420000080600069
:1018300000017800b1c0b30060c0b30028fc07000d
:101840001e80fb007000600000017800b1c0b30092
:1018500050c0b30022fc07000080fa000000060020
:101860000200fa00004f78001e4078000004e000fb
:10187000050032000208200071c2b3000040eb00f6
:1018800017fc0700040037000001eb0071c2b30031
:101890000040eb0012fc07000080fa000000060088
:1018a0000200fa00004f78001e80fb00610060001b
:1018b0000001780061c2b30070c0b30008fc0700eb
:1018c0001e80fb00620060000001780061c2b3006e
:1018d00060c0b30002fc07001e80fb0064006000d3
:1018e0000001780061c2b30050c0b300fcfb0700e8
:1018f0001e80fb00680060000001780061c2b30038
:101900000040eb00f6fb07009e80fb000002200079
:10191000008060000001780071c2b30070c0b300a5
:10192000effb07009e80fb000004200000806000a9
:101930000001780071c2b30060c0b300e8fb07008b
:101940001e80fb00700060000001780071c2b300cf
:1019500050c0b300e2fb07000080fa000000060060
:101960000200fa00004f78001e80fb00610060005a
:101970000001780091c2b30010c0b300d8fb07008b
:101980001e80fb00620060000001780091c2b3007d
:1019900020c0b300d2fb07001e80fb006400600083
:1019a0000001780091c2b30030c0b300ccfb070047
:1019b0001e80fb00680060000001780091c2b30047
:1019c00040c0b300c6fb07009e80fb000002200061
:1019d0000080600000017800f1c2b30010c0b300c5
:1019e000bffb07009e80fb00000420000080600019
:1019f00000017800f1c2b30020c0b300b8fb0700bb
:101a00001e80fb007000600000017800f1c2b3008e
:101a100030c0b300b2fb07000080fa0000000600ef
:101a20000200fa00004f78001e4078000004e00039
:101a3000050032000208200081c2b30040c0b3009c
:101a4000a7fb0700040037000001eb0081c2b300d0
:101a500040c0b300a2fb07000080fa0000000600af
:101a60000200fa00004f78001e80fb006100600059
:101a700000017800c1c0b30010c0b30098fb07009c
:101a80001e80fb006200600000017800c1c0b3004e
:101a900020c0b30092fb07001e80fb0064006000c2
:101aa00000017800c1c0b30030c0b3008cfb070058
:101ab0001e80fb006800600000017800c1c0b30018
:101ac00040c0b30086fb07009e80fb0000022000a0
:101ad000008060000001780081c2b30010c0b30034
:101ae0007ffb07009e80fb00000420000080600058
:101af0000001780081c2b30020c0b30078fb07006a
:101b00001e80fb00700060000001780081c2b300fd
:101b100030c0b30072fb07000080fa00000006002e
:101b20000200fa00004f78001e4078000004e00038
:101b30000500320002082000b1c0b30040c0b3006d
:101b400067fb0700040037000001eb00b1c0b300e1
:101b500040c0b30062fb07000080fa0000000600ee
:101b60000200fa00004f78001e80fb006100600058
:101b700000017800a1c0b30010c0b30058fb0700fb
:101b80001e80fb006200600000017800a1c0b3006d
:101b900020c0b30052fb07001e80fb006400600001
:101ba00000017800a1c0b30030c0b3004cfb0700b7
:101bb0001e80fb006800600000017800a1c0b30037
:101bc00040c0b30046fb07009e80fb0000022000df
:101bd0000080600000017800b1c0b30010c0b30005
:101be0003ffb07009e80fb00000420000080600097
:101bf00000017800b1c0b30020c0b30038fb07007b
:101c00001e80fb007000600000017800b1c0b300ce
:101c100030c0b30032fb07000080fa00000006006d
:101c20000200fa00004f78001e4078000004e00037
:101c3000050032000208200071c2b30040c0b300aa
:101c400027fb0700040037000001eb0071c2b3005e
:101c500040c0b30022fb07000080fa00000006002d
:101c60000200fa00004f78001e80fb006100600057
:101c70000001780061c2b30010c0b30018fb070078
:101c80001e80fb00620060000001780061c2b300aa
:101c900020c0b30012fb07001e80fb006400600040
:101ca0000001780061c2b30030c0b3000cfb070034
:101cb0001e80fb00680060000001780061c2b30074
:101cc00040c0b30006fb07009e80fb00000220001e
:101cd000008060000001780071c2b30010c0b30042
:101ce000fffa07009e80fb000004200000806000d7
:101cf0000001780071c2b30020c0b300f8fa0700f9
:101d00001e80fb00700060000001780071c2b3000b
:101d100030c0b300f2fa07000080fa0000000600ad
:101d20000200fa00004f78000080fa000000060070
:101d30000200fa00004f78000001eb0021c2b3005e
:101d400010c0b300e6fa07000001eb0031c2b30097
:101d500010c0b300e2fa07001e4078000004e00063
:101d6000050032001200200011c3b30010c0b30000
:101d7000dbfa0700040037000001eb0011c3b300d9
:101d800010c0b300d6fa07000080fa000000060079
:101d90000200fa00004f78000001eb0011c3b3000d
:101da00010c0b300cefa07000001eb0031c2b3004f
:101db00010c0b300cafa07001e4078000004e0001b
:101dc000050032001200200021c2b30010c0b30091
:101dd000c3fa0700040037000001eb0021c2b30082
:101de00010c0b300befa07000080fa000000060031
:101df0000200fa00004f78000001eb0011c3b300ad
:101e000010c0b300b6fa07001e4078000004e000de
:101e1000090032001200200021c2b30010c0b3003c
:101e2000affa07001200200021c2b30010c0b300b7
:101e3000abfa0700080037000001eb0031c2b30025
:101e400010c0b300a6fa07000001eb0031c2b300d6
:101e500010c0b300a2fa07000080fa0000000600dc
:101e60000200fa00004f78000001eb0011c3b3003c
:101e700020c0b3009afa07000001eb0031c2b300a2
:101e800020c0b30096fa07000001eb0031c2b30096
:101e900030c0b30092fa07001e4078000004e00052
:101ea000050032001200200031c2b30040c0b30070
:101eb0008bfa0700040037000001eb0031c2b300c9
:101ec00040c0b30086fa07000080fa000000060058
:101ed0000200fa00004f78000001eb0011c3b300cc
:101ee00020c0b3007efa07000001eb0031c2b3004e
:101ef00030c0b3007afa07000001eb0031c2b30032
:101f000040c0b30076fa07001e4078000004e000ed
:101f1000050032001200200021c2b30020c0b3002f
:101f20006ffa0700040037000001eb0021c2b30084
:101f300020c0b3006afa07000080fa000000060023
:101f40000200fa00004f78000001eb0011c3b3005b
:101f500020c0b30062fa07000001eb0031c2b300f9
:101f600040c0b3005efa07001e4078000004e000a5
:101f7000090032001200200021c2b30020c0b300cb
:101f800057fa07001200200031c2b30030c0b3007e
:101f900053fa0700080037000001eb0021c2b3002c
:101fa00020c0b3004efa07000001eb0031c2b300bd
:101fb00030c0b3004afa07000080fa0000000600b3
:101fc0000200fa00004f78000001eb0021c2b300cc
:101fd00020c0b30042fa07000001eb0031c2b30099
:101fe00030c0b3003efa07000001eb0031c2b3007d
:101ff00040c0b3003afa07001e4078000004e00039
:10200000050032001200200011c3b30020c0b3004d
:1020100033fa0700040037000001eb0011c3b300de
:1020200020c0b3002efa07000080fa00000006006e
:102030000200fa00000f78009e00780061806000c6
:102040000001780011c3b30070c0b30024fa070088
:102050009e007800628060000001780031c2b30009
:1020600070c0b3001efa07009e0078006480600014
:102070000001780031c2b30050c0b30018fa070065
:102080009e007800688060000001780031c2b300d3
:102090000040eb0012fa07009e007800708060009c
:1020a0000001780011c3b3000040eb000cfa0700f8
:1020b000000220001e0060000001780011c3b30080
:1020c00060c0b30006fa0700000420001e00600094
:1020d0000001780011c3b30050c0b30000fa07003c
:1020e000000820001e0060000001780031c2b3002b
:1020f00060c0b300faf90700001020001e00600065
:102100000001780021c2b30060c0b300f4f90700f9
:10211000002020001e0060000001780021c2b300f2
:1021200070c0b300eef90700004020001e00600000
:102130000001780021c2b30050c0b300e8f90700e5
:10214000008020001e0060000001780021c2b30062
:102150000040eb00e2f907000080fa0000000600f2
:102160000200fa00000f78009e0078006180600095
:102170000001780041c0b30070c0b300d8f9070077
:102180009e007800628060000001780021c1b300e9
:1021900070c0b300d2f907009e0078006480600030
:1021a0000001780021c1b30050c0b300ccf9070092
:1021b0009e007800688060000001780021c1b300b3
:1021c0000040eb00c6f907009e00780070806000b8
:1021d0000001780041c0b3000040eb00c0f90700e7
:1021e000000220001e0060000001780041c0b30022
:1021f00060c0b300baf90700000420001e006000b0
:102200000001780041c0b30050c0b300b4f907002a
:10221000000820001e0060000001780021c1b3000a
:1022200060c0b300aef90700001020001e0060007f
:102230000001780071c3b30060c0b300a8f90700c3
:10224000002020001e0060000001780071c3b30070
:1022500070c0b300a2f90700004020001e0060001b
:102260000001780071c3b30050c0b3009cf90700af
:10227000008020001e0060000001780071c3b300e0
:102280000040eb0096f907000080fa00000006000d
:102290000200fa00000f78009e0078006180600064
:1022a0000001780031c1b30070c0b3008cf90700a1
:1022b0009e007800628060000001780091c0b30049
:1022c00070c0b30086f907009e007800648060004b
:1022d0000001780091c0b30050c0b30080f907003e
:1022e0009e007800688060000001780091c0b30013
:1022f0000040eb007af907009e00780070806000d3
:102300000001780031c1b3000040eb0074f9070010
:10231000000220001e0060000001780031c1b300ff
:1023200060c0b3006ef90700000420001e006000ca
:102330000001780031c1b30050c0b30068f9070054
:10234000000820001e0060000001780091c0b3006a
:1023500060c0b30062f90700001020001e0060009a
:102360000001780081c0b30060c0b3005cf90700d1
:10237000002020001e0060000001780081c0b30032
:1023800070c0b30056f90700004020001e00600036
:102390000001780081c0b30050c0b30050f90700bd
:1023a000008020001e0060000001780081c0b300a2
:1023b0000040eb004af907000080fa000000060028
:1023c0000200fa00004f78001e80fb0061006000f0
:1023d0000001780071c3b30010c0b30040f90700da
:1023e0001e80fb00620060000001780071c3b30032
:1023f00020c0b3003af907001e80fb0064006000b3
:102400000001780071c3b30030c0b30034f9070095
:102410001e80fb00680060000001780071c3b300fb
:1024200040c0b3002ef907009e80fb000002200090
:10243000008060000001780041c0b30010c0b3000c
:1024400027f907009e80fb00000420000080600048
:102450000001780041c0b30020c0b30020f907009c
:102460001e80fb00700060000001780041c0b300d6
:1024700030c0b3001af907000080fa00000006001f
:102480000200fa00004f78001e80fb00610060002f
:102490000001780031c1b30010c0b30010f907008b
:1024a0001e80fb00620060000001780031c1b300b3
:1024b00020c0b3000af907001e80fb006400600022
:1024c0000001780031c1b30030c0b30004f9070047
:1024d0001e80fb00680060000001780031c1b3007d
:1024e00040c0b300fef807009e80fb000002200001
:1024f000008060000001780021c1b30010c0b3006b
:10250000f7f807009e80fb000004200000806000b8
:102510000001780021c1b30020c0b300f0f807002b
:102520001e80fb00700060000001780021c1b30034
:1025300030c0b300eaf807000080fa00000006008f
:102540000200fa00004f78001e80fb00610060006e
:102550000001780091c0b30010c0b300e0f807009c
:102560001e80fb00620060000001780091c0b30093
:1025700020c0b300daf807001e80fb006400600092
:102580000001780091c0b30030c0b300d4f8070058
:102590001e80fb00680060000001780091c0b3005d
:1025a00040c0b300cef807009e80fb000002200070
:1025b000008060000001780081c0b30010c0b3004b
:1025c000c7f807009e80fb00000420000080600028
:1025d0000001780081c0b30020c0b300c0f807003c
:1025e0001e80fb00700060000001780081c0b30015
:1025f00030c0b300baf807000080fa0000000600ff
:102600000200fa00004f78001e4078000004e0004d
:10261000050032000208200021c1b30040c0b30011
:10262000aff80700040037000001eb0021c1b30040
:1026300040c0b300aaf807000080fa0000000600be
:102640000200fa00004f78001e4078000004e0000d
:10265000050032000208200041c0b30040c0b300b2
:102660009ff80700040037000001eb0041c0b300f1
:1026700040c0b3009af807000080fa00000006008e
:102680000200fa00004f78001e4078000004e000cd
:10269000050032001200200031c2b30020c0b30098
:1026a0008ff80700040037000001eb0031c2b300cf
:1026b00020c0b3008af807000080fa00000006007e
:1026c0000200fa00004f78001e4078000004e0008d
:1026d000050032001200200081c0b30040c0b300ea
:1026e0007ff80700040037000001eb0081c0b30051
:1026f00040c0b3007af807000080fa00000006002e
:102700000200fa00004f7800114798001e80fb007d
:102710000000e00003003200e10f5000040032002e
:10272000060037001e409000b5ff07000300370089
:102730001e409000c2ff0700000000000080fa0069
:10274000000006000000fa000040eb00acff0700ac
:102750000040eb00baff07000080fa00000006000e
:102760000400fa00204798000040eb00004f78007a
:10277000070037001e80fb0021352800e14078006b
:102780002e40900080cf5000060032001e4fe8001f
:10279000a0c2b3009e40780080cf5000f5ff360005
:1027a0000100370000000000a0c2b3009e40780086
:1027b00080cf500004003e001e80fb00d13728006f
:1027c00061417800124798001e4090000080fa0096
:1027d000000006000600fa00404798000040eb00a9
:1027e000004f7800070037001e80fb00713a280078
:1027f000e14078004e40900080cf5000060032004b
:102800001e4fe800e0c3b3009e40780080cf500028
:10281000f5ff36000100370000000000e0c3b30000
:102820009e40780080cf500006003e001e80fb00d6
:1028300080004000603e280000804000900078004a
:10284000110798001e0090000080fa0000000600aa
:102850000000fa000040eb0081fb07000040eb00a5
:10286000bffb07000040eb00fdfb07000040eb0052
:102870006bfc07000040eb00a9fc07000040eb00e8
:10288000e7fc07000080fa00000006000200fa00e2
:10289000004f7800114798001e80fb00e20f5000a7
:1028a00014003200e20f500005003c000000e00080
:1028b0000a003200e10f50000b003200190037000f
:1028c000e50f500011003200e60f500012003200f8
:1028d000e40f50000a003200120037001e40900042
:1028e0005ffb07000f0037001e4090009cfb0700b5
:1028f0000c0037001e409000d9fb0700090037008c
:102900001e40900046fc0700060037001e40900065
:1029100083fc0700030037001e409000c0fc070046
:10292000000000000080fa00000006000400fa0029
:1029300020479800314798003e40900088ff0700ec
:10294000004f78002e4090000080fb00e30f500005
:102950001b003200e30f500007003c00e10f500065
:1029600011003200e10f500012003c000000e000b6
:102970000a00320021003700e50f50001600320037
:10298000e50f500011003500e60f50001500320031
:10299000e70f500016003200180037001e40780084
:1029a000fffa0700150037001e4078003cfb0700c7
:1029b000120037001e40780079fb07000f00370037
:1029c0001e407800b6fb07000c0037001e40780060
:1029d000e3fb0700090037001e40780020fc0700d9
:1029e000060037001e4078005dfc0700030037003a
:1029f0001e4078009afc0700000000000080fa00ea
:102a0000000006000400fa002047980031479800b3
:102a10003e40900052ff0700004f78002e4090008b
:102a20000080fb00e10f500007003200e20f500071
:102a3000080032000000e0000a003a001e40780062
:102a40005ffe0700080037001e4078008cfe07007c
:102a5000050037001e407800b9fe070000000000a6
:102a600001003700000000000080fa0000000600ae
:102a70000400fa0020479800314798003e4090003b
:102a800054ff0700000f78002e4090000080fb00ec
:102a9000e10f500007003200e20f50000800320042
:102aa0000000e0000a003a001e00780060fd070008
:102ab000080037001e007800a9fd07000500370058
:102ac0001e007800f2fd0700000000000100370042
:102ad000000000000080fa00000006000400fa0078
:102ae000100798000040eb00004f78000900370005
:102af0001e00900010407800804078001e40780052
:102b0000c0ff07001e0090000000e80010079800ba
:102b10001e4fe8001e009000104078000004e00006
:102b2000030032001e407800e24f5000f0ff3600f4
:102b30000080fa00000006000400fa001007980068
:102b40000040eb00004f7800090037001e009000a5
:102b500010407800804078001e407800c4ff0700d5
:102b60001e0090000000e800100798001e4fe800cb
:102b70001e009000104078000004e00003003200c6
:102b80001e407800e24f5000f0ff36000080fa004f
:102b9000000006000600fa00204798003147980020
:102ba000424798002e409000e14f50000c003e003c
:102bb0003e409000e34f50000b003e002e4090003e
:102bc00000404000804078003e40900000cf400030
:102bd000ce4090001e40780054ff070003003700ed
:102be0000000000001003700000000000080fa0033
:102bf000000006000400fa00100798000040eb00f7
:102c0000004f7800090037001e0090001040780047
:102c1000804078001e40780044ff07001e009000ae
:102c20000000e800100798001e4fe8001e0090000a
:102c3000104078000004e000030032001e407800dd
:102c4000e34f5000f0ff36000080fa00000006005d
:102c50000400fa00100798000040eb00004f7800d5
:102c6000090037001e009000904078001e41780057
:102c7000644041002dff07001e0090000000e800a6
:102c8000100798001e4fe8001e00900010407800ca
:102c90000004e000030032001e407800e34f5000c3
:102ca000f0ff36000080fa00000006000400fa0081
:102cb000100798000040eb00004f78000900370033
:102cc0001e00900010407800804078001e40780080
:102cd00016ff07001e0090000000e8001007980093
:102ce0001e4fe8001e009000104078000004e00035
:102cf000030032001e407800e74f5000f0ff36001e
:102d00000080fa00000006000000fa00a0438000e6
:102d1000802c8800b0438000902c8800c043800045
:102d2000a02c8800d0438000b02c8800e0438000b5
:102d3000c02c8800f0438000d02c88000044800024
:102d4000e02c880010448000f02c88002044800093
:102d5000002d880030448000102d88004044800001
:102d6000202d880050448000302d88006044800071
:102d7000402d880070448000502d880080448000e1
:102d8000602d880090448000702d8800a044800051
:102d9000802d8800b0448000902d8800c0448000c1
:102da000a02d8800d0448000b02d8800e044800031
:102db000c02d8800f0448000d02d880000458000a0
:102dc000e02d880010458000f02d8800204580000f
:102dd000002e880030458000102e8800404580007d
:102de000202e880050458000302e880060458000ed
:102df000402e880070458000502e8800804580005d
:102e0000602e880090458000702e88000080fa00b7
:102e1000000006000400fa00100798000040eb00d4
:102e2000004f7800070037001e80fb008000400044
:102e300040872000008040009e009000010878003c
:102e40001e4fe8001e407800ff4f5000f6ff36008e
:102e50000080fa00000006000000fa00212c80002b
:102e600070fe2f0000806000202c880085a5a9003e
:102e700084c5a90084a5a900202c80007000b3009f
:102e8000202c880081e5a800012c800070fc2f0018
:102e9000808060008002200001007000002c88000b
:102ea000012c8000c0ff2f00008060000010a000f7
:102eb000002c88008045a80086c5a900312c800020
:102ec00000ff2f00008060003000b300302c88002d
:102ed00083e5a800112c8000f07f2c00808060002a
:102ee0000080210001007000102c88008305a900db
:102ef0008325a9008345a900112c8000000c200027
:102f000001007000102c8800112c800000032000ac
:102f100001007000102c8800112c800080ff2f0011
:102f200000806000102c880000f12100402c8800f7
:102f3000c0002000502c8800c03c2c00602c880071
:102f400060c82f00702c88000080eb00b1ff0700e4
:102f50006dff07000080fa00000006000000fa0084
:102f60000080fa00000006000000fa000080fa006d
:102f7000000006000000fa00801780000040a10059
:102f800080178800a01780000040a000a0178800cc
:102f90000080fa00000006000000fa00aeff070003
:102fa00085e5a800a7070700be0707000080fa0014
:102fb000000006000600fa0010079800414798003c
:102fc0001e00900020009000000001001e009000f4
:102fd00070009000000001001e009000d0089000da
:102fe0004e40900001000100004f7800a00020003a
:102ff000c40707001e0090000008900000000100b8
:1030000020002000bf0707001e4078000080fa0063
:10301000000006000600fa00200798000000eb0000
:10302000100798000040eb00004f78002e00900041
:103030002000900000000100a0002000b107070060
:103040002e00900070009000000001002e00900003
:10305000d008900020c1b300010001005000200002
:10306000a80707002e009000d008900000c0eb00d9
:1030700001000100004f78001e80fb00100798003f
:103080001e0090004800dd0010079800500020004e
:103090009c0707002e009000d008900000c0eb00b5
:1030a00001000100004f78009e80fb001e00900090
:1030b0000100700010079800a00020009107070091
:1030c0002e00900000089000000001002000200069
:1030d0008c0707001e0090000080fa000000060028
:1030e0000a00fa001007980041479800320798003c
:1030f000034f98000e4890000004e0002e003200bc
:103100001e00900020009000000001001e009000b2
:10311000700090000000010000c4b3001047980048
:103120004e409000ef4060001e40900000c07000d4
:10313000104798001e009000d00890001e4090009c
:10314000010001001e009000d00890000e48900081
:103150000040e900010001000040eb00004f780052
:10316000090037001e009000d00890003e0090003b
:1031700010407800010001003e0090000000e800cf
:10318000300798001e4fe8000e4890009e407800df
:1031900080cf5000f3ff3900a0002000590707003e
:1031a0001e00900000089000000001002000200098
:1031b0005407070001003700000000000080fa00fb
:1031c000000006000c00fa002007980061479800f4
:1031d00042079800234f98002e4890000004e0001a
:1031e000310032002e00900020009000000001000d
:1031f0002e009000700090000000010000c2b3009b
:10320000104798006e409000ef4060001e40900014
:1032100000c07000104798002e009000d008900069
:103220001e40900001000100204798002e009000f1
:10323000d00890002e4890000040e90001000100f5
:10324000204798000040eb00004f78000a0037004c
:103250002e009000d008900000c0eb00010001009b
:10326000ce009000804878004e0090000000e800fa
:10327000400798001e4fe8002e4890009e407800be
:1032800080cf5000f2ff3900a00020001d0707008a
:103290002e00900000089000000001002000200097
:1032a0001807070001003700000000000080fa0046
:1032b000000006000200fa00000f78001e007800ef
:1032c00020009000000001001e00780070009000b7
:1032d000000001001e007800d008900000c6b30076
:1032e00001000100c01220001f0707001e00780027
:1032f00000089000000001002000200001070700e6
:103300000080fa00000006000600fa00100798008e
:10331000414798005247980013c0b3000e0178004f
:103320008040eb001e009000a6ff07004e4090007a
:1033300067406000e7406000300020000008dd00ca
:103340001e41780071ccb3008140610000c0700064
:10335000004f78005e40900067406000674060006a
:103360001e41780081cfb3008140610000c0700031
:10337000004f78009e4078001e0090004158980051
:1033800013c0b3000e0178008040eb001e009000d7
:1033900053ff07000080fa00000006000600fa0054
:1033a000100798004147980013c0b3000e01780041
:1033b0008040eb001e00900082ff07004e4090000e
:1033c000e3406000600020000008dd009e407800bf
:1033d000f143b20000c07000004f78009e407800ba
:1033e0001e0090004158980013c0b3000e017800f1
:1033f0008040eb001e00900039ff07000080fa00bb
:10340000000006000600fa001007980041479800e7
:10341000ce409000014f780013c0b3000e01780039
:1034200011c0b3001e0090002dff07000080fa00bd
:10343000000006000600fa001007980041479800b7
:1034400013c0b3000e01780021c0b3001e0090002d
:103450005cff07004e409000e34f50000200360032
:1034600030c0b300404798004e409000e14f5000fc
:1034700005003e009e407800f0c9b30000c0600027
:10348000004f7800050037009e407800f0c9b30077
:1034900000c060000054a000004f78004e40900033
:1034a00063406000e3406000300020000008dd0061
:1034b0001e41780071ceb3008140610000c07000f1
:1034c000004f780013c0b3000e01780021c0b30094
:1034d0001e00900002ff07000080fa0000000600b6
:1034e0000600fa00100798004147980013c0b30087
:1034f0000e01780021c0b3001e00900031ff0700cc
:103500004e409000e74f50000200360070c0b300fc
:10351000404798004e409000674060006740600060
:103520001e41780081cfb3008140610000c070006f
:10353000004f780013c0b3000e01780021c0b30023
:103540001e009000e6fe07000080fa000000060062
:103550000600fa00100798004147980013c0b30016
:103560000e01780031c0b3001e00900015ff070067
:103570004e4090006f4060006f4060001e41780038
:1035800001cfb3008140610000c07000004f78009f
:1035900013c0b3000e01780031c0b3001e009000cc
:1035a000cffe07000080fa00000006000600fa00c7
:1035b000100798004147980013c0b3000e0178002f
:1035c00031c0b3001e009000fefe07004e40900088
:1035d00067406000e7406000400020000008dd0018
:1035e0001e417800f1c8b3008140610000c0700046
:1035f000004f780013c0b3000e01780031c0b30053
:103600001e009000b6fe07000080fa0000000600d1
:103610000600fa00100798004147980013c0b30055
:103620000e017800a1c0b3001e009000e5fe070067
:103630004e40900067406000674060001e41780087
:1036400081cfb3008140610000c07000004f78005e
:1036500013c0b3000e017800a1c0b3001e0090009b
:103660009ffe07000080fa00000006000600fa0036
:10367000100798004147980013c0b3000e0178006e
:10368000a1c0b3001e009000cefe07004e40900087
:1036900061406000e1406000300020000008dd0073
:1036a0009e4078000134a10000c07000004f7800f7
:1036b00013c0b3000e017800a1c0b3001e0090003b
:1036c00087fe07000080fa00000006000600fa00ee
:1036d000100798004147980013c0b3000e0178000e
:1036e000b1c0b3001e009000b6fe07004e4090002f
:1036f000ef406000400020000008dd009e407800a0
:10370000efc0600000c07000004f780013c0b3002d
:103710000e017800b1c0b3001e00900070fe0700db
:103720000080fa00000006000600fa00100798006a
:103730004147980013c0b3000e017800b1c0b30038
:103740001e0090009ffe07004e4090006f406000fa
:103750006f4060001e41780001cfb30081406100de
:1037600000c07000004f780013c0b3000e01780055
:10377000b1c0b3001e00900059fe07000080fa009f
:10378000000006000600fa00100798004147980064
:103790005247980013c0b3000e017800b1c0b300c7
:1037a0001e00900087fe07005e4090006f406000a2
:1037b0006f4060001e41780001cfb300814061007e
:1037c00000c07000004f78004e409000ef40600055
:1037d000400020000008dd009e407800efc060003f
:1037e00000c07000004f780013c0b3000e017800d5
:1037f000b1c0b3001e00900039fe07000080fa003f
:10380000000006000200fa00000f78009e00780019
:103810007c804000e3c0b300000178008040eb00f2
:103820001e00780067fe07000080fa000000060016
:103830000000fa00008420008040eb00014878007e
:10384000e0e12100b0408800a0e22100a040880013
:1038500000e82100e0408800c0e82100d040880056
:10386000a0e52100c0408800a0ef210000418800b1
:1038700060f02100f040880000f321001041880032
:10388000c0f321002041880000ec21004041880065
:1038900000042200804088008008220050418800f7
:1038a0000080fa00000006000000fa0020872000d7
:1038b00011c0b30001487800e0e1210040428800d7
:1038c000a0e221003042880000e821007042880018
:1038d000c0e8210060428800a0e521005042880035
:1038e00000f9210090428800c0f921008042880040
:1038f00080fd2100a042880040fe2100b0428800e7
:10390000c0f62100d0428800400622001042880004
:1039100080082200e04288000080fa0000000600d3
:103920000400fa00100798001e009000200090008c
:10393000000001001e0090007000900000000100d7
:103940001e009000d008900070c0b300010001007c
:10395000004f780010002000830507001e00900033
:10396000d008900050c0b30001000100004f780063
:10397000100020007c0507001e009000d008900079
:1039800050c0b30001000100004f7800100020007b
:10399000750507001e00900000089000000001005f
:1039a00020002000570507000080fa0000000600f4
:1039b0000400fa00100798001e0090001000780024
:1039c0000000010071c0b3001e00900079fd0700e7
:1039d000a00020006405070031c0b3001e00900065
:1039e0006efe070021c0b3001e00900091fe07008c
:1039f00091c0b3001e009000d5fe070021c0b300a7
:103a00001e009000b6fe07008040eb001e009000f4
:103a1000e6fe07001e0090007aff07001e009000df
:103a20002e00070050002000360507001e00900001
:103a3000380007001e0090002f0007001e009000b5
:103a400074fd0700000f7800e00120004605070024
:103a50001e0090006bff0700000000000000000047
:103a60000080fa00000006000000fa0070ff070066
:103a70008dff07000080fa00000006000000fa0039
:103a80006bff070088ff07008040800000000100f6
:103a900071c0b3000081200046fd0700a000200097
:103aa000310507000081200056ff0700104280000a
:103ab0000000010071c0b300208420003dfd07001c
:103ac000a000200028050700208420004dff0700eb
:103ad000000000000080fa00000006000200fa006a
:103ae000000f78001e007800100890000000010010
:103af0000080fa00000006000200fa00000f7800c3
:103b00001e00780020089000000001000080fa00ec
:103b1000000006000200fa00000f780001003700e4
:103b2000000000001e007800400890000000010026
:103b30000000e000faff3200010037000000000042
:103b40001e00780040089000000001000000e00026
:103b5000faff3a0000000000000000000000000032
:103b6000000000000080fa00000006000e00fa00cd
:103b7000008120008eff0700208420008cff0700ba
:103b800061c0b3000081200055fe070000812000c5
:103b9000d2ff070050002000da04070035040700b8
:103ba00010079800210798006000b800500798009f
:103bb0006107980000812000d6ff070000812000e7
:103bc00014fd0700000f7800000000000000000056
:103bd000280407000001be001e009000ae00900007
:103be000000051008180590030079800410798007b
:103bf0005e009000ee00900061004000e080480010
:103c00005007980061079800eaff37000000fa00ab
:103c10003027800000a0a10030278800c016800057
:103c200000a0a100c0168800e016800000a0a1003e
:103c3000e01688000080fa00000006000000fa008c
:103c4000e016800000a0a000e01688000080fa00c6
:103c5000000006000000fa00e016800000a0a100ad
:103c6000e01688000080fa00000006000000fa005c
:103c70003027800000a0a10030278800c0168000f7
:103c800000a0a000c01688000080fa000000060016
:103c90000000fa00302780000080a1003027880053
:103ca000c01680000080a000c01688000080fa00c6
:103cb000000006000200fa00d1168000001020006b
:103cc000008f60001e0078000080fa0000000600ef
:103cd0000000fa00302780000090a1003027880003
:103ce000c01680000090a100c0168800e016800079
:103cf0000090a000e01688000080fa000000060096
:103d00000000fa00e01680000090a000e016880095
:103d10000080fa00000006000000fa00e0168000b3
:103d20000090a100e01688000080fa000000060064
:103d30000000fa00302780000090a10030278800a2
:103d4000c01680000090a000c01688000080fa0015
:103d5000000006000000fa0001278000f0ff2700a5
:103d60000080600000278800011680000000280005
:103d700001007000001688000080fa0000000600b4
:103d80000200fa001116800000002800008f600079
:103d9000000000001e0078000080fa00000006000d
:103da0000000fa000027800000e0a1000027880042
:103db0000016800000e0a100001688002016800098
:103dc00000e0a000201688000080fa000000060035
:103dd0000000fa000027800000e0a1000027880012
:103de0000016800000e0a000001688000080fa00a5
:103df000000006000000fa002016800000e0a0008d
:103e0000201688000080fa00000006000000fa007a
:103e1000201680000030a0002016880020168000a8
:103e200000e0a100201688000080fa0000000600d3
:103e30000000fa00002780000050a1000027880041
:103e4000001680000050a100001688002016800097
:103e50000050a000201688000080fa000000060034
:103e60000000fa00201680000050a00020168800f4
:103e70000080fa00000006000000fa002016800012
:103e80000050a100201688000080fa000000060003
:103e90000000fa00002780000050a10000278800e1
:103ea000001680000050a000001688000080fa0074
:103eb000000006000000fa00002780000040a1007a
:103ec00000278800001680000040a000001688002f
:103ed0000080fa00000006000200fa0010168000c0
:103ee000700f60001e0078000080fa0000000600dd
:103ef0000000fa00002780000030a10000278800a1
:103f0000001680000030a1000016880020168000f6
:103f10000030a000201688000080fa000000060093
:103f20000000fa00201680000030a0002016880053
:103f30000080fa00000006000000fa002016800051
:103f400000e0a00020168800201680000030a100ac
:103f5000201688000080fa00000006000000fa0029
:103f6000002780000030a100002788000016800094
:103f70000030a000001688000080fa000000060053
:103f80000000fa00002780000020a1000027880020
:103f9000001680000020a100001688002016800076
:103fa0000020a000201688000080fa000000060013
:103fb0000000fa00201680000020a00020168800d3
:103fc0000080fa00000006000000fa0020168000c1
:103fd0000020a100201688000080fa0000000600e2
:103fe0000000fa00002780000020a10000278800c0
:103ff000001680000020a000001688000080fa0053
:10400000000006000000fa003027800000a0a10098
:1040100030278800302780000080a10030278800ea
:10402000302780000090a100302788000127800001
:10403000f0ff270000806000002788000027800034
:1040400000e0a10000278800002780000050a100a8
:1040500000278800002780000040a100002788007a
:10406000002780000030a100002788000027800082
:104070000020a100002788000080fa000000060050
:104080000000fa00e1fe070001ff070010ff070033
:1040900043ff070066ff07002eff07000080fa00bd
:1040a000000006000000fa00f0fe0700f8fe07001e
:1040b0001fff070046ff070075ff070025ff0700e9
:1040c0000080fa00000006000000fa00cffe0700a2
:1040d000effe0700fefe070085ff0700a8ff0700b0
:1040e00074ff07000080fa00000006000000fa00dc
:1040f000defe0700e6fe07000dff070097ff070042
:10410000b7ff07006bff07000080fa000000060001
:104110000400fa00204798000040eb001047980088
:104120000040eb00004f78001e0037000000000048
:1041300000000000000000001e4090000040400011
:1041400010479800bdfe0700dafe07000000e000ff
:10415000030032001e4090000004a00010479800a9
:104160000000000000000000000000002e40900051
:104170000004e00002003d00e1fe070001003700fe
:10418000e5fe07002e4090000040400020479800c8
:10419000000000000000000000000000adfe07006d
:1041a0001e4fe8001e407800e74f5000dfff36004a
:1041b000a8fe07001e4090000080fa0000000600e4
:1041c0000000fa00602780000090a10060278800ae
:1041d000801780000090a10080178800a017800041
:1041e0000090a000a01788000080fa0000000600e0
:1041f0000000fa00602780000090a100602788007e
:10420000801780000090a10080178800a017800010
:104210000090a100a01788000080fa0000000600ae
:104220000000fa0050052000303b8800a00a200062
:10423000303b880027a6a80027e6a9001c0007003d
:104240000004a2000004e0000c00320031318000c4
:104250000030200001007000303188007001200023
:1042600020318800501021002031880040012000ba
:104270002031880020052000203188002826ef000a
:1042800027e6a80027a6a9009bc0a8000080fa0086
:10429000000006000200fa00004f78001e4178007e
:1042a000c1802000824878000080fa0000000600eb
:1042b0000000fa000cc8bf000080fa0000000600f1
:1042c0000400fa001007980032318000000021003d
:1042d000000061000000e000020032000040eb003e
:1042e0004e00370051052000313b8800a10a200014
:1042f000313b880027a6a800313180000030200023
:10430000010070003031880021318000010f7800f9
:104310001e00780000407800140107008080fb0038
:104320001e0090005100980031318000f0cf2f0026
:10433000008060000090a0003031880021318000b2
:10434000010f78001e0078004800de000040780071
:10435000060107008080fb001e00900041009800cd
:104360001e00780000407800000107008080fb00fc
:104370001e0090003100980031318000f0cf2f00f6
:10438000008060000080a000303188002131800072
:10439000010f78001e0078004800de000040780021
:1043a000f20007008080fb001e0090006100980072
:1043b0001e00780000407800ec0007008080fb00c1
:1043c0001e0090002100980031318000f0cf2f00b6
:1043d000008060003031880021318000010f7800ba
:1043e0001e0078004800de0000407800df00070073
:1043f0008080fb001e009000110098001e007800d5
:1044000000407800d90007008080fb001e0090006b
:104410000108780027a6a90010c0b3000080fa00a8
:10442000000006000200fa00881f7800000f7800e4
:1044300051052000313b8800a10a2000313b880053
:1044400027a6a80027e6a9008bc0a9009bc0a90049
:1044500031318000003020000100700030318800d0
:104460001e0078005000900000407800a700070070
:104470000080fb00203188001e0078004000900082
:1044800000407800a10007000080fb004804dd0028
:104490001e00780030009000004078009b0007006c
:1044a0000080fb0008007000203188001e007800aa
:1044b0006000900000407800940007000080fb003e
:1044c0004804dd001e0078002000900000407800c5
:1044d0008e0007000080fb0008007000203188007b
:1044e0001e00780010009000004078008700070050
:1044f0000080fb004804dd001e00780010007800fa
:1045000000407800810007000080fb000800700078
:104510002031880027e6a80027a6a9009bc0a80094
:104520004f0478000080fa00000006000400fa0042
:104530001007980032318000000021000000610067
:104540000000e000020032000040eb0042003700b3
:1045500051052000313b8800a10a2000313b880032
:1045600027a6a80031318000003020000100700033
:104570003031880021318000010f78009e007800e2
:104580001e0090005100980031318000f0cf2f00c4
:10459000008060000090a000303188002131800050
:1045a000010f78001e0078004800de0080007800cf
:1045b0001e009000410098009e007800f00f20003f
:1045c000808060001e009000310098003131800032
:1045d000f0cf2f00008060000080a0003031880004
:1045e00021318000010f78001e0078004800de00b5
:1045f000800078001e009000610098009e00780006
:10460000f00f2000808060001e00900021009800c4
:1046100031318000f0cf2f00008060003031880001
:1046200021318000010f78001e0078004800de0074
:10463000800078001e009000110098009e00780015
:10464000f00f2000808060001e00900001087800bc
:1046500027a6a90010c0b3000080fa0000000600e1
:104660000200fa00000f780051052000313b88005d
:10467000a10a2000313b880027a6a80027e6a90050
:104680008bc0a9009bc0a900313180000030200000
:1046900001007000303188001e007800500090004a
:1046a000203188001e00780040009000c800dd0026
:1046b0001e0078003000900001007000203188005a
:1046c0001e00780060009000c800dd001e00780029
:1046d0002000900001007000203188001e0078004a
:1046e00010009000c800dd001e0078001000780067
:1046f000010070002031880027e6a80027a6a90045
:104700009bc0a8000080fa00000006000400fa0028
:10471000204798002e4090008080fb00a0002000e1
:1047200000017800110009008280d80080407800e4
:10473000400020000008dd00004f78002e4090006f
:104740008080fb00a000200000017800110009001b
:104750008280d8008000fd00004078001e4f70006d
:104760001e4078000080fa00000006000400fa00f5
:10477000204798002e4090000080fb004400de009f
:10478000004078006a00b90000007800804078009e
:104790002e4090006f40600000cf40001e40780027
:1047a0000080fa00000006000000fa008bc0a9009b
:1047b0000080fa00004006000000fa000621ef0029
:1047c0000036200060088800000228008008880069
:1047d00084e0a90094e0a800408b20008040eb001a
:1047e000014878000080fa00000006003600f8005a
:1047f000809fbe00829fbe00849fbe00869fbe0039
:104800000000fa0040010700508b200010407800a3
:104810008040e800508b200001487800408b200049
:1048200011c0b3000148780084e0a9000080fa00bc
:104830004f03be004f02be004f01be004f00be003e
:104840003600f900004006000200fa00000f780070
:104850009e00780061088800408b20008040eb00bb
:10486000014878000080fa00000006000000fa000d
:10487000600880000080fa00000006000200fa00d4
:10488000000f78009e00780031088800408b2000df
:104890008040eb00014878000080fa00000006002c
:1048a0000000fa00300880000080fa0000000600d6
:1048b0000000fa000080fa00000006000000fa0084
:1048c000408b20008040eb000148780094e0a80075
:1048d00011e1a8000080fa00000006000000fa00c4
:1048e00011e1a90094e0a9000080fa000000060090
:1048f0000200fa00408b2000104f78001e40780024
:104900000004e00003003200408b20008040eb00f8
:10491000014878001e4078000080fa000000060080
:104920000000fa00508b2000104078000080fb004f
:104930000080fa00000006000000fa00508b200002
:104940008040eb00014878000080fa00000006007b
:104950000000fa000021ef00402b20001008880022
:1049600000012800200888008460a9009460a80045
:10497000608b20008040eb00014878000080fa0046
:10498000000006003600f800809fbe00829fbe0037
:10499000849fbe00869fbe000000fa00a5000700ad
:1049a000708b2000104078008040e800708b200061
:1049b00001487800608b200011c0b30001487800e6
:1049c0008460a9000080fa004f03be004f02be00c1
:1049d0004f01be004f00be003600f9000040060047
:1049e0000200fa00000f78009e007800110888008d
:1049f000608b20008040eb00014878000080fa00c6
:104a0000000006000000fa00100880000080fa0094
:104a1000000006000200fa00000f78009e007800f7
:104a200001088800608b20008040eb00014878007e
:104a30000080fa00000006000000fa000008800074
:104a40000080fa00000006000000fa000080fa0072
:104a5000000006000000fa00608b20008040eb00a0
:104a6000014878009460a80005e1a8000080fa00e1
:104a7000000006000000fa0005e1a9009460a9000a
:104a80000080fa00000006000200fa00608b20009f
:104a9000104f78001e4078000004e0000300320050
:104aa000608b20008040eb00014878001e407800b9
:104ab0000080fa00000006000000fa00708b200061
:104ac000104078000080fb000080fa000000060023
:104ad0000000fa00708b20008040eb000148780055
:104ae0000080fa00000006000000fa009e000700a7
:104af0005b01070036010700c9fd07000080fa00ce
:104b0000000006000600fa006000b80010079800d8
:104b1000210798000040eb00004f78000040eb00b8
:104b200010479800210107001bf907000000eb0067
:104b3000b8f80700204628005cf80700b0462800b7
:104b4000e6f70700b0462800fbf707006ef80700fd
:104b500000000000c4fb07000000000003fc070089
:104b60000040eb00504798001e80fb0021352800d4
:104b700061407800204798001e80fb002135280006
:104b800061407800304798001e80fb0021352800e6
:104b900061407800404798000e80e800cff707009a
:104ba0001e4090000080fb00713a280061407800b0
:104bb000204798001e4090000080fb00713a2800ba
:104bc00061407800304798001e4090000080fb0054
:104bd000713a280061407800404798000e80e80054
:104be000d5f707001e4fe8001e4090000040e80087
:104bf0001047980090c2b3009e40780080cf5000cc
:104c0000020036000040eb00004f78009e4090000c
:104c1000d0c3b30080cf5000020036000040eb004c
:104c20001047980038f80700c0122000ce00070097
:104c3000cbff37000000fa000040800011408000e8
:104c400061004000e080480000408800114088007a
:104c50000080fa00000006000400fa00008fbe0089
:104c60001e01be0002408800134088000080fa0048
:104c7000000006000000fa000040800011408000a3
:104c80000080fa00000006000a00fa0040079800c1
:104c90006000b800008fbe006000b80020079800d8
:104ca00031079800f3ff0700008fbe001e00be0012
:104cb000e00f5000e08f580004003d006000b80095
:104cc000e5ff07006000b800008fbe004e009000b6
:104cd0008000eb001e0f40005e9748000300370085
:104ce000e4ff070020079800310798002e0090008d
:104cf000be009000be0f5000ae8f5800f8ff390084
:104d00000080fa00000006000000fa004040800029
:104d10005140800061004000e08048004040880031
:104d200051408800704080000010a0007040880052
:104d30000080fa00000006000000fa0040408000f9
:104d4000514080000080fa00000006000400fa00d4
:104d5000008fbe001e01be00424088005340880004
:104d60000080fa00000006000000fa00c422ef00f4
:104d7000cc22ef00d422ef00dc22ef00e422ef008f
:104d8000ec22ef00f422ef00f06f2c0000168800f8
:104d90000080eb0040168800e001290080168800a2
:104da0000080eb00c0168800f03f2000001788004c
:104db000f01f230040178800f03c2f008017880068
:104dc0005620ef005820ef005a20ef005c20ef0043
:104dd0005e20ef006020ef006e20ef007020ef00fb
:104de0007220ef007420ef007620ef007820ef00b3
:104df000c622ef00ce22ef00d622ef00de22ef0027
:104e0000e622ef00ee22ef00f622ef00002c200059
:104e100000278800f0fc2f001027880000012000e8
:104e20002027880000cc200030278800002f200099
:104e300040278800003c2000602788000080fa009e
:104e4000000006000000fa00602780000090a1002a
:104e500060278800801780000090a10080178800dc
:104e6000a01780000090a100a01788000080fa0021
:104e7000000006000000fa00602780000090a100fa
:104e800060278800801780000090a10080178800ac
:104e9000a01780000090a000a01788000080fa00f2
:104ea000000006000000fa001027800000b0a100fa
:104eb000102788004016800000b0a100401688002e
:104ec0006016800000b0a000601688000080fa0024
:104ed000000006000000fa001027800000b0a100ca
:104ee000102788004016800000b0a10040168800fe
:104ef0006016800000b0a100601688000080fa00f3
:104f0000000006000200fa00000f7800007d20007b
:104f10009e007800808f50000e003600007d20003b
:104f2000000f78000b0037001e0fe90000000000a2
:104f30000000000000000000000000000000000071
:104f40000000000000000000000000000000000061
:104f5000000000001e0078000000e000f2ff3a00b0
:104f60000080fa00000006000200fa00000f78003e
:104f7000005327009e007800808f50000600360006
:104f800000532700000f7800030037001e0fe900d0
:104f9000803e2000dbff07001e0078000000e000dc
:104fa000faff3a000080fa00000006000000fa0054
:104fb0006dff07002a00070005000700fefd07003f
:104fc00097fc070062fe07000080fa000000060060
:104fd0000000fa002200200060042000710520007b
:104fe0002374200080497800814978008249780044
:104ff00000102300203a88004827ef004e27ef00da
:085000000080fa000000060028
:020000040000fa
:105008000c0800000200000080000000b408000046
:105018000200000080000000b60800000200000046
:10502800800000000e080000020000008000000060
:105038007408000040000000800000001008000014
:105048006400000080000000000800000c00000060
:085058008000000000000000d0
:020000040000fa
:105060000000fa0011068000f08f2f000080600021
:105070000080a0001006880031058000f0ff2800a5
:105080000080600000c0a00030058800210580007d
:10509000f0ff28000080600000c0a000200588000c
:0850a0000080fa000000060088
:020000040000fa
:020000040002f8
:04aff000ffff00005f
:020000040000fa
:020000040002f8
:04aff400ffff00005b
:020000040000fa
:020000040002f8
:04aff8003efa00001d
:020000040000fa
:020000040002f8
:04affc00033d000011
:00000001FF
