:020000040000fa
:080000000002040000000000f2
:020000040000fa
:04000800740300007d
:020000040000fa
:04000c007403000079
:020000040000fa
:040010007403000075
:020000040000fa
:040014007403000071
:020000040000fa
:04001800740300006d
:020000040000fa
:04001c007403000069
:020000040000fa
:040020007403000065
:020000040000fa
:040024007403000061
:020000040000fa
:04002800740300005d
:020000040000fa
:04002c007403000059
:020000040000fa
:040030007403000055
:020000040000fa
:04003400888b0000b5
:020000040000fa
:04003800740300004d
:020000040000fa
:04003c007403000049
:020000040000fa
:040040007403000045
:020000040000fa
:04004400028d000029
:020000040000fa
:04004800740300003d
:020000040000fa
:04004c007403000039
:020000040000fa
:040050007403000035
:020000040000fa
:040054007403000031
:020000040000fa
:04005800740300002d
:020000040000fa
:04005c007403000029
:020000040000fa
:040060007403000025
:020000040000fa
:040064007403000021
:020000040000fa
:04006800740300001d
:020000040000fa
:04006c007403000019
:020000040000fa
:040070007403000015
:020000040000fa
:04007400589100009f
:020000040000fa
:04007800740300000d
:020000040000fa
:04007c007403000009
:020000040000fa
:040080007403000005
:020000040000fa
:040084007403000001
:020000040000fa
:0400880074030000fd
:020000040000fa
:04008c0074030000f9
:020000040000fa
:0400900074030000f5
:020000040000fa
:0400940074030000f1
:020000040000fa
:0400980074030000ed
:020000040000fa
:04009c0074030000e9
:020000040000fa
:0400a00074030000e5
:020000040000fa
:0400a40074030000e1
:020000040000fa
:0400a80074030000dd
:020000040000fa
:0400ac0074030000d9
:020000040000fa
:0400b00074030000d5
:020000040000fa
:0400b40074030000d1
:020000040000fa
:0400b80074030000cd
:020000040000fa
:0400bc0074030000c9
:020000040000fa
:0400c00074030000c5
:020000040000fa
:0400c40074030000c1
:020000040000fa
:0400c80074030000bd
:020000040000fa
:0400cc0074030000b9
:020000040000fa
:0400d00074030000b5
:020000040000fa
:0400d40074030000b1
:020000040000fa
:0400d80074030000ad
:020000040000fa
:0400dc0074030000a9
:020000040000fa
:0400e00074030000a5
:020000040000fa
:0400e40074030000a1
:020000040000fa
:0400e800740300009d
:020000040000fa
:0400ec007403000099
:020000040000fa
:0400f0007403000095
:020000040000fa
:0400f4007403000091
:020000040000fa
:0400f800740300008d
:020000040000fa
:0400fc007403000089
:020000040000fa
:040100007403000084
:020000040000fa
:040104007403000080
:020000040000fa
:04010800740300007c
:020000040000fa
:04010c007403000078
:020000040000fa
:040110007403000074
:020000040000fa
:040114007403000070
:020000040000fa
:04011800740300006c
:020000040000fa
:04011c007403000068
:020000040000fa
:040120006c840000eb
:020000040000fa
:040124007403000060
:020000040000fa
:04012800740300005c
:020000040000fa
:04012c007403000058
:020000040000fa
:040130007403000054
:020000040000fa
:040134007403000050
:020000040000fa
:04013800740300004c
:020000040000fa
:04013c007403000048
:020000040000fa
:040140007403000044
:020000040000fa
:040144007403000040
:020000040000fa
:04014800740300003c
:020000040000fa
:04014c007403000038
:020000040000fa
:040150007403000034
:020000040000fa
:040154007403000030
:020000040000fa
:04015800740300002c
:020000040000fa
:04015c007403000028
:020000040000fa
:040160007403000024
:020000040000fa
:040164007403000020
:020000040000fa
:04016800740300001c
:020000040000fa
:04016c007403000018
:020000040000fa
:040170007403000014
:020000040000fa
:040174007403000010
:020000040000fa
:04017800740300000c
:020000040000fa
:04017c007403000008
:020000040000fa
:040180007403000004
:020000040000fa
:040184007403000000
:020000040000fa
:0401880074030000fc
:020000040000fa
:04018c0074030000f8
:020000040000fa
:0401900074030000f4
:020000040000fa
:0401940074030000f0
:020000040000fa
:0401980074030000ec
:020000040000fa
:04019c0074030000e8
:020000040000fa
:0401a00074030000e4
:020000040000fa
:0401a40074030000e0
:020000040000fa
:0401a80074030000dc
:020000040000fa
:0401ac0074030000d8
:020000040000fa
:0401b00074030000d4
:020000040000fa
:0401b40074030000d0
:020000040000fa
:0401b80074030000cc
:020000040000fa
:0401bc0074030000c8
:020000040000fa
:0401c00074030000c4
:020000040000fa
:0401c40074030000c0
:020000040000fa
:0401c80074030000bc
:020000040000fa
:0401cc0074030000b8
:020000040000fa
:0401d00074030000b4
:020000040000fa
:0401d40074030000b0
:020000040000fa
:0401d80074030000ac
:020000040000fa
:0401dc0074030000a8
:020000040000fa
:0401e00074030000a4
:020000040000fa
:0401e40074030000a0
:020000040000fa
:0401e800740300009c
:020000040000fa
:0401ec007403000098
:020000040000fa
:0401f0007403000094
:020000040000fa
:0401f4007403000090
:020000040000fa
:0401f800740300008c
:020000040000fa
:0401fc007403000088
:020000040000fa
:04020800740300007b
:020000040000fa
:04020c007403000077
:020000040000fa
:040210007403000073
:020000040000fa
:04021400740300006f
:020000040000fa
:04021800740300006b
:020000040000fa
:04021c007403000067
:020000040000fa
:040220007403000063
:020000040000fa
:04022400740300005f
:020000040000fa
:04022800740300005b
:020000040000fa
:04022c007403000057
:020000040000fa
:040230007403000053
:020000040000fa
:04023400740300004f
:020000040000fa
:04023800740300004b
:020000040000fa
:04023c007403000047
:020000040000fa
:040240007403000043
:020000040000fa
:04024400740300003f
:020000040000fa
:04024800740300003b
:020000040000fa
:04024c007403000037
:020000040000fa
:040250007403000033
:020000040000fa
:04025400740300002f
:020000040000fa
:04025800740300002b
:020000040000fa
:04025c007403000027
:020000040000fa
:040260007403000023
:020000040000fa
:04026400740300001f
:020000040000fa
:04026800740300001b
:020000040000fa
:04026c007403000017
:020000040000fa
:040270007403000013
:020000040000fa
:04027400740300000f
:020000040000fa
:04027800740300000b
:020000040000fa
:04027c007403000007
:020000040000fa
:040280007403000003
:020000040000fa
:0402840074030000ff
:020000040000fa
:0402880074030000fb
:020000040000fa
:04028c0074030000f7
:020000040000fa
:0402900074030000f3
:020000040000fa
:0402940074030000ef
:020000040000fa
:0402980074030000eb
:020000040000fa
:04029c0074030000e7
:020000040000fa
:0402a00074030000e3
:020000040000fa
:0402a40074030000df
:020000040000fa
:0402a80074030000db
:020000040000fa
:0402ac0074030000d7
:020000040000fa
:0402b00074030000d3
:020000040000fa
:0402b40074030000cf
:020000040000fa
:0402b80074030000cb
:020000040000fa
:0402bc0074030000c7
:020000040000fa
:0402c00074030000c3
:020000040000fa
:0402c40074030000bf
:020000040000fa
:0402c80074030000bb
:020000040000fa
:0402cc0074030000b7
:020000040000fa
:0402d00074030000b3
:020000040000fa
:0402d40074030000af
:020000040000fa
:0402d80074030000ab
:020000040000fa
:0402dc0074030000a7
:020000040000fa
:0402e00074030000a3
:020000040000fa
:0402e400740300009f
:020000040000fa
:0402e800740300009b
:020000040000fa
:0402ec007403000097
:020000040000fa
:0402f0007403000093
:020000040000fa
:0402f400740300008f
:020000040000fa
:0402f800740300008b
:020000040000fa
:0402fc007403000087
:020000040000fa
:040300007403000082
:020000040000fa
:04030400740300007e
:020000040000fa
:04030800740300007a
:020000040000fa
:04030c007403000076
:020000040000fa
:040310007403000072
:020000040000fa
:04031400740300006e
:020000040000fa
:04031800740300006a
:020000040000fa
:04031c007403000066
:020000040000fa
:040320007403000062
:020000040000fa
:04032400740300005e
:020000040000fa
:04032800740300005a
:020000040000fa
:04032c007403000056
:020000040000fa
:040330007403000052
:020000040000fa
:04033400740300004e
:020000040000fa
:04033800740300004a
:020000040000fa
:04033c007403000046
:020000040000fa
:040340007403000042
:020000040000fa
:04034400740300003e
:020000040000fa
:04034800740300003a
:020000040000fa
:04034c007403000036
:020000040000fa
:040350007403000032
:020000040000fa
:04035400740300002e
:020000040000fa
:04035800740300002a
:020000040000fa
:04035c007403000026
:020000040000fa
:040360007403000022
:020000040000fa
:04036400740300001e
:020000040000fa
:04036800740300001a
:020000040000fa
:04036c007403000016
:020000040000fa
:040370007403000012
:020000040000fa
:04037400740300000e
:020000040000fa
:04037800740300000a
:020000040000fa
:04037c007403000006
:020000040000fa
:040380007403000002
:020000040000fa
:0403840074030000fe
:020000040000fa
:0403880074030000fa
:020000040000fa
:04038c0074030000f6
:020000040000fa
:0403900074030000f2
:020000040000fa
:0403940074030000ee
:020000040000fa
:0403980074030000ea
:020000040000fa
:04039c0074030000e6
:020000040000fa
:0403a00074030000e2
:020000040000fa
:0403a40074030000de
:020000040000fa
:0403a80074030000da
:020000040000fa
:0403ac0074030000d6
:020000040000fa
:0403b00074030000d2
:020000040000fa
:0403b40074030000ce
:020000040000fa
:0403b80074030000ca
:020000040000fa
:0403bc0074030000c6
:020000040000fa
:0403c00074030000c2
:020000040000fa
:0403c40074030000be
:020000040000fa
:0403c80074030000ba
:020000040000fa
:0403cc0074030000b6
:020000040000fa
:0403d00074030000b2
:020000040000fa
:0403d40074030000ae
:020000040000fa
:0403d80074030000aa
:020000040000fa
:0403dc0074030000a6
:020000040000fa
:0403e00074030000a2
:020000040000fa
:0403e400740300009e
:020000040000fa
:0403e800740300009a
:020000040000fa
:0403ec007403000096
:020000040000fa
:0403f0007403000092
:020000040000fa
:0403f400740300008e
:020000040000fa
:0403f800740300008a
:020000040000fa
:0403fc007403000086
:020000040000fa
:100400000f1e22000e7f22000e0188000000000057
:10041000000020000000e000020032000001200087
:100420002002880014000700b10007000000e0006f
:1004300003003a0060f228000100200002003700ab
:100440000000200001002000810f70000100320038
:1004500014000700000020000000e000020032004d
:100460000000020000000000f88e02000000000002
:100470000040da000000fe004440a9006081200036
:100480000000e000030032000020200090018800fe
:100490004440a800000006008a1f78008b1f7800e7
:1004a00000000600a1028800800478000000eb0034
:1004b0001f003700e284440054a0b4009905ba003c
:1004c000e284440054a0b4009906ba00e2844400d7
:1004d00054a0b4000006eb00476fde00fd07b20039
:1004e000ae018800636ce10003003a00eaff0700f8
:1004f0000000eb000e003700606ce10008003a00dd
:10050000004deb000a05e800020039003420ec0041
:100510000af0a0008b05e900f9ff3e000400370057
:100520006168e100010032000086eb000b0007006b
:1005300019c7ba001905ba000e04e00003003a001a
:100540000a00e000dbff3a0000000600fe07b200f0
:10055000ae0288008a047800f5ff37000cd0a300b3
:10056000e20f4d001c00390089027800354dba00b9
:100570000a05e800020039003420ec000af0a0006f
:100580008b05e9000f003200254dba000a05e8008e
:10059000020039003420ec000af0a0008b05e900cd
:1005a000080032000c00e0000600320015cdba0051
:1005b0000a05e800020039003420ec000af0a0002f
:1005c0008b05e9008984e80054a0b4000b00e0002a
:1005d000e2ff3a00000006009902ba00055d7800cb
:1005e0008b05e900f7ff3200c82ade00055d7800c0
:1005f0008b05e900f3ff32000c00e000f1ff320050
:1006000019ddba00eeff3700988e040000000000ec
:10061000247b0400000000008a7304000000000036
:100620009c7b040000000000a87b04000000000088
:10063000fe7b0400000000000a7c040000000000b3
:10064000d87b040000000000787c0400000000005b
:10065000847c040000000000ae7c04000000000068
:10066000ba7c0400000000003e7c04000000000092
:10067000be7d040000000000067e040000000000b3
:100680000e7d0400000000001a7d04000000000040
:10069000567d040000000000627d040000000000a0
:1006a000ea7c040000000000e27d0400000000007d
:1006b000a07e040000000000e27e040000000000b4
:1006c0005080040000000000b47f0400000000001f
:1006d0009281040000000000464c0400000000006d
:1006e000be6b0400000000000040da000000fe00c5
:1006f0000000050003f0a200889fbe008a9fbe0094
:100700008c1f78002c010700330133006450e10096
:100710004f0032006420e1005200320003826c007e
:1007200007003b000905d0000306d000820f5400eb
:100730000c065d00020039000200320089017800d9
:10074000030678008582550004003d000003fd008b
:100750008103fd008502ea008b854200840f720050
:1007600002003b0060001000e08018006011b8003b
:100770000005eb007a28e1000a0039000600780045
:10078000c75ddd00f707b200878075002d003700d8
:10079000828171000a017800610560008180d100ca
:1007a0000080d3008502e900f9ff3b000604400009
:1007b0008784480002003b0060041400e0841c00b1
:1007c0000988a300070032008a81710082817100cc
:1007d000610164008904d1000884d3008b05e8001e
:1007e000170037000978a30013003a000b00e0005f
:1007f000130034008b05e9000804440089844c0090
:100800000a4474000978a3000d003a000b00e000d0
:10081000070034008b05e9000804440089844c007b
:1008200001003a000b0020000978a300f7ff320016
:100830000001eb0002003700828171000a0178009c
:10084000a20007000cf0a70001f0a000eb003700a9
:100850006420e10002003a00838f6c00eb0033005b
:100860000801be000200be00e4003700889fbe0001
:100870008a9fbe008c1f7800cf000700d60033008f
:1008800003866c006450e1002e0032006420e10019
:10089000330032006150e1002f0032006120e1009e
:1008a0003100320085855500eb07b00009002000bb
:1008b00008042000050037000804440089844c0027
:1008c0000a0031000603430087834b0000015300f8
:1008d00081815b00f8ff33000203be000800a00026
:1008e0000804440089844c00f6ff3900c639dd0055
:1008f0008301730001003200130020008904d1003d
:100900000884d3000998a300050032000800a7005e
:100910000300a0008904d1000884d3008b05e800ff
:100920008904d1000884d3000001eb000281d200c9
:100930006600070001f0a1000cf0a70001f0a00084
:10094000ae0037006420e100b00032000801be00b4
:100950000200be00f7ff37006120e100ab0032006b
:100960006000b800f3ff37000000200001f8270006
:10097000f0ff3700839f68000100e00002003d00a7
:1009800060001000e08018000300e00002003d005d
:1009900060011100e0811900e20007004f00e00053
:1009a00002003b0060001000e0801800000006001c
:1009b00014002000ee003700f4ff2f00ec00370099
:1009c0000001be00670007000470a70003f0a1004b
:1009d0006509b100160032000d0035006828e100fd
:1009e00006003500f0ff2f00f1ff27000300e000b4
:1009f00013003b000100280000000500000040003b
:100a0000818048008502e900fcff3a0008003700b9
:100a1000f88f420002003c008000eb00000005005f
:100a20008100d1000080d3008502e800fcff3a007d
:100a30000300e00002003b0060001000e0801800ae
:100a4000000006000001be00460007000470a70079
:100a500003f0a10003f8a30013003a006509b100f8
:100a600010003200090035006928e100020035005d
:100a700001002800000005000000400081804800bf
:100a80008502e900fcff3a0000000600f88f4200f2
:100a9000050035008100d1000080d3008502e80008
:100aa000fcff3a00000006008000eb00000005009b
:100ab0004f89de0082017800c80037006011b8005d
:100ac000d600370004002000a90037008100200074
:100ad000618055000b003d000b00200061fe2f00df
:100ae0000100e1001d003400828171006101640099
:100af0008904d1000884d3000000e800faff3a001e
:100b000071002000610064000300700002006000ba
:100b10000900320061044400e0844c000988a5000b
:100b2000050032008b05e8006808e10002003a0089
:100b30008904d1000884d300f20f20000258e1009c
:100b400005003d00c75ddd00f907b2008980750032
:100b500008007800000006000bf827008b007800e2
:100b600000000500c70ade00f107b200f50fb20071
:100b700008003200e1cf4200020032000170a00004
:100b800024000500810f70000100320004080500f8
:100b900044000500810f700002003a0014000500b7
:100ba0008502e9000000400081c04800fcff3b00d6
:100bb0000170a000240005000004be00e9ff07004a
:100bc0000003be000405be000200be00e5ff0700f2
:100bd000844f7500000006000200be006450e10072
:100be000050036006420e100020036000968a30019
:100bf00001003a000800be000160a0004f06780026
:100c00004f05be004f04be0000000600f0ff2f009d
:100c1000f1ff2700f9ff3700811f78000100e00095
:100c200002003d0060001000e08018000300e000ba
:100c300002003d0060011100e08119004900070039
:100c40004f00e00002003b0060001000e080180050
:100c500000000600889fbe008a9fbe008c1f78009f
:100c6000d5ff0700dcff330003866c006450e10011
:100c7000240032006420e100270032006150e100ce
:100c8000220032006120e100210032008b85420009
:100c9000eb07b1000134b800003ab8000804420084
:100ca00089844a00013ab8000030b80088804000ca
:100cb00009014a0004003300000040008180480020
:100cc000020149008b05e900c909dd0083017000bc
:100cd0000100320013002000c814de004814dd00bb
:100ce0004709de001200b200c808de000884700068
:100cf00076ff070001f0a1000cf0a70001f0a000b2
:100d0000beff37006120e100c0ff32000801be00d5
:100d10000200be00f7ff37006150e100fcff3a001f
:100d2000baff37006022b800060220000000d000a1
:100d30008180d2000482d2008582d2000000a0000f
:100d40000202520083825a00030031000202420074
:100d500083824a000000a1000603e900f3ff3a0085
:100d600000000600efff07000400be0000000600c0
:100d7000889fbe008a9fbe00841f78008eff0700f8
:100d80004f00780011003300f0ff2f00838f6c00bc
:100d900006003b00040565000a00a70008003700b4
:100da00009f0a6001000200008003700820f540050
:100db000838f5c00030039001000200001003e001a
:100dc0000000200009f0a7000000ea004f05be0067
:100dd0004f04be000000e00000000600881f7800fd
:100de000030478000300e00007003d0060001000ed
:100df000e080180060011900e081190002003b004a
:100e000001f02d00030037000400070008f0a700e0
:100e100001f0a0004f04780000000600889fbe008b
:100e20008a9fbe000082700004027100048271007b
:100e3000260032000004be000200be006011b800af
:100e40006b092000950220000182cf000a003900c2
:100e50000541b1000082cf00070039000541b10013
:100e60000982cf00040039000541b1000882cf009b
:100e7000010039000541b100054252001200320064
:100e80000a003b0082817100610164008100d10091
:100e90000080d3008984d3000884d3008b05e80048
:100ea0000442e800f7ff3a00070037000804440056
:100eb00089844c0000004800818048008b05e900cf
:100ec0000442e900f9ff3a0000ff07004f05be00a9
:100ed0004f04be00000006000900370030427800d1
:100ee000b1417800834f520004003200100020000e
:100ef000060031000080eb00000006000201e9005e
:100f00000200e000f5ff3a000000eb0000000600e0
:100f10008001780002003700b15978000201e90031
:100f20000200e000fcff3a000000060080017800ab
:100f300002003700815978000201e9000200e00058
:080f4000fcff3a00000006006e
:020000040000fa
:100f4800000000000000000089d20000de3a000026
:100f5800524900009d3b0000728a00000e3c0000d0
:100f6800ac8b00005b3c0000be300000993c0000e8
:100f780039b40000c83c000048500000fc3c0000a8
:100f88009a990000193d00007dae0000363d000032
:100f9800f4fd0000543d0000d8f00000743d00004e
:100fa800964300008b3d00009a7700009c3d0000ae
:100fb800e9480000ae3d000080b70000c03d0000d9
:100fc800f38e0000d33d000042cf0000e63d000054
:100fd800daac0000fa3d0000a7790000073e0000e7
:100fe8004ed10000113e0000645d00001c3e000070
:100ff800b0030000273e0000a1f80000313e0000c9
:1010080091ed00003c3e000027310000483e000002
:10101800f38e0000533e0000f70600005f3e00001c
:1010280068b300006a3e0000107a0000763e0000b7
:10103800772d0000813e0000022b0000873e000053
:10104800c44200008d3e0000865a0000933e000016
:10105800637f0000993e00005bb100009f3e0000e6
:101068006ff00000a53e00009f3c0000ac3e000071
:10107800ce880000b23e000019e20000b83e000031
:10108800643b0000bf3e0000cba10000c53e00004d
:101098004d150000cc3e0000ce880000d23e000076
:1010a80050fc0000d83e0000d26f0000df3e000078
:1010b8006ff00000e53e00000d710000ec3e0000fe
:1010c800aaf10000f23e0000637f0000f93e000034
:1010d80000000000003f00004f400000033f0000f8
:1010e8002b870000063f00007ac70000093f000078
:1010f800c80700000d3f000017480000103f00001f
:10110800d8810000133f000099bb0000163f000083
:101118005af50000193f00001b2f00001d3f00007a
:101128004e620000203f0000f38e0000233f0000c5
:1011380099bb0000263f0000b1e10000293f0000f4
:10114800c80700002d3f000052270000303f000074
:101158004f400000333f0000bd520000363f000002
:101168009e5e0000393f00007f6a00003c3f00009f
:10117800446900003f3f00007c610000423f0000de
:1011880026530000453f0000423e0000483f000053
:10119800431c00004b3f0000b6f300004d3f000029
:1011a8009cc40000503f0000d8810000533f00005d
:1011b800143f0000563f0000a7e80000583f000019
:1011c800ac8b00005b3f0000962100005e3f0000f2
:1011d80065aa0000603f000018260000633f000079
:1011e800228e0000653f000010e90000673f000004
:1011f800e33600006a3f00000d7100006c3f0000fc
:101208008d9700006e3f0000f2b00000703f0000b4
:1012180021b00000723f000018950000743f0000e4
:1012280066660000763f00007e1d0000783f0000e3
:101238005eba0000793f00007a3600007b3f00006c
:10124800d19100007c3f0000d6c500007d3f000022
:101258006dc500007e3f0000979000007f3f0000b2
:1012680000000000803f00000000000000000000b7
:10127800524900009d390000524900009d3a000083
:10128800c36400002a3b0000750200009a3b00007e
:10129800d7340000ef3b0000c36400002a3c000084
:1012a80042600000653c00002b180000953c0000df
:1012b80011c70000ba3c000042600000e53c000095
:1012c80027a00000093d0000789c0000223d000096
:1012d80012a500003d3d00001a5100005a3d0000d3
:1012e80090a00000783d0000287e00008c3d0000a2
:1012f800bf7d00009d3d0000a01a0000af3d00002a
:10130800a5bd0000c13d0000f4fd0000d43d000073
:10131800f90f0000e93d000048bf0000fd3d000056
:1013280027a00000093e00004faf0000143e000057
:101338001b0d0000203e0000569f00002b3e0000c1
:101348006b9a0000373e000026e40000433e000090
:101358004e620000503e00001b2f00005d3e000062
:10136800553000006a3e000034800000773e0000df
:1013780025750000823e000083510000893e000070
:1013880017480000903e0000c74b0000973e000041
:10139800ad6900009e3e0000cba10000a53e000004
:1013a80004e70000ac3e000058390000b43e0000dd
:1013b800e3a50000bb3e00006f120000c33e000022
:1013c80031990000ca3e0000f31f0000d23e000021
:1013d800ecc00000d93e0000ca540000e13e000005
:1013e800de020000e93e0000d7a30000f03e000046
:1013f800ec510000f83e000000000000003f000033
:101408000ad70000033f000014ae0000073f0000a9
:10141800917e00000b3f00009b5500000f3f00002d
:1014280018260000133f000007f00000163f0000d8
:1014380068b300001a3f0000c97600001e3f000094
:101448000e2d0000223f000054e30000253f00005d
:101458007e8c0000293f00001b2f00002d3f00005c
:1014680029cb0000303f00001d5a0000343f000027
:1014780082e20000373f00003f5700003b3f00007a
:101488006dc500003e3f0000f31f0000423f000012
:10149800eb730000453f000039b40000483f0000ee
:1014a8006de700004b3f0000f70600004f3f0000cb
:1014b80065190000523f00002b180000553f00003e
:1014c80047030000583f00002cd400005a3f00009a
:1014d800f69700005d3f000017480000603f0000dd
:1014e80001de0000623f000042600000653f00002e
:1014f8004bc80000673f0000ac1c00006a3f0000ba
:10150800485000006c3f00003b7000006e3f000038
:10151800696f0000703f0000ee5a0000723f000043
:10152800af250000743f000039d60000753f000069
:10153800fe650000773f0000fed40000783f000001
:10154800c72900007a3f00003f5700007b3f00009a
:101558007f6a00007c3f00006d5600007d3f000060
:10156800242800007e3f0000fbcb00007e3f0000e7
:101578009b5500007f3f00005bb100007f3f0000eb
:1015880057ec00007f3f000000000000803f000093
:10159800d204000000000000000000005f0000000e
:1015a800e8030000983a000000000000b80b0000b3
:1015b8000000000000000000000000000000000023
:1015c8000000000038ff0000ffff000000000000de
:1015d80000000000000000000000000010270000cc
:1015e80000000000102700000000000000000000bc
:1015f80000000000000000000000000010270000ac
:10160800000000001027000000000000000000009b
:1016180000000000000000000000000000000000c2
:1016280000000000000000000000000000000000b2
:1016380000000000000000000000000000000000a2
:101648000000000000000000000000000000000092
:101658000000000000000000000000000000000082
:101668000000000000000000000000000000000072
:101678000000000000000000000000000000000062
:101688000000000000000000000000000000000052
:101698000000000000000000000000000000000042
:1016a8000000000000000000000000000000000032
:1016b80000000000900100002c010000c80000009c
:1016c8006400000000000000000000001027000077
:1016d8001027000000000000000000001027000094
:1016e8001027000000000000000000001027000084
:1016f8001027000000000000000000001027000074
:1017080010270000e803000000000000d0070000d8
:1017180000000000e803000000000000d0070000ff
:1017280000000000e803000000000000d0070000ef
:1017380000000000e803000000000000d0070000df
:1017480000000000b60300000000000000c1000017
:101758008140000001c000008041000001c000007d
:101768008041000000c100008140000001c000006d
:101778008041000000c100008140000000c100005d
:101788008140000001c000008041000001c000004d
:101798008041000000c100008140000000c100003d
:1017a8008140000001c000008041000000c100002d
:1017b8008140000001c000008041000001c000001d
:1017c8008041000000c100008140000001c000000d
:1017d8008041000000c100008140000000c10000fd
:1017e8008140000001c000008041000000c10000ed
:1017f8008140000001c000008041000001c00000dd
:101808008041000000c100008140000000c10000cc
:101818008140000001c000008041000001c00000bc
:101828008041000000c100008140000001c00000ac
:101838008041000000c100008140000000c100009c
:101848008140000001c000008041000001c000008c
:101858008041000000c100008140000000c100007c
:101868008140000001c000008041000000c100006c
:101878008140000001c000008041000001c000005c
:101888008041000000c100008140000000c100004c
:101898008140000001c000008041000001c000003c
:1018a8008041000000c100008140000001c000002c
:1018b8008041000000c100008140000000c100001c
:1018c8008140000001c000008041000000c100000c
:1018d8008140000001c000008041000001c00000fc
:1018e8008041000000c100008140000001c00000ec
:1018f8008041000000c100008140000000c10000dc
:101908008140000001c000008041000001c00000cb
:101918008041000000c100008140000000c10000bb
:101928008140000001c000008041000000c10000ab
:101938008140000001c000008041000001c000009b
:101948008041000000c100008140000000c000008c
:10195800c1010000c303000002c20000c606000067
:1019680007c7000005c50000c4040000cc0c000037
:101978000dcd00000fcf0000ce0e00000aca0000f7
:10198800cb0b0000c909000008c80000d8180000e7
:1019980019d900001bdb0000da1a00001ede000067
:1019a800df1f0000dd1d00001cdc000014d4000057
:1019b800d5150000d717000016d60000d212000077
:1019c80013d3000011d10000d0100000f030000047
:1019d80031f1000033f30000f232000036f6000067
:1019e800f7370000f535000034f400003cfc000037
:1019f800fd3d0000ff3f00003efe0000fa3a0000f7
:101a08003bfb000039f90000f838000028e8000026
:101a1800e9290000eb2b00002aea0000ee2e000066
:101a28002fef00002ded0000ec2c0000e424000056
:101a380025e5000027e70000e626000022e2000076
:101a4800e3230000e121000020e00000a060000086
:101a580061a1000063a30000a262000066a6000066
:101a6800a7670000a565000064a400006cac000036
:101a7800ad6d0000af6f00006eae0000aa6a0000f6
:101a88006bab000069a90000a868000078b80000e6
:101a9800b9790000bb7b00007aba0000be7e000066
:101aa8007fbf00007dbd0000bc7c0000b474000056
:101ab80075b5000077b70000b676000072b2000076
:101ac800b3730000b171000070b0000050900000c6
:101ad8009151000093530000529200009656000066
:101ae8005797000055950000945400009c5c000036
:101af8005d9d00005f9f00009e5e00005a9a0000f6
:101b08009b5b000099590000589800008848000025
:101b1800498900004b8b00008a4a00004e8e000065
:101b28008f4f00008d4d00004c8c00004484000055
:101b38008545000087470000468600008242000075
:101b480043830000418100008040000030310000e4
:101b580032330000343500003637000038390000d1
:101b68006162000063640000656600006768000049
:101b7800696a00006b6c00006d6e00006f700000f9
:101b880071720000737400007576000077780000a9
:101b9800797a00002e2d00003a2000004748000006
:101ba800003f0000065b00004f6600006d7d0000ee
:101bb800077f00006f7700007c3900005e79000025
:101bc800716f0000740600000e7a000038000000f3
:101bd800375c000073670000506d0000783e00001d
:101be80000000000006e00005b400000404800005c
:101bf800003d000076300000313200003334000030
:101c08003536000037380000396100006263000093
:101c18006465000066670000686900006a6b000080
:101c28006c6d00006e6f0000707100007273000030
:101c38007475000076770000787900007a4100001a
:101c48004243000044450000464700004849000060
:101c58004a4b00004c4d00004e4f00005051000010
:101c680052530000545500005657000058590000c0
:101c78005a0000003f00000006000000db000000e2
:101c8800cf000000e6000000ed000000fd000000ad
:101c980007000000ff000000ef00000058040000eb
:101ca80078040000d80000008e080000fb00000047
:101cb800710000008f010000f40000000600000021
:101cc8000e0000007006000030000000360300001f
:101cd80037000000dc0000007102000087010000ee
:101ce8003100000069040000c80a00003e0000003e
:101cf800300a0000360c0000000f0000000b000046
:101d080048080000860a0000fd02000039000000b3
:101d1800000000007900000071000000bd00000014
:101d2800f6000000060000000e000000700600002b
:101d38003800000036030000360500003f000000b0
:101d4800f30000003f040000710600006904000071
:101d5800000000003e000000300a0000360c0000c1
:101d6800000f00008e010000090a000063730000e4
:101d780036360000002d0000303000002d00000035
:101d8800002000002020000020200000202000006b
:101d98002000000020700000736400000020000094
:101da8002020000070000000202000006673000062
:101db800002000002020000020000000202000005b
:101dc800206c0000002000002020000068000000b7
:101dd80020200000206400000020000020480000af
:101de80062000000206100006c300000002000004c
:101df800682d000075000000206800002d640000b8
:101e080000200000702d0000750000002070000008
:101e18002d640000006500007030000030000000f4
:101e2800657000003031000000650000703100006e
:101e380030000000657000003131000000650000ce
:101e480074700000300000006c700000306c0000fe
:101e5800006c000070300000480000006c7000004a
:101e6800316c0000006c0000703100004800000078
:101e780020730000636c00000020000073740000f1
:101e8800612000006e6f00007200000020730000e7
:101e980074610000207400007374000000000000ea
:101ea80011110000222200003333000044440000d6
:101eb80055550000666600007777000088880000a6
:101ec80099990000aaaa0000bbbb0000cccc000076
:101ed800dddd0000eeee0000cecd0000acab000072
:101ee800494400004c45000000a50000a5a50000dd
:101ef800a5a50000a5a50000a5a50000a5a50000b2
:101f0800a5a50000a5a50000a5a50000a5a50000a1
:101f1800a5000000303100003233000034350000e5
:101f28003637000038390000616200006364000041
:101f380065660000000000004e4100004d450000ad
:101f4800001100002233000044000000736100000b
:101f58006d6c00007065000000000000546d00000a
:0c1f6800722000005376000063000000af
:020000040000fa
:101f74000800fa004047980051479800320798003b
:101f84004e409000e74f500034003e00de40900089
:101f9400f0c3b30080cf500032003e004e409000aa
:101fa4000080fb00c200dd005e4090000080fb006a
:101fb4004400de00004078000080fb000080400008
:101fc400000f78005e4090000080fb006f0060000e
:101fd400100798003e0090000000e0000f0032005f
:101fe4001e00780080004000601222000080400043
:101ff400900078001e009000120020000010dd0008
:10200400810070001e007800000140006012220070
:102014000000410001087800130037001e0078001a
:102024008000400060122200008040009000780090
:102034001e009000120020000010dd000080ea0065
:10204400808060001e0078000001400060122200c1
:102054000000410001087800030037000000000080
:1020640001003700000000000080fa0000000600b4
:102074000400fa002047980031479800ae409000d1
:1020840010c3b30080cf50009c013e0011c3b300c5
:102094002e40900000cf50001e80fb00cf80de0059
:1020a4001203200003002000820f5000838f580089
:1020b40093013e0000600100310037003700370013
:1020c4003d00370043003700490037004f00370018
:1020d400550037005b0037006100370067003700a8
:1020e4006d00370073003700790037007f00370038
:1020f400850037008b0037009100370097003700c8
:102104009d003700a3003700a9003700af00370057
:10211400b5003700bb003700c1003700c7003700e7
:10212400cd003700d3003700d9003700df00370077
:10213400e5003700eb003700f1003700f700370007
:10214400fd00370003013700090137000f01370094
:10215400150137001b013700210137002701370023
:102164002d01370033013700390137003f013700b3
:10217400450137004b013700510137005701370043
:102184003e4090000080fb0000017800f1c3b300e2
:1021940070c0b30076ff0700590137003e4090003d
:1021a4000080fb0000017800f1c3b30060c0b300fd
:1021b4006fff0700520137003e4090000080fb0093
:1021c40000017800f1c3b30050c0b30068ff0700fa
:1021d4004b0137003e4090000080fb000001780076
:1021e400f1c3b3000040eb0061ff07004401370076
:1021f4003e4090000080fb0000017800f1c3b30072
:1022040010c0b3005aff07003d0137003e40900064
:102214000080fb0000017800f1c3b30020c0b300cc
:1022240053ff0700360137003e4090000080fb005a
:1022340000017800f1c3b30030c0b3004cff0700c5
:102244002f0137003e4090000080fb000001780021
:10225400f1c3b30040c0b30045ff070028013700b5
:102264003e4090000080fb0000017800e1c3b30011
:1022740040c0b3003eff0700210137003e409000fc
:102284000080fb0000017800e1c3b30030c0b3005c
:1022940037ff07001a0137003e4090000080fb0022
:1022a40000017800e1c3b30020c0b30030ff070091
:1022b400130137003e4090000080fb0000017800cd
:1022c400e1c3b30010c0b30029ff07000c013700bd
:1022d4003e4090000080fb0000017800e1c3b300a1
:1022e4000040eb0022ff0700050137003e4090004c
:1022f4000080fb0000017800e1c3b30050c0b300cc
:102304001bff0700fe0037003e4090000080fb00ea
:1023140000017800e1c3b30060c0b30014ff0700fc
:10232400f70037003e4090000080fb000001780079
:10233400e1c3b30070c0b3000dff0700f000370025
:102344003e4090000080fb0000017800d1c3b30040
:1023540070c0b30006ff0700e90037003e4090005c
:102364000080fb0000017800d1c3b30060c0b3005b
:10237400fffe0700e20037003e4090000080fb00b3
:1023840000017800d1c3b30050c0b300f8fe0700c9
:10239400db0037003e4090000080fb000001780025
:1023a400d1c3b3000040eb00f1fe0700d4003700b6
:1023b4003e4090000080fb0000017800d1c3b300d0
:1023c40010c0b300eafe0700cd0037003e40900085
:1023d4000080fb0000017800d1c3b30020c0b3002b
:1023e400e3fe0700c60037003e4090000080fb007b
:1023f40000017800d1c3b30030c0b300dcfe070095
:10240400bf0037003e4090000080fb0000017800d0
:10241400d1c3b30040c0b300d5fe0700b8003700f5
:102424003e4090000080fb0000017800c1c3b3006f
:1024340040c0b300cefe0700b10037003e4090001c
:102444000080fb0000017800c1c3b30030c0b300ba
:10245400c7fe0700aa0037003e4090000080fb0042
:1024640000017800c1c3b30020c0b300c0fe070060
:10247400a30037003e4090000080fb00000178007c
:10248400c1c3b30010c0b300b9fe07009c003700fd
:102494003e4090000080fb0000017800c1c3b300ff
:1024a4000040eb00b2fe0700950037003e4090006c
:1024b4000080fb0000017800c1c3b30050c0b3002a
:1024c400abfe07008e0037003e4090000080fb000a
:1024d40000017800c1c3b30060c0b300a4fe0700cc
:1024e400870037003e4090000080fb000001780028
:1024f400c1c3b30070c0b3009dfe07008000370065
:102504003e4090000080fb0000017800b1c3b3009e
:1025140070c0b30096fe0700790037003e4090007b
:102524000080fb0000017800b1c3b30060c0b300b9
:102534008ffe0700720037003e4090000080fb00d1
:1025440000017800b1c3b30050c0b30088fe070097
:102554006b0037003e4090000080fb0000017800d3
:10256400b1c3b3000040eb0081fe070064003700f4
:102574003e4090000080fb0000017800b1c3b3002e
:1025840010c0b3007afe07005d0037003e409000a3
:102594000080fb0000017800b1c3b30020c0b30089
:1025a40073fe0700560037003e4090000080fb0099
:1025b40000017800b1c3b30030c0b3006cfe070063
:1025c4004f0037003e4090000080fb00000178007f
:1025d400b1c3b30040c0b30065fe07004800370034
:1025e4003e4090000080fb0000017800a1c3b300ce
:1025f40040c0b3005efe0700410037003e4090003b
:102604000080fb0000017800a1c3b30030c0b30018
:1026140057fe07003a0037003e4090000080fb0060
:1026240000017800a1c3b30020c0b30050fe07002e
:10263400330037003e4090000080fb00000178002a
:10264400a1c3b30010c0b30049fe07002c0037003b
:102654003e4090000080fb0000017800a1c3b3005d
:102664000040eb0042fe0700250037003e4090008a
:102674000080fb0000017800a1c3b30050c0b30088
:102684003bfe07001e0037003e4090000080fb0028
:1026940000017800a1c3b30060c0b30034fe07009a
:1026a400170037003e4090000080fb0000017800d6
:1026b400a1c3b30070c0b3002dfe070010003700a3
:1026c4003e4090000080fb0000017800e1c2b300ae
:1026d40070c0b30026fe0700090037003e4090009a
:1026e4000080fb0000017800e1c2b30060c0b300c9
:1026f4001ffe07000000000001003700000000007a
:102704000080fa00000006000400fa002047980048
:10271400ae40900020c6b30080cf500002003600c7
:1027240030c6b300204798002e4090000080fb0084
:102734000000d100204798000040eb00004f7800d3
:102744000400370011c0b3001e40780048fe0700a3
:102754001e4fe8002e4090009e40780080cf50002d
:10276400f8ff3900040037008040eb001e40780079
:102774003ffe07001e4fe80010c3b3009e407800e0
:1027840080cf5000f8ff36000080fa0000000600f9
:102794000200fa000040eb00004f7800040037000c
:1027a4008040eb001e40780031fe07001e4fe80019
:1027b40010c3b3009e40780080cf5000f8ff36006d
:1027c4000080fa00000006000200fa00004f7800c2
:1027d400114798001e407800e34f50000200360075
:1027e40040c0b300004f78001e80fb00e10f500092
:1027f4001f003200e10f500003003c000000e00025
:102804000600320021003700e20f500011003200b0
:10281400e30f5000080032001c0037001e409000f7
:102824000080fb000001780021c3b30030c0b30076
:10283400cffd0700150037001e4090000080fb000c
:1028440000017800e1c2b30040c0b300c8fd070036
:102854000e0037001e4090000080fb00000178004d
:10286400e1c2b30030c0b300c1fd07000700370068
:102874001e4090000080fb000001780021c3b300db
:1028840040c0b300bafd0700000000000080fa0059
:10289400000006000400fa0020479800ae409000b3
:1028a40030c6b30080cf50000200360040c6b300eb
:1028b400204798002e4090008080fb00900120006b
:1028c40000017800110009008280d8002047980098
:1028d4002e4090000004e00002003a0010c0b30053
:1028e400204798000040eb00004f780004003700b8
:1028f40011c0b3001e407800b3ff07001e4fe8006c
:102904002e4090009e40780080cf5000f8ff3900a0
:10291400040037008040eb001e407800aaff070047
:102924001e4fe8001e407800e34f5000f9ff3600c8
:102934000080fa00000006000200fa000040eb00ec
:10294400004f7800040037008040eb001e40780000
:102954009dff07001e4fe8001e407800e34f500023
:10296400f9ff36000080fa00000006000200fa00b9
:10297400004f7800114798001e407800e34f500044
:102984000200360040c0b300004f78001e80fb00f8
:10299400e10f500011003200e10f500003003c0031
:1029a4000000e0000600320021003700e20f500072
:1029b40011003200e30f5000160032001c003700f3
:1029c4001e4090000080fb0000017800e1c2b300cb
:1029d40050c0b30066fd0700150037001e4090008c
:1029e4000080fb0000017800e1c2b3000040eb006e
:1029f4005ffd07000e0037001e4090000080fb00c2
:102a040000017800e1c2b30010c0b30058fd070014
:102a1400070037001e4090000080fb000001780092
:102a2400f1c2b3000040eb0051fd070000000000bc
:102a34000080fa00000006000400fa002047980015
:102a4400ae40900030c6b30080cf50000200360084
:102a540040c6b300204798002e4090008080fb00c1
:102a64009001200000017800110009008280d80044
:102a7400204798002e4090000004e00002003a0035
:102a840010c0b300204798000040eb00004f7800ce
:102a94000400370011c0b3001e407800b3ff0700e4
:102aa4001e4fe8002e4090009e40780080cf5000da
:102ab400f8ff3900040037008040eb001e40780026
:102ac400aaff07001e4fe8001e407800e34f5000a5
:102ad400f9ff36000080fa00000006000200fa0048
:102ae4000040eb00004f7800040037008040eb000a
:102af4001e4078009dff07001e4fe8001e4078002e
:102b0400e34f5000f9ff36000080fa000000060091
:102b14000200fa00004f7800114798001e40780028
:102b24000004e0000200320010c0b300004f78003f
:102b34001e80fb000000e00009003200e10f50009d
:102b44000e003a001e4090000080fb000001780057
:102b5400e1c2b30020c0b30005fd07000700370041
:102b64001e4090000080fb000001780021c3b300e8
:102b740020c0b300fefc0700000000000080fa0043
:102b8400000006000200fa00004f780030c6b300cf
:102b94009e40780080cf50000200360040c6b3004b
:102ba400004f78009e80fb00200320000001780085
:102bb400110009008280d800004f78001e40780080
:102bc4000004e00002003a0010c0b300004f780097
:102bd4001e407800e24f500007003a0011c0b300d5
:102be4000040eb00caff070011c0b30010c0b300df
:102bf400c7ff07000300370011c0b3000040eb001b
:102c0400c3ff07000080fa00000006000000fa007d
:102c14008040eb000040eb00bdff07008040eb006c
:102c240010c0b300baff07000080fa0000000600dd
:102c34000200fa00004f78001e80fb006100600073
:102c44000001780091c2b30070c0b300c8fc070053
:102c54001e80fb00620060000001780091c2b30096
:102c640060c0b300c2fc07001e80fb00640060006b
:102c74000001780091c2b30050c0b300bcfc07004f
:102c84001e80fb00680060000001780091c2b30060
:102c94000040eb00b6fc07009e80fb000002200011
:102ca4000080600000017800f1c2b30070c0b3007e
:102cb400affc07009e80fb00000420000080600041
:102cc40000017800f1c2b30060c0b300a8fc0700a3
:102cd4001e80fb007000600000017800f1c2b300a8
:102ce40050c0b300a2fc07000080fa0000000600f8
:102cf4000200fa00004f78001e4078000004e00053
:102d0400050032000208200081c2b3000040eb003d
:102d140097fc0700040037000001eb0081c2b300f8
:102d24000040eb0092fc07000080fa00000006005f
:102d34000200fa00004f78001e80fb006100600072
:102d440000017800c1c0b30070c0b30088fc070064
:102d54001e80fb006200600000017800c1c0b30067
:102d640060c0b30082fc07001e80fb0064006000aa
:102d740000017800c1c0b30050c0b3007cfc070060
:102d84001e80fb006800600000017800c1c0b30031
:102d94000040eb0076fc07009e80fb000002200050
:102da400008060000001780081c2b30070c0b300ed
:102db4006ffc07009e80fb00000420000080600080
:102dc4000001780081c2b30060c0b30068fc070052
:102dd4001e80fb00700060000001780081c2b30017
:102de40050c0b30062fc07000080fa000000060037
:102df4000200fa00004f78001e4078000004e00052
:102e04000500320002082000b1c0b3000040eb000e
:102e140057fc0700040037000001eb00b1c0b30009
:102e24000040eb0052fc07000080fa00000006009e
:102e34000200fa00004f78001e80fb006100600071
:102e440000017800a1c0b30070c0b30048fc0700c3
:102e54001e80fb006200600000017800a1c0b30086
:102e640060c0b30042fc07001e80fb0064006000e9
:102e740000017800a1c0b30050c0b3003cfc0700bf
:102e84001e80fb006800600000017800a1c0b30050
:102e94000040eb0036fc07009e80fb00000220008f
:102ea4000080600000017800b1c0b30070c0b300be
:102eb4002ffc07009e80fb000004200000806000bf
:102ec40000017800b1c0b30060c0b30028fc070063
:102ed4001e80fb007000600000017800b1c0b300e8
:102ee40050c0b30022fc07000080fa000000060076
:102ef4000200fa00004f78001e4078000004e00051
:102f0400050032000208200071c2b3000040eb004b
:102f140017fc0700040037000001eb0071c2b30086
:102f24000040eb0012fc07000080fa0000000600dd
:102f34000200fa00004f78001e80fb006100600070
:102f44000001780061c2b30070c0b30008fc070040
:102f54001e80fb00620060000001780061c2b300c3
:102f640060c0b30002fc07001e80fb006400600028
:102f74000001780061c2b30050c0b300fcfb07003d
:102f84001e80fb00680060000001780061c2b3008d
:102f94000040eb00f6fb07009e80fb0000022000cf
:102fa400008060000001780071c2b30070c0b300fb
:102fb400effb07009e80fb000004200000806000ff
:102fc4000001780071c2b30060c0b300e8fb0700e1
:102fd4001e80fb00700060000001780071c2b30025
:102fe40050c0b300e2fb07000080fa0000000600b6
:102ff4000200fa00004f78001e80fb0061006000b0
:103004000001780091c2b30010c0b300d8fb0700e0
:103014001e80fb00620060000001780091c2b300d2
:1030240020c0b300d2fb07001e80fb0064006000d8
:103034000001780091c2b30030c0b300ccfb07009c
:103044001e80fb00680060000001780091c2b3009c
:1030540040c0b300c6fb07009e80fb0000022000b6
:103064000080600000017800f1c2b30010c0b3001a
:10307400bffb07009e80fb0000042000008060006e
:1030840000017800f1c2b30020c0b300b8fb070010
:103094001e80fb007000600000017800f1c2b300e4
:1030a40030c0b300b2fb07000080fa000000060045
:1030b4000200fa00004f78001e4078000004e0008f
:1030c400050032000208200081c2b30040c0b300f2
:1030d400a7fb0700040037000001eb0081c2b30026
:1030e40040c0b300a2fb07000080fa000000060005
:1030f4000200fa00004f78001e80fb0061006000af
:1031040000017800c1c0b30010c0b30098fb0700f1
:103114001e80fb006200600000017800c1c0b300a3
:1031240020c0b30092fb07001e80fb006400600017
:1031340000017800c1c0b30030c0b3008cfb0700ad
:103144001e80fb006800600000017800c1c0b3006d
:1031540040c0b30086fb07009e80fb0000022000f5
:10316400008060000001780081c2b30010c0b30089
:103174007ffb07009e80fb000004200000806000ad
:103184000001780081c2b30020c0b30078fb0700bf
:103194001e80fb00700060000001780081c2b30053
:1031a40030c0b30072fb07000080fa000000060084
:1031b4000200fa00004f78001e4078000004e0008e
:1031c4000500320002082000b1c0b30040c0b300c3
:1031d40067fb0700040037000001eb00b1c0b30037
:1031e40040c0b30062fb07000080fa000000060044
:1031f4000200fa00004f78001e80fb0061006000ae
:1032040000017800a1c0b30010c0b30058fb070050
:103214001e80fb006200600000017800a1c0b300c2
:1032240020c0b30052fb07001e80fb006400600056
:1032340000017800a1c0b30030c0b3004cfb07000c
:103244001e80fb006800600000017800a1c0b3008c
:1032540040c0b30046fb07009e80fb000002200034
:103264000080600000017800b1c0b30010c0b3005a
:103274003ffb07009e80fb000004200000806000ec
:1032840000017800b1c0b30020c0b30038fb0700d0
:103294001e80fb007000600000017800b1c0b30024
:1032a40030c0b30032fb07000080fa0000000600c3
:1032b4000200fa00004f78001e4078000004e0008d
:1032c400050032000208200071c2b30040c0b30000
:1032d40027fb0700040037000001eb0071c2b300b4
:1032e40040c0b30022fb07000080fa000000060083
:1032f4000200fa00004f78001e80fb0061006000ad
:103304000001780061c2b30010c0b30018fb0700cd
:103314001e80fb00620060000001780061c2b300ff
:1033240020c0b30012fb07001e80fb006400600095
:103334000001780061c2b30030c0b3000cfb070089
:103344001e80fb00680060000001780061c2b300c9
:1033540040c0b30006fb07009e80fb000002200073
:10336400008060000001780071c2b30010c0b30097
:10337400fffa07009e80fb0000042000008060002c
:103384000001780071c2b30020c0b300f8fa07004e
:103394001e80fb00700060000001780071c2b30061
:1033a40030c0b300f2fa07000080fa000000060003
:1033b4000200fa00004f78000080fa0000000600c6
:1033c4000200fa00004f78000001eb0021c2b300b4
:1033d40010c0b300e6fa07000001eb0031c2b300ed
:1033e40010c0b300e2fa07001e4078000004e000b9
:1033f400050032001200200011c3b30010c0b30056
:10340400dbfa0700040037000001eb0011c3b3002e
:1034140010c0b300d6fa07000080fa0000000600ce
:103424000200fa00004f78000001eb0011c3b30062
:1034340010c0b300cefa07000001eb0031c2b300a4
:1034440010c0b300cafa07001e4078000004e00070
:10345400050032001200200021c2b30010c0b300e6
:10346400c3fa0700040037000001eb0021c2b300d7
:1034740010c0b300befa07000080fa000000060086
:103484000200fa00004f78000001eb0011c3b30002
:1034940010c0b300b6fa07001e4078000004e00034
:1034a400090032001200200021c2b30010c0b30092
:1034b400affa07001200200021c2b30010c0b3000d
:1034c400abfa0700080037000001eb0031c2b3007b
:1034d40010c0b300a6fa07000001eb0031c2b3002c
:1034e40010c0b300a2fa07000080fa000000060032
:1034f4000200fa00004f78000001eb0011c3b30092
:1035040020c0b3009afa07000001eb0031c2b300f7
:1035140020c0b30096fa07000001eb0031c2b300eb
:1035240030c0b30092fa07001e4078000004e000a7
:10353400050032001200200031c2b30040c0b300c5
:103544008bfa0700040037000001eb0031c2b3001e
:1035540040c0b30086fa07000080fa0000000600ad
:103564000200fa00004f78000001eb0011c3b30021
:1035740020c0b3007efa07000001eb0031c2b300a3
:1035840030c0b3007afa07000001eb0031c2b30087
:1035940040c0b30076fa07001e4078000004e00043
:1035a400050032001200200021c2b30020c0b30085
:1035b4006ffa0700040037000001eb0021c2b300da
:1035c40020c0b3006afa07000080fa000000060079
:1035d4000200fa00004f78000001eb0011c3b300b1
:1035e40020c0b30062fa07000001eb0031c2b3004f
:1035f40040c0b3005efa07001e4078000004e000fb
:10360400090032001200200021c2b30020c0b30020
:1036140057fa07001200200031c2b30030c0b300d3
:1036240053fa0700080037000001eb0021c2b30081
:1036340020c0b3004efa07000001eb0031c2b30012
:1036440030c0b3004afa07000080fa000000060008
:103654000200fa00004f78000001eb0021c2b30021
:1036640020c0b30042fa07000001eb0031c2b300ee
:1036740030c0b3003efa07000001eb0031c2b300d2
:1036840040c0b3003afa07001e4078000004e0008e
:10369400050032001200200011c3b30020c0b300a3
:1036a40033fa0700040037000001eb0011c3b30034
:1036b40020c0b3002efa07000080fa0000000600c4
:1036c4000200fa00000f78009e007800618060001c
:1036d4000001780011c3b30070c0b30024fa0700de
:1036e4009e007800628060000001780031c2b3005f
:1036f40070c0b3001efa07009e007800648060006a
:103704000001780031c2b30050c0b30018fa0700ba
:103714009e007800688060000001780031c2b30028
:103724000040eb0012fa07009e00780070806000f1
:103734000001780011c3b3000040eb000cfa07004d
:10374400000220001e0060000001780011c3b300d5
:1037540060c0b30006fa0700000420001e006000e9
:103764000001780011c3b30050c0b30000fa070091
:10377400000820001e0060000001780031c2b30080
:1037840060c0b300faf90700001020001e006000ba
:103794000001780021c2b30060c0b300f4f907004f
:1037a400002020001e0060000001780021c2b30048
:1037b40070c0b300eef90700004020001e00600056
:1037c4000001780021c2b30050c0b300e8f907003b
:1037d400008020001e0060000001780021c2b300b8
:1037e4000040eb00e2f907000080fa000000060048
:1037f4000200fa00000f78009e00780061806000eb
:103804000001780041c0b30070c0b300d8f90700cc
:103814009e007800628060000001780021c1b3003e
:1038240070c0b300d2f907009e0078006480600085
:103834000001780021c1b30050c0b300ccf90700e7
:103844009e007800688060000001780021c1b30008
:103854000040eb00c6f907009e007800708060000d
:103864000001780041c0b3000040eb00c0f907003c
:10387400000220001e0060000001780041c0b30077
:1038840060c0b300baf90700000420001e00600005
:103894000001780041c0b30050c0b300b4f9070080
:1038a400000820001e0060000001780021c1b30060
:1038b40060c0b300aef90700001020001e006000d5
:1038c4000001780071c3b30060c0b300a8f9070019
:1038d400002020001e0060000001780071c3b300c6
:1038e40070c0b300a2f90700004020001e00600071
:1038f4000001780071c3b30050c0b3009cf9070005
:10390400008020001e0060000001780071c3b30035
:103914000040eb0096f907000080fa000000060062
:103924000200fa00000f78009e00780061806000b9
:103934000001780031c1b30070c0b3008cf90700f6
:103944009e007800628060000001780091c0b3009e
:1039540070c0b30086f907009e00780064806000a0
:103964000001780091c0b30050c0b30080f9070093
:103974009e007800688060000001780091c0b30068
:103984000040eb007af907009e0078007080600028
:103994000001780031c1b3000040eb0074f9070066
:1039a400000220001e0060000001780031c1b30055
:1039b40060c0b3006ef90700000420001e00600020
:1039c4000001780031c1b30050c0b30068f90700aa
:1039d400000820001e0060000001780091c0b300c0
:1039e40060c0b30062f90700001020001e006000f0
:1039f4000001780081c0b30060c0b3005cf9070027
:103a0400002020001e0060000001780081c0b30087
:103a140070c0b30056f90700004020001e0060008b
:103a24000001780081c0b30050c0b30050f9070012
:103a3400008020001e0060000001780081c0b300f7
:103a44000040eb004af907000080fa00000006007d
:103a54000200fa00004f78001e80fb006100600045
:103a64000001780071c3b30010c0b30040f907002f
:103a74001e80fb00620060000001780071c3b30087
:103a840020c0b3003af907001e80fb006400600008
:103a94000001780071c3b30030c0b30034f90700eb
:103aa4001e80fb00680060000001780071c3b30051
:103ab40040c0b3002ef907009e80fb0000022000e6
:103ac400008060000001780041c0b30010c0b30062
:103ad40027f907009e80fb0000042000008060009e
:103ae4000001780041c0b30020c0b30020f90700f2
:103af4001e80fb00700060000001780041c0b3002c
:103b040030c0b3001af907000080fa000000060074
:103b14000200fa00004f78001e80fb006100600084
:103b24000001780031c1b30010c0b30010f90700e0
:103b34001e80fb00620060000001780031c1b30008
:103b440020c0b3000af907001e80fb006400600077
:103b54000001780031c1b30030c0b30004f907009c
:103b64001e80fb00680060000001780031c1b300d2
:103b740040c0b300fef807009e80fb000002200056
:103b8400008060000001780021c1b30010c0b300c0
:103b9400f7f807009e80fb0000042000008060000e
:103ba4000001780021c1b30020c0b300f0f8070081
:103bb4001e80fb00700060000001780021c1b3008a
:103bc40030c0b300eaf807000080fa0000000600e5
:103bd4000200fa00004f78001e80fb0061006000c4
:103be4000001780091c0b30010c0b300e0f80700f2
:103bf4001e80fb00620060000001780091c0b300e9
:103c040020c0b300daf807001e80fb0064006000e7
:103c14000001780091c0b30030c0b300d4f80700ad
:103c24001e80fb00680060000001780091c0b300b2
:103c340040c0b300cef807009e80fb0000022000c5
:103c4400008060000001780081c0b30010c0b300a0
:103c5400c7f807009e80fb0000042000008060007d
:103c64000001780081c0b30020c0b300c0f8070091
:103c74001e80fb00700060000001780081c0b3006a
:103c840030c0b300baf807000080fa000000060054
:103c94000200fa00004f78001e4078000004e000a3
:103ca400050032000208200021c1b30040c0b30067
:103cb400aff80700040037000001eb0021c1b30096
:103cc40040c0b300aaf807000080fa000000060014
:103cd4000200fa00004f78001e4078000004e00063
:103ce400050032000208200041c0b30040c0b30008
:103cf4009ff80700040037000001eb0041c0b30047
:103d040040c0b3009af807000080fa0000000600e3
:103d14000200fa00004f78001e4078000004e00022
:103d2400050032001200200031c2b30020c0b300ed
:103d34008ff80700040037000001eb0031c2b30024
:103d440020c0b3008af807000080fa0000000600d3
:103d54000200fa00004f78001e4078000004e000e2
:103d6400050032001200200081c0b30040c0b3003f
:103d74007ff80700040037000001eb0081c0b300a6
:103d840040c0b3007af807000080fa000000060083
:103d94000200fa00004f7800114798001e80fb00d3
:103da4000000e00003003200e10f50000400320084
:103db400060037001e409000b5ff070003003700df
:103dc4001e409000c2ff0700000000000080fa00bf
:103dd400000006000000fa000040eb00acff070002
:103de4000040eb00baff07000080fa000000060064
:103df4000400fa00204798000040eb00004f7800d0
:103e0400070037001e80fb00a1da2800e14078009b
:103e14002e40900080cf5000060032001e4fe80074
:103e2400a0c2b3009e40780080cf5000f5ff36005a
:103e34000100370000000000a0c2b3009e407800db
:103e440080cf500004003e001e80fb0051dd28009e
:103e540061417800124798001e4090000080fa00eb
:103e6400000006000600fa00404798000040eb00fe
:103e7400004f7800070037001e80fb00f1df2800a8
:103e8400e14078004e40900080cf500006003200a0
:103e94001e4fe800e0c3b3009e40780080cf50007e
:103ea400f5ff36000100370000000000e0c3b30056
:103eb4009e40780080cf500006003e001e80fb002c
:103ec40080004000e0e3280000804000900078007b
:103ed400110798001e0090000080fa000000060000
:103ee4000000fa000040eb0081fb07000040eb00fb
:103ef400bffb07000040eb00fdfb07000040eb00a8
:103f04006bfc07000040eb00a9fc07000040eb003d
:103f1400e7fc07000080fa00000006000200fa0037
:103f2400004f7800114798001e80fb00e20f5000fc
:103f340014003200e20f500005003c000000e000d5
:103f44000a003200e10f50000b0032001900370064
:103f5400e50f500011003200e60f5000120032004d
:103f6400e40f50000a003200120037001e40900097
:103f74005ffb07000f0037001e4090009cfb07000a
:103f84000c0037001e409000d9fb070009003700e1
:103f94001e40900046fc0700060037001e409000bb
:103fa40083fc0700030037001e409000c0fc07009c
:103fb400000000000080fa00000006000400fa007f
:103fc40020479800314798003e40900088ff070042
:103fd400004f78002e4090000080fb00e30f50005b
:103fe4001b003200e30f500007003c00e10f5000bb
:103ff40011003200e10f500012003c000000e0000c
:104004000a00320021003700e50f5000160032008c
:10401400e50f500011003500e60f50001500320086
:10402400e70f500016003200180037001e407800d9
:10403400fffa0700150037001e4078003cfb07001c
:10404400120037001e40780079fb07000f0037008c
:104054001e407800b6fb07000c0037001e407800b5
:10406400e3fb0700090037001e40780020fc07002e
:10407400060037001e4078005dfc0700030037008f
:104084001e4078009afc0700000000000080fa003f
:10409400000006000400fa00204798003147980009
:1040a4003e40900052ff0700004f78002e409000e1
:1040b4000080fb00e10f500007003200e20f5000c7
:1040c400080032000000e0000a003a001e407800b8
:1040d4005ffe0700080037001e4078008cfe0700d2
:1040e400050037001e407800b9fe070000000000fc
:1040f40001003700000000000080fa000000060004
:104104000400fa0020479800314798003e40900090
:1041140054ff0700000f78002e4090000080fb0041
:10412400e10f500007003200e20f50000800320097
:104134000000e0000a003a001e00780060fd07005d
:10414400080037001e007800a9fd070005003700ad
:104154001e007800f2fd0700000000000100370097
:10416400000000000080fa00000006000400fa00cd
:10417400100798000040eb00004f7800090037005a
:104184001e00900010407800804078001e407800a7
:10419400c0ff07001e0090000000e8001007980010
:1041a4001e4fe8001e009000104078000004e0005c
:1041b400030032001e407800e24f5000f0ff36004a
:1041c4000080fa00000006000400fa0010079800be
:1041d4000040eb00004f7800090037001e009000fb
:1041e40010407800804078001e407800c4ff07002b
:1041f4001e0090000000e800100798001e4fe80021
:104204001e009000104078000004e000030032001b
:104214001e407800e24f5000f0ff36000080fa00a4
:10422400000006000600fa00204798003147980075
:10423400424798002e409000e14f50000c003e0091
:104244003e409000e34f50000b003e002e40900093
:1042540000404000804078003e40900000cf400085
:10426400ce4090001e40780054ff07000300370042
:104274000000000001003700000000000080fa0088
:10428400000006000400fa00100798000040eb004c
:10429400004f7800090037001e009000104078009d
:1042a400804078001e40780044ff07001e00900004
:1042b4000000e800100798001e4fe8001e00900060
:1042c400104078000004e000030032001e40780033
:1042d400e34f5000f0ff36000080fa0000000600b3
:1042e4000400fa00100798000040eb00004f78002b
:1042f400090037001e009000904078001e417800ad
:10430400644041002dff07001e0090000000e800fb
:10431400100798001e4fe8001e009000104078001f
:104324000004e000030032001e407800e34f500018
:10433400f0ff36000080fa00000006000400fa00d6
:10434400100798000040eb00004f78000900370088
:104354001e00900010407800804078001e407800d5
:1043640016ff07001e0090000000e80010079800e8
:104374001e4fe8001e009000104078000004e0008a
:10438400030032001e407800e74f5000f0ff360073
:104394000080fa00000006000000fa0030098100e5
:1043a400802c880040098100902c880050098100ed
:1043b400a02c880060098100b02c8800700981005d
:1043c400c02c880080098100d02c880090098100cd
:1043d400e02c8800a0098100f02c8800b00981003d
:1043e400002d8800c0098100102d8800d0098100ab
:1043f400202d8800e0098100302d8800f00981001b
:10440400402d8800000a8100502d8800100a810088
:10441400602d8800200a8100702d8800300a8100f8
:10442400802d8800400a8100902d8800500a810068
:10443400a02d8800600a8100b02d8800700a8100d8
:10444400c02d8800800a8100d02d8800900a810048
:10445400e02d8800a00a8100f02d8800b00a8100b8
:10446400002e8800c00a8100102e8800d00a810026
:10447400202e8800e00a8100302e8800f00a810096
:10448400402e8800000b8100502e8800100b810004
:10449400602e8800200b8100702e88000080fa00b6
:1044a400000006000400fa00100798000040eb002a
:1044b400004f7800070037001e80fb00800040009a
:1044c40060122200008040009e00900001087800e5
:1044d4001e4fe8001e407800ff4f5000f6ff3600e4
:1044e4000080fa00000006000000fa00212c800081
:1044f40070fe2f0000806000202c880085a5a90094
:1045040084c5a90084a5a900202c80007000b300f4
:10451400202c880081e5a800012c800070fc2f006d
:10452400808060008002200001007000002c880060
:10453400012c8000c0ff2f00008060000010a0004c
:10454400002c88008045a80086c5a900312c800075
:1045540000ff2f00008060003000b300302c880082
:1045640083e5a800112c8000f07f2c00808060007f
:104574000080210001007000102c88008305a90030
:104584008325a9008345a900112c8000000c20007c
:1045940001007000102c8800112c80000003200002
:1045a40001007000102c8800112c800080ff2f0067
:1045b40000806000102c880000f12100402c88004d
:1045c400c0002000502c8800c03c2c00602c8800c7
:1045d40060c82f00702c88000080eb00b1ff07003a
:1045e4006dff07000080fa00000006000000fa00da
:1045f4000080fa00000006000000fa000080fa00c3
:10460400000006000000fa00801780000040a100ae
:1046140080178800a01780000040a000a017880021
:104624000080fa00000006000000fa00aeff070058
:1046340085e5a800a2370700b93707000080fa0013
:10464400000006000200fa00004f78001e80fb0004
:10465400e10f50000c003200e10f500003003c0059
:104664000000e000060032000d003700e20f5000a9
:1046740007003200e30f5000070032000800370043
:104684001000200007003700a000200005003700bc
:104694004006200003003700803e20000100370060
:1046a400803e20000080fa00000006000800fa00a6
:1046b40020079800310798000000eb00000f7800f5
:1046c40009003700cc360700204798002e409000a0
:1046d4000004e00009003200a000200008110700d7
:1046e4009e0078006a8f40002e0090009e007800a3
:1046f400808f5000f3ff39000100370000000000f4
:104704003e009000ae409000014878001e00780002
:104714000080fa00000006000600fa001007980066
:1047240041479800524798001e009000104f7800af
:10473400ce4090005e40900080cf500003003900ce
:10474400ce409000014f7800070037001e4fe8006c
:104754005e4090009e40780080cf500002003600fa
:10476400ce409000014f78008dc8bf000004e000e7
:10477400050032001e4078000004e00002003a0008
:1047840010c0b300004f78001e0090001e4878004f
:104794000080fa00000006000800fa0020079800d4
:1047a400614798002e00900090007800110798004f
:1047b4006e409000e34f50000200360030c0b3005a
:1047c400604798006e4090009eff07009e00900096
:1047d40000017800110009008280d8008000780070
:1047e400a000200000017800110009008280d80098
:1047f4008000fd00000f78006e40900091ff0700dc
:104804009e0078000180b900000078009e009000ae
:1048140000805000100798001e0fe8001e0078006a
:10482400e90f5000020036000000eb00000f780092
:104834006e40900083ff07009e0078000180b9005d
:10484400000078009e00900000804000100798004f
:104854002e0090009e009000010878000080fa006d
:10486400000006000800fa0020079800614798003d
:104874002e00900010007800100798006e40900001
:10488400e34f500007003e000e80e800ee40900029
:10489400c1ff07009e0090002e00900001087800e0
:1048a400250037006e409000e44f500016003a0097
:1048b4002e009000a0409000014f78001e4fe800a9
:1048c4001e407800e34f5000020036000040eb0029
:1048d400004f78002e009000304090000004e0006b
:1048e400050032001e407800e24f500002003600fe
:1048f4000040eb00004f78002e0090009e407800ae
:10490400214098000c0037002e009000b040900029
:10491400014f78001e4fe8001e407800e14f500020
:10492400020036000040eb00004f78002e0090009b
:104934009e407800314098000080fa000000060094
:104944000000fa0000c1b30082e8b7008368ef00fa
:104954008028ef008468ef000080fa000000060061
:104964000600fa0000c2b30082e8b7008368ef00d3
:1049740040c52100000f78001e0078004000900020
:104984008000eb0010079800210798001e0090009b
:10499400ae0090004b1607001007980021079800fe
:1049a4001e009000ae0090005044880061448800ce
:1049b4008468ef000080fa00000006000200fa009c
:1049c40000c3b30082e8b7008368ef0040c521004c
:1049d400000f78008628ef008828ef006088200008
:1049e4009e007800a1009000814078000148780082
:1049f4008468ef000080fa00000006000600fa0058
:104a040020c0b30083e8b70040c52100000f780040
:104a14001e00780080089000700090001007980035
:104a2400210798001e009000ae0090002516070094
:104a340010079800210798001e009000ae00900017
:104a440050448800614488008468ef000080fa00c4
:104a5400000006000600fa0010c0b30083e8b700a7
:104a640040c52100000f78001e007800500190001e
:104a7400e001900012079800230798001e009000a0
:104a8400ae0090000f160700100798002107980049
:104a94001e009000ae0090005044880061448800dd
:104aa4008468ef000080fa00000006000600fa00a7
:104ab40000c4b30082e8b7008368ef0040c521005a
:104ac400000f78001e00780050099000e009900063
:104ad40012079800230798001e009000ae00900073
:104ae400f815070010079800210798001e00900091
:104af400ae00900050448800614488008dc8bf0017
:104b04000004e0000300320010c0b30084e8b700e2
:104b1400010037008468ef000080fa0000000600fe
:104b24000800fa00604798007147980000c5b30078
:104b340082e8b7008368ef006e419000018920008d
:104b4400824878007e4190001189200082487800d4
:104b540020e32100000f78007e4090000004e00074
:104b64000b003a00628820006e4090008080fb00b9
:104b74009e017800600220000088b90000007800df
:104b84000080e80063407800004978001a0037008c
:104b940090c8bf000082fb0091c8bf000080fb00ea
:104ba4000000e9001e0178006600b9008001780069
:104bb4006002200000a0b9000000780000804100dd
:104bc4006400400062007800cf80de001007980087
:104bd400210798001e009000ae009000b915070050
:104be40010079800210798001e009000ae00900066
:104bf40050448800614488008468ef000080fa0013
:104c0400000006000800fa00604798007147980009
:104c140000c6b30082e8b7008368ef006e419000dd
:104c240001892000824878007e419000118920008b
:104c34008248780080ea2100000f78007e409000ce
:104c44000004e0000b003a00628820006e409000ef
:104c54008080fb009e017800600220000088b9007b
:104c6400000078000080e800634078000049780084
:104c74001a00370090c8bf000082fb0091c8bf0033
:104c84000080fb000000e9001e0178006600b90006
:104c9400800178006002200000a0b90000007800c4
:104ca400008041006400400062007800cf80de0094
:104cb40010079800210798001e009000ae00900095
:104cc4008015070010079800210798001e00900027
:104cd400ae00900050448800614488008468ef006e
:104ce4000080fa00000006000400fa002047980043
:104cf40000c7b30082e8b7002e419000318820003d
:104d04008248780040c52100000f780083c8bf00a6
:104d14000080fb009e0078009004b000000040007a
:104d2400610078008000eb00304488004144880032
:104d34008468ef000080fa00000006000400fa0016
:104d44002047980000c8b30082e8b7002e419000c5
:104d5400318820008248780040c52100000f780087
:104d64008628ef008828ef006288200083c8bf00ef
:104d74000080fb009e0178006e00b90000007800fe
:104d84006004b000630078000040780000497800b7
:104d94008468ef000080fa00000006000a00fa00b0
:104da400004f980000c9b30082e8b7000e49900094
:104db400318820008248780040c5210020079800ef
:104dc40083c8bf000080fb000000d100604798004a
:104dd40083c8bf000080fb006100600000407800d1
:104de4000004e0000a0032006e4090000080fb00e6
:104df4002e0190006e00b900000078002004b0007d
:104e0400000041001000be00008fbe000900370002
:104e14006e4090000080fb002e0190006e00b900ef
:104e240000007800e003b000000041001000be0064
:104e3400008fbe001e00be0022150700008fbe00ba
:104e44001e00be0050448800614488008468ef005e
:104e54000080fa00000006000800fa00604798008d
:104e640000cab30082e8b7006e4190003188200088
:104e74008248780040c521002007980083c8bf00fd
:104e84000080fb00e10f50000f003200e10f5000e2
:104e940003003c000000e000060032002000370060
:104ea400e20f50000d003200e30f500010003200fa
:104eb4001b0037002e00900010909000cf80de0081
:104ec400008fbe000f0037002e009000309090003d
:104ed400cf80de00008fbe000a0037002e00900055
:104ee40050909000cf80de00008fbe000500370098
:104ef4002e00900070909000cf80de00008fbe00e6
:104f0400000000001e00be00ee140700008fbe006b
:104f14001e00be0050448800614488008468ef008d
:104f24000080fa00000006000800fa0060479800bc
:104f340010cab30082e8b7006e41900031882000a7
:104f44008248780040c521002007980083c8bf002c
:104f5400e14f5000010036008368ef0083c8bf00b2
:104f64000004e00004003a008085240001002000d1
:104f7400008fbe000600370083c8bf00e14f500019
:104f840003003a00006a280011002000008fbe00d0
:104f94001e00be00cb140700008fbe001e00be0022
:104fa40050448800614488008468ef000080fa005f
:104fb400000006000800fa006047980000cbb30028
:104fc40082e8b7006e419000318820008248780062
:104fd4006000b800008fbe0040c521002007980083
:104fe40083c8bf000080fb00e10f50000f003200b7
:104ff400e10f500003003c000000e0000600320016
:1050040020003700e20f50000d003200e30f500083
:10501400100032001b0037002e00900050a19000b9
:10502400e0a19000028fbe000f0037002e00900018
:1050340070a1900080a99000028fbe000a00370082
:105044002e00900010a99000a0a99000028fbe002d
:10505400050037002e00900030a99000c0a99000f0
:10506400028fbe00000000001e00be009514070061
:10507400008fbe001e00be005044880061448800ba
:105084008468ef000080fa00000006000200fa00c5
:1050940000ccb30082e8b7008368ef0040c521006c
:1050a400000f78001e00780050a890008000eb00ec
:1050b40030448800414488008468ef000080fa008e
:1050c400000006000000fa0000cfb30082e8b70039
:1050d4008368ef00608820002142800081407800ce
:1050e400014878008468ef000080fa0000000600a0
:1050f4000000fa008268ef008368ef008628ef0062
:105104008828ef008a28ef008c28ef008468ef00dd
:105114009068ef009168ef008028ef000080fa00ab
:10512400000006000000fa0083c8bf000080fb00f6
:105134000000e900e10f500005003e0042c0b3004a
:105144008040eb004088200073fd07000100370019
:10515400000000000080fa00000006000000fa00d1
:1051640091c8bf000004e0000400320042c0b30054
:105174008040eb004088200067fd07000080fa00b3
:10518400000006000000fa0091c8bf000004e0001f
:105194000400320042c0b3008040eb00408820008d
:1051a4005dfd07000080fa00000006000200fa001e
:1051b40083c8bf006f4f60001e4fe8001e40780098
:1051c400e34f5000020036000040eb00004f78002f
