:020000040000fa
:080000000002040000000000f2
:020000040000fa
:040008000c060000e2
:020000040000fa
:04000c00e803000005
:020000040000fa
:04001000fa030000ef
:020000040000fa
:04001400f0030000f5
:020000040000fa
:0400180002040000de
:020000040000fa
:04001c000c060000ce
:020000040000fa
:040020000c060000ca
:020000040000fa
:040024000c060000c6
:020000040000fa
:040028000c060000c2
:020000040000fa
:04002c000c060000be
:020000040000fa
:040030000c060000ba
:020000040000fa
:04003400ba0300000b
:020000040000fa
:040038000c060000b2
:020000040000fa
:04003c000c060000ae
:020000040000fa
:040040000c060000aa
:020000040000fa
:040044008c03000029
:020000040000fa
:040048000c060000a2
:020000040000fa
:04004c000c0600009e
:020000040000fa
:040050000c0600009a
:020000040000fa
:040054001205000091
:020000040000fa
:04005800bc040000e4
:020000040000fa
:04005c006e0500002d
:020000040000fa
:040060000c0600008a
:020000040000fa
:040064000c06000086
:020000040000fa
:040068000c06000082
:020000040000fa
:04006c000c0600007e
:020000040000fa
:040070000c0600007a
:020000040000fa
:040074008a050000f9
:020000040000fa
:040078000c06000072
:020000040000fa
:04007c000c0600006e
:020000040000fa
:040080000c0600006a
:020000040000fa
:040084000c06000066
:020000040000fa
:040088000c06000062
:020000040000fa
:04008c000c0600005e
:020000040000fa
:040090000c0600005a
:020000040000fa
:040094000c06000056
:020000040000fa
:040098000c06000052
:020000040000fa
:04009c000c0600004e
:020000040000fa
:0400a00060040000f8
:020000040000fa
:0400a4000a0400004a
:020000040000fa
:0400a8000c06000042
:020000040000fa
:0400ac000c0600003e
:020000040000fa
:0400b0000c0600003a
:020000040000fa
:0400b4000c06000036
:020000040000fa
:0400b8000c06000032
:020000040000fa
:0400bc000c0600002e
:020000040000fa
:0400c0000c0600002a
:020000040000fa
:0400c4000c06000026
:020000040000fa
:0400c8000c06000022
:020000040000fa
:0400cc000c0600001e
:020000040000fa
:0400d0000c0600001a
:020000040000fa
:0400d4000c06000016
:020000040000fa
:0400d8000c06000012
:020000040000fa
:0400dc000c0600000e
:020000040000fa
:0400e0000c0600000a
:020000040000fa
:0400e4000c06000006
:020000040000fa
:0400e8000c06000002
:020000040000fa
:0400ec000c060000fe
:020000040000fa
:0400f0000c060000fa
:020000040000fa
:0400f4000c060000f6
:020000040000fa
:0400f8000c060000f2
:020000040000fa
:0400fc000c060000ee
:020000040000fa
:040100000c060000e9
:020000040000fa
:040104000c060000e5
:020000040000fa
:040108000c060000e1
:020000040000fa
:04010c000c060000dd
:020000040000fa
:040110000c060000d9
:020000040000fa
:040114000c060000d5
:020000040000fa
:040118000c060000d1
:020000040000fa
:04011c000c060000cd
:020000040000fa
:04012000ee050000e8
:020000040000fa
:040124000c060000c5
:020000040000fa
:040128000c060000c1
:020000040000fa
:04012c005805000072
:020000040000fa
:04013000a604000021
:020000040000fa
:040134000c060000b5
:020000040000fa
:040138000c060000b1
:020000040000fa
:04013c000c060000ad
:020000040000fa
:040140000c060000a9
:020000040000fa
:040144000c060000a5
:020000040000fa
:040148000c060000a1
:020000040000fa
:04014c000c0600009d
:020000040000fa
:040150000c06000099
:020000040000fa
:040154000c06000095
:020000040000fa
:040158000c06000091
:020000040000fa
:04015c000c0600008d
:020000040000fa
:040160000c06000089
:020000040000fa
:040164000c06000085
:020000040000fa
:040168000c06000081
:020000040000fa
:04016c000c0600007d
:020000040000fa
:040170000c06000079
:020000040000fa
:040174000c06000075
:020000040000fa
:040178000c06000071
:020000040000fa
:04017c000c0600006d
:020000040000fa
:040180000c06000069
:020000040000fa
:040184000c06000065
:020000040000fa
:040188000c06000061
:020000040000fa
:04018c000c0600005d
:020000040000fa
:040190000c06000059
:020000040000fa
:040194000c06000055
:020000040000fa
:040198000c06000051
:020000040000fa
:04019c000c0600004d
:020000040000fa
:0401a0000c06000049
:020000040000fa
:0401a4000c06000045
:020000040000fa
:0401a8000c06000041
:020000040000fa
:0401ac000c0600003d
:020000040000fa
:0401b0000c06000039
:020000040000fa
:0401b4000c06000035
:020000040000fa
:0401b8000c06000031
:020000040000fa
:0401bc000c0600002d
:020000040000fa
:0401c0000c06000029
:020000040000fa
:0401c4000c06000025
:020000040000fa
:0401c8000c06000021
:020000040000fa
:0401cc000c0600001d
:020000040000fa
:0401d0000c06000019
:020000040000fa
:0401d4000c06000015
:020000040000fa
:0401d8000c06000011
:020000040000fa
:0401dc000c0600000d
:020000040000fa
:0401e0000c06000009
:020000040000fa
:0401e4000c06000005
:020000040000fa
:0401e8000c06000001
:020000040000fa
:0401ec000c060000fd
:020000040000fa
:0401f0000c060000f9
:020000040000fa
:0401f4000c060000f5
:020000040000fa
:0401f8000c060000f1
:020000040000fa
:0401fc000c060000ed
:020000040000fa
:040208000c060000e0
:020000040000fa
:04020c000c060000dc
:020000040000fa
:040210000c060000d8
:020000040000fa
:040214000c060000d4
:020000040000fa
:040218000c060000d0
:020000040000fa
:04021c000c060000cc
:020000040000fa
:040220000c060000c8
:020000040000fa
:040224000c060000c4
:020000040000fa
:040228000c060000c0
:020000040000fa
:04022c000c060000bc
:020000040000fa
:040230000c060000b8
:020000040000fa
:040234000c060000b4
:020000040000fa
:040238000c060000b0
:020000040000fa
:04023c000c060000ac
:020000040000fa
:040240000c060000a8
:020000040000fa
:040244000c060000a4
:020000040000fa
:040248000c060000a0
:020000040000fa
:04024c000c0600009c
:020000040000fa
:040250000c06000098
:020000040000fa
:040254000c06000094
:020000040000fa
:040258000c06000090
:020000040000fa
:04025c000c0600008c
:020000040000fa
:040260000c06000088
:020000040000fa
:040264000c06000084
:020000040000fa
:040268000c06000080
:020000040000fa
:04026c000c0600007c
:020000040000fa
:040270000c06000078
:020000040000fa
:040274000c06000074
:020000040000fa
:040278000c06000070
:020000040000fa
:04027c000c0600006c
:020000040000fa
:040280000c06000068
:020000040000fa
:040284000c06000064
:020000040000fa
:040288000c06000060
:020000040000fa
:04028c000c0600005c
:020000040000fa
:040290000c06000058
:020000040000fa
:040294000c06000054
:020000040000fa
:040298000c06000050
:020000040000fa
:04029c000c0600004c
:020000040000fa
:0402a0000c06000048
:020000040000fa
:0402a4000c06000044
:020000040000fa
:0402a8000c06000040
:020000040000fa
:0402ac000c0600003c
:020000040000fa
:0402b0000c06000038
:020000040000fa
:0402b4000c06000034
:020000040000fa
:0402b8000c06000030
:020000040000fa
:0402bc000c0600002c
:020000040000fa
:0402c0000c06000028
:020000040000fa
:0402c4000c06000024
:020000040000fa
:0402c8000c06000020
:020000040000fa
:0402cc000c0600001c
:020000040000fa
:0402d0000c06000018
:020000040000fa
:0402d4000c06000014
:020000040000fa
:0402d8000c06000010
:020000040000fa
:0402dc000c0600000c
:020000040000fa
:0402e0000c06000008
:020000040000fa
:0402e4000c06000004
:020000040000fa
:0402e8000c06000000
:020000040000fa
:0402ec000c060000fc
:020000040000fa
:0402f0000c060000f8
:020000040000fa
:0402f4000c060000f4
:020000040000fa
:0402f8000c060000f0
:020000040000fa
:0402fc000c060000ec
:020000040000fa
:040300000c060000e7
:020000040000fa
:040304000c060000e3
:020000040000fa
:040308000c060000df
:020000040000fa
:04030c000c060000db
:020000040000fa
:040310000c060000d7
:020000040000fa
:040314000c060000d3
:020000040000fa
:040318000c060000cf
:020000040000fa
:04031c000c060000cb
:020000040000fa
:040320000c060000c7
:020000040000fa
:040324000c060000c3
:020000040000fa
:040328000c060000bf
:020000040000fa
:04032c000c060000bb
:020000040000fa
:040330000c060000b7
:020000040000fa
:040334000c060000b3
:020000040000fa
:040338000c060000af
:020000040000fa
:04033c000c060000ab
:020000040000fa
:040340000c060000a7
:020000040000fa
:040344000c060000a3
:020000040000fa
:040348000c0600009f
:020000040000fa
:04034c000c0600009b
:020000040000fa
:040350000c06000097
:020000040000fa
:040354000c06000093
:020000040000fa
:040358000c0600008f
:020000040000fa
:04035c000c0600008b
:020000040000fa
:040360000c06000087
:020000040000fa
:040364000c06000083
:020000040000fa
:040368000c0600007f
:020000040000fa
:04036c000c0600007b
:020000040000fa
:040370000c06000077
:020000040000fa
:040374000c06000073
:020000040000fa
:040378000c0600006f
:020000040000fa
:04037c000c0600006b
:020000040000fa
:040380000c06000067
:020000040000fa
:040384000c06000063
:020000040000fa
:040388000c0600005f
:020000040000fa
:04038c000c0600005b
:020000040000fa
:040390000c06000057
:020000040000fa
:040394000c06000053
:020000040000fa
:040398000c0600004f
:020000040000fa
:04039c000c0600004b
:020000040000fa
:0403a0000c06000047
:020000040000fa
:0403a4000c06000043
:020000040000fa
:0403a8000c0600003f
:020000040000fa
:0403ac000c0600003b
:020000040000fa
:0403b0000c06000037
:020000040000fa
:0403b4000c06000033
:020000040000fa
:0403b8000c0600002f
:020000040000fa
:0403bc000c0600002b
:020000040000fa
:0403c0000c06000027
:020000040000fa
:0403c4000c06000023
:020000040000fa
:0403c8000c0600001f
:020000040000fa
:0403cc000c0600001b
:020000040000fa
:0403d0000c06000017
:020000040000fa
:0403d4000c06000013
:020000040000fa
:0403d8000c0600000f
:020000040000fa
:0403dc000c0600000b
:020000040000fa
:0403e0000c06000007
:020000040000fa
:0403e4000c06000003
:020000040000fa
:0403e8000c060000ff
:020000040000fa
:0403ec000c060000fb
:020000040000fa
:0403f0000c060000f7
:020000040000fa
:0403f4000c060000f3
:020000040000fa
:0403f8000c060000ef
:020000040000fa
:0403fc000c060000eb
:020000040000fa
:100400006fff20000e7f22000e0188000000000018
:10041000000020000000e000020032000001200087
:100420002002880014000700fd0107000000e00022
:1004300003003a0000022b000100200002003700f8
:100440000000200001002000810f70000100320038
:1004500014000700000020000000e000020032004d
:10046000000002000000000048a10200000000009f
:100470000040da000000fe004440a90020ed20000a
:100480000000e000030032000020200090018800fe
:100490004440a800000006008a1f78008b1f7800e7
:1004a00000000600a1028800800478000000eb0034
:1004b0001f003700e284440054a0b4009905ba003c
:1004c000e284440054a0b4009906ba00e2844400d7
:1004d00054a0b4000006eb00476fde00fd07b20039
:1004e000ae018800636ce10003003a00eaff0700f8
:1004f0000000eb000e003700606ce10008003a00dd
:10050000004deb000a05e800020039003420ec0041
:100510000af0a0008b05e900f9ff3e000400370057
:100520006168e100010032000086eb000b0007006b
:1005300019c7ba001905ba000e04e00003003a001a
:100540000a00e000dbff3a0000000600fe07b200f0
:10055000ae0288008a047800f5ff37000cd0a300b3
:10056000e20f4d001c00390089027800354dba00b9
:100570000a05e800020039003420ec000af0a0006f
:100580008b05e9000f003200254dba000a05e8008e
:10059000020039003420ec000af0a0008b05e900cd
:1005a000080032000c00e0000600320015cdba0051
:1005b0000a05e800020039003420ec000af0a0002f
:1005c0008b05e9008984e80054a0b4000b00e0002a
:1005d000e2ff3a00000006009902ba00055d7800cb
:1005e0008b05e900f7ff3200c82ade00055d7800c0
:1005f0008b05e900f3ff32000c00e000f1ff320050
:1006000019ddba00eeff370042950400000000003b
:100610004e95040000000000d0950400000000008a
:10062000dc95040000000000a89504000000000014
:100630007e960400000000008a960400000000007e
:10064000b496040000000000c09604000000000002
:100650004296040000000000f09704000000000033
:100660000298040000000000389804000000000018
:1006700040970400000000004c97040000000000b8
:100680008897040000000000949704000000000018
:100690001a970400000000001498040000000000f5
:1006a0002698040000000000e6a4040000000000fa
:1006b0003699040000000000789904000000000052
:1006c000e69a0400000000004a9a040000000000be
:1006d000289c0400000000003e9c04000000000074
:1006e000bc9c040000000000ee9c04000000000020
:1006f000ae9d040000000000809c0400000000008b
:10070000d69c040000000000509d04000000000082
:100710002c9e0400000000003600f800809fbe0000
:10072000829fbe00849fbe00869fbe000000fa002c
:100730007257070030ff2000104078008040e8002a
:1007400030ff20000148780020ff200011c0b300d6
:100750000148780084e0a9000080fa004f03be0041
:100760004f02be004f01be004f00be003600f90030
:10077000004006003600f800809fbe00829fbe0049
:10078000849fbe00869fbe000000fa002657070027
:1007900050ff2000104078008040e80050ff20000b
:1007a0000148780040ff200011c0b30001487800e4
:1007b0008460a9000080fa004f03be004f02be0013
:1007c0004f01be004f00be003600f9000040060099
:1007d0003600f8008020a9000000eb0064580700f4
:1007e0003600f800665807008040a900100020007d
:1007f0005f5807003600f8008060a9002000200044
:100800005b5807003600f8008080a9003000200007
:1008100057580700809fbe000000fa00317e80001c
:1008200000202000008060000000e0000200320094
:1008300097e0a9001f00370087e0a90018003700e3
:10084000207e8000104078000080fb00a01188000e
:10085000207e80000000e800207e8800217e80004d
:1008600000fd2000808f500002003a0080fc200034
:10087000207e8800307e80000080a100307e8800cd
:10088000217e8000107e8000808f500004003a009e
:10089000307e80000090a000307e88000500370088
:1008a0009111800000202000008060000000e00026
:1008b000e3ff32000080fa004f00be000040060057
:1008c000809fbe000000fa0018003700f07d800015
:1008d000b11180008140780001487800f07d8000ef
:1008e0000000e800f07d8800f17d800080fd2000a0
:1008f000808f500002003a0000fd2000f07d88004b
:10090000307e80000010a100307e8800f17d8000e4
:10091000007e8000808f500004003a00307e80000e
:100920000000a000307e8800040037009011800095
:10093000610060000000e000e4ff3a0087c0a90009
:100940000080fa004f00be0000400600801f7800c3
:100950000000fa0090118000620060000000e000da
:10096000010032003222a9008c40a9000080fa0068
:100970004f00780000400600809fbe000000fa0093
:10098000017f800000202000008060000000e00067
:10099000020032009580a9001f0037008580a90061
:1009a00018003700f07e8000104078000080fb00c7
:1009b00020118800f07e80000000e800f07e8800b2
:1009c000f17e8000a0fe2000808f500002003a00df
:1009d00020fe2000f07e8800007f80000080a100c3
:1009e000007f8800f17e8000e07e8000808f5000d4
:1009f00004003a00007f80000090a000007f880083
:100a000005003700111180000020200000806000e8
:100a10000000e000e3ff32000080fa004f00be005b
:100a200000400600809fbe000000fa00180037005a
:100a3000c07e80003111800081407800014878003c
:100a4000c07e80000000e800c07e8800c17e80007b
:100a500020ff2000808f500002003a00a0fe2000fe
:100a6000c07e8800007f80000010a100007f880009
:100a7000c17e8000d07e8000808f500004003a004c
:100a8000007f80000000a000007f88000400370085
:100a900010118000610060000000e000e4ff3a00f7
:100aa0008560a9000080fa004f00be0000400600eb
:100ab000801f78000000fa001011800062006000c2
:100ac0000000e000010032002222a9008c20a900d1
:100ad0000080fa004f007800004006003200f80065
:100ae0003400f800881f780018002000a801880052
:100af00008202000980188004f0478000000fa00c8
:100b000085a0a9000080fa003400f9003200f90045
:100b1000004006003600f800809fbe00829fbe00a5
:100b2000849fbe00869fbe000200fa00803e200027
:100b3000000f78008660a90000000000075707003a
:100b400017e9b700080037000000000000000000af
:100b50000000000000000000000000000000000095
:100b600000000000000000001e00780000f0a70058
:100b70000000ea000000ea004f00de0000407800bc
:100b80001e0fe9000004e000efff3a00f3560700f3
:100b900017e9b70017c9bf000004e00006003200e3
:100ba00016c9bf000004e00003003a0017c9bf00e7
:100bb00016e9b700625707000000000000000000bf
:100bc0000080fa004f03be004f02be004f01be007e
:100bd0004f00be003600f90000400600809fbe00b6
:100be0000000fa008bc0a900204880000000a0008f
:100bf0002048880020478000314780006100400085
:100c0000e080480020478800314788000080fa00d3
:100c10004f00be00004006000040da000000fe0069
:100c20000000050003f0a200889fbe008a9fbe005e
:100c30008c1f78002c010700330133006450e10061
:100c40004f0032006420e1005200320003826c0049
:100c500007003b000905d0000306d000820f5400b6
:100c60000c065d00020039000200320089017800a4
:100c7000030678008582550004003d000003fd0056
:100c80008103fd008502ea008b854200840f72001b
:100c900002003b0060001000e08018006011b80006
:100ca0000005eb007a28e1000a0039000600780010
:100cb000c75ddd00f707b200878075002d003700a3
:100cc000828171000a017800610560008180d10095
:100cd0000080d3008502e900f9ff3b0006044000d4
:100ce0008784480002003b0060041400e0841c007c
:100cf0000988a300070032008a8171008281710097
:100d0000610164008904d1000884d3008b05e800e8
:100d1000170037000978a30013003a000b00e00029
:100d2000130034008b05e9000804440089844c005a
:100d30000a4474000978a3000d003a000b00e0009b
:100d4000070034008b05e9000804440089844c0046
:100d500001003a000b0020000978a300f7ff3200e1
:100d60000001eb0002003700828171000a01780067
:100d7000a20007000cf0a70001f0a000eb00370074
:100d80006420e10002003a00838f6c00eb00330026
:100d90000801be000200be00e4003700889fbe00cc
:100da0008a9fbe008c1f7800cf000700d60033005a
:100db00003866c006450e1002e0032006420e100e4
:100dc000330032006150e1002f0032006120e10069
:100dd0003100320085855500eb07b0000900200086
:100de00008042000050037000804440089844c00f2
:100df0000a0031000603430087834b0000015300c3
:100e000081815b00f8ff33000203be000800a000f0
:100e10000804440089844c00f6ff3900c639dd001f
:100e20008301730001003200130020008904d10007
:100e30000884d3000998a300050032000800a70029
:100e40000300a0008904d1000884d3008b05e800ca
:100e50008904d1000884d3000001eb000281d20094
:100e60006600070001f0a1000cf0a70001f0a0004f
:100e7000ae0037006420e100b00032000801be007f
:100e80000200be00f7ff37006120e100ab00320036
:100e90006000b800f3ff37000000200001f82700d1
:100ea000f0ff3700839f68000100e00002003d0072
:100eb00060001000e08018000300e00002003d0028
:100ec00060011100e0811900e20007004f00e0001e
:100ed00002003b0060001000e080180000000600e7
:100ee00014002000ee003700f4ff2f00ec00370064
:100ef0000001be00670007000470a70003f0a10016
:100f00006509b100160032000d0035006828e100c7
:100f100006003500f0ff2f00f1ff27000300e0007e
:100f200013003b0001002800000005000000400005
:100f3000818048008502e900fcff3a000800370084
:100f4000f88f420002003c008000eb00000005002a
:100f50008100d1000080d3008502e800fcff3a0048
:100f60000300e00002003b0060001000e080180079
:100f7000000006000001be00460007000470a70044
:100f800003f0a10003f8a30013003a006509b100c3
:100f900010003200090035006928e1000200350028
:100fa000010028000000050000004000818048008a
:100fb0008502e900fcff3a0000000600f88f4200bd
:100fc000050035008100d1000080d3008502e800d3
:100fd000fcff3a00000006008000eb000000050066
:100fe0004f89de0082017800c80037006011b80028
:100ff000d600370004002000a9003700810020003f
:10100000618055000b003d000b00200061fe2f00a9
:101010000100e1001d003400828171006101640063
:101020008904d1000884d3000000e800faff3a00e8
:101030007100200061006400030070000200600085
:101040000900320061044400e0844c000988a500d6
:10105000050032008b05e8006808e10002003a0054
:101060008904d1000884d300f20f20000258e10067
:1010700005003d00c75ddd00f907b20089807500fd
:1010800008007800000006000bf827008b007800ad
:1010900000000500c70ade00f107b200f50fb2003c
:1010a00008003200e1cf4200020032000170a000cf
:1010b00024000500810f70000100320004080500c3
:1010c00044000500810f700002003a001400050082
:1010d0008502e9000000400081c04800fcff3b00a1
:1010e0000170a000240005000004be00e9ff070015
:1010f0000003be000405be000200be00e5ff0700bd
:10110000844f7500000006000200be006450e1003c
:10111000050036006420e100020036000968a300e3
:1011200001003a000800be000160a0004f067800f0
:101130004f05be004f04be0000000600f0ff2f0068
:10114000f1ff2700f9ff3700811f78000100e00060
:1011500002003d0060001000e08018000300e00085
:1011600002003d0060011100e08119004900070004
:101170004f00e00002003b0060001000e08018001b
:1011800000000600889fbe008a9fbe008c1f78006a
:10119000d5ff0700dcff330003866c006450e100dc
:1011a000240032006420e100270032006150e10099
:1011b000220032006120e100210032008b854200d4
:1011c000eb07b1000134b800003ab800080442004f
:1011d00089844a00013ab8000030b8008880400095
:1011e00009014a00040033000000400081804800eb
:1011f000020149008b05e900c909dd008301700087
:101200000100320013002000c814de004814dd0085
:101210004709de001200b200c808de000884700032
:1012200076ff070001f0a1000cf0a70001f0a0007c
:10123000beff37006120e100c0ff32000801be00a0
:101240000200be00f7ff37006150e100fcff3a00ea
:10125000baff37006022b800060220000000d0006c
:101260008180d2000482d2008582d2000000a000da
:101270000202520083825a0003003100020242003f
:1012800083824a000000a1000603e900f3ff3a0050
:1012900000000600efff07000400be00000006008b
:1012a000889fbe008a9fbe00841f78008eff0700c3
:1012b0004f00780011003300f0ff2f00838f6c0087
:1012c00006003b00040565000a00a700080037007f
:1012d00009f0a6001000200008003700820f54001b
:1012e000838f5c00030039001000200001003e00e5
:1012f0000000200009f0a7000000ea004f05be0032
:101300004f04be000000e00000000600881f7800c7
:10131000030478000300e00007003d0060001000b7
:10132000e080180060011900e081190002003b0014
:1013300001f02d00030037000400070008f0a700ab
:1013400001f0a0004f04780000000600889fbe0056
:101350008a9fbe0000827000040271000482710046
:10136000260032000004be000200be006011b8007a
:101370006b092000950220000182cf000a0039008d
:101380000541b1000082cf00070039000541b100de
:101390000982cf00040039000541b1000882cf0066
:1013a000010039000541b10005425200120032002f
:1013b0000a003b0082817100610164008100d1005c
:1013c0000080d3008984d3000884d3008b05e80013
:1013d0000442e800f7ff3a00070037000804440021
:1013e00089844c0000004800818048008b05e9009a
:1013f0000442e900f9ff3a0000ff07004f05be0074
:081400004f04be0000000600cd
:020000040000fa
:10140800000000000000000089d20000de3a000061
:10141800524900009d3b0000728a00000e3c00000b
:10142800ac8b00005b3c0000be300000993c000023
:1014380039b40000c83c000048500000fc3c0000e3
:101448009a990000193d00007dae0000363d00006d
:10145800f4fd0000543d0000d8f00000743d000089
:10146800964300008b3d00009a7700009c3d0000e9
:10147800e9480000ae3d000080b70000c03d000014
:10148800f38e0000d33d000042cf0000e63d00008f
:10149800daac0000fa3d0000a7790000073e000022
:1014a8004ed10000113e0000645d00001c3e0000ab
:1014b800b0030000273e0000a1f80000313e000004
:1014c80091ed00003c3e000027310000483e00003e
:1014d800f38e0000533e0000f70600005f3e000058
:1014e80068b300006a3e0000107a0000763e0000f3
:1014f800772d0000813e0000022b0000873e00008f
:10150800c44200008d3e0000865a0000933e000051
:10151800637f0000993e00005bb100009f3e000021
:101528006ff00000a53e00009f3c0000ac3e0000ac
:10153800ce880000b23e000019e20000b83e00006c
:10154800643b0000bf3e0000cba10000c53e000088
:101558004d150000cc3e0000ce880000d23e0000b1
:1015680050fc0000d83e0000d26f0000df3e0000b3
:101578006ff00000e53e00000d710000ec3e000039
:10158800aaf10000f23e0000637f0000f93e00006f
:1015980000000000003f00004f400000033f000033
:1015a8002b870000063f00007ac70000093f0000b3
:1015b800c80700000d3f000017480000103f00005a
:1015c800d8810000133f000099bb0000163f0000bf
:1015d8005af50000193f00001b2f00001d3f0000b6
:1015e8004e620000203f0000f38e0000233f000001
:1015f80099bb0000263f0000b1e10000293f000030
:10160800c80700002d3f000052270000303f0000af
:101618004f400000333f0000bd520000363f00003d
:101628009e5e0000393f00007f6a00003c3f0000da
:10163800446900003f3f00007c610000423f000019
:1016480026530000453f0000423e0000483f00008e
:10165800431c00004b3f0000b6f300004d3f000064
:101668009cc40000503f0000d8810000533f000098
:10167800143f0000563f0000a7e80000583f000054
:10168800ac8b00005b3f0000962100005e3f00002d
:1016980065aa0000603f000018260000633f0000b4
:1016a800228e0000653f000010e90000673f00003f
:1016b800e33600006a3f00000d7100006c3f000037
:1016c8008d9700006e3f0000f2b00000703f0000f0
:1016d80021b00000723f000018950000743f000020
:1016e80066660000763f00007e1d0000783f00001f
:1016f8005eba0000793f00007a3600007b3f0000a8
:10170800d19100007c3f0000d6c500007d3f00005d
:101718006dc500007e3f0000979000007f3f0000ed
:1017280000000000803f00000000000000000000f2
:10173800524900009d390000524900009d3a0000be
:10174800c36400002a3b0000750200009a3b0000b9
:10175800d7340000ef3b0000c36400002a3c0000bf
:1017680042600000653c00002b180000953c00001a
:1017780011c70000ba3c000042600000e53c0000d0
:1017880027a00000093d0000789c0000223d0000d1
:1017980012a500003d3d00001a5100005a3d00000e
:1017a80090a00000783d0000287e00008c3d0000dd
:1017b800bf7d00009d3d0000a01a0000af3d000065
:1017c800a5bd0000c13d0000f4fd0000d43d0000af
:1017d800f90f0000e93d000048bf0000fd3d000092
:1017e80027a00000093e00004faf0000143e000093
:1017f8001b0d0000203e0000569f00002b3e0000fd
:101808006b9a0000373e000026e40000433e0000cb
:101818004e620000503e00001b2f00005d3e00009d
:10182800553000006a3e000034800000773e00001a
:1018380025750000823e000083510000893e0000ab
:1018480017480000903e0000c74b0000973e00007c
:10185800ad6900009e3e0000cba10000a53e00003f
:1018680004e70000ac3e000058390000b43e000018
:10187800e3a50000bb3e00006f120000c33e00005d
:1018880031990000ca3e0000f31f0000d23e00005c
:10189800ecc00000d93e0000ca540000e13e000040
:1018a800de020000e93e0000d7a30000f03e000081
:1018b800ec510000f83e000000000000003f00006e
:1018c8000ad70000033f000014ae0000073f0000e5
:1018d800917e00000b3f00009b5500000f3f000069
:1018e80018260000133f000007f00000163f000014
:1018f80068b300001a3f0000c97600001e3f0000d0
:101908000e2d0000223f000054e30000253f000098
:101918007e8c0000293f00001b2f00002d3f000097
:1019280029cb0000303f00001d5a0000343f000062
:1019380082e20000373f00003f5700003b3f0000b5
:101948006dc500003e3f0000f31f0000423f00004d
:10195800eb730000453f000039b40000483f000029
:101968006de700004b3f0000f70600004f3f000006
:1019780065190000523f00002b180000553f000079
:1019880047030000583f00002cd400005a3f0000d5
:10199800f69700005d3f000017480000603f000018
:1019a80001de0000623f000042600000653f000069
:1019b8004bc80000673f0000ac1c00006a3f0000f5
:1019c800485000006c3f00003b7000006e3f000074
:1019d800696f0000703f0000ee5a0000723f00007f
:1019e800af250000743f000039d60000753f0000a5
:1019f800fe650000773f0000fed40000783f00003d
:101a0800c72900007a3f00003f5700007b3f0000d5
:101a18007f6a00007c3f00006d5600007d3f00009b
:101a2800242800007e3f0000fbcb00007e3f000022
:101a38009b5500007f3f00005bb100007f3f000026
:101a480057ec00007f3f000000000000803f0000ce
:101a580000800000e744000000e00000ec440000c3
:101a680000400000f244000000c00000f7440000fd
:101a780000200000fd440000004000000145000077
:101a880000f000000345000000a00000064500002b
:101a98000050000009450000000000000c4500004f
:101aa80000b000000e450000005000001145000085
:101ab800000000001445000000b0000016450000ba
:101ac8000060000019450000001000001c450000df
:101ad80000b000001e450000006000002145000025
:101ae800000000002445000000b00000264500006a
:101af8000060000029450000000000002c4500009f
:101b080000b000002e4500000050000031450000e4
:101b1800000000003445000000a000003645000029
:101b2800004000003945000000f000003b4500007f
:101b3800009000003e4500000030000041450000d4
:101b480000e000004345000000800000464500001a
:101b5800002000004945000000c000004b4500007f
:101b6800006000004e4500000000000051450000e4
:101b780000a000005345000000400000564500004a
:101b880000e0000058450000008000005b450000b0
:101b9800002000005e45000000c000006045000015
:101ba800006000006345000000000000664500007a
:101bb80000a0000068450000004000006b450000e0
:101bc80000d000006d450000007000007045000066
:101bd800001000007345000000b0000075450000cb
:101be800004000007845000000e000007a45000051
:101bf800008000007d4500000008000080450000ce
:101c0800005800008145000000a000008245000047
:101c180000f0000083450000003800008545000002
:101c2800008800008645000000d0000087450000bd
:101c38000020000089450000006800008a45000077
:101c480000b000008b450000000000008d4500003a
:101c5800004800008e450000009000008f450000fd
:101c680000e00000904500000028000092450000b8
:101c7800007000009345000000b800009445000083
:101c88000000000096450000005000009745000045
:101c9800009800009845000000e000009945000009
:101ca800002800009b450000007000009c450000d3
:101cb80000b800009d450000000000009f4500009e
:101cc80000480000a045000000900000a145000069
:101cd80000d80000a245000000200000a445000034
:101ce80000680000a545000000b00000a6450000ff
:101cf80000f80000a745000000380000a9450000d2
:101d080000800000aa45000000c80000ab450000a4
:101d180000100000ad45000000580000ae4500006e
:101d280000980000af45000000e00000b04500004a
:101d380000280000b245000000680000b34500001c
:101d480000b00000b445000000f80000b5450000f0
:101d580000380000b745000000800000b8450000ca
:101d680000c00000b945000000080000bb450000a5
:101d780000500000bc45000000900000bd45000078
:101d880000d80000be45000000180000c045000053
:101d980000600000c145000000a00000c24500002e
:101da80000e00000c345000000280000c545000011
:101db80000680000c645000000b00000c7450000ec
:101dc80000f00000c845000000300000ca450000cf
:101dd80000780000cb45000000b80000cc450000aa
:101de80000f80000cd45000000380000cf45000095
:101df80000800000d045000000c00000d145000070
:101e080000000000d345000000400000d445000059
:101e180000880000d545000000c80000d645000035
:101e280000080000d845000000480000d94500001f
:101e380000880000da45000000c80000db4500000b
:101e480000080000dd45000000480000de450000f5
:101e580000880000df45000000c80000e0450000e1
:101e680000080000e245000000480000e3450000cb
:101e780000880000e445000000c80000e5450000b7
:101e880000080000e745000000480000e8450000a1
:101e980000880000e945000000c80000ea4500008d
:101ea80000080000ec45000000480000ed45000077
:101eb80000880000ee45000000c80000ef45000063
:101ec80000000000f145000000400000f24500005d
:101ed80000800000f345000000c00000f445000049
:101ee80000000000f645000000380000f74500003b
:101ef80000780000f845000000b80000f94500002f
:101f080000f80000fa45000000300000fc45000021
:101f180000700000fd45000000b00000fe45000014
:101f280000e80000ff4500000094000000460000a3
:101f3800003400000146000000d000000146000007
:101f48000070000002460000000c0000034600007c
:101f580000ac000003460000004c000004460000ee
:101f680000e8000004460000008800000546000064
:101f7800002400000646000000c4000006460000d9
:101f8800006000000746000000000000084600004e
:101f9800009c000008460000003c000009460000c4
:101fa80000d8000009460000007800000a4600003a
:101fb800001400000b46000000b000000b460000b3
:101fc800005000000c46000000ec00000c46000029
:101fd800008c00000d460000002800000e4600009e
:101fe80000c400000e460000006400000f46000018
:101ff8000000000010460000009c00001046000091
:10200800003c00001146000000d800001146000006
:102018000074000012460000001000001346000083
:1020280000b0000013460000004c000014460000f9
:1020380000e8000014460000008400001546000077
:10204800002400001646000000c0000016460000ec
:10205800005c00001746000000f80000174600006a
:1020680000940000184600000030000019460000e7
:1020780000d0000019460000006c00001a4600005d
:10208800000800001b46000000a400001b460000da
:10209800004000001c46000000dc00001c46000058
:1020a800007800001d460000001400001e460000d5
:1020b80000b000001e460000004c00001f46000053
:1020c80000e800001f4600000084000020460000d1
:1020d800002000002146000000bc0000214600004e
:1020e800005800002246000000f4000022460000cc
:1020f8000090000023460000002c00002446000049
:1021080000c80000244600000064000025460000c6
:102118000000000026460000009c00002646000043
:10212800003800002746000000d0000027460000c5
:10213800006c000028460000000800002946000046
:1021480000a4000029460000004000002a460000c4
:1021580000dc00002a460000007400002b46000046
:10216800001000002c46000000ac00002c460000c7
:10217800004800002d46000000e400002d46000045
:10218800007c00002e460000001800002f460000ca
:1021980000b400002f460000004c0000304600004c
:1021a80000e80000304600000084000031460000ce
:1021b800002000003246000000b80000324600004f
:1021c800005400003346000000ec000033460000d5
:1021d8000088000034460000002400003546000056
:1021e80000bc0000354600000058000036460000dc
:1021f80000f0000036460000008c00003746000062
:10220800002800003846000000c0000038460000e2
:10221800005c00003946000000f400003946000068
:10222800009000003a460000002800003b460000ed
:1022380000c400003b460000005c00003c46000073
:1022480000f800003c460000009000003d460000f9
:10225800002c00003e46000000c400003e4600007e
:10226800005c00003f46000000f800003f46000008
:102278000090000040460000002c0000414600008d
:1022880000c4000041460000005c00004246000017
:1022980000f800004246000000900000434600009d
:1022a800002800004446000000c400004446000026
:1022b800005c00004546000000f4000045460000b0
:1022c8000090000046460000002800004746000035
:1022d80000c00000474600000058000048460000c3
:1022e80000f4000048460000008c00004946000049
:1022f800002400004a46000000bc00004a460000d6
:10230800005400004b46000000f000004b4600005f
:10231800008800004c460000002000004d460000e8
:1023280000b800004d460000005000004e46000076
:1023380000e800004e460000008000004f46000004
:10234800001800005046000000b40000504600008d
:10235800004c00005146000000e400005146000017
:10236800007c0000524600000014000053460000a4
:1023780000ac000053460000004400005446000032
:1023880000dc0000544600000074000055460000c0
:10239800000c00005646000000a40000564600004d
:1023a800003c00005746000000d4000057460000db
:1023b800006c00005846000000000000594600006c
:1023c8000098000059460000003000005a460000fe
:1023d80000c800005a460000006000005b4600008c
:1023e80000f800005b460000009000005c4600001a
:1023f800002800005d46000000bc00005d460000ab
:10240800005400005e46000000ec00005e4600003c
:10241800008400005f460000001c000060460000c9
:1024280000b000006046000000480000614600005f
:1024380000e00000614600000078000062460000ed
:10244800000c00006346000000a400006346000082
:10245800003c00006446000000d000006446000014
:1024680000680000654600000000000066460000a5
:102478000094000066460000002c0000674600003b
:1024880000c40000674600000058000068460000cd
:1024980000f000006846000000880000694600005f
:1024a800001c00006a46000000b400006a460000f4
:1024b800004800006b46000000e000006b4600008a
:1024c800007400006c460000000c00006d4600001f
:1024d80000a000006d460000003800006e460000b5
:1024e80000cc00006e460000006400006f4600004b
:1024f80000f800006f4600000090000070460000e1
:10250800002400007146000000bc00007146000075
:10251800005000007246000000e80000724600000b
:10252800007c0000734600000010000074460000a4
:1025380000a8000074460000003c0000754600003a
:1025480000d40000754600000068000076460000d0
:1025580000fc00007646000000940000774600006a
:10256800002800007846000000bc00007846000003
:10257800005000007946000000e80000794600009d
:10258800007c00007a460000001000007b46000036
:1025980000a400007b460000003c00007c460000d0
:1025a80000d000007c460000006400007d4600006a
:1025b80000f800007d460000008c00007e46000008
:1025c800002400007f46000000b800007f4600009d
:1025d80000260000804600000070000080460000d1
:1025e80000ba000080460000000400008146000098
:1025f800004e000081460000009a0000814600005d
:1026080000e4000081460000002e00008246000021
:10261800007800008246000000c2000082460000e8
:10262800000c0000834600000056000083460000ae
:1026380000a000008346000000ea00008346000076
:102648000034000084460000007e0000844600003c
:1026580000c8000084460000001200008546000003
:10266800005c00008546000000a6000085460000ca
:1026780000ee000085460000003800008646000095
:10268800008200008646000000cc0000864600005c
:102698000016000087460000006000008746000022
:1026a80000aa00008746000000f4000087460000ea
:1026b800003c0000884600000086000088460000b4
:1026c80000d0000088460000001a0000894600007b
:1026d8000064000089460000d204000000000000e9
:1026e800010000005f000000050000004c4f0000e2
:1026f8003200000000000000740400004c4e00008e
:1027080032000000000000002a0300004c410000d5
:1027180052000000000000007a050000434f00004e
:102728003200000000000000fc0300004c4e0000d6
:102738004700000000000000cc010000202000003d
:102748005000000000000000e8030000b50e000083
:1027580000000000780500000000000000000000f4
:102768000000000000000000000000000000000061
:102778000000000000000000000000000000000051
:102788000000000050c300000000000050c300001b
:102798000000000000000000000000000000000031
:1027a8000000000050c300000000000050c30000fb
:1027b8000000000000000000000000000000000011
:1027c8000000000050c300000000000050c30000db
:1027d80000000000000000000000000000000000f1
:1027e8000000000050c300000000000050c30000bb
:1027f8000000000070170000000000001400000036
:1028080000000000000000000000000000000000c0
:10281800e8030000000000001400000000000000b1
:10282800010000000000000000000000200300007c
:102838000000000005000000000000000200000089
:102848000000000000000000c800000000000000b8
:102858000500000000000000030000000000000068
:1028680000000000e8030000000000000000000075
:102878000000000000000000000000001027000019
:1028880010270000000000000000000010270000d2
:1028980010270000000000000000000010270000c2
:1028a80010270000204e000000000000fd0400007a
:1028b80000000000c0d4000001000000f01d00006e
:1028c80000000000204e000000000000fd04000091
:1028d80000000000c0d4000001000000f01d00004e
:1028e800000000000000000000000000d007000009
:1028f800000000000000000000000000d0070000f9
:1029080000000000000000000000000000000000bf
:1029180000000000b6030000003c000000000000ba
:102928002c010000000000000000000000c10000b1
:102938008140000001c000008041000001c000008b
:102948008041000000c100008140000001c000007b
:102958008041000000c100008140000000c100006b
:102968008140000001c000008041000001c000005b
:102978008041000000c100008140000000c100004b
:102988008140000001c000008041000000c100003b
:102998008140000001c000008041000001c000002b
:1029a8008041000000c100008140000001c000001b
:1029b8008041000000c100008140000000c100000b
:1029c8008140000001c000008041000000c10000fb
:1029d8008140000001c000008041000001c00000eb
:1029e8008041000000c100008140000000c10000db
:1029f8008140000001c000008041000001c00000cb
:102a08008041000000c100008140000001c00000ba
:102a18008041000000c100008140000000c10000aa
:102a28008140000001c000008041000001c000009a
:102a38008041000000c100008140000000c100008a
:102a48008140000001c000008041000000c100007a
:102a58008140000001c000008041000001c000006a
:102a68008041000000c100008140000000c100005a
:102a78008140000001c000008041000001c000004a
:102a88008041000000c100008140000001c000003a
:102a98008041000000c100008140000000c100002a
:102aa8008140000001c000008041000000c100001a
:102ab8008140000001c000008041000001c000000a
:102ac8008041000000c100008140000001c00000fa
:102ad8008041000000c100008140000000c10000ea
:102ae8008140000001c000008041000001c00000da
:102af8008041000000c100008140000000c10000ca
:102b08008140000001c000008041000000c10000b9
:102b18008140000001c000008041000001c00000a9
:102b28008041000000c100008140000000c000009a
:102b3800c1010000c303000002c20000c606000075
:102b480007c7000005c50000c4040000cc0c000045
:102b58000dcd00000fcf0000ce0e00000aca000005
:102b6800cb0b0000c909000008c80000d8180000f5
:102b780019d900001bdb0000da1a00001ede000075
:102b8800df1f0000dd1d00001cdc000014d4000065
:102b9800d5150000d717000016d60000d212000085
:102ba80013d3000011d10000d0100000f030000055
:102bb80031f1000033f30000f232000036f6000075
:102bc800f7370000f535000034f400003cfc000045
:102bd800fd3d0000ff3f00003efe0000fa3a000005
:102be8003bfb000039f90000f838000028e8000035
:102bf800e9290000eb2b00002aea0000ee2e000075
:102c08002fef00002ded0000ec2c0000e424000064
:102c180025e5000027e70000e626000022e2000084
:102c2800e3230000e121000020e00000a060000094
:102c380061a1000063a30000a262000066a6000074
:102c4800a7670000a565000064a400006cac000044
:102c5800ad6d0000af6f00006eae0000aa6a000004
:102c68006bab000069a90000a868000078b80000f4
:102c7800b9790000bb7b00007aba0000be7e000074
:102c88007fbf00007dbd0000bc7c0000b474000064
:102c980075b5000077b70000b676000072b2000084
:102ca800b3730000b171000070b0000050900000d4
:102cb8009151000093530000529200009656000074
:102cc8005797000055950000945400009c5c000044
:102cd8005d9d00005f9f00009e5e00005a9a000004
:102ce8009b5b000099590000589800008848000034
:102cf800498900004b8b00008a4a00004e8e000074
:102d08008f4f00008d4d00004c8c00004484000063
:102d18008545000087470000468600008242000083
:102d280043830000418100008040000030310000f2
:102d380032330000343500003637000038390000df
:102d48006162000063640000656600006768000057
:102d5800696a00006b6c00006d6e00006f70000007
:102d680071720000737400007576000077780000b7
:102d7800797a00002e2d00003a2000004748000014
:102d8800432a0000003f0000065b00004f66000079
:102d98006d7d0000077f00006f7700007c39000020
:102da8005e790000716f0000740600000e7a000062
:102db80038000000375c000073670000506d0000a9
:102dc800783e000000000000006e00005b4000003c
:102dd80040480000003d00007639000061300000e6
:102de8003132000033340000353600003738000037
:102df80039610000626300006465000066670000d6
:102e0800686900006a6b00006c6d00006e6f00005e
:102e1800707100007273000074750000767700000e
:102e2800787900007a4100004243000044450000e0
:102e380046470000484900004a4b00004c4d00003e
:102e48004e4f0000505100005253000054550000ee
:102e580056570000585900005a2000000000000092
:102e68003f00000006000000db000000cf0000006b
:102e7800e6000000ed000000fd0000000700000073
:102e8800ff000000ef000000580400007804000074
:102e9800d80000008e080000fb0000007100000050
:102ea8008f010000f4000000060000000e00000082
:102eb80070060000300000003603000037000000f4
:102ec800dc000000710200008701000031000000f2
:102ed80069040000c80a00003e000000300a000033
:102ee800360c0000000f0000000b0000480800002e
:102ef800860a0000fd020000390000000000000002
:102f08007900000071000000bd000000f60000001c
:102f1800060000000e0000007006000038000000e7
:102f280036030000360500003f000000f3000000f3
:102f38003f04000071060000690400000000000062
:102f48003e000000300a0000360c0000000f0000b0
:102f58008e010000090a00000000000063730000f1
:102f680036360000002d0000303000002d00000033
:102f78000020000020200000202000002020000069
:102f88002000000020200000202000000020000079
:102f980070730000640000006e6300002a000000e7
:102fa800206e000063000000416400006300000020
:102fb80077770000310000007777000032000000ca
:102fc80077790000310000007779000032000000b6
:102fd80020650000727200000020000020660000da
:102fe8007300000020200000206c0000002000007a
:102ff800202000006800000020200000206400005d
:10300800002000002048000062000000206100004d
:103018006c30000000200000682d000075000000e2
:10302800206800002d64000000200000702d0000c2
:1030380075000000207000002d64000000200000d2
:10304800616c00003100000020630000796c000012
:10305800002000006379000048000000207900008b
:103068006c6c000000200000796c00004800000033
:1030780063790000303400000063000079320000fa
:1030880030000000796c0000303400000079000046
:103098006c3200003000000020730000636c0000f8
:1030a8000020000073740000612000006e6f0000b3
:1030b800720000002073000074610000207400009a
:1030c8007374000000200000657000006420000098
:1030d800206e00006f000000206500007064000092
:1030e80020790000657300000020000020620000c5
:1030f8006c20000020200000200000002073000049
:103108006c70000000200000726600007000000073
:1031180020200000206e0000202000002031000048
:1031280000200000202000006e2000002020000069
:103138003400000020200000206e00002020000045
:1031480020360000004300005931000000590000fb
:103158004c310000005700005931000000570000b2
:103168005932000000000000303100003233000006
:10317800343500003637000038390000616200003d
:1031880063640000656600000000000001000000a4
:1031980000000000000000000000000000400000e7
:0431a80090ff000094
:020000040000fa
:1031ac000200fa00004f78001e80fb00e10f500077
:1031bc000c003200e10f500003003c000000e00066
:1031cc00060032000d003700e20f500007003200fd
:1031dc00e30f5000070032000800370010002000f9
:1031ec0007003700a0002000050037004006200033
:1031fc0003003700803e200001003700803e200095
:10320c000080fa00000006000600fa000040eb0007
:10321c00004f7800809120001007980080912000ca
:10322c00200798001e009000592607001e019000f0
:10323c0010219800212198001e0090008d26070077
:10324c001e0190003021980041219800811220002d
:10325c002e009000034b0700a21220000000250056
:10326c0011002000584a0700a31220002e019000e4
:10327c000000250011002000684a0700a31220005e
:10328c002e01900000002500110020000e4a0700be
:10329c00a11220002e009000da4a0700004f78009f
:1032ac001e4078000080fa00000006000a00fa00b8
:1032bc0030079800410798006000b800008fbe00ee
:1032cc006000b8005e4c0700644c0700008fbe0025
:1032dc00090037001e4d0700404798004e409000f3
:1032ec000004e0000a00320010002000594d0700d5
:1032fc005a4c0700008fbe003e0090008000eb008f
:10330c00be0f5000ae8f5800f2ff3e000100370098
:10331c00000000004e009000ce4090000148780064
:10332c001e0078000080fa00000006000600fa007b
:10333c001007980041479800524798001e009000d3
:10334c00104f7800ce4090005e40900080cf50002f
:10335c0003003900ce409000014f78000700370081
:10336c001e4fe8005e4090009e40780080cf5000d9
:10337c0002003600ce409000014f7800c5c8bf0057
:10338c000004e000050032001e4078000004e0005c
:10339c0002003a0010c0b300004f78001e009000ed
:1033ac001e4878000080fa00000006000800fa00b1
:1033bc0020079800614798002e009000900078003c
:1033cc00110798006e409000e34f50000200360049
:1033dc0030c0b300604798006e40900070ff07004b
:1033ec009e00900000017800110009008280d80036
:1033fc0000017800d0cc2c000010b8004308de008f
:10340c006a00b90000007800000f51006e40900077
:10341c0063ff07009e0078000180b900000078006f
:10342c009e00900000805000100798001e0fe800ce
:10343c001e007800e90f5000020036000000eb007f
:10344c00000f78006e40900055ff07009e0078003a
:10345c000180b900000078009e00900000804000c0
:10346c00100798002e0090009e0090000108780034
:10347c000080fa00000006000800fa0020079800ff
:10348c00614798002e0090001000780010079800fb
:10349c006e409000e34f500007003e000e80e800a5
:1034ac00ee409000c1ff07009e0090002e0090009f
:1034bc0001087800250037006e409000e44f500062
:1034cc0016003a002e009000a0409000014f7800aa
:1034dc001e4fe8001e407800e34f500002003600fb
:1034ec000040eb00004f78002e0090003040900020
:1034fc000004e000050032001e407800e24f50004e
:10350c00020036000040eb00004f78002e009000c7
:10351c009e407800214098000c0037002e0090004f
:10352c00b0409000014f78001e4fe8001e4078001c
:10353c00e14f5000020036000040eb00004f7800d5
:10354c002e0090009e4078003140980010c0b300cf
:10355c00b2e8b7000080fa00000006001000fa0084
:10356c00400798005107980062079800634f980035
:10357c0010c0b300004f78000000eb00100798005b
:10358c00619120009140780041479800de00900046
:10359c006e009000808f500060003d007a4b070059
:1035ac006000b800a64b07000500370000000000c3
:1035bc00030037000000000001003700000000008d
:1035cc00c0032000804888001e4078000004e00002
:1035dc00220032000040eb00004f78006e48900053
:1035ec000004e0000e0032004e0090001000780045
:1035fc008000e8004e009000010878004e0090001a
:10360c00900078006e009000808f50001200340003
:10361c004e009000ee009000010878000e0037007c
:10362c004e009000900078005e009000808f50005b
:10363c0004003c004e009000de0090000108780071
:10364c00050037004e009000100078008000e90063
:10365c004e009000010878007f1a07003c4c0700d0
:10366c004047980016c9bf00ce40900080cf500054
:10367c002c003a00794b070030079800be009000f0
:10368c00803e2000808f50000b003e00be0090005a
:10369c001e00900080805000700c2000808f500025
:1036ac00c2ff3600be0090001107980010c0b30096
:1036bc00004f7800c2ff3700be009000007d200054
:1036cc00808f50000b003e00be0090001e0090004a
:1036dc008080500030062000808f5000b5ff3600ef
:1036ec00be0090001107980010c0b300004f780086
:1036fc00b3ff3700be0090001e0090000080500009
:10370c00f30f5000adff3600be009000110798007b
:10371c0010c0b300004f7800a9ff37000000000074
:10372c0001003700000000000080fa0000000600d5
:10373c000000fa0000c1b300b6e8b700b768ef00ac
:10374c00b428ef00b868ef000080fa000000060013
:10375c000200fa0000c2b300b6e8b700b768ef0089
:10376c0001498000010f78001e007800e50f500021
:10377c000200360050002000000f7800ba28ef003d
:10378c00bc28ef00a08b20001e087800b868ef0062
:10379c000080fa00000006000200fa0000c3b3002b
:1037ac00b6e8b700b768ef0080912000000f7800f2
:1037bc00ba28ef00bc28ef00a08b20009e007800f8
:1037cc00a10090008140780001487800b868ef00b3
:1037dc000080fa00000006000600fa0020c0b300ca
:1037ec00b7e8b70080912000000f78001e00780029
:1037fc008020900070189000100798002107980006
:10380c001e009000ae009000dd100700100798001d
:10381c00210798001e009000ae0090001046880012
:10382c0021468800b868ef000080fa00000006000e
:10383c000600fa0010c0b300b7e8b7008091200072
:10384c00000f78001e00780050199000e0199000cd
:10385c0012079800230798001e009000ae009000fd
:10386c00c710070010079800210798001e00900051
:10387c00ae0090001046880021468800b868ef0022
:10388c000080fa00000006000600fa0000c4b30035
:10389c00b6e8b700b768ef0080912000000f780001
:1038ac001e00780050219000e02190001207980033
:1038bc0023079800a08b20009e0090000108780040
:1038cc000080fa00000006000800fa00604798002b
:1038dc007147980000c5b300b6e8b700b768ef00b1
:1038ec006e419000818c200082487800fe40900050
:1038fc00938c20008149780020b42000000f7800c0
:10390c007e4090000004e0000b003a00a28b2000e7
:10391c006e4090008080fb009e01780040032000e8
:10392c000088b90000007800640040006340780013
:10393c000049780019003700c8c8bf008080fb0020
:10394c00c9c8bf000080fb000000e9001e01780020
:10395c00c301dd00400320000088b900000078009e
:10396c000080410068004000000041001001be00d2
:10397c0012079800230798001e009000ae009000dc
:10398c007f10070010079800210798001e00900078
:10399c00ae0090001046880021468800b268ef0007
:1039ac00b868ef000080fa00000006000800fa007a
:1039bc00604798007147980000c6b300b6e8b7009e
:1039cc00b768ef006e419000818c2000824878002f
:1039dc00fe409000938c20008149780040bf20006d
:1039ec00000f78007e4090000004e0000b003a00cd
:1039fc00a28b20006e4090008080fb009e0178001e
:103a0c00400320000088b9000000780064004000ea
:103a1c00634078000049780019003700c8c8bf001f
:103a2c008080fb00c9c8bf000080fb000000e900db
:103a3c001e017800c301dd00400320000088b9009e
:103a4c000000780000804100680040000000410048
:103a5c001001be0012079800230798001e0090006a
:103a6c00ae00900046100700100798002107980040
:103a7c001e009000ae009000104688002146880081
:103a8c00b268ef00b868ef000080fa000000060092
:103a9c000800fa00604798007147980000cab3000c
:103aac00b6e8b700b768ef006e419000818c20003b
:103abc0082487800fe409000938c20008149780069
:103acc0060ca2000000f78007e4090000004e000e7
:103adc000b003a00a28b20006e4090008080fb000f
:103aec009e017800400320000088b9000000780097
:103afc0064004000634078000049780019003700ea
:103b0c00c8c8bf008080fb00c9c8bf000080fb0094
:103b1c000000e9001e017800c301dd004003200015
:103b2c000088b90000007800008041006800400067
:103b3c00000041001001be001207980023079800f6
:103b4c001e009000ae0090000d10070010079800aa
:103b5c00210798001e009000ae00900010468800cf
:103b6c0021468800b868ef00b268ef000080fa00c8
:103b7c00000006000800fa006047980071479800a2
:103b8c0010cab300b6e8b700b768ef006e419000fa
:103b9c00818c200082487800fe409000938c20009d
:103bac008149780080d52000000f78007e4090007d
:103bbc000004e0000b003a00a28b20006e40900045
:103bcc008080fb009e017800400320000088b90033
:103bdc0000007800640040006340780000497800e1
:103bec0019003700c8c8bf008080fb00c9c8bf00df
:103bfc000080fb000000e9001e017800c301dd001d
:103c0c00400320000088b9000000780000804100cb
:103c1c0068004000000041001001be00120798002f
:103c2c00230798001e009000ae009000d40f0700f0
:103c3c0010079800210798001e009000ae0090001d
:103c4c001046880021468800b268ef00b868ef0083
:103c5c000080fa00000006000600fa0040479800b9
:103c6c0090cab300b6e8b7004e409000e14f500048
:103c7c000200360010c0b300404798004e4190003f
:103c8c00718b200082487800b7c8bf000080fb0011
:103c9c004300dd0021052000808040008091200041
:103cac0000804000301f7800201778001e00be00f6
:103cbc00b30f0700008fbe001e00be001046880028
:103ccc0021468800b868ef000080fa00000006006a
:103cdc000600fa0040479800a0cab300b6e8b70047
:103cec004e409000e14f50000200360010c0b3006f
:103cfc00404798004e419000718b2000824878001c
:103d0c001e00be001046880021468800b868ef00ef
:103d1c000080fa00000006000600fa0040479800f8
:103d2c00b0cab300b6e8b7004e409000e14f500067
:103d3c000200360010c0b300404798004e4190007e
:103d4c00718b2000824878001e00be00104688004f
:103d5c0021468800b868ef000080fa0000000600d9
:103d6c000200fa00004f7800c0cab300b6e8b700f2
:103d7c001e407800e14f50000200360010c0b30026
:103d8c00004f78001e417800718b2000824878002b
:103d9c00b868ef000080fa00000006000200fa008c
:103dac00004f780060cab300b6e8b7001e41780037
:103dbc00718b200082487800b868ef00b268ef0081
:103dcc000080fa00000006000200fa00004f7800a4
:103ddc0070cab300b6e8b7001e417800718b2000a2
:103dec0082487800b868ef00b268ef000080fa00f3
:103dfc00000006000400fa002047980000c7b3003a
:103e0c00b6e8b7002e419000718b200082487800f4
:103e1c0080912000000f7800b7c8bf000080fb0025
:103e2c009e0078003006b000000040006100780071
:103e3c008000eb00d0458800e1458800b868ef00b1
:103e4c00b268ef000080fa00000006000000fa00e3
:103e5c0010c7b300b6e8b700b768ef00f14e8000aa
:103e6c00803e2000808f500003003a00ba28ef00fb
:103e7c00bc28ef000d003700f14e80000019200027
:103e8c00808f500005003a00100020000100200037
:103e9c00d0458800e1458800040037002000200050
:103eac0001002000d0458800e1458800b868ef008b
:103ebc00b268ef000080fa00000006000400fa006f
:103ecc002047980000c8b300b6e8b7002e41900018
:103edc00718b20008248780080912000000f7800c0
:103eec00ba28ef00bc28ef00a28b2000b7c8bf0097
:103efc000080fb009e0178006e00b9000000780085
:103f0c006009b00063007800004078000049780038
:103f1c00b868ef000080fa00000006000a00fa0002
:103f2c00004f980000c9b300b6e8b7000e499000e6
:103f3c00718b200082487800809120002007980027
:103f4c00b7c8bf000080fb000000d100604798009c
:103f5c00b7c8bf000080fb00610060000040780023
:103f6c000004e0000a0032006e4090000080fb006c
:103f7c002e0190006e00b900000078002009b000fe
:103f8c0000004100301f780020177800090037002e
:103f9c006e4090000080fb002e0190006e00b90076
:103fac0000007800e008b00000004100301f7800ed
:103fbc00201778001e00be00f10e0700008fbe0017
:103fcc001e00be001046880021468800b868ef002d
:103fdc000080fa00000006000800fa006047980014
:103fec0000cbb300b6e8b7006e419000718b200097
:103ffc00824878006000b800008fbe0080912000dd
:10400c0020079800b7c8bf000080fb00e10f5000ec
:10401c000f003200e10f500003003c000000e000f4
:10402c000600320020003700e20f50000d00320075
:10403c00e30f5000100032001b0037002e009000e0
:10404c0030019100c0019100028fbe000f003700bb
:10405c002e00900050019100e0019100028fbe00f3
:10406c000a0037002e009000700191008009910029
:10407c00028fbe00050037002e0090001009910041
:10408c00a0099100028fbe00000000001e00be00bf
:10409c00bb0e0700008fbe001e00be00104688003d
:1040ac0021468800b868ef000080fa000000060086
:1040bc000400fa00204798000000eb00000f780085
:1040cc0080cab300b6e8b7002e419000718b200077
:1040dc0082487800b7c8bf000080fb00e10f500099
:1040ec000d003200e10f500003003c000000e00026
:1040fc000600320011003700e20f500009003200b8
:10410c00e30f50000a0032000c00370071518000a0
:10411c00010f78000900370082518000020f7800ef
:10412c000600370091518000010f78000300370022
:10413c00a2518000020f780000000000a08b20002c
:10414c001e087800b868ef000080fa000000060036
:10415c000200fa0000ccb300b6e8b700b768ef0075
:10416c0080912000000f78001e00780070089100ec
:10417c008000eb00d0458800e1458800b868ef006e
:10418c000080fa00000006000000fa0000cfb30027
:10419c00b6e8b700b768ef00a08b200001448000a0
:1041ac008140780001487800b868ef000080fa0080
:1041bc00000006000000fa0010cfb300b6e8b7000c
:1041cc00b768ef00a08b200081a3200091407800fd
:1041dc0001487800b868ef000080fa000000060083
:1041ec000000fa0020cfb300b6e8b700b768ef00c4
:1041fc00a08b200091a3200091407800014878000a
:10420c00b868ef000080fa00000006000000fa0019
:10421c0030cab300b6e8b700b768ef00ba28ef00b1
:10422c00bc28ef00a08b2000d15180000108780041
:10423c00b868ef000080fa00000006000000fa00e9
:10424c0040cab300b6e8b700b768ef00ba28ef0071
:10425c00bc28ef00a08b2000e15180000108780001
:10426c00b868ef000080fa00000006000000fa00b9
:10427c00e0a3200010407800b6e8b700f0a32000bf
:10428c0010407800b7e8b700ba28ef00bc28ef0060
:10429c00c228ef00c428ef00b868ef00c868ef0030
:1042ac00c968ef00b428ef000080fa000000060097
:1042bc000000fa00a08b200013c0b300823e200047
:1042cc0081c12f00a5fc07000080fa000000060049
:1042dc000000fa00b7c8bf000080fb000000e90036
:1042ec00e10f500005003e0042c0b3008040eb00df
:1042fc00808b20000dfc070001003700000000003f
:10430c000080fa00000006000000fa00b7c8bf00e9
:10431c00e14f500004003a0032c0b3008040eb0083
:10432c00808b200001fc07000080fa0000000600d2
:10433c000000fa00c9c8bf000004e000040032000d
:10434c0042c0b3008040eb00808b2000f7fb0700dd
:10435c000080fa00000006000000fa00c9c8bf0087
:10436c000004e0000400320042c0b3008040eb00c7
:10437c00808b2000edfb07000080fa000000060097
:10438c000000fa00c9c8bf000004e00004003200bd
:10439c0042c0b3008040eb00808b2000e3fb0700a1
:1043ac000080fa00000006000000fa00c9c8bf0037
:1043bc000004e0000400320042c0b3008040eb0077
:1043cc00808b2000d9fb07000080fa00000006005b
:1043dc000200fa00b7c8bf006f4f60001e4fe80024
:1043ec001e407800e24f5000020036000040eb0007
:1043fc00004f7800718b20009140780000cfb30003
:10440c0000c06000b7e8b700b7c8bf001e4070001e
:10441c00b7e8b700618b200091407800e0a3200042
:10442c0001487800718b200091407800f0a32000a7
:10443c000148780074fb07000080fa0000000600b9
:10444c000200fa00b7c8bf006f4f60001e4fe800b3
:10445c001e407800ea4f5000020036000040eb008e
:10446c00004f7800718b20009140780000cfb30092
:10447c0000c06000b7e8b700b7c8bf001e407000ae
:10448c00b7e8b7000080fa00000006000000fa0050
:10449c00a08b20008041eb00823e2000c1e02f0069
:1044ac002efc07000080fa00000006000000fa0055
:1044bc00d0458000e1458000e00f5000e08f5800af
:1044cc0005003a002000200001002000d0458800a3
:1044dc00e145880006003700d0458000e1458000aa
:1044ec0061005000e0805800d0458800e14588000c
:1044fc00d2458000e3458000200020000100200010
:10450c00800f5100818f590002003400ba28ef004f
:10451c00bc28ef00d0458000e1458000e00f500042
:10452c00e08f580009003a00803e2000f04e8800d1
:10453c000000eb00004f88000000eb00104f8800db
:10454c000000eb00204f880018003700d245800097
:10455c00e34580001000200001002000800f510076
:10456c00818f590009003a0000192000f04e880094
:10457c00c0122000004f8800800c2000104f8800d3
:10458c0040062000204f88000800370080252000be
:10459c00f04e8800800c2000004f88004006200060
:1045ac00104f880040062000204f88000080fa0041
:1045bc00000006000000fa00b6c8bf000080fb0037
:1045cc00cf80de00020b200003002000820f500081
:1045dc00838f5800e5003e0000600100b0003700fa
:1045ec00e4003700e3003700e2003700e100370059
:1045fc00e0003700df003700de003700dd00370059
:10460c00dc003700db003700da003700d900370058
:10461c00d8003700d7003700d6003700a20037008b
:10462c00d4003700d3003700d2003700d100370058
:10463c00d0003700cf003700ce003700cd00370058
:10464c00cc003700cb003700ca003700c900370058
:10465c00c8003700c7003700c60037009700370086
:10466c00c4003700c3003700c2003700c100370058
:10467c00c0003700bf003700be003700bd00370058
:10468c00bc003700bb003700ba003700b900370058
:10469c00b8003700b7003700b60037008900370084
:1046ac00b4003700b3003700b2003700b100370058
:1046bc00b0003700af003700ae003700ad00370058
:1046cc00ac003700ab003700aa003700a900370058
:1046dc00a8003700a7003700a60037007b00370082
:1046ec00a4003700a3003700a2003700a100370058
:1046fc00a00037009f0037009e0037009d00370058
:10470c009c0037009b0037009a0037009900370057
:10471c009800370097003700960037006d0037007f
:10472c009400370093003700920037009100370057
:10473c00900037008f0037008e0037008d00370057
:10474c008c0037008b0037008a0037008900370057
:10475c008800370087003700860037005f0037007d
:10476c008400370083003700820037008100370057
:10477c00800037007f0037007e0037007d00370057
:10478c007c0037007b0037007a0037007900370057
:10479c00780037007700370076003700510037007b
:1047ac006b00370073003700720037007100370060
:1047bc00700037006f0037006e0037006d00370057
:1047cc006c0037006b0037006a0037006900370057
:1047dc006800370067003700660037006500370057
:1047ec006400370063003700620037006100370057
:1047fc00600037005f0037005e0037005d00370057
:10480c005c0037005b0037005a0037005900370056
:10481c005800370057003700560037003600370075
:10482c005400370053003700520037005100370056
:10483c00500037004f0037004e0037004d00370056
:10484c004c0037004b0037004a0037004900370056
:10485c004800370047003700460037002b00370070
:10486c002c0037004300370042003700410037006e
:10487c00400037002900370028003700320037008d
:10488c00350037003b0037003a003700390037005d
:10489c003800370037003700360037002500370066
:1048ac00cbfe07003400370032c0b3008040eb0071
:1048bc00808b20009dfa07002f00370092fe070026
:1048cc002d00370082fe07002b00370078fe070012
:1048dc002900370096fe070027003700b2fe0700bc
:1048ec002500370032c0b3008040eb00808b2000e5
:1048fc008efa07002000370042c0b3008040eb0066
:10490c00808b200089fa07001b00370092fe0700fd
:10491c00190037009afe070017003700b2c8bf0015
:10492c000004a2000080fb0000407800b2e8b70051
:10493c001100370042c0b3008040eb00808b200098
:10494c007afa07000c003700d0fe07000a00370087
:10495c00d6fe07000800370042c0b3008040eb00d1
:10496c00808b200071fa0700030037000000000064
:10497c0001003700000000000080fa000000060073
:10498c000200fa00718b20009140780000cfb30038
:10499c0000cf60001e80fb004400de00004f78005a
:1049ac001e4fe8001e407800e24f50000200360017
:1049bc000040eb00004f78009e4078004000200043
:1049cc000008dd00004f7800b7c8bf006f406000e2
:1049dc00b7e8b700b7c8bf001e407000b7e8b70013
:1049ec00618b200091407800e0a320000148780002
:1049fc00718b200091407800f0a3200001487800d2
:104a0c0001fa07000080fa00000006000000fa001e
:104a1c00b8c8bf0080407800408b200063fa0700c4
:104a2c000080fa00000006000400fa00d045800067
:104a3c00e145800061004000e0804800d0458800de
:104a4c00e1458800d2458000e345800050002000fd
:104a5c0001002000800f5100818f590002003400aa
:104a6c00ba28ef00bc28ef00d0458000e14580005b
:104a7c000080e800c300dd00809120000080400031
:104a8c00100078008000eb00008fbe001e00be00fe
:104a9c003b0c0700008fbe001e01be0012468800b2
:104aac0023468800b868ef000080fa00000006007a
:104abc000000fa00b7c8bf000080fb000000e00057
:104acc0003003200e10f50000300320007003700f2
:104adc00d5ff070005003700818b2000914078003e
:104aec00a08b200031fa0700000000000080fa00c3
:104afc00000006000200fa00b7c8bf000080fb00ef
:104b0c000000e000050032000000e0001700350056
:104b1c00e20f500017003c000f003700a08b200064
:104b2c00000f78001e007800104078008040e800ec
:104b3c001e007800014878001e00780010407800b4
:104b4c00e14f50000d0036001e0078008040eb0055
:104b5c00014878000a003700b8c8bf0080407800d0
:104b6c00208c200044fa07000500370000000000ec
:104b7c0003003700000000000100370000000000b7
:104b8c000080fa00000006000000fa00a08b200054
:104b9c008041eb00823e200081c12f006ffa07009c
:104bac000080fa00000006000200fa00c9c8bf002d
:104bbc000004e00010003a00a08b2000104f780099
:104bcc001e4fe8001e407800e54f500002003600f2
:104bdc000040eb00004f78001e407800e14f500081
:104bec0002003a0020c0b300004f7800a08b2000d8
:104bfc001e48780006003700b8c8bf008040780017
:104c0c00208c20001cfa070010c0b300b2e8b700db
:104c1c000080fa00000006000200fa00c9c8bf00bc
:104c2c000004e00010003a00a08b2000104f780028
:104c3c001e4fe8001e407800e54f50000200360081
:104c4c000040eb00004f78001e407800e14f500010
:104c5c0002003a0020c0b300004f7800a08b200067
:104c6c001e48780006003700b8c8bf0080407800a6
:104c7c00208c200000fa070010c0b300b2e8b70087
:104c8c000080fa00000006000200fa00c9c8bf004c
:104c9c000004e00010003a00a08b2000104f7800b8
:104cac001e4fe8001e407800e54f50000200360011
:104cbc000040eb00004f78001e407800e14f5000a0
:104ccc0002003a0020c0b300004f7800a08b2000f7
:104cdc001e48780006003700b8c8bf008040780036
:104cec00208c2000e4f9070010c0b300b2e8b70034
:104cfc000080fa00000006000200fa00c9c8bf00dc
:104d0c000004e00010003a00a08b2000104f780047
:104d1c001e4fe8001e407800e54f500002003600a0
:104d2c000040eb00004f78001e407800e14f50002f
:104d3c0002003a0020c0b300004f7800a08b200086
:104d4c001e48780006003700b8c8bf0080407800c5
:104d5c00208c2000c8f9070010c0b300b2e8b700df
:104d6c000080fa00000006000000fa00818b200091
:104d7c0091407800a08b20008cf907000080fa008d
:104d8c00000006000000fa00d0458000e1458000dc
:104d9c0061004000e0804800d0458800e145880073
:104dac00d2458000e3458000200020000100200057
:104dbc00800f5100818f590002003400ba28ef0097
:104dcc00bc28ef00d0458000e1458000e00f50008a
:104ddc00e08f580009003a00803e2000f04e880019
:104dec000000eb00004f88000000eb00104f880023
:104dfc000000eb00204f880018003700d2458000df
:104e0c00e34580001000200001002000800f5100bd
:104e1c00818f590009003a0000192000f04e8800db
:104e2c00c0122000004f8800800c2000104f88001a
:104e3c0040062000204f8800080037008025200005
:104e4c00f04e8800800c2000004f880040062000a7
:104e5c00104f880040062000204f88000080fa0088
:104e6c00000006000200fa00a08b2000000f780062
:104e7c001e007800104078008040e8001e0078008a
:104e8c00014878001e00780010407800e34f500075
:104e9c00030036001e0078008040eb0001487800cb
:104eac000080fa00000006000000fa00b8c8bf003d
:104ebc0080407800208c20006ff907000080fa00f9
:104ecc00000006000000fa00b8c8bf00804078005f
:104edc00208c200068f907000080fa000000060012
:104eec000000fa00b8c8bf0080407800208c200079
:104efc0061f907000080fa00000006000000fa00cb
:104f0c00a08b200013c0b300823e2000c1e02f0014
:104f1c0092f907000080fa00000006000200fa0077
:104f2c00d0458000e1458000000f7800403820001b
:104f3c009e007800808f500003003a00603b2000f8
:104f4c00000f78000200370040382000000f780076
:104f5c001e0078008000eb00d0458800e1458800f9
:104f6c000080fa00000006000200fa00a08b20006e
:104f7c00000f78001e007800104078000004e0005c
:104f8c0004003a001e00780011c0b30001487800fc
:104f9c00030037001e0078008040eb0001487800c9
:104fac000080fa00000006000200fa00a08b20002e
:104fbc00000f78001e007800104078000004e0001c
:104fcc00040032001e0078008040eb00014878009d
:104fdc00030037001e00780011c0b30001487800b0
:104fec000080fa00000006000200fa00a08b2000ee
:104ffc00000f78001e00780010407800ea4f500037
:10500c0004003a001e007800e1c1b30001487800aa
:10501c000b0037001e00780010407800fe4f500047
:10502c0004003a001e007800c1c3b30001487800a8
:10503c00030037001e007800a1c0b30001487800bf
:10504c000080fa00000006000200fa00a08b20008d
:10505c00100f78001e007800e60f50002000320080
:10506c00e60f500007003e00e20f50001600320021
:10507c00e40f5000170032000000e0000f00320077
:10508c0026003700f40f50001b003200f40f5000c4
:10509c0003003e00ea0f5000140032001f003700de
:1050ac0081022000810f500016003200c103200045
:1050bc00810f50001600320018003700200020002d
:1050cc00000f78001800370040002000000f780017
:1050dc001500370060002000000f78001200370028
:1050ec00a0002000000f78000f00370040012000c6
:1050fc00000f78000c00370080022000000f7800b1
:10510c0009003700c0032000000f780006003700ac
:10511c0040062000000f7800030037000000eb0071
:10512c00000f780000000000a08b20001e08780003
:10513c000080fa00000006000200fa00a08b20009c
:10514c00100f78001e007800e60f5000200032008f
:10515c00e60f500007003e00e20f50001600320030
:10516c00e40f500017003200e10f50000f00320026
:10517c0026003700f40f50001b003200f40f5000d3
:10518c0003003e00ea0f5000140032001f003700ed
:10519c0081022000810f500016003200c103200054
:1051ac00810f50001600320018003700200020003c
:1051bc00000f78001800370040002000000f780026
:1051cc001500370060002000000f78001200370037
