:020000040000fa
:080000000002040000000000f2
:020000040000fa
:04000800d805000017
:020000040000fa
:04000c00e00300000d
:020000040000fa
:04001000f2030000f7
:020000040000fa
:04001400e8030000fd
:020000040000fa
:04001800fa030000e7
:020000040000fa
:04001c00d805000003
:020000040000fa
:04002000d8050000ff
:020000040000fa
:04002400d8050000fb
:020000040000fa
:04002800d8050000f7
:020000040000fa
:04002c00d8050000f3
:020000040000fa
:04003000d8050000ef
:020000040000fa
:04003400b203000013
:020000040000fa
:04003800d8050000e7
:020000040000fa
:04003c00d8050000e3
:020000040000fa
:04004000d8050000df
:020000040000fa
:040044008403000031
:020000040000fa
:04004800d8050000d7
:020000040000fa
:04004c00d8050000d3
:020000040000fa
:04005000d8050000cf
:020000040000fa
:040054000a05000099
:020000040000fa
:04005800b4040000ec
:020000040000fa
:04005c006605000035
:020000040000fa
:04006000d8050000bf
:020000040000fa
:04006400d8050000bb
:020000040000fa
:04006800d8050000b7
:020000040000fa
:04006c00d8050000b3
:020000040000fa
:04007000d8050000af
:020000040000fa
:040074008205000001
:020000040000fa
:04007800d8050000a7
:020000040000fa
:04007c00d8050000a3
:020000040000fa
:04008000d80500009f
:020000040000fa
:04008400d80500009b
:020000040000fa
:04008800d805000097
:020000040000fa
:04008c00d805000093
:020000040000fa
:04009000d80500008f
:020000040000fa
:04009400d80500008b
:020000040000fa
:04009800d805000087
:020000040000fa
:04009c00d805000083
:020000040000fa
:0400a0005804000000
:020000040000fa
:0400a4000204000052
:020000040000fa
:0400a800d805000077
:020000040000fa
:0400ac00d805000073
:020000040000fa
:0400b000d80500006f
:020000040000fa
:0400b400d80500006b
:020000040000fa
:0400b800d805000067
:020000040000fa
:0400bc00d805000063
:020000040000fa
:0400c000d80500005f
:020000040000fa
:0400c400d80500005b
:020000040000fa
:0400c800d805000057
:020000040000fa
:0400cc00d805000053
:020000040000fa
:0400d000d80500004f
:020000040000fa
:0400d400d80500004b
:020000040000fa
:0400d800d805000047
:020000040000fa
:0400dc00d805000043
:020000040000fa
:0400e000d80500003f
:020000040000fa
:0400e400d80500003b
:020000040000fa
:0400e800d805000037
:020000040000fa
:0400ec00d805000033
:020000040000fa
:0400f000d80500002f
:020000040000fa
:0400f400d80500002b
:020000040000fa
:0400f800d805000027
:020000040000fa
:0400fc00d805000023
:020000040000fa
:04010000d80500001e
:020000040000fa
:04010400d80500001a
:020000040000fa
:04010800d805000016
:020000040000fa
:04010c00d805000012
:020000040000fa
:04011000d80500000e
:020000040000fa
:04011400d80500000a
:020000040000fa
:04011800d805000006
:020000040000fa
:04011c00d805000002
:020000040000fa
:04012000ba0500001c
:020000040000fa
:04012400d8050000fa
:020000040000fa
:04012800d8050000f6
:020000040000fa
:04012c00500500007a
:020000040000fa
:040130009e04000029
:020000040000fa
:04013400d8050000ea
:020000040000fa
:04013800d8050000e6
:020000040000fa
:04013c00d8050000e2
:020000040000fa
:04014000d8050000de
:020000040000fa
:04014400d8050000da
:020000040000fa
:04014800d8050000d6
:020000040000fa
:04014c00d8050000d2
:020000040000fa
:04015000d8050000ce
:020000040000fa
:04015400d8050000ca
:020000040000fa
:04015800d8050000c6
:020000040000fa
:04015c00d8050000c2
:020000040000fa
:04016000d8050000be
:020000040000fa
:04016400d8050000ba
:020000040000fa
:04016800d8050000b6
:020000040000fa
:04016c00d8050000b2
:020000040000fa
:04017000d8050000ae
:020000040000fa
:04017400d8050000aa
:020000040000fa
:04017800d8050000a6
:020000040000fa
:04017c00d8050000a2
:020000040000fa
:04018000d80500009e
:020000040000fa
:04018400d80500009a
:020000040000fa
:04018800d805000096
:020000040000fa
:04018c00d805000092
:020000040000fa
:04019000d80500008e
:020000040000fa
:04019400d80500008a
:020000040000fa
:04019800d805000086
:020000040000fa
:04019c00d805000082
:020000040000fa
:0401a000d80500007e
:020000040000fa
:0401a400d80500007a
:020000040000fa
:0401a800d805000076
:020000040000fa
:0401ac00d805000072
:020000040000fa
:0401b000d80500006e
:020000040000fa
:0401b400d80500006a
:020000040000fa
:0401b800d805000066
:020000040000fa
:0401bc00d805000062
:020000040000fa
:0401c000d80500005e
:020000040000fa
:0401c400d80500005a
:020000040000fa
:0401c800d805000056
:020000040000fa
:0401cc00d805000052
:020000040000fa
:0401d000d80500004e
:020000040000fa
:0401d400d80500004a
:020000040000fa
:0401d800d805000046
:020000040000fa
:0401dc00d805000042
:020000040000fa
:0401e000d80500003e
:020000040000fa
:0401e400d80500003a
:020000040000fa
:0401e800d805000036
:020000040000fa
:0401ec00d805000032
:020000040000fa
:0401f000d80500002e
:020000040000fa
:0401f400d80500002a
:020000040000fa
:0401f800d805000026
:020000040000fa
:0401fc00d805000022
:020000040000fa
:04020800d805000015
:020000040000fa
:04020c00d805000011
:020000040000fa
:04021000d80500000d
:020000040000fa
:04021400d805000009
:020000040000fa
:04021800d805000005
:020000040000fa
:04021c00d805000001
:020000040000fa
:04022000d8050000fd
:020000040000fa
:04022400d8050000f9
:020000040000fa
:04022800d8050000f5
:020000040000fa
:04022c00d8050000f1
:020000040000fa
:04023000d8050000ed
:020000040000fa
:04023400d8050000e9
:020000040000fa
:04023800d8050000e5
:020000040000fa
:04023c00d8050000e1
:020000040000fa
:04024000d8050000dd
:020000040000fa
:04024400d8050000d9
:020000040000fa
:04024800d8050000d5
:020000040000fa
:04024c00d8050000d1
:020000040000fa
:04025000d8050000cd
:020000040000fa
:04025400d8050000c9
:020000040000fa
:04025800d8050000c5
:020000040000fa
:04025c00d8050000c1
:020000040000fa
:04026000d8050000bd
:020000040000fa
:04026400d8050000b9
:020000040000fa
:04026800d8050000b5
:020000040000fa
:04026c00d8050000b1
:020000040000fa
:04027000d8050000ad
:020000040000fa
:04027400d8050000a9
:020000040000fa
:04027800d8050000a5
:020000040000fa
:04027c00d8050000a1
:020000040000fa
:04028000d80500009d
:020000040000fa
:04028400d805000099
:020000040000fa
:04028800d805000095
:020000040000fa
:04028c00d805000091
:020000040000fa
:04029000d80500008d
:020000040000fa
:04029400d805000089
:020000040000fa
:04029800d805000085
:020000040000fa
:04029c00d805000081
:020000040000fa
:0402a000d80500007d
:020000040000fa
:0402a400d805000079
:020000040000fa
:0402a800d805000075
:020000040000fa
:0402ac00d805000071
:020000040000fa
:0402b000d80500006d
:020000040000fa
:0402b400d805000069
:020000040000fa
:0402b800d805000065
:020000040000fa
:0402bc00d805000061
:020000040000fa
:0402c000d80500005d
:020000040000fa
:0402c400d805000059
:020000040000fa
:0402c800d805000055
:020000040000fa
:0402cc00d805000051
:020000040000fa
:0402d000d80500004d
:020000040000fa
:0402d400d805000049
:020000040000fa
:0402d800d805000045
:020000040000fa
:0402dc00d805000041
:020000040000fa
:0402e000d80500003d
:020000040000fa
:0402e400d805000039
:020000040000fa
:0402e800d805000035
:020000040000fa
:0402ec00d805000031
:020000040000fa
:0402f000d80500002d
:020000040000fa
:0402f400d805000029
:020000040000fa
:0402f800d805000025
:020000040000fa
:0402fc00d805000021
:020000040000fa
:04030000d80500001c
:020000040000fa
:04030400d805000018
:020000040000fa
:04030800d805000014
:020000040000fa
:04030c00d805000010
:020000040000fa
:04031000d80500000c
:020000040000fa
:04031400d805000008
:020000040000fa
:04031800d805000004
:020000040000fa
:04031c00d805000000
:020000040000fa
:04032000d8050000fc
:020000040000fa
:04032400d8050000f8
:020000040000fa
:04032800d8050000f4
:020000040000fa
:04032c00d8050000f0
:020000040000fa
:04033000d8050000ec
:020000040000fa
:04033400d8050000e8
:020000040000fa
:04033800d8050000e4
:020000040000fa
:04033c00d8050000e0
:020000040000fa
:04034000d8050000dc
:020000040000fa
:04034400d8050000d8
:020000040000fa
:04034800d8050000d4
:020000040000fa
:04034c00d8050000d0
:020000040000fa
:04035000d8050000cc
:020000040000fa
:04035400d8050000c8
:020000040000fa
:04035800d8050000c4
:020000040000fa
:04035c00d8050000c0
:020000040000fa
:04036000d8050000bc
:020000040000fa
:04036400d8050000b8
:020000040000fa
:04036800d8050000b4
:020000040000fa
:04036c00d8050000b0
:020000040000fa
:04037000d8050000ac
:020000040000fa
:04037400d8050000a8
:020000040000fa
:04037800d8050000a4
:020000040000fa
:04037c00d8050000a0
:020000040000fa
:04038000d80500009c
:020000040000fa
:04038400d805000098
:020000040000fa
:04038800d805000094
:020000040000fa
:04038c00d805000090
:020000040000fa
:04039000d80500008c
:020000040000fa
:04039400d805000088
:020000040000fa
:04039800d805000084
:020000040000fa
:04039c00d805000080
:020000040000fa
:0403a000d80500007c
:020000040000fa
:0403a400d805000078
:020000040000fa
:0403a800d805000074
:020000040000fa
:0403ac00d805000070
:020000040000fa
:0403b000d80500006c
:020000040000fa
:0403b400d805000068
:020000040000fa
:0403b800d805000064
:020000040000fa
:0403bc00d805000060
:020000040000fa
:0403c000d80500005c
:020000040000fa
:0403c400d805000058
:020000040000fa
:0403c800d805000054
:020000040000fa
:0403cc00d805000050
:020000040000fa
:0403d000d80500004c
:020000040000fa
:0403d400d805000048
:020000040000fa
:0403d800d805000044
:020000040000fa
:0403dc00d805000040
:020000040000fa
:0403e000d80500003c
:020000040000fa
:0403e400d805000038
:020000040000fa
:0403e800d805000034
:020000040000fa
:0403ec00d805000030
:020000040000fa
:0403f000d80500002c
:020000040000fa
:0403f400d805000028
:020000040000fa
:0403f800d805000024
:020000040000fa
:0403fc00d805000020
:020000040000fa
:100400008ff720000e7f22000e0188000000000000
:10041000000020000000e000020032000001200087
:100420002002880014000700e30107000000e0003c
:1004300003003a00609b2900010020000200370001
:100440000000200001002000810f70000100320038
:1004500014000700000020000000e000020032004d
:1004600000000200000000008c920200000000006a
:100470000040da000000fe004440a90040e52000f2
:100480000000e000030032000020200090018800fe
:100490004440a800000006008a1f78008b1f7800e7
:1004a00000000600a1028800800478000000eb0034
:1004b0001f003700e284440054a0b4009905ba003c
:1004c000e284440054a0b4009906ba00e2844400d7
:1004d00054a0b4000006eb00476fde00fd07b20039
:1004e000ae018800636ce10003003a00eaff0700f8
:1004f0000000eb000e003700606ce10008003a00dd
:10050000004deb000a05e800020039003420ec0041
:100510000af0a0008b05e900f9ff3e000400370057
:100520006168e100010032000086eb000b0007006b
:1005300019c7ba001905ba000e04e00003003a001a
:100540000a00e000dbff3a0000000600fe07b200f0
:10055000ae0288008a047800f5ff37000cd0a300b3
:10056000e20f4d001c00390089027800354dba00b9
:100570000a05e800020039003420ec000af0a0006f
:100580008b05e9000f003200254dba000a05e8008e
:10059000020039003420ec000af0a0008b05e900cd
:1005a000080032000c00e0000600320015cdba0051
:1005b0000a05e800020039003420ec000af0a0002f
:1005c0008b05e9008984e80054a0b4000b00e0002a
:1005d000e2ff3a00000006009902ba00055d7800cb
:1005e0008b05e900f7ff3200c82ade00055d7800c0
:1005f0008b05e900f3ff32000c00e000f1ff320050
:1006000019ddba00eeff3700dc80040000000000b6
:10061000e8800400000000006a810400000000007f
:100620007681040000000000428104000000000008
:100630001882040000000000248204000000000072
:100640004e820400000000005a82040000000000f6
:10065000dc810400000000008a8304000000000028
:100660009c83040000000000d2830400000000000e
:10067000da82040000000000e682040000000000ae
:1006800022830400000000002e830400000000000c
:10069000b482040000000000ae83040000000000eb
:1006a000c083040000000000e88a0400000000008d
:1006b00000850400000000004285040000000000e6
:1006c000b086040000000000148604000000000052
:1006d000f2870400000000001c95040000000000e8
:1006e0009a95040000000000cc9504000000000072
:1006f0005e95040000000000b495040000000000b6
:100700002e960400000000003600f800809fbe0016
:10071000829fbe00849fbe00869fbe000000fa003c
:10072000384c070050f72000104078008040e80067
:1007300050f720000148780040f7200011c0b300b6
:100740000148780084e0a9000080fa004f03be0051
:100750004f02be004f01be004f00be003600f90040
:10076000004006003600f800809fbe00829fbe0059
:10077000849fbe00869fbe000000fa00ec4b07007d
:1007800070f72000104078008040e80070f72000eb
:100790000148780060f7200011c0b30001487800dc
:1007a0008460a9000080fa004f03be004f02be0023
:1007b0004f01be004f00be003600f90000400600a9
:1007c0003600f8008020a9000000eb002a4d070049
:1007d0003600f8002c4d07008040a90010002000d2
:1007e000254d07003600f8008060a9002000200099
:1007f000214d07003600f8008080a900300020005d
:100800001d4d0700809fbe000000fa00e1798000c6
:1008100000202000008060000000e00002003200a4
:1008200097e0a9001f00370087e0a90018003700f3
:10083000d0798000104078000080fb00a011880073
:10084000d07980000000e800d0798800d17980005c
:1008500060f42000808f500002003a00e0f3200096
:10086000d0798800e07980000080a100e0798800dc
:10087000d1798000c0798000808f500004003a0058
:10088000e07980000090a000e07988000500370042
:100890009111800000202000008060000000e00036
:1008a000e3ff32000080fa004f00be000040060067
:1008b000809fbe000000fa0018003700a079800079
:1008c000b11180008140780001487800a079800053
:1008d0000000e800a0798800a1798000e0f4200001
:1008e000808f500002003a0060f42000a079880058
:1008f000e07980000010a100e0798800a1798000f3
:10090000b0798000808f500004003a00e0798000c8
:100910000000a000e07988000400370090118000fa
:10092000610060000000e000e4ff3a0087c0a90019
:100930000080fa004f00be0000400600801f7800d3
:100940000000fa0090118000620060000000e000ea
:10095000010032003222a9008c40a9000080fa0078
:100960004f00780000400600809fbe000000fa00a3
:10097000b17a800000202000008060000000e000cc
:10098000020032009580a9001f0037008580a90071
:1009900018003700a07a8000104078000080fb002b
:1009a00020118800a07a80000000e800a07a88006a
:1009b000a17a800000f62000808f500002003a00eb
:1009c00080f52000a07a8800b07a80000080a10025
:1009d000b07a8800a17a8000907a8000808f5000e1
:1009e00004003a00b07a80000090a000b07a88003d
:1009f00005003700111180000020200000806000f9
:100a00000000e000e3ff32000080fa004f00be006b
:100a100000400600809fbe000000fa00180037006a
:100a2000707a8000311180008140780001487800a0
:100a3000707a80000000e800707a8800717a800087
:100a400080f62000808f500002003a0000f620005f
:100a5000707a8800b07a80000010a100b07a880017
:100a6000717a8000807a8000808f500004003a0004
:100a7000b07a80000000a000b07a8800040037003f
:100a800010118000610060000000e000e4ff3a0007
:100a90008560a9000080fa004f00be0000400600fb
:100aa000801f78000000fa001011800062006000d2
:100ab0000000e000010032002222a9008c20a900e1
:100ac0000080fa004f007800004006003200f80075
:100ad0003400f800881f780018002000a801880062
:100ae00008202000980188004f0478000000fa00d8
:100af00085a0a9000080fa003400f9003200f90056
:100b0000004006003600f800809fbe00829fbe00b5
:100b1000849fbe00869fbe000000fa008660a90088
:100b200000000000cf4b0700f7e8b700f7c8bf0090
:100b30000004e00005003200f6c8bf000004e00039
:100b400002003a00f7c8bf00f6e8b7003e4c0700c5
:100b500000000000000000000080fa004f03be000b
:100b60004f02be004f01be004f00be003600f9002c
:100b700000400600809fbe000000fa008bc0a90064
:100b8000304780000000a0003047880050468000b9
:100b90006146800061004000e080480050468800c7
:100ba000614688000080fa004f00be000040060049
:100bb0000040da000000fe000000050003f0a20083
:100bc000889fbe008a9fbe008c1f78002c01070002
:100bd000330133006450e1004f0032006420e10033
:100be0005200320003826c0007003b000905d00070
:100bf0000306d000820f54000c065d00020039008d
:100c000002003200890178000306780085825500d1
:100c100004003d000003fd008103fd008502ea00a1
:100c20008b854200840f720002003b0060001000c0
:100c3000e08018006011b8000005eb007a28e100a0
:100c40000a00390006007800c75ddd00f707b20032
:100c5000878075002d003700828171000a017800bd
:100c6000610560008180d1000080d3008502e90029
:100c7000f9ff3b00060440008784480002003b0067
:100c800060041400e0841c000988a30007003200ff
:100c90008a81710082817100610164008904d10040
:100ca0000884d3008b05e800170037000978a300fb
:100cb00013003a000b00e000130034008b05e9003c
:100cc0000804440089844c000a4474000978a30095
:100cd0000d003a000b00e000070034008b05e9002e
:100ce0000804440089844c0001003a000b002000f5
:100cf0000978a300f7ff32000001eb000200370083
:100d0000828171000a017800a20007000cf0a700a0
:100d100001f0a000eb0037006420e10002003a007f
:100d2000838f6c00eb0033000801be000200be00a0
:100d3000e4003700889fbe008a9fbe008c1f7800a9
:100d4000cf000700d600330003866c006450e1003a
:100d50002e0032006420e100330032006150e100d7
:100d60002f0032006120e1003100320085855500fe
:100d7000eb07b00009002000080420000500370040
:100d80000804440089844c000a0031000603430033
:100d900087834b000001530081815b00f8ff330023
:100da0000203be000800a0000804440089844c002f
:100db000f6ff3900c639dd008301730001003200ff
:100dc000130020008904d1000884d3000998a300ef
:100dd000050032000800a7000300a0008904d1002c
:100de0000884d3008b05e8008904d1000884d3006f
:100df0000001eb000281d2006600070001f0a100b3
:100e00000cf0a70001f0a000ae0037006420e10064
:100e1000b00032000801be000200be00f7ff37003c
:100e20006120e100ab0032006000b800f3ff370042
:100e30000000200001f82700f0ff3700839f6800c2
:100e40000100e00002003d0060001000e08018009a
:100e50000300e00002003d0060011100e081190084
:100e6000e20007004f00e00002003b0060001000bd
:100e7000e08018000000060014002000ee0037009b
:100e8000f4ff2f00ec0037000001be0067000700f0
:100e90000470a70003f0a1006509b100160032003c
:100ea0000d0035006828e10006003500f0ff2f0036
:100eb000f1ff27000300e00013003b0001002800c1
:100ec0000000050000004000818048008502e90024
:100ed000fcff3a0008003700f88f420002003c0097
:100ee0008000eb00000005008100d1000080d300ed
:100ef0008502e800fcff3a000300e00002003b002e
:100f000060001000e0801800000006000001be0034
:100f1000460007000470a70003f0a10003f8a30037
:100f200013003a006509b1001000320009003500d5
:100f30006928e100020035000100280000000500da
:100f400000004000818048008502e900fcff3a0073
:100f500000000600f88f4200050035008100d10036
:100f60000080d3008502e800fcff3a000000060084
:100f70008000eb00000005004f89de008201780050
:100f8000c80037006011b800d60037000400200008
:100f9000a900370081002000618055000b003d0052
:100fa0000b00200061fe2f000100e1001d00340055
:100fb00082817100610164008904d1000884d3003a
:100fc0000000e800faff3a007100200061006400b0
:100fd0000300700002006000090032006104440058
:100fe000e0844c000988a500050032008b05e8006c
:100ff0006808e10002003a008904d1000884d300a7
:10100000f20f20000258e10005003d00c75ddd0041
:10101000f907b2008980750008007800000006001a
:101020000bf827008b00780000000500c70ade00df
:10103000f107b200f50fb20008003200e1cf420024
:10104000020032000170a00024000500810f700032
:10105000010032000408050044000500810f700003
:1010600002003a00140005008502e900000040007b
:1010700081c04800fcff3b000170a0002400050077
:101080000004be00e9ff07000003be000405be0027
:101090000200be00e5ff0700844f75000000060057
:1010a0000200be006450e100050036006420e1004b
:1010b000020036000968a30001003a000800be00e3
:1010c0000160a0004f0678004f05be004f04be002f
:1010d00000000600f0ff2f00f1ff2700f9ff3700a6
:1010e000811f78000100e00002003d006000100058
:1010f000e08018000300e00002003d0060011100e4
:10110000e0811900490007004f00e00002003b00a9
:1011100060001000e080180000000600889fbe00fc
:101120008a9fbe008c1f7800d5ff0700dcff3300cc
:1011300003866c006450e100240032006420e1006a
:10114000270032006150e100220032006120e100fe
:10115000210032008b854200eb07b1000134b8005a
:10116000003ab8000804420089844a00013ab800f5
:101170000030b8008880400009014a0004003300b4
:101180000000400081804800020149008b05e90011
:10119000c909dd0083017000010032001300200046
:1011a000c814de004814dd004709de001200b2005a
:1011b000c808de000884700076ff070001f0a10077
:1011c0000cf0a70001f0a000beff37006120e10095
:1011d000c0ff32000801be000200be00f7ff37006a
:1011e0006150e100fcff3a00baff37006022b8000e
:1011f000060220000000d0008180d2000482d200cc
:101200008582d2000000a0000202520083825a00b0
:10121000030031000202420083824a000000a10064
:101220000603e900f3ff3a0000000600efff0700a5
:101230000400be0000000600889fbe008a9fbe001a
:10124000841f78008eff07004f00780011003300e4
:10125000f0ff2f00838f6c0006003b000405650043
:101260000a00a7000800370009f0a60010002000bf
:1012700008003700820f5400838f5c0003003900a0
:101280001000200001003e000000200009f0a7002f
:101290000000ea004f05be004f04be000000e00061
:1012a00000000600881f7800030478000300e000b7
:1012b00007003d0060001000e08018006001190088
:1012c000e081190002003b0001f02d00030037000f
:1012d0000400070008f0a70001f0a0004f04780008
:1012e00000000600889fbe008a9fbe00008270003a
:1012f0000402710004827100260032000004be0066
:101300000200be006011b8006b09200095022000a9
:101310000182cf000a0039000541b1000082cf00f0
:10132000070039000541b1000982cf0004003900ef
:101330000541b1000882cf00010039000541b1002c
:1013400005425200120032000a003b008281710007
:10135000610164008100d1000080d3008984d30042
:101360000884d3008b05e8000442e800f7ff3a0048
:10137000070037000804440089844c00000048003e
:10138000818048008b05e9000442e900f9ff3a003a
:1013900000ff07004f05be004f04be00000006001e
:020000040000fa
:1013a000000000000000000089d20000de3a0000ca
:1013b000524900009d3b0000728a00000e3c000074
:1013c000ac8b00005b3c0000be300000993c00008c
:1013d00039b40000c83c000048500000fc3c00004c
:1013e0009a990000193d00007dae0000363d0000d6
:1013f000f4fd0000543d0000d8f00000743d0000f2
:10140000964300008b3d00009a7700009c3d000051
:10141000e9480000ae3d000080b70000c03d00007c
:10142000f38e0000d33d000042cf0000e63d0000f7
:10143000daac0000fa3d0000a7790000073e00008a
:101440004ed10000113e0000645d00001c3e000013
:10145000b0030000273e0000a1f80000313e00006c
:1014600091ed00003c3e000027310000483e0000a6
:10147000f38e0000533e0000f70600005f3e0000c0
:1014800068b300006a3e0000107a0000763e00005b
:10149000772d0000813e0000022b0000873e0000f7
:1014a000c44200008d3e0000865a0000933e0000ba
:1014b000637f0000993e00005bb100009f3e00008a
:1014c0006ff00000a53e00009f3c0000ac3e000015
:1014d000ce880000b23e000019e20000b83e0000d5
:1014e000643b0000bf3e0000cba10000c53e0000f1
:1014f0004d150000cc3e0000ce880000d23e00001a
:1015000050fc0000d83e0000d26f0000df3e00001b
:101510006ff00000e53e00000d710000ec3e0000a1
:10152000aaf10000f23e0000637f0000f93e0000d7
:1015300000000000003f00004f400000033f00009b
:101540002b870000063f00007ac70000093f00001b
:10155000c80700000d3f000017480000103f0000c2
:10156000d8810000133f000099bb0000163f000027
:101570005af50000193f00001b2f00001d3f00001e
:101580004e620000203f0000f38e0000233f000069
:1015900099bb0000263f0000b1e10000293f000098
:1015a000c80700002d3f000052270000303f000018
:1015b0004f400000333f0000bd520000363f0000a6
:1015c0009e5e0000393f00007f6a00003c3f000043
:1015d000446900003f3f00007c610000423f000082
:1015e00026530000453f0000423e0000483f0000f7
:1015f000431c00004b3f0000b6f300004d3f0000cd
:101600009cc40000503f0000d8810000533f000000
:10161000143f0000563f0000a7e80000583f0000bc
:10162000ac8b00005b3f0000962100005e3f000095
:1016300065aa0000603f000018260000633f00001c
:10164000228e0000653f000010e90000673f0000a7
:10165000e33600006a3f00000d7100006c3f00009f
:101660008d9700006e3f0000f2b00000703f000058
:1016700021b00000723f000018950000743f000088
:1016800066660000763f00007e1d0000783f000087
:101690005eba0000793f00007a3600007b3f000010
:1016a000d19100007c3f0000d6c500007d3f0000c6
:1016b0006dc500007e3f0000979000007f3f000056
:1016c00000000000803f000000000000000000005b
:1016d000524900009d390000524900009d3a000027
:1016e000c36400002a3b0000750200009a3b000022
:1016f000d7340000ef3b0000c36400002a3c000028
:1017000042600000653c00002b180000953c000082
:1017100011c70000ba3c000042600000e53c000038
:1017200027a00000093d0000789c0000223d000039
:1017300012a500003d3d00001a5100005a3d000076
:1017400090a00000783d0000287e00008c3d000045
:10175000bf7d00009d3d0000a01a0000af3d0000cd
:10176000a5bd0000c13d0000f4fd0000d43d000017
:10177000f90f0000e93d000048bf0000fd3d0000fa
:1017800027a00000093e00004faf0000143e0000fb
:101790001b0d0000203e0000569f00002b3e000065
:1017a0006b9a0000373e000026e40000433e000034
:1017b0004e620000503e00001b2f00005d3e000006
:1017c000553000006a3e000034800000773e000083
:1017d00025750000823e000083510000893e000014
:1017e00017480000903e0000c74b0000973e0000e5
:1017f000ad6900009e3e0000cba10000a53e0000a8
:1018000004e70000ac3e000058390000b43e000080
:10181000e3a50000bb3e00006f120000c33e0000c5
:1018200031990000ca3e0000f31f0000d23e0000c4
:10183000ecc00000d93e0000ca540000e13e0000a8
:10184000de020000e93e0000d7a30000f03e0000e9
:10185000ec510000f83e000000000000003f0000d6
:101860000ad70000033f000014ae0000073f00004d
:10187000917e00000b3f00009b5500000f3f0000d1
:1018800018260000133f000007f00000163f00007c
:1018900068b300001a3f0000c97600001e3f000038
:1018a0000e2d0000223f000054e30000253f000001
:1018b0007e8c0000293f00001b2f00002d3f000000
:1018c00029cb0000303f00001d5a0000343f0000cb
:1018d00082e20000373f00003f5700003b3f00001e
:1018e0006dc500003e3f0000f31f0000423f0000b6
:1018f000eb730000453f000039b40000483f000092
:101900006de700004b3f0000f70600004f3f00006e
:1019100065190000523f00002b180000553f0000e1
:1019200047030000583f00002cd400005a3f00003d
:10193000f69700005d3f000017480000603f000080
:1019400001de0000623f000042600000653f0000d1
:101950004bc80000673f0000ac1c00006a3f00005d
:10196000485000006c3f00003b7000006e3f0000dc
:10197000696f0000703f0000ee5a0000723f0000e7
:10198000af250000743f000039d60000753f00000d
:10199000fe650000773f0000fed40000783f0000a5
:1019a000c72900007a3f00003f5700007b3f00003e
:1019b0007f6a00007c3f00006d5600007d3f000004
:1019c000242800007e3f0000fbcb00007e3f00008b
:1019d0009b5500007f3f00005bb100007f3f00008f
:1019e00057ec00007f3f000000000000803f000037
:1019f00024390000a441000054630000a741000006
:101a0000b98d0000aa41000086b80000ad41000079
:101a100088e30000b0410000bf0e0000b4410000a8
:101a20002a3a0000b7410000fe650000ba410000fc
:101a300006920000bd41000042be0000c04100000f
:101a4000b3ea0000c341000059170000c74100007d
:101a500033440000ca41000076710000cd4100000f
:101a6000b89e0000d041000064cc0000d3410000cb
:101a700010fa0000d641000024280000da410000de
:101a80006d560000dd410000b6840000e04100001a
:101a900068b30000e341000019e20000e6410000e5
:101aa00000110000ea4100004f400000ed4100003d
:101ab0009e6f0000f0410000219f0000f3410000f4
:101ac000a5ce0000f641000091fe0000f9410000a3
:101ad0007d2e0000fd4100004f2f0000004200005d
:101ae0007ac7000001420000be5f00000342000010
:101af00003f800000442000062900000064200006b
:101b0000c12800000842000055c100000942000041
:101b1000ce5900000b4200007cf200000c42000095
:101b2000298b00000e420000f1230000104200004b
:101b3000b9bc0000114200008155000013420000b2
:101b40007dee0000144200005f8700001642000096
:101b5000762000001842000072b90000194200000f
:101b6000895200001b420000baeb00001c4200003a
:101b7000ea8400001e4200001b1e000020420000fc
:101b800066b7000021420000b1500000234200006f
:101b9000fce90000244200006183000026420000ae
:101ba000c61c0000284200002bb60000294200009d
:101bb000914f00002b42000010e900002c42000071
:101bc0008f8200002e4200000f1c000030420000f7
:101bd000a8b5000031420000284f00003342000049
:101be000c1e80000344200005b8200003642000081
:101bf000f51b0000384200008eb50000394200009d
:101c0000284f00003b420000dce800003c4200009e
:101c1000758200003e4200000f1c000040420000a0
:101c2000c3b50000414200005c4f00004342000089
:101c300010e9000044420000aa8200004642000071
:101c40005d1c000048420000f7b50000494200005a
:101c5000ab4f00004b42000044e900004c42000042
:101c6000de8200004e420000781c0000504200005e
:101c700011b6000051420000ab4f0000534200007b
:101c800044e9000054420000c482000056420000b3
:101c90005d1c000058420000ddb500005942000004
:101ca0005c4f00005b420000dce800005c4200008a
:101cb000418200005e420000a61b0000604200005e
:101cc0000bb5000061420000704e0000634200004e
:101cd000d5e7000064420000208100006642000059
:101ce0006b1a0000684200009cb3000069420000cb
:101cf000cd4c00006b420000fee500006c4200008d
:101d00002e7f00006e420000451800007042000067
:101d10005bb1000071420000584a000073420000ad
:101d200054e3000074420000367c0000764200005c
:101d30001815000078420000faad0000794200005a
:101d4000c24600007b4200008adf00007c420000a7
:101d5000387800007e4200006608000080420000e3
:101d6000bcd4000080420000f9a0000081420000c5
:101d7000366d00008242000072390000834200008c
:101d8000a205000084420000c4d10000844200008b
:101d9000e79d000085420000fc69000086420000cb
:101da000113600008742000019020000884200003e
:101db00022ce000088420000109a000089420000f4
:101dc000fe6500008a420000ec3100008b420000fa
:101dd000ccfd00008b420000a0c900008c42000036
:101de000679500008d4200002d6100008e420000ca
:101df000e72c00008f420000a1f800008f42000095
:101e000040c4000090420000df8f000091420000bb
:101e1000715b000092420000042700009342000022
:101e20007cf2000093420000f4bd000094420000e8
:101e30005f89000095420000bc54000096420000fb
:101e40001a200000974200006beb00009742000050
:101e5000aeb6000098420000e58100009942000003
:101e60000e4d00009a4200002b1800009b4200001b
:101e700047e300009b42000049ae00009c42000086
:101e80004b7900009d420000404400009e4200004b
:101e9000280f00009f42000002da00009f4200006d
:101ea000dda40000a04200009e6f0000a1420000df
:101eb0005e3a0000a242000005050000a3420000b7
:101ec000abcf0000a3420000379a0000a4420000fc
:101ed000c3640000a5420000422f0000a64200009b
:101ee000b4f90000a642000019c40000a742000097
:101ef000638e0000a8420000ae580000a942000016
:101f0000eb220000aa4200001bed0000aa420000e4
:101f10003fb70000ab42000055810000ac4200001a
:101f20005e4b0000ad4200005a150000ae420000ba
:101f300048df0000ae4200002aa90000af420000c6
:101f4000ff720000b0420000c63c0000b142000039
:101f500081060000b242000021d00000b242000021
:101f6000c1990000b342000054630000b442000075
:101f7000cd2c0000b542000046f60000b54200003e
:101f8000a4bf0000b642000003890000b742000071
:101f900047520000b84200007f1b0000b942000019
:101fa000a9e40000b9420000c6ad0000ba4200003a
:101fb000d6760000bb420000d93f0000bc420000c2
:101fc000ce080000bd420000b7d10000bd420000b5
:101fd000869a0000be42000047630000bf42000036
:101fe000082c0000c0420000aff40000c042000016
:101ff00049bd0000c1420000d6850000c242000079
:10200000564e0000c3420000bc160000c44200004f
:1020100021df0000c44200006da70000c54200009f
:10202000ab6f0000c6420000dc370000c742000072
:1020300000000000c842000017c80000c8420000ad
:1020400014900000c942000010580000ca4200006d
:10205000f31f0000cb420000c8e70000cb420000a5
:1020600091af0000cc4200004c770000cd42000050
:10207000ed3e0000ce4200008e060000cf42000080
:1020800014ce0000cf4200008e950000d042000028
:10209000fb5c0000d14200005a240000d242000044
:1020a000aceb0000d2420000f2b20000d3420000cc
:1020b0001d7a0000d44200003b410000d5420000e0
:1020c0004b080000d64200004fcf0000d64200006f
:1020d00046960000d74200002f5d0000d842000065
:1020e000fe230000d9420000c1ea0000d9420000ee
:1020f00083b10000da4200002b780000db420000d0
:10210000b83e0000dc42000046050000dd42000051
:10211000c7cb0000dd4200002d920000de4200002f
:1021200086580000df420000d31e0000e04200009d
:1021300012e50000e042000044ab0000e142000074
:1021400068710000e242000073370000e3420000c3
:1021500071fd0000e34200006ec30000e442000095
:1021600044890000e54200001b4f0000e6420000e9
:10217000e4140000e7420000a0da0000e74200009b
:1021800042a00000e8420000d6650000e9420000dd
:102190005e2b0000ea420000d8f00000ea42000096
:1021a00046b60000eb420000997b0000ec420000c4
:1021b000ec400000ed42000025060000ee42000069
:1021c00051cb0000ee4200006f900000ef42000093
:1021d00081550000f0420000861a0000f142000024
:1021e00070df0000f14200005aa40000f24200003b
:1021f0002a690000f3420000ed2d0000f4420000c7
:10220000a3f20000f44200003fb70000f5420000d6
:10221000da7b0000f64200005c400000f74200005c
:10222000dd040000f842000044c90000f84200004c
:102230009f8d0000f9420000ec510000fa420000be
:102240001e160000fb42000051da0000fb420000b5
:102250006a9e0000fc42000075620000fd42000022
:1022600074260000fe42000065ea0000fe42000005
:1022700049ae0000ff4200000939000000430000a1
:10228000ee9a000000430000c6fc0000004300007e
:10229000985e00000143000062c00000014300009e
:1022a0002722000002430000e483000002430000f4
:1022b00095e50000024300003f4700000343000093
:1022c000e2a8000003430000860a00000443000067
:1022d000156c000004430000a5cd0000044300007d
:1022e0002e2f000005430000aa90000005430000c7
:1022f00020f20000054300008f5300000643000059
:10230000f7b4000006430000591600000743000020
:10231000b57700000743000003d900000743000021
:102320004b3a000008430000929b00000843000065
:10233000cdfc000008430000fa5d000009430000e6
:1023400028bf0000094300004f2000000a4300009e
:10235000688100000a4300007ce200000a4300009c
:10236000884300000b4300008fa400000b430000d3
:102370008e0500000c430000876600000c4300003f
:1023800073c700000c430000582800000d430000f4
:10239000378900000d43000010ea00000d430000e3
:1023a000e14a00000e430000acab00000e43000009
:1023b0006a0c00000f430000296d00000f4300006d
:1023c000d9cd00000f430000842e00001043000010
:1023d000288f000010430000c5ef000010430000ec
:1023e0005550000011430000e5b00000114300000b
:1023f0006811000012430000e57100001243000064
:102400005bd2000012430000ca32000013430000f8
:1024100033930000134300008ff3000013430000c8
:10242000e45300001443000039b4000014430000da
:102430008114000015430000c37400001543000020
:10244000f7d40000154300002c35000016430000af
:1024500053950000164300007af500001643000073
:102460009555000017430000a8b500001743000071
:10247000af15000018430000b575000018430000b8
:10248000afd5000018430000a83500001943000034
:1024900095950000194300007af5000019430000eb
:1024a0005a5500001a43000032b500001a430000dc
:1024b000fe1400001b430000ca7400001b43000010
:1024c00088d400001b430000403400001c4300007f
:1024d000f19300001c4300009cf300001c4300002b
:1024e0003a5300001d430000d7b200001d43000016
:1024f000681200001e430000f27100001e4300003d
:1025000076d100001e430000f23000001f4300009f
:10251000699000001f430000d2ef00001f4300003d
:102520003b4f00002043000098ae00002043000015
:10253000ed0d0000214300003c6d00002143000030
:1025400085cc000021430000c02b00002243000086
:10255000fb8a0000224300002aea00002243000018
:10256000524900002343000073a8000023430000e9
:102570008d07000024430000a166000024430000f2
:10258000a8c5000024430000af240000254300003c
:10259000a9830000254300009ce2000025430000c1
:1025a00089410000264300006fa000002643000080
:1025b00048ff000026430000225e00002743000081
:1025c000eebc000027430000b31b000028430000be
:1025d000727a0000284300002ad900002843000036
:1025e000d5370000294300008196000029430000f0
:1025f0001ff5000029430000bd5300002a430000de
:102600004eb200002a430000d81000002b43000007
:10261000566f00002b430000d3cd00002b43000079
:10262000432c00002c430000b38a00002c43000020
:1026300017e900002c430000734700002d43000001
:10264000c3a500002d430000120400002e4300002b
:102650005b6200002e43000097c000002e43000084
:10266000cc1e00002f430000fb7c00002f43000025
:1026700023db00002f430000d20400000000000014
:10268000010000005f000000050000004c4f00004a
:102690003200000000000000740400004c4e0000f6
:1026a00032000000000000002a0300004c4100003e
:1026b00052000000000000007a050000434f0000b7
:1026c0003200000000000000fc0300004c4e00003f
:1026d0004700000000000000cc0100004f74000023
:1026e0006800000000000000e8030000b50e0000d4
:1026f000000000007805000000000000000000005d
:1027000000000000000000000000000000000000c9
:1027100000000000000000000000000000000000b9
:10272000000000001027000000000000102700003b
:102730000000000000000000000000000000000099
:10274000000000001027000000000000102700001b
:1027500000000000701700000000000014000000de
:102760000000000000000000000000000000000069
:10277000e80300000000000014000000000000005a
:102780000100000000000000000000002003000025
:102790000000000005000000000000000200000032
:1027a0000000000000000000c80000000000000061
:1027b0000500000000000000030000000000000011
:1027c00000000000e803000000000000000000001e
:1027d00000000000000000000000000010270000c2
:1027e000102700000000000000000000102700007b
:1027f000102700000000000000000000102700006b
:1028000010270000204e000000000000fd04000022
:1028100000000000c0d4000001000000f01d000016
:1028200000000000204e000000000000fd04000039
:1028300000000000c0d4000001000000f01d0000f6
:10284000000000000000000000000000d0070000b1
:10285000000000000000000000000000d0070000a1
:1028600000000000b6030000003c00000000000073
:102870002c0100000000000000c1000081400000a9
:1028800001c000008041000001c000008041000044
:1028900000c100008140000001c000008041000034
:1028a00000c100008140000000c100008140000024
:1028b00001c000008041000001c000008041000014
:1028c00000c100008140000000c100008140000004
:1028d00001c000008041000000c1000081400000f4
:1028e00001c000008041000001c0000080410000e4
:1028f00000c100008140000001c0000080410000d4
:1029000000c100008140000000c1000081400000c3
:1029100001c000008041000000c1000081400000b3
:1029200001c000008041000001c0000080410000a3
:1029300000c100008140000000c100008140000093
:1029400001c000008041000001c000008041000083
:1029500000c100008140000001c000008041000073
:1029600000c100008140000000c100008140000063
:1029700001c000008041000001c000008041000053
:1029800000c100008140000000c100008140000043
:1029900001c000008041000000c100008140000033
:1029a00001c000008041000001c000008041000023
:1029b00000c100008140000000c100008140000013
:1029c00001c000008041000001c000008041000003
:1029d00000c100008140000001c0000080410000f3
:1029e00000c100008140000000c1000081400000e3
:1029f00001c000008041000000c1000081400000d3
:102a000001c000008041000001c0000080410000c2
:102a100000c100008140000001c0000080410000b2
:102a200000c100008140000000c1000081400000a2
:102a300001c000008041000001c000008041000092
:102a400000c100008140000000c100008140000082
:102a500001c000008041000000c100008140000072
:102a600001c000008041000001c000008041000062
:102a700000c100008140000000c00000c101000052
:102a8000c303000002c20000c606000007c7000022
:102a900005c50000c4040000cc0c00000dcd0000f2
:102aa0000fcf0000ce0e00000aca0000cb0b0000c2
:102ab000c909000008c80000d818000019d9000092
:102ac0001bdb0000da1a00001ede0000df1f000022
:102ad000dd1d00001cdc000014d40000d515000032
:102ae000d717000016d60000d212000013d3000042
:102af00011d10000d0100000f030000031f10000d2
:102b000033f30000f232000036f60000f737000021
:102b1000f535000034f400003cfc0000fd3d0000f1
:102b2000ff3f00003efe0000fa3a00003bfb0000c1
:102b300039f90000f838000028e80000e929000011
:102b4000eb2b00002aea0000ee2e00002fef000021
:102b50002ded0000ec2c0000e424000025e5000031
:102b600027e70000e626000022e20000e323000041
:102b7000e121000020e00000a060000061a1000051
:102b800063a30000a262000066a60000a767000021
:102b9000a565000064a400006cac0000ad6d0000f1
:102ba000af6f00006eae0000aa6a00006bab0000c1
:102bb00069a90000a868000078b80000b979000091
:102bc000bb7b00007aba0000be7e00007fbf000021
:102bd0007dbd0000bc7c0000b474000075b5000031
:102be00077b70000b676000072b20000b373000041
:102bf000b171000070b000005090000091510000d1
:102c00009353000052920000965600005797000020
:102c100055950000945400009c5c00005d9d0000f0
:102c20005f9f00009e5e00005a9a00009b5b0000c0
:102c30009959000058980000884800004989000010
:102c40004b8b00008a4a00004e8e00008f4f000020
:102c50008d4d00004c8c0000448400008545000030
:102c60008747000046860000824200004383000040
:102c7000418100008040000030310000323300000c
:102c8000343500003637000038390000616200003a
:102c9000636400006566000067680000696a000000
:102ca0006b6c00006d6e00006f70000071720000b0
:102cb000737400007576000077780000797a000060
:102cc0002e2d00003a20000047480000432a000053
:102cd000003f0000065b00004f6600006d7d0000b5
:102ce000077f00006f7700007c3900005e790000ec
:102cf000716f0000740600000e7a000038000000ba
:102d0000375c000073670000506d0000783e0000e3
:102d100000000000006e00005b4000004048000022
:102d2000003d0000763900006130000031320000c3
:102d300033340000353600003738000039610000b8
:102d40006263000064650000666700006869000057
:102d50006a6b00006c6d00006e6f00007071000007
:102d600072730000747500007677000078790000b7
:102d70007a410000424300004445000046470000fd
:102d8000484900004a4b00004c4d00004e4f0000e7
:102d90005051000052530000545500005657000097
:102da000585900005a0000003f00000006000000d3
:102db000db000000cf000000e6000000ed00000096
:102dc000fd00000007000000ff000000ef00000011
:102dd0005804000078040000d80000008e080000ad
:102de000fb000000710000008f010000f4000000f3
:102df000060000000e000000700600003000000019
:102e00003603000037000000dc0000007102000003
:102e1000870100003100000069040000c80a0000ba
:102e20003e000000300a0000360c0000000f0000d9
:102e3000000b000048080000860a0000fd020000a8
:102e4000390000000000000079000000710000005f
:102e5000bd000000f6000000060000000e000000ab
:102e60007006000038000000360300003605000040
:102e70003f000000f30000003f0400007106000066
:102e800069040000000000003e000000300a00005d
:102e9000360c0000000f00008e010000090a00003f
:102ea0006373000036360000002d00003030000053
:102eb0002d00000000200000202000002020000045
:102ec0002020000020000000202000002020000022
:102ed000002000007073000064000000777700009d
:102ee00031000000777700003200000077790000a1
:102ef000310000007779000032000000202000003f
:102f00006673000000200000202000006c0000001c
:102f10002020000020680000002000002020000089
:102f20006400000020200000486200000020000033
:102f3000616c000030000000206800002d7500006a
:102f400000200000682d00006400000020700000d8
:102f50002d75000000200000702d000064000000ae
:102f6000206100006c310000002000006379000047
:102f70006c00000020630000794800000020000081
:102f8000796c00006c000000207900006c480000a3
:102f900000200000736300006c000000207300003c
:102fa00074610000206e00006f72000000200000bd
:102fb000737400006120000074730000740000004e
:102fc0002065000070640000202000006e6f00008b
:102fd000002000006570000064200000796500009a
:102fe0007300000020200000626c00002020000020
:102ff0002020000000200000736c00007000000022
:1030000020720000667000000000000030310000f7
:103010003233000034350000363700003839000004
:10302000616200006364000065660000000000004b
:10303000010000000000000000000000000000008f
:083040000040000090ff0000b9
:020000040000fa
:103048000200fa00004f78001e80fb00e10f5000dc
:103058000c003200e10f500003003c000000e000cb
:10306800060032000d003700e20f50000700320062
:10307800e30f50000700320008003700100020005e
:1030880007003700a0002000050037004006200098
:1030980003003700803e200001003700803e2000fa
:1030a8000080fa00000006000a00fa0030079800c5
:1030b800410798006000b800008fbe006000b800ab
:1030c800a2410700a8410700008fbe000900370091
:1030d80062420700404798004e4090000004e0001c
:1030e8000a003200100020009d4207009e410700a0
:1030f800008fbe003e0090008000eb00be0f500025
:10310800ae8f5800f2ff3e000100370000000000bb
:103118004e009000ce409000014878001e007800d4
:103128000080fa00000006000600fa001007980068
:1031380041479800524798001e009000104f7800b1
:10314800ce4090005e40900080cf500003003900d0
:10315800ce409000014f7800070037001e4fe8006e
:103168005e4090009e40780080cf500002003600fc
:10317800ce409000014f7800bdc8bf000004e000b9
:10318800050032001e4078000004e00002003a000a
:1031980010c0b300004f78001e0090001e48780051
:1031a8000080fa00000006000800fa0020079800d6
:1031b800614798002e009000900078001107980051
:1031c8006e409000e34f50000200360030c0b3005c
:1031d800604798006e40900099ff07009e0090009d
:1031e80000017800110009008280d80000017800f1
:1031f800d0cc2c000010b8004308de006a00b900eb
:1032080000007800000f51006e4090008cff07000e
:103218009e0078000180b900000078009e009000b0
:1032280000805000100798001e0fe8001e0078006c
:10323800e90f5000020036000000eb00000f780094
:103248006e4090007eff07009e0078000180b90064
:10325800000078009e009000008040001007980051
:103268002e0090009e009000010878000080fa006f
:10327800000006000800fa0020079800614798003f
:103288002e00900010007800100798006e40900003
:10329800e34f500007003e000e80e800ee4090002b
:1032a800c1ff07009e0090002e00900001087800e2
:1032b800250037006e409000e44f500016003a0099
:1032c8002e009000a0409000014f78001e4fe800ab
:1032d8001e407800e34f5000020036000040eb002b
:1032e800004f78002e009000304090000004e0006d
:1032f800050032001e407800e24f50000200360000
:103308000040eb00004f78002e0090009e407800af
:10331800214098000c0037002e009000b04090002b
:10332800014f78001e4fe8001e407800e14f500022
:10333800020036000040eb00004f78002e0090009d
:103348009e407800314098000080fa000000060096
:103358001000fa004007980051079800620798008b
:10336800634f980010c0b300004f78000000eb00d6
:1033780010079800618f200091407800414798001d
:10338800de0090006e009000808f500061003d00cc
:10339800c04007006000b800ec4007000500370097
:1033a80000000000030037000000000001003700a3
:1033b8000000000040012000904788001e4078006f
:1033c8000004e000220032000040eb00004f7800cb
:1033d8006e4890000004e0000e0032004e0090009d
:1033e800100078008000e8004e0090000108780086
:1033f8004e009000900078006e009000808f500082
:10340800120034004e009000de00900001087800a1
:103418000e0037004e009000900078005e0090008b
:10342800808f500004003c004e009000ee00900099
:1034380001087800050037004e0090001000780061
:103448008000e9004e00900001087800e71d0700a1
:103458008241070040479800f6c8bf00ce40900060
:1034680080cf50002d003a00bf4007003007980079
:10347800be009000803e2000808f50000b003e0070
:10348800be0090001e00900080805000700c20004c
:10349800808f5000c2ff3600be00900011079800d0
:1034a80010c0b300004f7800c2ff3700be00900084
:1034b800007d2000808f50000b003e00be00900071
:1034c8001e0090008080500030062000808f500041
:1034d800b5ff3600be0090001107980010c0b30079
:1034e800004f7800b3ff3700be0090001e00900028
:1034f8008080500010032000808f5000acff360001
:10350800be0090001107980010c0b300004f78006b
:10351800a8ff37000000000001003700000000008d
:103528000080fa00000006000000fa0000c1b300a5
:10353800aee8b700af68ef00ac28ef00b068ef0066
:103548000080fa00000006000200fa0000c2b30082
:10355800aee8b700af68ef0001488000010f7800bf
:103568001e007800e50f50000200360050002000d1
:10357800000f7800b228ef00b428ef00208b20005d
:103588001e087800b068ef000080fa00000006000e
:103598000200fa0000c3b300aee8b700af68ef005e
:1035a800808f2000000f7800b228ef00b428ef00c9
:1035b800208b20009e007800a100900081407800b8
:1035c80001487800b068ef000080fa0000000600ab
:1035d8000600fa0020c0b300afe8b700808f2000d3
:1035e800000f78001e00780080209000701890006e
:1035f80010079800210798001e009000ae00900068
:10360800cf15070010079800210798001e009000aa
:10361800ae009000d0458800e1458800b068ef0012
:103628000080fa00000006000600fa0010c0b3008f
:10363800afe8b700808f2000000f78001e007800e8
:1036480050199000e019900012079800230798007d
:103658001e009000ae009000b915070010079800f2
:10366800210798001e009000ae009000d045880009
:10367800e1458800b068ef000080fa00000006000d
:103688000600fa0000c4b300aee8b700af68ef0068
:10369800808f2000000f78001e00780050219000d5
:1036a800e02190001207980023079800208b200043
:1036b8009e009000010878000080fa0000000600d3
:1036c8000800fa00604798007147980000c5b300e9
:1036d800aee8b700af68ef006e419000018c2000a3
:1036e80082487800fe409000138c200081497800c1
:1036f80080af2000000f78007e4090000004e000ba
:103708000b003a00228b20006e4090008080fb0066
:103718009e017800400320000088b900000078006e
:1037280064004000634078000049780019003700c1
:10373800c0c8bf008080fb00c1c8bf000080fb007c
:103748000000e9001e017800c301dd0040032000ed
:103758000088b9000000780000804100680040003f
:10376800000041001001be001207980023079800ce
:103778001e009000ae009000711507001007980019
:10378800210798001e009000ae009000d0458800e8
:10379800e1458800aa68ef00b068ef000080fa00f1
:1037a800000006000800fa0060479800714798007a
:1037b80000c6b300aee8b700af68ef006e419000f6
:1037c800018c200082487800fe409000138c200075
:1037d80081497800a0b92000000f78007e40900051
:1037e8000004e0000b003a00228b20006e4090009d
:1037f8008080fb009e017800400320000088b9000b
:1038080000007800640040006340780000497800b8
:1038180019003700c0c8bf008080fb00c1c8bf00c6
:103828000080fb000000e9001e017800c301dd00f4
:10383800400320000088b9000000780000804100a3
:1038480068004000000041001001be001207980007
:10385800230798001e009000ae009000381507005e
:1038680010079800210798001e009000ae009000f5
:10387800d0458800e1458800b068ef000080fa0074
:10388800000006000800fa00604798007147980099
:1038980000cab300aee8b700af68ef006e41900011
:1038a800018c200082487800fe409000138c200094
:1038b80081497800c0c32000000f78007e40900046
:1038c8000004e0000b003a00228b20006e409000bc
:1038d8008080fb009e017800400320000088b9002a
:1038e80000007800640040006340780000497800d8
:1038f80019003700c0c8bf008080fb00c1c8bf00e6
:103908000080fb000000e9001e017800c301dd0013
:10391800400320000088b9000000780000804100c2
:1039280068004000000041001001be001207980026
:10393800230798001e009000ae00900000150700b5
:1039480010079800210798001e009000ae00900014
:10395800d0458800e1458800b068ef000080fa0093
:10396800000006000800fa006047980071479800b8
:1039780010cab300aee8b700af68ef006e41900020
:10398800018c200082487800fe409000138c2000b3
:1039980081497800e0cd2000000f78007e4090003b
:1039a8000004e0000b003a00228b20006e409000db
:1039b8008080fb009e017800400320000088b90049
:1039c80000007800640040006340780000497800f7
:1039d80019003700c0c8bf008080fb00c1c8bf0005
:1039e8000080fb000000e9001e017800c301dd0033
:1039f800400320000088b9000000780000804100e2
:103a080068004000000041001001be001207980045
:103a1800230798001e009000ae009000c81407000d
:103a280010079800210798001e009000ae00900033
:103a3800d0458800e1458800b068ef000080fa00b2
:103a4800000006000200fa00004f780060cab300c8
:103a5800aee8b7001e417800f18a2000824878005d
:103a6800b068ef00aa68ef000080fa0000000600c6
:103a78000200fa00004f780070cab300aee8b70041
:103a88001e417800f18a200082487800b068ef0073
:103a9800aa68ef000080fa00000006000400fa009f
:103aa8002047980000c7b300aee8b7002e41900049
:103ab800f18a200082487800808f2000000f78006b
:103ac800afc8bf000080fb009e0078003005b00042
:103ad80000004000610078008000eb0090458800fd
:103ae800a1458800b068ef00aa68ef000080fa00de
:103af800000006000400fa002047980000c8b30040
:103b0800aee8b7002e419000f18a20008248780084
:103b1800808f2000000f7800b228ef00b428ef0053
:103b2800228b2000afc8bf000080fb009e017800f8
:103b38006e00b900000078006007b00063007800ec
:103b48000040780000497800b068ef000080fa0073
:103b5800000006000a00fa00004f980000c9b300f0
:103b6800aee8b7000e499000f18a2000824878003c
:103b7800808f200020079800afc8bf000080fb009e
:103b88000000d10060479800afc8bf000080fb006c
:103b980061006000004078000004e0000a00320084
:103ba8006e4090000080fb002e0190006e00b9006e
:103bb800000078002007b00000004100301f7800a6
:103bc80020177800090037006e4090000080fb0045
:103bd8002e0190006e00b90000007800e006b000e9
:103be80000004100301f7800201778001e00be003a
:103bf80053140700008fbe001e00be00d045880089
:103c0800e1458800b068ef000080fa000000060077
:103c18000800fa006047980000cbb300aee8b70090
:103c28006e419000f18a2000824878006000b80058
:103c3800008fbe00808f200020079800afc8bf000b
:103c48000080fb00e10f50000f003200e10f500030
:103c580003003c000000e0000600320020003700ae
:103c6800e20f50000d003200e30f50001000320048
:103c78001b0037002e00900030b19000c0b19000ba
:103c8800028fbe000f0037002e00900050b1900048
:103c9800e0b19000028fbe000a0037002e009000ad
:103ca80070b1900080b99000028fbe000500370007
:103cb8002e00900010b99000a0b99000028fbe00ad
:103cc800000000001e00be001d140700008fbe008b
:103cd8001e00be00d0458800e1458800b068ef00ae
:103ce8000080fa00000006000200fa0000ccb300d1
:103cf800aee8b700af68ef00808f2000000f7800b3
:103d08001e00780030b890008000eb0090458800d5
:103d1800a1458800b068ef000080fa0000000600a6
:103d28000000fa0000cfb300aee8b700af68ef00bc
:103d3800208b200081438000814078000148780072
:103d4800b068ef000080fa00000006000000fa00ea
:103d580010cfb300aee8b700af68ef00208b2000ab
:103d6800019f20009140780001487800b068ef007a
:103d78000080fa00000006000000fa0020cfb3001f
:103d8800aee8b700af68ef00208b2000119f20003d
:103d98009140780001487800b068ef000080fa0090
:103da800000006000000fa0030cab300aee8b70011
:103db800af68ef00b228ef00b428ef00208b200096
:103dc800914f800001087800b068ef000080fa0089
:103dd800000006000000fa0040cab300aee8b700d1
:103de800af68ef00b228ef00b428ef00208b200066
:103df800a14f800001087800b068ef000080fa0049
:103e0800000006000000fa00ae68ef00af68ef009f
:103e1800b228ef00b428ef00ba28ef00bc28ef0062
:103e2800b068ef00c068ef00c168ef00ac28ef0091
:103e38000080fa00000006000000fa00208b200035
:103e480013c0b300823e200081c12f0040fd07004f
:103e58000080fa00000006000000fa00afc8bf00aa
:103e68000080fb000000e900e10f500005003e0063
:103e780042c0b3008040eb00008b2000aafc070082
:103e880001003700000000000080fa000000060072
:103e98000000fa00afc8bf00e14f500004003a002c
:103ea80032c0b3008040eb00008b20009efc07006e
:103eb8000080fa00000006000000fa00c1c8bf0038
:103ec8000004e0000400320042c0b3008040eb0070
:103ed800008b200094fc07000080fa000000060018
:103ee8000000fa00c1c8bf000004e000040032006e
:103ef80042c0b3008040eb00008b20008afc070022
:103f08000080fa00000006000000fa00c1c8bf00e7
:103f18000004e0000400320042c0b3008040eb001f
:103f2800008b200080fc07000080fa0000000600db
:103f38000000fa00c1c8bf000004e000040032001d
:103f480042c0b3008040eb00008b200076fc0700e5
:103f58000080fa00000006000200fa00afc8bf00a7
:103f68006f4f60001e4fe8001e407800e34f50007e
:103f7800020036000040eb00004f7800f18a200074
:103f88009140780000cfb30000c06000afe8b700f0
:103f9800afc8bf001e407000afe8b7000080fa004d
:103fa800000006000200fa00afc8bf006f4f6000b3
:103fb8001e4fe8001e407800ea4f5000020036000d
:103fc8000040eb00004f7800f18a20009140780013
:103fd80000cfb30000c06000afe8b700afc8bf00b3
:103fe8001e407000afe8b7000080fa00000006002d
:103ff8000000fa00aec8bf000080fb0001072000e7
:10400800810f50004300320001072000810f50004b
:1040180018003c0001032000810f500035003200d9
:1040280001032000810f500008003c00f00f5000f1
:104038002900320001022000810f50002b003200bd
:104048000000e000220032004d003700010520008a
:10405800810f50002b00320001062000810f500014
:104068002a00320001042000810f50002300320092
:1040780043003700110a2000810f50003100320040
:10408800110a2000810f500007003c0001092000a0
:10409800810f500024003200010a2000810f5000d7
:1040a8002600320036003700610a2000810f5000d8
:1040b80032003500710a2000810f500023003400bf
:1040c800010b2000810f5000260032002c00370021
:1040d800a1ff07002a00370032c0b3008040eb0080
:1040e800008b200010fc07002500370068ff070040
:1040f8002300370058ff0700210037004eff070054
:104108001f0037006cff07001d00370088ff0700fd
:104118001b00370032c0b3008040eb00008b20004a
:1041280001fc07001600370042c0b3008040eb00d6
:10413800008b2000fcfb07001100370068ff070018
:104148000f00370070ff07000d003700aac8bf0036
:104158000004a2000080fb0000407800aae8b70035
:104168000700370042c0b3008040eb00008b2000fe
:10417800edfb070000000000010037000000000010
:104188000080fa00000006000200fa00f18a200010
:104198009140780000cfb30000cf60001e80fb0084
:1041a8004400de00004f78001e4fe8001e407800f3
:1041b800e34f5000020036000040eb00004f78004b
:1041c8009e407800400020000008dd00004f780085
:1041d800afc8bf006f406000afe8b700afc8bf000e
:1041e8001e407000afe8b7000080fa00000006002b
:1041f8000000fa00b0c8bf0080407800c08a2000e4
:10420800e9fb07000080fa00000006000400fa003d
:1042180090458000a145800061004000e080480092
:1042280090458800a145880092458000a3458000fc
:104238005000200001002000800f5100818f59009c
:1042480002003400b228ef00b428ef009045800047
:10425800a14580000080e800c300dd00808f2000b9
:1042680000804000100078008000eb00008fbe0046
:104278001e00be00b2120700008fbe001e01be0065
:10428800d2458800e3458800b068ef000080fa0056
:10429800000006000000fa00afc8bf000080fb0065
:1042a8000000e00003003200e10f5000030032007c
:1042b80007003700d5ff070005003700018b2000f5
:1042c80091407800208b2000b7fb07000000000019
:1042d8000080fa00000006000200fa00afc8bf0024
:1042e8000080fb000000e000050032000000e00054
:1042f80017003500e20f500017003c000f00370090
:10430800208b2000000f78001e00780010407800f5
:104318008040e8001e007800014878001e00780000
:1043280010407800e14f50000d0036001e00780064
:104338008040eb00014878000a003700b0c8bf0091
:1043480080407800a08b2000cafb070005003700da
:1043580000000000030037000000000001003700e3
:10436800000000000080fa00000006000000fa00cb
:10437800208b20008041eb00823e200081c12f006d
:10438800f3fb07000080fa00000006000200fa00b4
:10439800c1c8bf000004e00010003a00208b2000d4
:1043a800104f78001e4fe8001e407800e54f50007f
:1043b800020036000040eb00004f78001e407800f5
:1043c800e14f500002003a0020c0b300004f7800cf
:1043d800208b20001e48780006003700b0c8bf00b8
:1043e80080407800a08b2000a2fb070010c0b3001b
:1043f800aae8b7000080fa00000006000200fa00f0
:10440800c1c8bf000004e00010003a00208b200063
:10441800104f78001e4fe8001e407800e54f50000e
:10442800020036000040eb00004f78001e40780084
:10443800e14f500002003a0020c0b300004f78005e
:10444800208b20001e48780004003700b0c8bf0049
:1044580080407800a08b200086fb07000080fa00cf
:10446800000006000200fa00c1c8bf000004e00016
:1044780010003a00208b2000104f78001e4fe800f3
:104488001e407800e54f5000020036000040eb0067
:10449800004f78001e407800e14f500002003a00bb
:1044a80020c0b300004f7800208b20001e48780001
:1044b80004003700b0c8bf0080407800a08b2000ff
:1044c8006cfb07000080fa00000006000200fa00fa
:1044d800c1c8bf000004e00010003a00208b200093
:1044e800104f78001e4fe8001e407800e54f50003e
:1044f800020036000040eb00004f78001e407800b4
:10450800e14f500002003a0020c0b300004f78008d
:10451800208b20001e48780004003700b0c8bf0078
:1045280080407800a08b200052fb07000080fa0032
:10453800000006000000fa00018b2000914078007e
:10454800208b200018fb07000080fa0000000600fe
:104558000200fa00208b2000000f78001e0078006f
:10456800104078008040e8001e007800014878007c
:104578001e00780010407800e34f5000030036001a
:104588001e0078008040eb00014878000080fa00a7
:10459800000006000000fa00b0c8bf0080407800a4
:1045a800a08b200033fb07000080fa000000060003
:1045b8000000fa00b0c8bf0080407800a08b20003f
:1045c8002cfb07000080fa00000006000000fa003b
:1045d800b0c8bf0080407800a08b200025fb0700f2
:1045e8000080fa00000006000200fa0090458000f2
:1045f800a1458000000f7800403820009e00780018
:10460800808f500003003a00603b2000000f7800c4
:104618000200370040382000000f78001e007800a4
:104628008000eb0090458800a14588000080fa00d2
:10463800000006000200fa00208b2000000f78001e
:104648001e007800104078000004e00004003a00e2
:104658001e00780011c0b30001487800030037003d
:104668001e0078008040eb00014878000080fa00c6
:10467800000006000200fa00208b2000000f7800de
:104688001e007800104078000004e00004003200aa
:104698001e0078008040eb000148780003003700d6
:1046a8001e00780011c0b300014878000080fa00ad
:1046b800000006000200fa00208b2000000f78009e
:1046c8001e00780010407800ea4f500004003a00bd
:1046d8001e007800e1c1b300014878000b003700e4
:1046e8001e00780010407800fe4f500004003a0089
:1046f8001e007800c1c3b3000148780003003700ea
:104708001e007800a1c0b300014878000080fa00bc
:10471800000006000200fa00208b2000100f78002d
:104728001e007800e60f500020003200e60f50000f
:1047380007003e00e20f500016003200e40f500060
:10474800170032000000e0000f003200260037009a
:10475800f40f50001b003200f40f500003003e001d
:10476800ea0f5000140032001f00370081022000b9
:10477800810f500016003200c1032000810f500045
:10478800160032001800370020002000000f7800c3
:104798001800370040002000000f7800150037008f
:1047a80060002000000f780012003700a0002000f1
:1047b800000f78000f00370040012000000f78003c
:1047c8000c00370080022000000f78000900370035
:1047d800c0032000000f78000600370040062000c4
:1047e800000f7800030037000000eb00000f78008e
:1047f80000000000208b20001e0878000080fa00ce
:10480800000006000200fa00208b2000100f78003c
:104818001e007800e60f500020003200e60f50001e
:1048280007003e00e20f500016003200e40f50006f
:1048380017003200e10f50000f0032002600370049
:10484800f40f50001b003200f40f500003003e002c
:10485800ea0f5000140032001f00370081022000c8
:10486800810f500016003200c1032000810f500054
:10487800160032001800370020002000000f7800d2
:104888001800370040002000000f7800150037009e
:1048980060002000000f780012003700a000200000
:1048a800000f78000f00370040012000000f78004b
:1048b8000c00370080022000000f78000900370044
:1048c800c0032000000f78000600370040062000d3
:1048d800000f78000300370010002000000f780058
:1048e80000000000208b20001e0878000080fa00dd
:1048f800000006000000fa00aec8bf000080fb0000
:10490800010a2000810f500063003200010a2000d4
:10491800810f500028003c0001042000810f500046
:104928005100320001042000810f50000e003c00ad
:10493800f00f500046003200f00f500003003c001a
:104948000000e000400032006b0037000102200048
:10495800810f50004000320001032000810f5000f9
:104968003f0032006400370001072000810f50002b
:104978004300320001072000810f500007003c006f
:1049880001052000810f5000390032000106200087
:10499800810f50003800320057003700010820000e
:1049a800810f50003800320001092000810f5000ab
:1049b8003700320050003700710a2000810f500084
:1049c8000d003c00610a2000810f500036003d00b8
:1049d800310a2000810f500043003200410a2000b4
:1049e800810f500042003200110a2000810f500050
:1049f8002b00320040003700010f2000810f5000cb
:104a080033003200010f2000810f500007003c00e6
:104a1800010b2000810f500029003200010c2000fa
:104a2800810f50002800320033003700110f20009a
:104a3800810f500028003200210f2000810f500004
:104a4800270032002c003700cffd07002a0037006e
:104a5800e7fd0700280037000efe07002600370094
:104a68001dfe07002400370040fe07002200370023
:104a780046fe07002000370060fe07001e003700d2
:104a8800acfe07001c003700b1fe07001a00370013
:104a9800c0fe07001800370072fe07001600370036
:104aa8008afe070014003700aac8bf000004a2004d
:104ab8000080fb0000407800aae8b7000e0037002d
:104ac800c2fe07000c003700c7fe07000a003700c7
:104ad800d8fe070008003700e6fe0700060037008a
:104ae800f4fe0700040037000aff07000200370041
:104af80044ff0700000000000080fa0000000600e4
:104b08000000fa00aec8bf00f04f500087003a001e
:104b18006045800051082000810f50005d00320080
:104b280051082000810f500024003e00610220003f
:104b3800810f50007500320061022000810f500083
:104b48000d003e00f00f500058003200f00f5000ea
:104b580003003e00e60f500051003200730037009a
:104b6800f20f50006700320041022000810f500010
:104b78003a0032006d003700a1022000810f50007a
:104b88005b003200a1022000810f500004003e00ab
:104b980071022000810f50005e0032006300370070
:104ba80081032000810f50003000320021042000d2
:104bb800810f50002b0032005c003700810a200072
:104bc800810f50002b003200810a2000810f500015
:104bd80011003e00210a2000810f50003a003200e7
:104be800210a2000810f500004003e00110a200015
:104bf800810f5000300032004c003700310a20008d
:104c0800810f500034003200410a2000810f50000b
:104c18003400320045003700c10b2000810f5000de
:104c280036003200c10b2000810f500004003e0006
:104c3800910a2000810f5000120032003b0037001b
:104c4800012b2000810f500034003200112b20006e
:104c5800810f500033003200340037003afa070061
:104c6800320037004afa07003000370084fa07009c
:104c78002e0037008040eb000040eb0090fa070060
:104c88002a0037008040eb000040eb00c5fa07001f
:104c9800260037000040eb0080fb070023003700a8
:104ca8000040eb0093fb0700200037000040eb00ba
:104cb800a8fb07001d0037008040eb000040eb0018
:104cc800f0fa0700190037008040eb000040eb00c5
:104cd80024fb0700150037000040eb0059fb0700d4
:104ce800120037000040eb0061fb07000f0037009f
:104cf8000040eb00c6fb07000c003700fafb07007a
:104d08000a00370006fc0700080037000ffc070000
:104d18000600370018fc07000400370021fc0700d4
:104d2800020037002bfc0700000000000080fa009a
:104d3800000006000600fa000040eb00004f780073
:104d4800808f200010079800808f2000200798008f
:104d58001e009000411807001e01900010219800c5
:104d6800212198001e009000751807001e01900070
:104d78003021980041219800e10f20002e0090007a
:104d8800043907000210200000002500110020004f
:104d980059380700031020002e019000000025005c
:104da8001100200069380700031020002e01900030
:104db80000002500110020000f3807000110200016
:104dc8002e009000db380700004f78001e40780066
:104dd8000080fa00000006000000fa00afc8bf001b
:104de8000004e00011003a0090458000a1458000d1
:104df800b0458800c1458800b0458000c1458000a5
:104e08000080e800c300dd00808f200000804000a3
:104e1800100078008000eb0090458800a1458800cc
:104e2800b068ef0010c0b300afe8b7000080fa0028
:104e3800000006000a00fa00004f9800808f20004a
:104e4800000f7800afc8bf000080fb00e10f5000e2
:104e58000c003200e20f5000150032000000e000a4
:104e68001e003a00208b2000100798001e009000ba
:104e7800104078008080fb001e0078002100980018
:104e880016003700d0458000e1458000ff0f07007d
:104e980020079800310798001e0078002e01900026
:104ea800be01900052189800631898000b00370054
:104eb800d0458000e1458000f40f070020079800e6
:104ec800310798002e009000be0090001e01780067
:104ed80070199800012198000000000095ff070054
:104ee8000e4890000004e00002003200c5fb0700f5
:104ef80017003700afc8bf000040e800afe8b700b0
:104f0800afc8bf00e24f500001003600af68ef00a5
:104f1800afc8bf000080fb00e10f50000600320060
:104f2800e20f5000060032000000e00007003a00df
:104f380097f9070006003700bbf90700040037009f
:104f4800a3f907000000000001003700000000007e
:104f58000080fa00000006001000fa00604f980078
:104f68000040eb00004f7800c1c8bf000004e0001b
:104f78001d003a00c0c8bf008080fb00400320002d
:104f88000088b90000007800e400400080af2000ed
:104f9800008040009040780011479800208b200046
:104fa80090407800214798009e4090002e40900045
:104fb80080cf50005b00320010c0b300004f780073
:104fc800c0c8bf008080fb00400320000088b900f3
:104fd80080007800c0af200000804000ae40900004
:104fe800014878004f003700d0458000e145800037
:104ff800a60f07002007980031079800c0c8bf0017
:105008008080fb00c1c8bf000080fb000000e900f1
:105018004301dd00400320000088b900000078004b
:1050280000004100e800400080af20000080400000
:105038001000be0040079800510798004e019000ec
:10504800de0190002e009000be009000800f5100fd
:10505800818f590003003a00aac8bf000004e0008d
:1050680030003200c0c8bf008081fb00c1c8bf004b
:105078000080fb000001e9002e009000be009000b7
:105088004312dd00420320000299b90002017800b2
:105098008201420002b02000028141000089be0066
:1050a800c0c8bf008080fb00c1c8bf000080fb00f3
:1050b8000000e90002812000220190000000e800c1
:1050c800c301dd00400320000088b900000078001b
:1050d80080804100c0af20000080400002087800b6
:1050e800c0c8bf008080fb00c1c8bf000080fb00b3
:1050f8000000e9000281200032019000c301dd00b8
:10510800400320000088b90000007800808041003a
:1051180060b02000008040000208780010c0b30092
:10512800004f78001e4078000004e0001b003200a9
:10513800200a2000600798006e0090000080e900b7
:105148008000780080af200012380700ee01900040
:1051580082af20008040eb00c0ed2000f83507004a
:10516800ee019000829f20008040eb00c0ed2000ff
:10517800a13507006e0090000040780000417800db
:10518800819f200080af2000d02907000000e000a8
:1051980001003a0000000000aa68ef006e48900085
:1051a8000004e0000200320016fb07001b00370075
:1051b800c1c8bf000040e800c1e8b700c0c8bf00d0
:1051c8008080fb00400320000088b90000007800c0
