:020000040000fa
:080000000002040000000000f2
:020000040000fa
:0400080040040000b0
:020000040000fa
:04000c00c803000025
:020000040000fa
:04001000da0300000f
:020000040000fa
:04001400d003000015
:020000040000fa
:04001800e2030000ff
:020000040000fa
:04001c00400400009c
:020000040000fa
:040020004004000098
:020000040000fa
:040024004004000094
:020000040000fa
:040028004004000090
:020000040000fa
:04002c00400400008c
:020000040000fa
:040030004004000088
:020000040000fa
:040034009a0300002b
:020000040000fa
:040038004004000080
:020000040000fa
:04003c00400400007c
:020000040000fa
:040040004004000078
:020000040000fa
:040044006c03000049
:020000040000fa
:040048004004000070
:020000040000fa
:04004c00400400006c
:020000040000fa
:040050004004000068
:020000040000fa
:040054004004000064
:020000040000fa
:040058004004000060
:020000040000fa
:04005c00400400005c
:020000040000fa
:040060004004000058
:020000040000fa
:040064004004000054
:020000040000fa
:040068004004000050
:020000040000fa
:04006c00400400004c
:020000040000fa
:040070004004000048
:020000040000fa
:04007400ea0300009b
:020000040000fa
:040078004004000040
:020000040000fa
:04007c00400400003c
:020000040000fa
:040080004004000038
:020000040000fa
:040084004004000034
:020000040000fa
:040088004004000030
:020000040000fa
:04008c00400400002c
:020000040000fa
:040090004004000028
:020000040000fa
:040094004004000024
:020000040000fa
:040098004004000020
:020000040000fa
:04009c00400400001c
:020000040000fa
:0400a0004004000018
:020000040000fa
:0400a4004004000014
:020000040000fa
:0400a8004004000010
:020000040000fa
:0400ac00400400000c
:020000040000fa
:0400b0004004000008
:020000040000fa
:0400b4004004000004
:020000040000fa
:0400b8004004000000
:020000040000fa
:0400bc0040040000fc
:020000040000fa
:0400c00040040000f8
:020000040000fa
:0400c40040040000f4
:020000040000fa
:0400c80040040000f0
:020000040000fa
:0400cc0040040000ec
:020000040000fa
:0400d00040040000e8
:020000040000fa
:0400d40040040000e4
:020000040000fa
:0400d80040040000e0
:020000040000fa
:0400dc0040040000dc
:020000040000fa
:0400e00040040000d8
:020000040000fa
:0400e40040040000d4
:020000040000fa
:0400e80040040000d0
:020000040000fa
:0400ec0040040000cc
:020000040000fa
:0400f00040040000c8
:020000040000fa
:0400f40040040000c4
:020000040000fa
:0400f80040040000c0
:020000040000fa
:0400fc0040040000bc
:020000040000fa
:0401000040040000b7
:020000040000fa
:0401040040040000b3
:020000040000fa
:0401080040040000af
:020000040000fa
:04010c0040040000ab
:020000040000fa
:0401100040040000a7
:020000040000fa
:0401140040040000a3
:020000040000fa
:04011800400400009f
:020000040000fa
:04011c00400400009b
:020000040000fa
:0401200022040000b5
:020000040000fa
:040124004004000093
:020000040000fa
:04012800400400008f
:020000040000fa
:04012c00400400008b
:020000040000fa
:040130004004000087
:020000040000fa
:040134004004000083
:020000040000fa
:04013800400400007f
:020000040000fa
:04013c00400400007b
:020000040000fa
:040140004004000077
:020000040000fa
:040144004004000073
:020000040000fa
:04014800400400006f
:020000040000fa
:04014c00400400006b
:020000040000fa
:040150004004000067
:020000040000fa
:040154004004000063
:020000040000fa
:04015800400400005f
:020000040000fa
:04015c00400400005b
:020000040000fa
:040160004004000057
:020000040000fa
:040164004004000053
:020000040000fa
:04016800400400004f
:020000040000fa
:04016c00400400004b
:020000040000fa
:040170004004000047
:020000040000fa
:040174004004000043
:020000040000fa
:04017800400400003f
:020000040000fa
:04017c00400400003b
:020000040000fa
:040180004004000037
:020000040000fa
:040184004004000033
:020000040000fa
:04018800400400002f
:020000040000fa
:04018c00400400002b
:020000040000fa
:040190004004000027
:020000040000fa
:040194004004000023
:020000040000fa
:04019800400400001f
:020000040000fa
:04019c00400400001b
:020000040000fa
:0401a0004004000017
:020000040000fa
:0401a4004004000013
:020000040000fa
:0401a800400400000f
:020000040000fa
:0401ac00400400000b
:020000040000fa
:0401b0004004000007
:020000040000fa
:0401b4004004000003
:020000040000fa
:0401b80040040000ff
:020000040000fa
:0401bc0040040000fb
:020000040000fa
:0401c00040040000f7
:020000040000fa
:0401c40040040000f3
:020000040000fa
:0401c80040040000ef
:020000040000fa
:0401cc0040040000eb
:020000040000fa
:0401d00040040000e7
:020000040000fa
:0401d40040040000e3
:020000040000fa
:0401d80040040000df
:020000040000fa
:0401dc0040040000db
:020000040000fa
:0401e00040040000d7
:020000040000fa
:0401e40040040000d3
:020000040000fa
:0401e80040040000cf
:020000040000fa
:0401ec0040040000cb
:020000040000fa
:0401f00040040000c7
:020000040000fa
:0401f40040040000c3
:020000040000fa
:0401f80040040000bf
:020000040000fa
:0401fc0040040000bb
:020000040000fa
:0402080040040000ae
:020000040000fa
:04020c0040040000aa
:020000040000fa
:0402100040040000a6
:020000040000fa
:0402140040040000a2
:020000040000fa
:04021800400400009e
:020000040000fa
:04021c00400400009a
:020000040000fa
:040220004004000096
:020000040000fa
:040224004004000092
:020000040000fa
:04022800400400008e
:020000040000fa
:04022c00400400008a
:020000040000fa
:040230004004000086
:020000040000fa
:040234004004000082
:020000040000fa
:04023800400400007e
:020000040000fa
:04023c00400400007a
:020000040000fa
:040240004004000076
:020000040000fa
:040244004004000072
:020000040000fa
:04024800400400006e
:020000040000fa
:04024c00400400006a
:020000040000fa
:040250004004000066
:020000040000fa
:040254004004000062
:020000040000fa
:04025800400400005e
:020000040000fa
:04025c00400400005a
:020000040000fa
:040260004004000056
:020000040000fa
:040264004004000052
:020000040000fa
:04026800400400004e
:020000040000fa
:04026c00400400004a
:020000040000fa
:040270004004000046
:020000040000fa
:040274004004000042
:020000040000fa
:04027800400400003e
:020000040000fa
:04027c00400400003a
:020000040000fa
:040280004004000036
:020000040000fa
:040284004004000032
:020000040000fa
:04028800400400002e
:020000040000fa
:04028c00400400002a
:020000040000fa
:040290004004000026
:020000040000fa
:040294004004000022
:020000040000fa
:04029800400400001e
:020000040000fa
:04029c00400400001a
:020000040000fa
:0402a0004004000016
:020000040000fa
:0402a4004004000012
:020000040000fa
:0402a800400400000e
:020000040000fa
:0402ac00400400000a
:020000040000fa
:0402b0004004000006
:020000040000fa
:0402b4004004000002
:020000040000fa
:0402b80040040000fe
:020000040000fa
:0402bc0040040000fa
:020000040000fa
:0402c00040040000f6
:020000040000fa
:0402c40040040000f2
:020000040000fa
:0402c80040040000ee
:020000040000fa
:0402cc0040040000ea
:020000040000fa
:0402d00040040000e6
:020000040000fa
:0402d40040040000e2
:020000040000fa
:0402d80040040000de
:020000040000fa
:0402dc0040040000da
:020000040000fa
:0402e00040040000d6
:020000040000fa
:0402e40040040000d2
:020000040000fa
:0402e80040040000ce
:020000040000fa
:0402ec0040040000ca
:020000040000fa
:0402f00040040000c6
:020000040000fa
:0402f40040040000c2
:020000040000fa
:0402f80040040000be
:020000040000fa
:0402fc0040040000ba
:020000040000fa
:0403000040040000b5
:020000040000fa
:0403040040040000b1
:020000040000fa
:0403080040040000ad
:020000040000fa
:04030c0040040000a9
:020000040000fa
:0403100040040000a5
:020000040000fa
:0403140040040000a1
:020000040000fa
:04031800400400009d
:020000040000fa
:04031c004004000099
:020000040000fa
:040320004004000095
:020000040000fa
:040324004004000091
:020000040000fa
:04032800400400008d
:020000040000fa
:04032c004004000089
:020000040000fa
:040330004004000085
:020000040000fa
:040334004004000081
:020000040000fa
:04033800400400007d
:020000040000fa
:04033c004004000079
:020000040000fa
:040340004004000075
:020000040000fa
:040344004004000071
:020000040000fa
:04034800400400006d
:020000040000fa
:04034c004004000069
:020000040000fa
:040350004004000065
:020000040000fa
:040354004004000061
:020000040000fa
:04035800400400005d
:020000040000fa
:04035c004004000059
:020000040000fa
:040360004004000055
:020000040000fa
:040364004004000051
:020000040000fa
:04036800400400004d
:020000040000fa
:04036c004004000049
:020000040000fa
:040370004004000045
:020000040000fa
:040374004004000041
:020000040000fa
:04037800400400003d
:020000040000fa
:04037c004004000039
:020000040000fa
:040380004004000035
:020000040000fa
:040384004004000031
:020000040000fa
:04038800400400002d
:020000040000fa
:04038c004004000029
:020000040000fa
:040390004004000025
:020000040000fa
:040394004004000021
:020000040000fa
:04039800400400001d
:020000040000fa
:04039c004004000019
:020000040000fa
:0403a0004004000015
:020000040000fa
:0403a4004004000011
:020000040000fa
:0403a800400400000d
:020000040000fa
:0403ac004004000009
:020000040000fa
:0403b0004004000005
:020000040000fa
:0403b4004004000001
:020000040000fa
:0403b80040040000fd
:020000040000fa
:0403bc0040040000f9
:020000040000fa
:0403c00040040000f5
:020000040000fa
:0403c40040040000f1
:020000040000fa
:0403c80040040000ed
:020000040000fa
:0403cc0040040000e9
:020000040000fa
:0403d00040040000e5
:020000040000fa
:0403d40040040000e1
:020000040000fa
:0403d80040040000dd
:020000040000fa
:0403dc0040040000d9
:020000040000fa
:0403e00040040000d5
:020000040000fa
:0403e40040040000d1
:020000040000fa
:0403e80040040000cd
:020000040000fa
:0403ec0040040000c9
:020000040000fa
:0403f00040040000c5
:020000040000fa
:0403f40040040000c1
:020000040000fa
:0403f80040040000bd
:020000040000fa
:0403fc0040040000b9
:020000040000fa
:10040000eff220000e7f22000e01880000000000a5
:10041000000020000000e000020032000001200087
:100420002002880014000700170107000000e00008
:1004300003003a00000728000100200002003700f6
:100440000000200001002000810f70000100320038
:1004500014000700000020000000e000020032004d
:1004600000000200000000000a7c02000000000002
:100470000040da000000fe004440a9002082200075
:100480000000e000030032000020200090018800fe
:100490004440a800000006008a1f78008b1f7800e7
:1004a00000000600a1028800800478000000eb0034
:1004b0001f003700e284440054a0b4009905ba003c
:1004c000e284440054a0b4009906ba00e2844400d7
:1004d00054a0b4000006eb00476fde00fd07b20039
:1004e000ae018800636ce10003003a00eaff0700f8
:1004f0000000eb000e003700606ce10008003a00dd
:10050000004deb000a05e800020039003420ec0041
:100510000af0a0008b05e900f9ff3e000400370057
:100520006168e100010032000086eb000b0007006b
:1005300019c7ba001905ba000e04e00003003a001a
:100540000a00e000dbff3a0000000600fe07b200f0
:10055000ae0288008a047800f5ff37000cd0a300b3
:10056000e20f4d001c00390089027800354dba00b9
:100570000a05e800020039003420ec000af0a0006f
:100580008b05e9000f003200254dba000a05e8008e
:10059000020039003420ec000af0a0008b05e900cd
:1005a000080032000c00e0000600320015cdba0051
:1005b0000a05e800020039003420ec000af0a0002f
:1005c0008b05e9008984e80054a0b4000b00e0002a
:1005d000e2ff3a00000006009902ba00055d7800cb
:1005e0008b05e900f7ff3200c82ade00055d7800c0
:1005f0008b05e900f3ff32000c00e000f1ff320050
:1006000019ddba00eeff3700f06d040000000000b5
:10061000fc6d0400000000007e6e0400000000007d
:100620008a6e040000000000566e04000000000006
:100630002c6f040000000000386f04000000000070
:10064000626f0400000000006e6f040000000000f4
:10065000f06e0400000000009e7004000000000026
:10066000b070040000000000e6700400000000000c
:10067000ee6f040000000000fa6f040000000000ac
:10068000367004000000000042700400000000000a
:10069000c86f040000000000c270040000000000e9
:1006a000d4700400000000009e7c040000000000e4
:1006b00014720400000000005672040000000000e4
:1006c000c473040000000000287304000000000050
:1006d00006750400000000003600f800809fbe0090
:1006e000829fbe00849fbe00869fbe000000fa006d
:1006f000623e0700b0f22000104078008040e80021
:10070000b0f2200001487800a0f2200011c0b30030
:100710000148780084e0a9000080fa004f03be0081
:100720004f02be004f01be004f00be003600f90070
:10073000004006003600f800809fbe00829fbe0089
:10074000849fbe00869fbe000000fa00163e070090
:10075000d0f22000104078008040e800d0f2200065
:1007600001487800c0f2200011c0b30001487800b1
:100770008460a9000080fa004f03be004f02be0053
:100780004f01be004f00be003600f90000400600d9
:100790003600f8008020a9000000eb00623f07004f
:1007a0003600f800643f07008040a90010002000d8
:1007b0005d3f07003600f8008060a900200020009f
:1007c000593f07003600f8008080a9003000200063
:1007d000553f07003600f800809fbe00829fbe0094
:1007e000849fbe00869fbe000000fa008660a900bc
:1007f00000000000b83e0700d9e8b700d9c8bf0024
:100800000004e00005003200d8c8bf000004e0008a
:1008100002003a00d9c8bf00d8e8b700363f070049
:1008200000000000000000000080fa004f03be003e
:100830004f02be004f01be004f00be003600f9005f
:1008400000400600809fbe000000fa008bc0a90097
:10085000504680000000a00050468800704580008f
:100860008145800061004000e080480070458800bc
:10087000814588000080fa004f00be00004006005d
:100880000040da000000fe000000050003f0a200b6
:10089000889fbe008a9fbe008c1f78002c01070035
:1008a000330133006450e1004f0032006420e10066
:1008b0005200320003826c0007003b000905d000a3
:1008c0000306d000820f54000c065d0002003900c0
:1008d0000200320089017800030678008582550005
:1008e00004003d000003fd008103fd008502ea00d5
:1008f0008b854200840f720002003b0060001000f4
:10090000e08018006011b8000005eb007a28e100d3
:100910000a00390006007800c75ddd00f707b20065
:10092000878075002d003700828171000a017800f0
:10093000610560008180d1000080d3008502e9005c
:10094000f9ff3b00060440008784480002003b009a
:1009500060041400e0841c000988a3000700320032
:100960008a81710082817100610164008904d10073
:100970000884d3008b05e800170037000978a3002e
:1009800013003a000b00e000130034008b05e9006f
:100990000804440089844c000a4474000978a300c8
:1009a0000d003a000b00e000070034008b05e90061
:1009b0000804440089844c0001003a000b00200028
:1009c0000978a300f7ff32000001eb0002003700b6
:1009d000828171000a017800a20007000cf0a700d4
:1009e00001f0a000eb0037006420e10002003a00b3
:1009f000838f6c00eb0033000801be000200be00d4
:100a0000e4003700889fbe008a9fbe008c1f7800dc
:100a1000cf000700d600330003866c006450e1006d
:100a20002e0032006420e100330032006150e1000a
:100a30002f0032006120e100310032008585550031
:100a4000eb07b00009002000080420000500370073
:100a50000804440089844c000a0031000603430066
:100a600087834b000001530081815b00f8ff330056
:100a70000203be000800a0000804440089844c0062
:100a8000f6ff3900c639dd00830173000100320032
:100a9000130020008904d1000884d3000998a30022
:100aa000050032000800a7000300a0008904d1005f
:100ab0000884d3008b05e8008904d1000884d300a2
:100ac0000001eb000281d2006600070001f0a100e6
:100ad0000cf0a70001f0a000ae0037006420e10098
:100ae000b00032000801be000200be00f7ff370070
:100af0006120e100ab0032006000b800f3ff370076
:100b00000000200001f82700f0ff3700839f6800f5
:100b10000100e00002003d0060001000e0801800cd
:100b20000300e00002003d0060011100e0811900b7
:100b3000e20007004f00e00002003b0060001000f0
:100b4000e08018000000060014002000ee003700ce
:100b5000f4ff2f00ec0037000001be006700070023
:100b60000470a70003f0a1006509b100160032006f
:100b70000d0035006828e10006003500f0ff2f0069
:100b8000f1ff27000300e00013003b0001002800f4
:100b90000000050000004000818048008502e90057
:100ba000fcff3a0008003700f88f420002003c00ca
:100bb0008000eb00000005008100d1000080d30020
:100bc0008502e800fcff3a000300e00002003b0061
:100bd00060001000e0801800000006000001be0068
:100be000460007000470a70003f0a10003f8a3006b
:100bf00013003a006509b100100032000900350009
:100c00006928e1000200350001002800000005000d
:100c100000004000818048008502e900fcff3a00a6
:100c200000000600f88f4200050035008100d10069
:100c30000080d3008502e800fcff3a0000000600b7
:100c40008000eb00000005004f89de008201780083
:100c5000c80037006011b800d6003700040020003b
:100c6000a900370081002000618055000b003d0085
:100c70000b00200061fe2f000100e1001d00340088
:100c800082817100610164008904d1000884d3006d
:100c90000000e800faff3a007100200061006400e3
:100ca000030070000200600009003200610444008b
:100cb000e0844c000988a500050032008b05e8009f
:100cc0006808e10002003a008904d1000884d300da
:100cd000f20f20000258e10005003d00c75ddd0075
:100ce000f907b2008980750008007800000006004e
:100cf0000bf827008b00780000000500c70ade0013
:100d0000f107b200f50fb20008003200e1cf420057
:100d1000020032000170a00024000500810f700065
:100d2000010032000408050044000500810f700036
:100d300002003a00140005008502e90000004000ae
:100d400081c04800fcff3b000170a00024000500aa
:100d50000004be00e9ff07000003be000405be005a
:100d60000200be00e5ff0700844f7500000006008a
:100d70000200be006450e100050036006420e1007e
:100d8000020036000968a30001003a000800be0016
:100d90000160a0004f0678004f05be004f04be0062
:100da00000000600f0ff2f00f1ff2700f9ff3700d9
:100db000811f78000100e00002003d00600010008b
:100dc000e08018000300e00002003d006001110017
:100dd000e0811900490007004f00e00002003b00dd
:100de00060001000e080180000000600889fbe0030
:100df0008a9fbe008c1f7800d5ff0700dcff330000
:100e000003866c006450e100240032006420e1009d
:100e1000270032006150e100220032006120e10031
:100e2000210032008b854200eb07b1000134b8008d
:100e3000003ab8000804420089844a00013ab80028
:100e40000030b8008880400009014a0004003300e7
:100e50000000400081804800020149008b05e90044
:100e6000c909dd0083017000010032001300200079
:100e7000c814de004814dd004709de001200b2008d
:100e8000c808de000884700076ff070001f0a100aa
:100e90000cf0a70001f0a000beff37006120e100c8
:100ea000c0ff32000801be000200be00f7ff37009d
:100eb0006150e100fcff3a00baff37006022b80041
:100ec000060220000000d0008180d2000482d200ff
:100ed0008582d2000000a0000202520083825a00e4
:100ee000030031000202420083824a000000a10098
:100ef0000603e900f3ff3a0000000600efff0700d9
:100f00000400be0000000600889fbe008a9fbe004d
:100f1000841f78008eff07004f0078001100330017
:100f2000f0ff2f00838f6c0006003b000405650076
:100f30000a00a7000800370009f0a60010002000f2
:100f400008003700820f5400838f5c0003003900d3
:100f50001000200001003e000000200009f0a70062
:100f60000000ea004f05be004f04be000000e00094
:100f700000000600881f7800030478000300e000ea
:100f800007003d0060001000e080180060011900bb
:100f9000e081190002003b0001f02d000300370042
:100fa0000400070008f0a70001f0a0004f0478003b
:100fb00000000600889fbe008a9fbe00008270006d
:100fc0000402710004827100260032000004be0099
:100fd0000200be006011b8006b09200095022000dd
:100fe0000182cf000a0039000541b1000082cf0024
:100ff000070039000541b1000982cf000400390023
:101000000541b1000882cf00010039000541b1005f
:1010100005425200120032000a003b00828171003a
:10102000610164008100d1000080d3008984d30075
:101030000884d3008b05e8000442e800f7ff3a007b
:10104000070037000804440089844c000000480071
:10105000818048008b05e9000442e900f9ff3a006d
:1010600000ff07004f05be004f04be000000060051
:020000040000fa
:10107000000000000000000089d20000de3a0000fd
:10108000524900009d3b0000728a00000e3c0000a7
:10109000ac8b00005b3c0000be300000993c0000bf
:1010a00039b40000c83c000048500000fc3c00007f
:1010b0009a990000193d00007dae0000363d000009
:1010c000f4fd0000543d0000d8f00000743d000025
:1010d000964300008b3d00009a7700009c3d000085
:1010e000e9480000ae3d000080b70000c03d0000b0
:1010f000f38e0000d33d000042cf0000e63d00002b
:10110000daac0000fa3d0000a7790000073e0000bd
:101110004ed10000113e0000645d00001c3e000046
:10112000b0030000273e0000a1f80000313e00009f
:1011300091ed00003c3e000027310000483e0000d9
:10114000f38e0000533e0000f70600005f3e0000f3
:1011500068b300006a3e0000107a0000763e00008e
:10116000772d0000813e0000022b0000873e00002a
:10117000c44200008d3e0000865a0000933e0000ed
:10118000637f0000993e00005bb100009f3e0000bd
:101190006ff00000a53e00009f3c0000ac3e000048
:1011a000ce880000b23e000019e20000b83e000008
:1011b000643b0000bf3e0000cba10000c53e000024
:1011c0004d150000cc3e0000ce880000d23e00004d
:1011d00050fc0000d83e0000d26f0000df3e00004f
:1011e0006ff00000e53e00000d710000ec3e0000d5
:1011f000aaf10000f23e0000637f0000f93e00000b
:1012000000000000003f00004f400000033f0000ce
:101210002b870000063f00007ac70000093f00004e
:10122000c80700000d3f000017480000103f0000f5
:10123000d8810000133f000099bb0000163f00005a
:101240005af50000193f00001b2f00001d3f000051
:101250004e620000203f0000f38e0000233f00009c
:1012600099bb0000263f0000b1e10000293f0000cb
:10127000c80700002d3f000052270000303f00004b
:101280004f400000333f0000bd520000363f0000d9
:101290009e5e0000393f00007f6a00003c3f000076
:1012a000446900003f3f00007c610000423f0000b5
:1012b00026530000453f0000423e0000483f00002a
:1012c000431c00004b3f0000b6f300004d3f000000
:1012d0009cc40000503f0000d8810000533f000034
:1012e000143f0000563f0000a7e80000583f0000f0
:1012f000ac8b00005b3f0000962100005e3f0000c9
:1013000065aa0000603f000018260000633f00004f
:10131000228e0000653f000010e90000673f0000da
:10132000e33600006a3f00000d7100006c3f0000d2
:101330008d9700006e3f0000f2b00000703f00008b
:1013400021b00000723f000018950000743f0000bb
:1013500066660000763f00007e1d0000783f0000ba
:101360005eba0000793f00007a3600007b3f000043
:10137000d19100007c3f0000d6c500007d3f0000f9
:101380006dc500007e3f0000979000007f3f000089
:1013900000000000803f000000000000000000008e
:1013a000524900009d390000524900009d3a00005a
:1013b000c36400002a3b0000750200009a3b000055
:1013c000d7340000ef3b0000c36400002a3c00005b
:1013d00042600000653c00002b180000953c0000b6
:1013e00011c70000ba3c000042600000e53c00006c
:1013f00027a00000093d0000789c0000223d00006d
:1014000012a500003d3d00001a5100005a3d0000a9
:1014100090a00000783d0000287e00008c3d000078
:10142000bf7d00009d3d0000a01a0000af3d000000
:10143000a5bd0000c13d0000f4fd0000d43d00004a
:10144000f90f0000e93d000048bf0000fd3d00002d
:1014500027a00000093e00004faf0000143e00002e
:101460001b0d0000203e0000569f00002b3e000098
:101470006b9a0000373e000026e40000433e000067
:101480004e620000503e00001b2f00005d3e000039
:10149000553000006a3e000034800000773e0000b6
:1014a00025750000823e000083510000893e000047
:1014b00017480000903e0000c74b0000973e000018
:1014c000ad6900009e3e0000cba10000a53e0000db
:1014d00004e70000ac3e000058390000b43e0000b4
:1014e000e3a50000bb3e00006f120000c33e0000f9
:1014f00031990000ca3e0000f31f0000d23e0000f8
:10150000ecc00000d93e0000ca540000e13e0000db
:10151000de020000e93e0000d7a30000f03e00001c
:10152000ec510000f83e000000000000003f000009
:101530000ad70000033f000014ae0000073f000080
:10154000917e00000b3f00009b5500000f3f000004
:1015500018260000133f000007f00000163f0000af
:1015600068b300001a3f0000c97600001e3f00006b
:101570000e2d0000223f000054e30000253f000034
:101580007e8c0000293f00001b2f00002d3f000033
:1015900029cb0000303f00001d5a0000343f0000fe
:1015a00082e20000373f00003f5700003b3f000051
:1015b0006dc500003e3f0000f31f0000423f0000e9
:1015c000eb730000453f000039b40000483f0000c5
:1015d0006de700004b3f0000f70600004f3f0000a2
:1015e00065190000523f00002b180000553f000015
:1015f00047030000583f00002cd400005a3f000071
:10160000f69700005d3f000017480000603f0000b3
:1016100001de0000623f000042600000653f000004
:101620004bc80000673f0000ac1c00006a3f000090
:10163000485000006c3f00003b7000006e3f00000f
:10164000696f0000703f0000ee5a0000723f00001a
:10165000af250000743f000039d60000753f000040
:10166000fe650000773f0000fed40000783f0000d8
:10167000c72900007a3f00003f5700007b3f000071
:101680007f6a00007c3f00006d5600007d3f000037
:10169000242800007e3f0000fbcb00007e3f0000be
:1016a0009b5500007f3f00005bb100007f3f0000c2
:1016b00057ec00007f3f000000000000803f00006a
:1016c000d204000000000000000000005f000000e5
:1016d000050000004c4f0000320000000000000038
:1016e000740400004c4e00003200000000000000b6
:1016f0002a0300004c4100005200000000000000de
:101700007a050000434f0000320000000000000096
:10171000fc0300004c4e00004700000000000000e9
:10172000cc0100004f7400006800000000000000c1
:10173000e8030000983a000000000000b80b000029
:101740000000000000000000000000000000000099
:101750000000000038ff0000ffff00000000000054
:101760000000000000000000000000001027000042
:101770000000000010270000000000000000000032
:101780000000000000000000000000001027000022
:101790000000000010270000000000000000000012
:1017a0000000000000000000000000000000000039
:1017b0000000000000000000000000000000000029
:1017c0000000000000000000000000000000000019
:1017d0000000000000000000000000000000000009
:1017e00000000000000000000000000000000000f9
:1017f00000000000000000000000000000000000e9
:1018000000000000000000000000000000000000d8
:1018100000000000000000000000000000000000c8
:1018200000000000000000000000000000000000b8
:1018300000000000000000000000000000000000a8
:1018400000000000900100002c010000c800000012
:1018500064000000000000000000000010270000ed
:10186000102700000000000000000000102700000a
:1018700010270000000000000000000010270000fa
:1018800010270000000000000000000010270000ea
:1018900010270000e803000000000000d00700004f
:1018a00000000000e803000000000000d007000076
:1018b00000000000e803000000000000d007000066
:1018c00000000000e803000000000000d007000056
:1018d00000000000b6030000003c00000a00000009
:1018e0002c0100000000000000c100008140000049
:1018f00001c000008041000001c0000080410000e4
:1019000000c100008140000001c0000080410000d3
:1019100000c100008140000000c1000081400000c3
:1019200001c000008041000001c0000080410000b3
:1019300000c100008140000000c1000081400000a3
:1019400001c000008041000000c100008140000093
:1019500001c000008041000001c000008041000083
:1019600000c100008140000001c000008041000073
:1019700000c100008140000000c100008140000063
:1019800001c000008041000000c100008140000053
:1019900001c000008041000001c000008041000043
:1019a00000c100008140000000c100008140000033
:1019b00001c000008041000001c000008041000023
:1019c00000c100008140000001c000008041000013
:1019d00000c100008140000000c100008140000003
:1019e00001c000008041000001c0000080410000f3
:1019f00000c100008140000000c1000081400000e3
:101a000001c000008041000000c1000081400000d2
:101a100001c000008041000001c0000080410000c2
:101a200000c100008140000000c1000081400000b2
:101a300001c000008041000001c0000080410000a2
:101a400000c100008140000001c000008041000092
:101a500000c100008140000000c100008140000082
:101a600001c000008041000000c100008140000072
:101a700001c000008041000001c000008041000062
:101a800000c100008140000001c000008041000052
:101a900000c100008140000000c100008140000042
:101aa00001c000008041000001c000008041000032
:101ab00000c100008140000000c100008140000022
:101ac00001c000008041000000c100008140000012
:101ad00001c000008041000001c000008041000002
:101ae00000c100008140000000c00000c1010000f2
:101af000c303000002c20000c606000007c70000c2
:101b000005c50000c4040000cc0c00000dcd000091
:101b10000fcf0000ce0e00000aca0000cb0b000061
:101b2000c909000008c80000d818000019d9000031
:101b30001bdb0000da1a00001ede0000df1f0000c1
:101b4000dd1d00001cdc000014d40000d5150000d1
:101b5000d717000016d60000d212000013d30000e1
:101b600011d10000d0100000f030000031f1000071
:101b700033f30000f232000036f60000f7370000c1
:101b8000f535000034f400003cfc0000fd3d000091
:101b9000ff3f00003efe0000fa3a00003bfb000061
:101ba00039f90000f838000028e80000e9290000b1
:101bb000eb2b00002aea0000ee2e00002fef0000c1
:101bc0002ded0000ec2c0000e424000025e50000d1
:101bd00027e70000e626000022e20000e3230000e1
:101be000e121000020e00000a060000061a10000f1
:101bf00063a30000a262000066a60000a7670000c1
:101c0000a565000064a400006cac0000ad6d000090
:101c1000af6f00006eae0000aa6a00006bab000060
:101c200069a90000a868000078b80000b979000030
:101c3000bb7b00007aba0000be7e00007fbf0000c0
:101c40007dbd0000bc7c0000b474000075b50000d0
:101c500077b70000b676000072b20000b3730000e0
:101c6000b171000070b00000509000009151000070
:101c700093530000529200009656000057970000c0
:101c800055950000945400009c5c00005d9d000090
:101c90005f9f00009e5e00005a9a00009b5b000060
:101ca00099590000589800008848000049890000b0
:101cb0004b8b00008a4a00004e8e00008f4f0000c0
:101cc0008d4d00004c8c00004484000085450000d0
:101cd00087470000468600008242000043830000e0
:101ce00041810000804000003031000032330000ac
:101cf00034350000363700003839000061620000da
:101d0000636400006566000067680000696a00009f
:101d10006b6c00006d6e00006f700000717200004f
:101d2000737400007576000077780000797a0000ff
:101d30002e2d00003a20000047480000430000001c
:101d40003f0600005b4f0000666d00007d0700004d
:101d50007f6f0000777c0000395e00007971000021
:101d60006f740000060e00007a3800000037000093
:101d70005c730000675000006d7800003e000000ba
:101d8000000000006e5b00004040000048000000c2
:101d90003d7600003930000031320000333400005d
:101da00035360000373800003961000062630000fa
:101db0006465000066670000686900006a6b0000e7
:101dc0006c6d00006e6f0000707100007273000097
:101dd0007475000076770000787900007a41000081
:101de00042430000444500004647000048490000c7
:101df0004a4b00004c4d00004e4f00005051000077
:101e00005253000054550000565700005859000026
:101e10005a0000003f00000006000000db00000048
:101e2000cf000000e6000000ed000000fd00000013
:101e300007000000ff000000ef0000005804000051
:101e400078040000d80000008e080000fb000000ad
:101e5000710000008f010000f40000000600000087
:101e60000e00000070060000300000003603000085
:101e700037000000dc000000710200008701000054
:101e80003100000069040000c80a00003e000000a4
:101e9000300a0000360c0000000f0000000b0000ac
:101ea00048080000860a0000fd020000390000001a
:101eb000000000007900000071000000bd0000007b
:101ec000f6000000060000000e0000007006000092
:101ed0003800000036030000360500003f00000017
:101ee000f30000003f0400007106000069040000d8
:101ef000000000003e000000300a0000360c000028
:101f0000000f00008e010000090a0000637300004a
:101f100036360000002d0000303000002d0000009b
:101f200000200000202000002020000020200000d1
:101f300020000000202000002020000000200000e1
:101f4000707300006400000077770000310000002b
:101f50007777000032000000777900003100000040
:101f60007779000032000000202000006673000036
:101f700000200000202000006c0000002020000055
:101f80002068000000200000202000006400000005
:101f9000202000004862000000200000616c00006a
:101fa00030000000206800002d75000000200000b7
:101fb000682d000064000000207000002d750000f6
:101fc00000200000702d0000640000006574000017
:101fd00070300000006c0000703000006c000000e9
:101fe0006c70000030480000006c00007031000090
:101ff0006c0000006c700000314800000020000000
:10200000736300006c000000207300007461000026
:10201000206e00006f72000000200000737400004a
:10202000612000007473000074000000206500004f
:1020300070640000202000006e6f0000002000008f
:1020400065700000642000007965000073000000e6
:1020500020200000626c00002020000020200000f2
:1020600000200000736c000070000000207200006f
:1020700066700000000000003031000032330000c4
:102080003435000036370000383900006162000046
:1020900063640000656600000000000001000000ad
:1020a00000000000000000000000000000400000f0
:0420b00090ff00009d
:020000040000fa
:1020b4000200fa00004f78001e80fb00e10f500080
:1020c4000c003200e10f500003003c000000e0006f
:1020d400060032000d003700e20f50000700320006
:1020e400e30f500007003200080037001000200002
:1020f40007003700a000200005003700400620003c
:1021040003003700803e200001003700803e20009d
:102114000080fa00000006000a00fa003007980068
:10212400410798006000b800008fbe006000b8004e
:10213400a5370700ab370700008fbe000900370042
:1021440064380700404798004e4090000004e000c7
:102154000a003200100020009f380700a137070052
:10216400008fbe003e0090008000eb00be0f5000c8
:10217400ae8f5800f2ff3e0001003700000000005f
:102184004e009000ce409000014878001e00780078
:102194000080fa00000006000600fa00100798000c
:1021a40041479800524798001e009000104f780055
:1021b400ce4090005e40900080cf50000300390074
:1021c400ce409000014f7800070037001e4fe80012
:1021d4005e4090009e40780080cf500002003600a0
:1021e400ce409000014f7800a1c8bf000004e00079
:1021f400050032001e4078000004e00002003a00ae
:1022040010c0b300004f78001e0090001e487800f4
:102214000080fa00000006000800fa002007980079
:10222400614798002e0090009000780011079800f4
:102234006e409000e34f50000200360030c0b300ff
:10224400604798006e40900099ff07009e00900040
:1022540000017800110009008280d8000001780094
:10226400d0cc2c000010b8004308de006a00b9008e
:1022740000007800000f51006e4090008cff0700b2
:102284009e0078000180b900000078009e00900054
:1022940000805000100798001e0fe8001e00780010
:1022a400e90f5000020036000000eb00000f780038
:1022b4006e4090007eff07009e0078000180b90008
:1022c400000078009e0090000080400010079800f5
:1022d4002e0090009e009000010878000080fa0013
:1022e400000006000800fa002007980061479800e3
:1022f4002e00900010007800100798006e409000a7
:10230400e34f500007003e000e80e800ee409000ce
:10231400c1ff07009e0090002e0090000108780085
:10232400250037006e409000e44f500016003a003c
:102334002e009000a0409000014f78001e4fe8004e
:102344001e407800e34f5000020036000040eb00ce
:10235400004f78002e009000304090000004e00010
:10236400050032001e407800e24f500002003600a3
:102374000040eb00004f78002e0090009e40780053
:10238400214098000c0037002e009000b0409000cf
:10239400014f78001e4fe8001e407800e14f5000c6
:1023a400020036000040eb00004f78002e00900041
:1023b4009e407800314098000080fa00000006003a
:1023c4000000fa0000c1b30092e8b7009368ef0080
:1023d4009028ef009468ef000080fa0000000600e7
:1023e4000200fa0000c2b30092e8b7009368ef005d
:1023f40011478000010f78001e007800e50f50009f
:102404000200360050002000000f78009628ef00ec
:102414009828ef00608920001e0878009468ef0077
:102424000080fa00000006000200fa0000c3b300b6
:1024340092e8b7009368ef00a08d2000000f7800a9
:102444009628ef009828ef00608920009e0078000d
:10245400a100900081407800014878009468ef0062
:102464000080fa00000006000600fa0020c0b30055
:1024740093e8b700a08d2000000f78001e007800bc
:102484008020900070189000100798002107980091
:102494001e009000ae0090009815070010079800e9
:1024a400210798001e009000ae009000f0448800c0
:1024b400014588009468ef000080fa0000000600df
:1024c4000600fa0010c0b30093e8b700a08d200006
:1024d400000f78001e00780050199000e019900059
:1024e40012079800230798001e009000ae00900089
:1024f4008215070010079800210798001e0090001d
:10250400ae009000f0448800014588009468ef0014
:102514000080fa00000006000600fa0000c4b300c0
:1025240092e8b7009368ef00a08d2000000f7800b8
:102534001e00780050219000e021900012079800be
:10254400230798001e009000ae0090006b15070052
:1025540010079800210798001e009000ae0090001c
:10256400f044880001458800a1c8bf000004e000d1
:102574000300320010c0b30094e8b7000100370034
:102584009468ef000080fa00000006000800fa00da
:10259400604798007147980000c5b30092e8b700ff
:1025a4009368ef006e419000418a200082487800d1
:1025b400fe409000538a200081497800e0ae20005c
:1025c400000f78007e4090000004e0000b003a0009
:1025d400628920006e4090008080fb009e0178009c
:1025e400400320000088b900000078006400400027
:1025f400634078000049780019003700a4c8bf0080
:102604008080fb00a5c8bf000080fb000000e9003b
:102614001e017800c301dd00400320000088b900da
:102624000000780000804100680040000000410084
:102634001001be0012079800230798001e009000a6
:10264400ae0090002d150700100798002107980090
:102654001e009000ae009000f04488000145880000
:102664008e68ef009468ef000080fa000000060016
:102674000800fa00604798007147980000c6b3004c
:1026840092e8b7009368ef006e419000418a200001
:1026940082487800fe409000538a200081497800e7
:1026a40000b92000000f78007e4090000004e00094
:1026b4000b003a00628920006e4090008080fb008d
:1026c4009e017800400320000088b90000007800d3
:1026d4006400400063407800004978001900370026
:1026e400a4c8bf008080fb00a5c8bf000080fb0019
:1026f4000000e9001e017800c301dd004003200052
:102704000088b900000078000080410068004000a3
:10271400000041001001be00120798002307980032
:102724001e009000ae009000f414070010079800fb
:10273400210798001e009000ae009000f04488002d
:10274400014588009468ef000080fa00000006004c
:102754000800fa00604798007147980000cab30067
:1027640092e8b7009368ef006e419000418a200020
:1027740082487800fe409000538a20008149780006
:1027840020c32000000f78007e4090000004e00089
:102794000b003a00628920006e4090008080fb00ac
:1027a4009e017800400320000088b90000007800f2
:1027b4006400400063407800004978001900370045
:1027c400a4c8bf008080fb00a5c8bf000080fb0038
:1027d4000000e9001e017800c301dd004003200071
:1027e4000088b900000078000080410068004000c3
:1027f400000041001001be00120798002307980052
:102804001e009000ae009000bc1407001007980052
:10281400210798001e009000ae009000f04488004c
:10282400014588009468ef000080fa00000006006b
:102834000800fa00604798007147980010cab30076
:1028440092e8b7009368ef006e419000418a20003f
:1028540082487800fe409000538a20008149780025
:1028640040cd2000000f78007e4090000004e0007e
:102874000b003a00628920006e4090008080fb00cb
:102884009e017800400320000088b9000000780011
:102894006400400063407800004978001900370064
:1028a400a4c8bf008080fb00a5c8bf000080fb0057
:1028b4000000e9001e017800c301dd004003200090
:1028c4000088b900000078000080410068004000e2
:1028d400000041001001be00120798002307980071
:1028e4001e009000ae0090008414070010079800aa
:1028f400210798001e009000ae009000f04488006c
:10290400014588009468ef000080fa00000006008a
:102914000400fa002047980000c7b30092e8b7000b
:102924002e4190003189200082487800a08d20003b
:10293400000f780093c8bf000080fb009e00780061
:102944001006b00000004000610078008000eb0039
:10295400b0448800c14488009468ef000080fa0005
:10296400000006000400fa002047980000c8b300e5
:1029740092e8b7002e419000318920008248780007
:10298400a08d2000000f78009628ef009828ef0013
:102994006289200093c8bf000080fb009e0178007c
:1029a4006e00b900000078006007b0006300780092
:1029b40000407800004978009468ef000080fa0035
:1029c400000006000a00fa00004f980000c9b30096
:1029d40092e8b7000e4990003189200082487800bf
:1029e400a08d20002007980093c8bf000080fb0042
:1029f4000000d1006047980093c8bf000080fb002e
:102a040061006000004078000004e0000a00320029
:102a14006e4090000080fb002e0190006e00b90013
:102a2400000078002007b000000041001000be0044
:102a3400008fbe00090037006e4090000080fb004c
:102a44002e0190006e00b90000007800e006b0008e
:102a5400000041001000be00008fbe001e00be003a
:102a640026140700008fbe001e00be00f04488003c
:102a7400014588009468ef000080fa000000060019
:102a84000600fa004047980020cab30092e8b70055
:102a94004e419000318920008248780093c8bf00dd
:102aa400e14f5000010036009368ef0093c8bf0067
:102ab4000004e00004003a008085240001002000a6
:102ac400008fbe000600370093c8bf00e14f5000de
:102ad40003003a00006a280011002000008fbe00a5
:102ae4001e00be0005140700008fbe001e00be00bd
:102af400f0448800014588009468ef000080fa00e3
:102b0400000006000800fa006047980000cbb300fc
:102b140092e8b7006e419000318920008248780025
:102b24006000b800008fbe00a08d20002007980030
:102b340093c8bf000080fb00e10f50000f0032007b
:102b4400e10f500003003c000000e00006003200ea
:102b540020003700e20f50000d003200e30f500058
:102b6400100032001b0037002e00900050b9900076
:102b7400e0b99000028fbe000f0037002e009000d5
:102b840070b9900080019100028fbe000a003700e6
:102b94002e00900010019100a0019100028fbe0050
:102ba400050037002e00900030019100c001910013
:102bb400028fbe00000000001e00be00cf130700fd
:102bc400008fbe001e00be00f0448800014588004e
:102bd4009468ef000080fa00000006000200fa008a
:102be40000ccb30092e8b7009368ef00a08d2000fa
:102bf400000f78001e007800500091008000eb0068
:102c0400b0448800c14488009468ef000080fa0052
:102c1400000006000000fa0000cfb30092e8b700fd
:102c24009368ef0060892000814380008140780030
:102c3400014878009468ef000080fa000000060064
:102c44000000fa0010cfb30092e8b7009368ef00d9
:102c540060892000619e200091407800014878003e
:102c64009468ef000080fa00000006000000fa00fb
:102c740020cfb30092e8b7009368ef00608920008a
:102c8400719e200091407800014878009468ef001c
:102c94000080fa00000006000000fa0030cab30009
:102ca40092e8b7009368ef009628ef009828ef00a9
:102cb40060892000414f8000010878009468ef008b
:102cc4000080fa00000006000000fa0040cab300c9
:102cd40092e8b7009368ef009628ef009828ef0079
:102ce40060892000514f8000010878009468ef004b
:102cf4000080fa00000006000000fa009268ef006d
:102d04009368ef009628ef009828ef009e28ef00c4
:102d1400a028ef009468ef00a468ef00a568ef0016
:102d24009028ef000080fa00000006000000fa007e
:102d340093c8bf000080fb000000e900e10f5000d1
:102d440005003e0042c0b3008040eb0040892000f3
:102d540011fd070001003700000000000080fa00a8
:102d6400000006000000fa0093c8bf00e14f5000c5
:102d740004003a0032c0b3008040eb0040892000d8
:102d840005fd07000080fa00000006000000fa00bc
:102d9400a5c8bf000004e0000400320042c0b30034
:102da4008040eb0040892000fbfc07000080fa0013
:102db400000006000000fa00a5c8bf000004e000ff
:102dc4000400320042c0b3008040eb004089200080
:102dd400f1fc07000080fa00000006000000fa0081
:102de400a5c8bf000004e0000400320042c0b300e4
:102df4008040eb0040892000e7fc07000080fa00d7
:102e0400000006000000fa00a5c8bf000004e000ae
:102e14000400320042c0b3008040eb00408920002f
:102e2400ddfc07000080fa00000006000200fa0042
:102e340093c8bf006f4f60001e4fe8001e4078002b
:102e4400e34f5000020036000040eb00004f7800d2
:102e5400318920009140780000cfb30000c06000a9
:102e640093e8b70093c8bf001e40700093e8b70012
:102e74000080fa00000006000200fa0093c8bf00b8
:102e84006f4f60001e4fe8001e407800ea4f50006c
:102e9400020036000040eb00004f7800318920002a
:102ea4009140780000cfb30000c0600093e8b70001
:102eb40093c8bf001e40700093e8b7000080fa007a
:102ec400000006000000fa0092c8bf000080fb006a
:102ed40001062000810f500044003200010620004a
:102ee400810f500015003c0001022000810f5000aa
:102ef4003300320001022000810f500005003c0025
:102f04000000e00027003200f00f500027003200dc
:102f14005200370001042000810f50002c003200c1
:102f240001052000810f50002e0032000103200013
:102f3400810f50002400320048003700010a2000ad
:102f4400810f500035003200010a2000810f50002b
:102f54000a003c0001082000810f50003e003200ae
:102f640001092000810f50002700320001072000d2
:102f7400810f50001f00320038003700010b200081
:102f8400810f500029003200010c2000810f5000f5
:102f94002b003200110a2000810f50002100320062
:102fa4002e003700a1ff07002c00370032c0b30009
:102fb4008040eb004089200077fc070027003700a1
:102fc40068ff07002500370058ff0700230037007b
:102fd40052c0b3008040eb00408920006efc070023
:102fe4001e00370069ff07001c00370085ff07003b
:102ff4001a00370022c0b3008040eb004089200053
:1030040065fc07001500370042c0b3008040eb00a8
:103014004089200060fc07001000370065ff0700ae
:103024000e0037006dff07000c00370042c0b300ec
:103034008040eb004089200057fc07000700370060
:1030440022c0b3008040eb004089200052fc0700fe
:103054000000000001003700000000000080fa00ba
:10306400000006000200fa00318920009140780037
:1030740000cfb30000cf60001e80fb004400de00e0
:10308400004f78001e4fe8001e407800e24f5000c9
:10309400020036000040eb00004f78009e407800ac
:1030a400400020000008dd00004f780093c8bf00f6
:1030b4006f40600093e8b70093c8bf001e407000e3
:1030c40093e8b7000080fa00000006000000fa0050
:1030d40094c8bf0080407800008920004efc07009f
:1030e4000080fa00000006000400fa00b0448000ea
:1030f400c144800061004000e0804800b044880082
:10310400c1448800b2448000c344800050002000c1
:1031140001002000800f5100818f5900020034000b
:103124009628ef009828ef00b0448000c144800046
:103134000080e800c300dd00a08d20000080400076
:10314400100078008000eb00008fbe001e00be005f
:103154006a120700008fbe001e01be00f244880000
:10316400034588009468ef000080fa000000060020
:103174000000fa0093c8bf000080fb000000e000dc
:1031840003003200e10f5000030032000700370053
:10319400d5ff0700050037004189200091407800e1
:1031a400608920001cfc0700000000000080fa0079
:1031b400000006000200fa0093c8bf000080fb0074
:1031c4000000e000050032000000e00017003500b8
:1031d400e20f500017003c000f0037006089200008
:1031e400000f78001e007800104078008040e8004e
:1031f4001e007800014878001e0078001040780016
:10320400e14f50000d0036001e0078008040eb00b6
:10321400014878000a00370094c8bf008040780055
:10322400e08920002ffc07000500370000000000a3
:103234000300370000000000010037000000000018
:103244000080fa00000006000000fa0094c8bf00e5
:1032540080407800e089200022fc07000080fa000a
:10326400000006000200fa00a5c8bf000004e00048
:1032740010003a0060892000104f78001e4fe800cb
:103284001e407800e54f5000020036000040eb007d
:10329400004f78001e407800e14f500002003a00d1
:1032a40020c0b300004f7800608920001e487800d9
:1032b4000600370094c8bf0080407800e0892000f1
:1032c40008fc070010c0b3008ee8b7000080fa00c5
:1032d400000006000200fa00a5c8bf000004e000d8
:1032e40010003a0060892000104f78001e4fe8005b
:1032f4001e407800e54f5000020036000040eb000d
:10330400004f78001e407800e14f500002003a0060
:1033140020c0b300004f7800608920001e48780068
:103324000400370094c8bf0080407800e089200082
:10333400ecfb07000080fa00000006000200fa001f
:10334400a5c8bf000004e00010003a006089200016
:10335400104f78001e4fe8001e407800e54f5000e3
:10336400020036000040eb00004f78001e40780059
:10337400e14f500002003a0020c0b300004f780033
:10338400608920001e4878000400370094c8bf00fc
:1033940080407800e0892000d2fb07000080fa001a
:1033a400000006000200fa00a5c8bf000004e00007
:1033b40010003a0060892000104f78001e4fe8008a
:1033c4001e407800e54f5000020036000040eb003c
:1033d400004f78001e407800e14f500002003a0090
:1033e40020c0b300004f7800608920001e48780098
:1033f4000400370094c8bf0080407800e0892000b2
:10340400b8fb07000080fa00000006000000fa0084
:103414004189200091407800608920007efb0700ec
:103424000080fa00000006000200fa006089200013
:10343400000f78001e007800104078008040e800fb
:103444001e007800014878001e00780010407800c3
:10345400e34f5000030036001e0078008040eb006c
:10346400014878000080fa00000006000000fa001d
:1034740094c8bf0080407800e089200099fb0700d1
:103484000080fa00000006000000fa0094c8bf00a3
:1034940080407800e089200092fb07000080fa0059
:1034a400000006000000fa0094c8bf0080407800c5
:1034b400e08920008bfb07000080fa000000060072
:1034c4000000fa00418920009140780060892000c2
:1034d40051fb07000080fa00000006000200fa0019
:1034e40060892000000f78001e00780010407800ea
:1034f4000004e00004003a001e00780011c0b3008c
:1035040001487800030037001e0078008040eb007b
:10351400014878000080fa00000006000200fa006a
:1035240060892000000f78001e00780010407800a9
:103534000004e000040032001e0078008040eb002c
:1035440001487800030037001e00780011c0b30062
:10355400014878000080fa00000006000200fa002a
:1035640060892000000f78001e0078001040780069
:10357400ea4f500004003a001e007800e1c1b30095
:10358400014878000b0037001e00780010407800d6
:10359400fe4f500004003a001e007800c1c3b3007f
:1035a40001487800030037001e007800a1c0b30072
:1035b400014878000080fa00000006000200fa00ca
:1035c40060892000100f78001e007800c1032000dd
:1035d400810f50002d003200c1032000810f5000e4
:1035e4000d003e00ea0f50001f003200ea0f5000a9
:1035f40003003e000000e0001800320032003700f3
:10360400f40f50001b00320081022000810f500093
:103614001b0032002c003700810c2000810f500069
:1036240020003200810c2000810f500004003e0075
:1036340041062000810f500017003200220037009d
:1036440001192000810f500019003200812520004b
:10365400810f5000190032001b003700a000200029
:10366400000f78001b00370040012000000f780095
:103674001800370080022000000f78001500370082
:10368400c0032000000f780012003700400620001d
:10369400000f78000f003700800c2000000f780026
:1036a4000c00370000192000000f780009003700d3
:1036b40080252000000f780006003700803e20009f
:1036c400000f7800030037000000eb00000f7800c3
:1036d40000000000608920001e0878000080fa00c5
:1036e400000006000200fa0060892000100f780034
:1036f4001e007800e60f500020003200e60f500054
:1037040007003e00e20f500016003200e40f5000a4
:1037140017003200e10f50000f003200260037007e
:10372400f40f50001b003200f40f500003003e0061
:10373400ea0f5000140032001f00370081022000fd
:10374400810f500016003200c1032000810f500089
:10375400160032001800370020002000000f780007
:103764001800370040002000000f780015003700d3
:1037740060002000000f780012003700a000200035
:10378400000f78000f00370040012000000f780080
:103794000c00370080022000000f78000900370079
:1037a400c0032000000f7800060037004006200008
:1037b400000f78000300370010002000000f78008d
:1037c40000000000608920001e0878000080fa00d4
:1037d400000006000000fa0092c8bf000080fb0051
:1037e40001092000810f500062003200010920000d
:1037f400810f500025003c0001042000810f50007f
:103804005200320001042000810f50000e003c00e1
:10381400f00f500047003200f00f500003003c004e
:103824000000e00041003200660037000102200081
:10383400810f50004100320001032000810f50002d
:10384400400032005f00370001062000810f500065
:103854004200320001062000810f500004003c00a9
:1038640001052000810f50003a0032005500370056
:1038740001072000810f50003a00320001082000a7
:10388400810f5000390032004e003700010b200038
:10389400810f50003d003200010b2000810f5000c9
:1038a40011003c00110a2000810f50003500320045
:1038b400110a2000810f500004003c00010a20007e
:1038c400810f50002d0032003e003700310a2000e5
:1038d400810f500037003200410a2000810f500050
:1038e4003600320037003700010f2000810f5000ee
:1038f4002a003200010f2000810f500004003c0018
:10390400010c2000810f5000220032002d003700ee
:10391400110f2000810f500022003200210f2000df
:10392400810f50002100320026003700cdfd070032
:1039340024003700e5fd0700220037000cfe0700d5
:10394400200037001bfe07001e0037003efe070064
:103954001c00370043fe07001a0037005dfe070015
:1039640018003700a9fe070016003700aefe070056
:1039740014003700bdfe0700120037006ffe070079
:103984001000370087fe07000e003700c5fe070051
:103994000c003700cafe07000a003700cffe0700fc
:1039a40008003700ddfe070006003700ebfe0700c5
:1039b4000400370001ff07000200370049ff070039
:1039c400000000000080fa00000006000000fa0079
:1039d40092c8bf00f04f50007e003a00804480003f
:1039e40051082000810f5000570032005108200078
:1039f400810f50001e003e0041022000810f500044
:103a04004300320041022000810f500007003e00b5
:103a1400f00f500052003200f20f500063003200e9
:103a2400e60f50004b0032006a003700710220009c
:103a3400810f50006100320071022000810f50009c
:103a440004003e0061022000810f50005900320042
:103a54006000370081032000810f500030003200e5
:103a640021042000810f50002b0032005900370040
:103a7400810a2000810f50002b003200810a2000af
:103a8400810f500011003e00b1082000810f50004a
:103a940041003200b1082000810f500004003e00b4
:103aa40081082000810f500038003200490037009f
:103ab400110a2000810f50002c003200210a20003e
:103ac400810f50002d00320042003700c10b20004e
:103ad400810f500033003200c10b2000810f5000d1
:103ae40004003e00910a2000810f500012003200b1
:103af40038003700012b2000810f500031003200c4
:103b0400112b2000810f50003000320031003700ab
:103b140033fa07002f00370043fa07002d0037005f
:103b24007dfa07002b0037008040eb000040eb00db
:103b340096fa0700270037008040eb000040eb00b6
:103b4400cbfa0700230037000040eb0070fb0700ae
:103b5400200037000040eb0082fb07001d00370007
:103b64000040eb0097fb07001a0037008040eb0091
:103b74000040eb00f6fa0700160037008040eb0027
:103b84000040eb002afb0700120037000040eb0066
:103b9400bbfb07000f0037000040eb00d9fb070018
:103ba4000c0037000dfc07000a00370019fc070061
:103bb4000800370022fc0700060037002bfc070032
:103bc4000400370034fc0700020037003efc070005
:103bd400000000000080fa00000006000600fa0061
:103be4000040eb00004f7800a08d200010079800e3
:103bf400a08d2000200798001e0090007516070075
:103c04001e01900010219800212198001e009000b0
:103c1400a31607001e01900030219800412198004e
:103c2400211120002e0090002930070042112000ad
:103c34000000250011002000302e07004311200051
:103c44002e0190000000250011002000402e0700e6
:103c5400431120002e0190000000250011002000d7
:103c6400e62d0700411120002e00900000300700cf
:103c7400004f78001e4078000080fa000000060023
:103c84000000fa0093c8bf000004e00011003a00ed
:103c9400b0448000c1448000d0448800e1448800de
:103ca400d0448000e14480000080e800c300dd00cf
:103cb400a08d200000804000100078008000eb0000
:103cc400b0448800c14488009468ef0010c0b30079
:103cd40093e8b7000080fa00000006000a00fa002a
:103ce400004f9800a08d2000000f780093c8bf00fb
:103cf4000080fb00e10f50000c003200e20f500086
:103d0400150032000000e0001e003a006089200027
:103d1400100798001e009000104078008080fb007f
:103d24001e0078002100980016003700f04480003f
:103d340001458000a90f070020079800310798006b
:103d44001e0078002e019000be01900052189800c9
:103d5400631898000b003700f04480000145800090
:103d64009e0f070020079800310798002e0090004e
:103d7400be0090001e01780070199800012198007f
:103d8400000000000e4890000004e0000200320031
:103d9400d9fb07001800370090ff070093c8bf0045
:103da4000040e80093e8b70093c8bf00e24f50001a
:103db400010036009368ef0093c8bf000080fb0049
:103dc400e10f500006003200e20f500006003200fe
:103dd4000000e00007003a0093f9070006003700ee
:103de400b7f90700040037009ff90700000000003e
:103df40001003700000000000080fa000000060007
:103e04001000fa00604f98000040eb00004f78006b
:103e1400a5c8bf000004e0001d003a00a4c8bf000c
:103e24008080fb00400320000088b9000000780077
:103e3400e4004000e0ae20000080400090407800a4
:103e4400114798006089200090407800214798002d
:103e54009e4090002e40900080cf50005b003200c6
:103e640010c0b300004f7800a4c8bf008080fb00de
:103e7400400320000088b9008000780020af2000b3
:103e840000804000ae409000014878004f003700a9
:103e9400f044800001458000500f0700200798007f
:103ea40031079800a4c8bf008080fb00a5c8bf00ec
:103eb4000080fb000000e9004301dd004003200016
:103ec4000088b9000000780000004100e8004000cc
:103ed400e0ae2000008040001000be0040079800c3
:103ee400510798004e019000de0190002e009000d2
:103ef400be009000800f5100818f590003003a00ea
:103f04008ec8bf000004e00030003200a4c8bf0027
:103f14008081fb00a5c8bf000080fb000001e90010
:103f24002e009000be0090004312dd0042032000ea
:103f34000299b900020178008201420062af2000b8
:103f4400028141000089be00a4c8bf008080fb003c
:103f5400a5c8bf000080fb000000e900028120002a
:103f6400220190000000e800c301dd0040032000ae
:103f74000088b900000078008080410020af200054
:103f84000080400002087800a4c8bf008080fb00c5
:103f9400a5c8bf000080fb000000e90002812000ea
:103fa40032019000c301dd00400320000088b90005
:103fb4000000780080804100c0af200000804000f5
:103fc4000208780010c0b300004f78001e4078004b
:103fd4000004e0001b003200200a20006007980063
:103fe4006e0090000080e90080007800e0ae2000c0
:103ff400372f0700ee019000e2ae20008040eb0076
:1040040020ed2000a72c0700ee019000e29e200086
:104014008040eb0020ed2000502c07006e00900043
:104024000040780000417800e19e2000e0ae2000ce
:10403400b12407000000e00001003a000000000085
:104044008e68ef006e4890000004e0000200320029
:1040540029fb07001b003700a5c8bf000040e8008b
:10406400a5e8b700a4c8bf008080fb00400320007f
:104074000088b90000007800e4004000e0ae2000b1
:104084000080400090407800a5c8bf0080cf500059
:1040940008003100a568ef00a4c8bf000040e80094
:1040a400a4e8b700a4c8bf00e24f500001003600e6
:1040b400a468ef00518a200091407800a4c8bf0092
:1040c40032f907000080fa00000006001000fa0030
:1040d400604f98000040eb00004f7800a5c8bf0077
:1040e4000004e0001d003a00a4c8bf008080fb006b
:1040f400400320000088b90000007800e40040007c
:1041040000b92000008040009040780011479800da
:104114006089200090407800214798009e409000dc
:104124002e40900080cf50005800320010c0b300e1
:10413400004f7800a4c8bf008080fb00400320002b
:104144000088b9008000780040b920000080400059
:10415400ae409000014878004c003700f0448000e5
:10416400014580009d0e0700200798003107980044
:10417400a4c8bf008080fb00a5c8bf000080fb006e
:104184000000e9004301dd00400320000088b9007d
:104194000000780000004100e800400000b9200061
:1041a400008040001000be004007980051079800ae
:1041b4004e019000de0190002e009000be009000a1
:1041c400800f5100818f590030003200a4c8bf0015
:1041d4008081fb00a5c8bf000080fb000001e9004e
:1041e4002e009000be0090004312dd004203200028
:1041f4000299b900020178008201420082b92000cc
:10420400028141000089be00a4c8bf008080fb0079
:10421400a5c8bf000080fb000000e90082812000e7
:10422400220190000000e800c301dd0040032000eb
:104234000088b900000078008080410040b9200067
:104244000080400002087800a4c8bf008080fb0002
:10425400a5c8bf000080fb000000e90082812000a7
:1042640032019000c301dd00400320000088b90042
:104274000000780080804100e0b920000080400008
:104284000208780010c0b300004f78001e40780088
:104294000004e00011003200200a200060079800aa
:1042a4006e0090000080e9008000780000b92000d2
:1042b400872e0700ee01900002b920008040eb0039
:1042c40000ee2000f72b0700ee019000e29e200094
:1042d4008040eb0000ee2000a02b07006e48900009
:1042e4000004e0000200320083fa07001b003700dc
:1042f400a5c8bf000040e800a5e8b700a4c8bf00f7
:104304008080fb00400320000088b9000000780092
:10431400e400400000b92000008040009040780094
:10432400a5c8bf0080cf500008003100a568ef0089
:10433400a4c8bf000040e800a4e8b700a4c8bf00b8
:10434400e24f500001003600a468ef00518a2000bb
:1043540091407800a4c8bf00c5f807000080fa00a7
:10436400000006001000fa00604f98000040eb00c7
:10437400004f7800a5c8bf000004e0001d003a000b
:10438400a4c8bf008080fb00400320000088b9005f
:1043940000007800e400400020c3200000804000ba
:1043a4009040780011479800608920009040780080
:1043b400214798009e4090002e40900080cf5000ee
:1043c4005800320010c0b300004f7800a4c8bf00ea
:1043d4008080fb00400320000088b9008000780042
:1043e40060c3200000804000ae4090000148780087
:1043f4004c003700f044800001458000f70d0700b1
:104404002007980031079800a4c8bf008080fb00f3
:10441400a5c8bf000080fb000000e9004301dd00e7
:10442400400320000088b90000007800000041002b
:10443400e800400020c32000008040001000be00bf
:1044440040079800510798004e019000de0190004b
:104454002e009000be009000800f5100818f590003
:1044640030003200a4c8bf008081fb00a5c8bf0093
:104474000080fb000001e9002e009000be009000c7
:104484004312dd00420320000299b90002017800c2
:1044940082014200a2c32000028141000089be00c3
:1044a400a4c8bf008080fb00a5c8bf000080fb003b
:1044b4000000e90002822000220190000000e800d0
:1044c400c301dd00400320000088b900000078002b
:1044d4008080410060c32000008040000208780012
:1044e400a4c8bf008080fb00a5c8bf000080fb00fb
:1044f4000000e9000282200032019000c301dd00c7
:10450400400320000088b90000007800808041004a
:1045140000c42000008040000208780010c0b300ee
:10452400004f78001e4078000004e00011003200c3
:10453400200a2000600798006e0090000080e900c7
:104544008000780020c32000e12d0700ee019000d8
:1045540022c320008040eb00e0ee2000512b070036
:10456400ee019000e29e20008040eb00e0ee20008f
:10457400fa2a07006e4890000004e00002003200ae
:10458400ddf907001b003700a5c8bf000040e800a4
:10459400a5e8b700a4c8bf008080fb00400320004a
:1045a4000088b90000007800e400400020c3200027
:1045b4000080400090407800a5c8bf0080cf500024
:1045c40008003100a568ef00a4c8bf000040e8005f
:1045d400a4e8b700a4c8bf00e24f500001003600b1
:1045e400a468ef00518a200091407800a4c8bf005d
:1045f40057f807000080fa00000006001000fa00d7
:10460400604f98000040eb00004f7800a5c8bf0041
:104614000004e0001d003a00a4c8bf008080fb0035
:10462400400320000088b90000007800e400400046
:1046340040cd200000804000904078001147980051
:104644006089200090407800214798009e409000a7
:104654002e40900080cf50005800320010c0b300ac
:10466400004f7800a4c8bf008080fb0040032000f6
:104674000088b9008000780080cd200000804000d0
:10468400ae409000014878004c003700f0448000b0
:1046940001458000510d070020079800310798005c
:1046a400a4c8bf008080fb00a5c8bf000080fb0039
:1046b4000000e9004301dd00400320000088b90048
:1046c4000000780000004100e800400040cd2000d8
:1046d400008040001000be00400798005107980079
:1046e4004e019000de0190002e009000be0090006c
:1046f400800f5100818f590030003200a4c8bf00e0
:104704008081fb00a5c8bf000080fb000001e90018
:104714002e009000be0090004312dd0042032000f2
:104724000299b9000201780082014200c2cd200042
:10473400028141000089be00a4c8bf008080fb0044
:10474400a5c8bf000080fb000000e90082822000b1
:10475400220190000000e800c301dd0040032000b6
:104764000088b900000078008080410080cd2000de
:104774000080400002087800a4c8bf008080fb00cd
:10478400a5c8bf000080fb000000e9008282200071
:1047940032019000c301dd00400320000088b9000d
:1047a400000078008080410020ce2000008040007e
:1047b4000208780010c0b300004f78001e40780053
:1047c4000004e00011003200200a20006007980075
:1047d4006e0090000080e9008000780040cd200049
:1047e4003b2d0700ee01900042cd20008040eb00fd
:1047f400c0ef2000ab2a0700ee019000e29e2000eb
:104804008040eb00c0ef2000542a07006e4890005f
:104814000004e0000200320037f907001b003700f3
:10482400a5c8bf000040e800a5e8b700a4c8bf00c1
:104834008080fb00400320000088b900000078005d
:10484400e400400040cd200000804000904078000b
:10485400a5c8bf0080cf500008003100a568ef0054
:10486400a4c8bf000040e800a4e8b700a4c8bf0083
:10487400e24f500001003600a468ef00518a200086
:1048840091407800a4c8bf00b1f707000080fa0087
:10489400000006000600fa0040479800a08d2000a2
:1048a400000f7800608920001007980093c8bf00ab
:1048b4000080fb009e009000910078001e017800ab
:1048c4001006b0000000400000004100010878001c
:1048d400c2fc07004e4090000004e00002003200d9
:1048e40005f907000900370093c8bf000040e8003d
:1048f40093e8b70093c8bf00e34f500001003600af
:104904009368ef0093c8bf0001f807000080fa0025
:10491400000006000600fa0040479800a08d200021
:10492400000f7800608920001007980093c8bf002a
:104934000080fb009e009000914078000181fb0004
:104944009e0178006e00b9000000780000804100ec
:104954006007b00002087800a0fc07004e409000f9
:104964000004e00002003200e3f807000900370009
:1049740093c8bf000040e80093e8b70093c8bf00a5
:10498400e34f5000010036009368ef0093c8bf0066
:10499400f4f707000080fa00000006000a00fa009d
:1049a400004f9800a08d2000000f7800f044800094
:1049b40001458000890c0700100798002107980022
:1049c40093c8bf000080fb000000d100604798003e
:1049d40093c8bf000080fb006100600000407800c5
:1049e4000004e0000b0032006e4090000081fb00e8
:1049f4001e009000ae0090001e0278006e11b900f7
:104a040002017800020142002207b0000089be00c2
:104a14000a0037006e4090000081fb001e009000e9
:104a2400ae0090001e0278006e11b90002017800f9
:104a340002014200e206b0000089be0067fc0700e4
:104a44000e4890000004e00002003200aaf80700bb
:104a54000900370093c8bf000040e80093e8b7009e
:104a640093c8bf00e74f5000010036009368ef0081
:104a740093c8bf00d3f707000080fa0000000600c7
:104a84000800fa0060479800a08d2000000f78000d
:104a9400f044800001458000500c07001007980086
:104aa4002107980093c8bf000080fb009e0090007f
:104ab4001e0178004200dd0000004100200eb0001d
:104ac4000108780093c8bf000080fb00c14180004a
:104ad4001e0178009003b0004200dd000000410098
:104ae400010878003dfc07006e4090000004e000df
:104af4000200320080f807000900370093c8bf00a5
:104b04000040e80093e8b70093c8bf00e14f5000ad
:104b1400010036009368ef0093c8bf00d8f7070080
:104b24000080fa00000006000800fa0060479800c0
:104b3400a08d2000000f7800f04480000145800023
:104b4400260c0700100798002107980093c8bf009f
:104b54000080fb00e10f500010003200e10f500014
:104b640003003c000000e000060032001d00370096
:104b7400e20f50000f003200e30f50001300320028
:104b8400180037001e0078001e019000ae0190004e
:104b940052b8980063b89800120037001e007800dd
:104ba4001e019000ae01900072b8980003009900b5
:104bb4000c0037001e0078001e019000ae0190002a
:104bc4001200990023009900060037001e007800a7
:104bd4001e019000ae01900032009900430099003c
:104be40000000000fdfb07006e4090000004e000a0
:104bf4000200320040f807000900370093c8bf00e4
:104c04000040e80093e8b70093c8bf00e34f5000aa
:104c1400010036009368ef0093c8bf00b9f707009e
:104c24000080fa00000006000000fa0093c8bf00ec
:104c34000004e00007003a00b0448000c144800052
:104c44000000780010478800e4fb07002af80700fa
:104c540010003700d0448000e1448000b24480005a
:104c6400c3448000020178000080e800c300dd0036
:104c7400a08d20000080400002087800d04480000d
:104c8400e14480000000780010478800d3fb07004f
:104c940019f807000080fa00000006000600fa0078
:104ca400a08d2000000f7800f044800001458000b2
:104cb400ca0b070010079800210798001e0078000f
:104cc4001e019000ae0190005220980063209800cd
:104cd400c2fb070008f807000080fa000000060085
:104ce4000400fa00a08d2000000f780060892000e5
:104cf400100798001e009000900078001e007800b5
:104d040051009900b5fb0700fbf707000080fa008b
:104d1400000006000200fa0060892000000f7800fd
:104d24001e007800104078000080fb00804388005b
:104d3400f1f707000080fa00000006000200fa0004
:104d440060892000000f78001e00780090407800f1
:104d5400609e200001487800a0fb0700e6f70700ea
:104d64000080fa00000006000200fa0060892000ba
:104d7400000f78001e00780090407800709e20009c
:104d84000148780095fb0700dbf707000080fa0074
:104d9400000006000000fa0060892000100078007e
:104da400404f88008dfb0700d3f707000080fa000e
:104db400000006000000fa0060892000100078005e
:104dc400504f880085fb0700cbf707000080fa00ee
:104dd400000006000000fa0092c8bf000080fb003b
:104de40001092000810f50006800320001092000f1
:104df400810f500025003c0001042000810f500069
:104e04005400320001042000810f50000e003c00c9
:104e1400f00f500048003200f00f500003003c0037
:104e24000000e0004400320073003700010220005b
:104e3400810f50004200320001032000810f500016
:104e4400410032006c00370001062000810f500041
:104e54004500320001062000810f500004003c0090
:104e640001052000810f50003c0032006200370031
:104e740001072000810f50003e003200010820008d
:104e8400810f50003e0032005b003700410a2000d1
:104e9400810f500056003200410a2000810f50005b
:104ea40011003c00110a2000810f50004000320024
:104eb400110a2000810f500004003c00010a200068
:104ec400810f5000370032004b003700210a2000c8
:104ed400810f500030003200310a2000810f500051
:104ee4004100320044003700010f2000810f5000c0
:104ef40037003200010f2000810f500007003c00f2
:104f0400010b2000810f50002c003200010c200006
:104f1400810f50002c00320037003700110f2000a1
:104f2400810f50002c003200210f2000810f50000f
:104f34002b003200300037006ff707002e003700d7
:104f440039ff07002c00370010c0b30063fb0700d3
:104f54002900370051ff07002700370010c0b300b5
:104f6400a7fb07002400370010c0b30057fc07005c
:104f74002100370010c0b30046fe07001e003700b2
:104f840010c0b30063fe07001b00370010c0b3005d
:104f940082fe07001800370010c0b300b8fe0700f7
:104fa4001500370010c0b300eefc070012003700f4
:104fb40010c0b30091fd07000f00370010c0b3000c
:104fc400d9fe07000c00370045ff07000a00370030
:104fd40050ff07000800370058ff0700060037009d
:104fe40061ff0700040037006aff07000200370072
:104ff40070ff0700000000000080fa0000000600b7
:105004000000fa0092c8bf000080fb0001072000e6
:10501400810f50004000320001072000810f500032
:1050240015003c0001032000810f500031003200c4
:1050340001032000810f500008003c00f00f5000d5
:105044004a00320001022000810f50002700320084
:105054000000e00023003200450037000105200075
:10506400810f50002600320001062000810f5000fd
:10507400260032003e003700110a2000810f500044
:1050840031003200110a2000810f50000a003c0058
:1050940001092000810f500025003200010a200080
:1050a400810f50002500320001082000810f5000bc
:1050b4001c0032002e003700010b2000810f50002d
:1050c40027003200010b2000810f500004003c0037
:1050d400210a2000810f50001e00320024003700f6
:1050e40023003700b6f4070021003700e4fa070074
:1050f4001f0037000040eb00f8fa07001c003700df
:105104000040eb003efb0700190037000040eb00b5
:10511400eefb0700160037000040eb00ddfd070042
:10512400130037000040eb00fafd070010003700c1
:105134000040eb0019fe07000d0037000040eb00b3
:1051440088fc07000a0037000040eb002bfd070035
:10515400070037000040eb0049fe07000400370059
:105164000040eb0070fe0700010037000000000063
:105174000080fa00000006000400fa00ccc8bf005a
:105184000004e00003003200ccc8bf000040e90086
:10519400cce8b700ccc8bf000004e00003003a002c
:1051a400504680000020a10050468800492c07008a
:1051b40020479800d8c8bf000004e00003003a006c
:1051c4002e4090000004e0003b0032000e80e80016
