:020000040000fa
:080000000002040000000000f2
:020000040000fa
:04000800d805000017
:020000040000fa
:04000c00e00300000d
:020000040000fa
:04001000f2030000f7
:020000040000fa
:04001400e8030000fd
:020000040000fa
:04001800fa030000e7
:020000040000fa
:04001c00d805000003
:020000040000fa
:04002000d8050000ff
:020000040000fa
:04002400d8050000fb
:020000040000fa
:04002800d8050000f7
:020000040000fa
:04002c00d8050000f3
:020000040000fa
:04003000d8050000ef
:020000040000fa
:04003400b203000013
:020000040000fa
:04003800d8050000e7
:020000040000fa
:04003c00d8050000e3
:020000040000fa
:04004000d8050000df
:020000040000fa
:040044008403000031
:020000040000fa
:04004800d8050000d7
:020000040000fa
:04004c00d8050000d3
:020000040000fa
:04005000d8050000cf
:020000040000fa
:040054000a05000099
:020000040000fa
:04005800b4040000ec
:020000040000fa
:04005c006605000035
:020000040000fa
:04006000d8050000bf
:020000040000fa
:04006400d8050000bb
:020000040000fa
:04006800d8050000b7
:020000040000fa
:04006c00d8050000b3
:020000040000fa
:04007000d8050000af
:020000040000fa
:040074008205000001
:020000040000fa
:04007800d8050000a7
:020000040000fa
:04007c00d8050000a3
:020000040000fa
:04008000d80500009f
:020000040000fa
:04008400d80500009b
:020000040000fa
:04008800d805000097
:020000040000fa
:04008c00d805000093
:020000040000fa
:04009000d80500008f
:020000040000fa
:04009400d80500008b
:020000040000fa
:04009800d805000087
:020000040000fa
:04009c00d805000083
:020000040000fa
:0400a0005804000000
:020000040000fa
:0400a4000204000052
:020000040000fa
:0400a800d805000077
:020000040000fa
:0400ac00d805000073
:020000040000fa
:0400b000d80500006f
:020000040000fa
:0400b400d80500006b
:020000040000fa
:0400b800d805000067
:020000040000fa
:0400bc00d805000063
:020000040000fa
:0400c000d80500005f
:020000040000fa
:0400c400d80500005b
:020000040000fa
:0400c800d805000057
:020000040000fa
:0400cc00d805000053
:020000040000fa
:0400d000d80500004f
:020000040000fa
:0400d400d80500004b
:020000040000fa
:0400d800d805000047
:020000040000fa
:0400dc00d805000043
:020000040000fa
:0400e000d80500003f
:020000040000fa
:0400e400d80500003b
:020000040000fa
:0400e800d805000037
:020000040000fa
:0400ec00d805000033
:020000040000fa
:0400f000d80500002f
:020000040000fa
:0400f400d80500002b
:020000040000fa
:0400f800d805000027
:020000040000fa
:0400fc00d805000023
:020000040000fa
:04010000d80500001e
:020000040000fa
:04010400d80500001a
:020000040000fa
:04010800d805000016
:020000040000fa
:04010c00d805000012
:020000040000fa
:04011000d80500000e
:020000040000fa
:04011400d80500000a
:020000040000fa
:04011800d805000006
:020000040000fa
:04011c00d805000002
:020000040000fa
:04012000ba0500001c
:020000040000fa
:04012400d8050000fa
:020000040000fa
:04012800d8050000f6
:020000040000fa
:04012c00500500007a
:020000040000fa
:040130009e04000029
:020000040000fa
:04013400d8050000ea
:020000040000fa
:04013800d8050000e6
:020000040000fa
:04013c00d8050000e2
:020000040000fa
:04014000d8050000de
:020000040000fa
:04014400d8050000da
:020000040000fa
:04014800d8050000d6
:020000040000fa
:04014c00d8050000d2
:020000040000fa
:04015000d8050000ce
:020000040000fa
:04015400d8050000ca
:020000040000fa
:04015800d8050000c6
:020000040000fa
:04015c00d8050000c2
:020000040000fa
:04016000d8050000be
:020000040000fa
:04016400d8050000ba
:020000040000fa
:04016800d8050000b6
:020000040000fa
:04016c00d8050000b2
:020000040000fa
:04017000d8050000ae
:020000040000fa
:04017400d8050000aa
:020000040000fa
:04017800d8050000a6
:020000040000fa
:04017c00d8050000a2
:020000040000fa
:04018000d80500009e
:020000040000fa
:04018400d80500009a
:020000040000fa
:04018800d805000096
:020000040000fa
:04018c00d805000092
:020000040000fa
:04019000d80500008e
:020000040000fa
:04019400d80500008a
:020000040000fa
:04019800d805000086
:020000040000fa
:04019c00d805000082
:020000040000fa
:0401a000d80500007e
:020000040000fa
:0401a400d80500007a
:020000040000fa
:0401a800d805000076
:020000040000fa
:0401ac00d805000072
:020000040000fa
:0401b000d80500006e
:020000040000fa
:0401b400d80500006a
:020000040000fa
:0401b800d805000066
:020000040000fa
:0401bc00d805000062
:020000040000fa
:0401c000d80500005e
:020000040000fa
:0401c400d80500005a
:020000040000fa
:0401c800d805000056
:020000040000fa
:0401cc00d805000052
:020000040000fa
:0401d000d80500004e
:020000040000fa
:0401d400d80500004a
:020000040000fa
:0401d800d805000046
:020000040000fa
:0401dc00d805000042
:020000040000fa
:0401e000d80500003e
:020000040000fa
:0401e400d80500003a
:020000040000fa
:0401e800d805000036
:020000040000fa
:0401ec00d805000032
:020000040000fa
:0401f000d80500002e
:020000040000fa
:0401f400d80500002a
:020000040000fa
:0401f800d805000026
:020000040000fa
:0401fc00d805000022
:020000040000fa
:04020800d805000015
:020000040000fa
:04020c00d805000011
:020000040000fa
:04021000d80500000d
:020000040000fa
:04021400d805000009
:020000040000fa
:04021800d805000005
:020000040000fa
:04021c00d805000001
:020000040000fa
:04022000d8050000fd
:020000040000fa
:04022400d8050000f9
:020000040000fa
:04022800d8050000f5
:020000040000fa
:04022c00d8050000f1
:020000040000fa
:04023000d8050000ed
:020000040000fa
:04023400d8050000e9
:020000040000fa
:04023800d8050000e5
:020000040000fa
:04023c00d8050000e1
:020000040000fa
:04024000d8050000dd
:020000040000fa
:04024400d8050000d9
:020000040000fa
:04024800d8050000d5
:020000040000fa
:04024c00d8050000d1
:020000040000fa
:04025000d8050000cd
:020000040000fa
:04025400d8050000c9
:020000040000fa
:04025800d8050000c5
:020000040000fa
:04025c00d8050000c1
:020000040000fa
:04026000d8050000bd
:020000040000fa
:04026400d8050000b9
:020000040000fa
:04026800d8050000b5
:020000040000fa
:04026c00d8050000b1
:020000040000fa
:04027000d8050000ad
:020000040000fa
:04027400d8050000a9
:020000040000fa
:04027800d8050000a5
:020000040000fa
:04027c00d8050000a1
:020000040000fa
:04028000d80500009d
:020000040000fa
:04028400d805000099
:020000040000fa
:04028800d805000095
:020000040000fa
:04028c00d805000091
:020000040000fa
:04029000d80500008d
:020000040000fa
:04029400d805000089
:020000040000fa
:04029800d805000085
:020000040000fa
:04029c00d805000081
:020000040000fa
:0402a000d80500007d
:020000040000fa
:0402a400d805000079
:020000040000fa
:0402a800d805000075
:020000040000fa
:0402ac00d805000071
:020000040000fa
:0402b000d80500006d
:020000040000fa
:0402b400d805000069
:020000040000fa
:0402b800d805000065
:020000040000fa
:0402bc00d805000061
:020000040000fa
:0402c000d80500005d
:020000040000fa
:0402c400d805000059
:020000040000fa
:0402c800d805000055
:020000040000fa
:0402cc00d805000051
:020000040000fa
:0402d000d80500004d
:020000040000fa
:0402d400d805000049
:020000040000fa
:0402d800d805000045
:020000040000fa
:0402dc00d805000041
:020000040000fa
:0402e000d80500003d
:020000040000fa
:0402e400d805000039
:020000040000fa
:0402e800d805000035
:020000040000fa
:0402ec00d805000031
:020000040000fa
:0402f000d80500002d
:020000040000fa
:0402f400d805000029
:020000040000fa
:0402f800d805000025
:020000040000fa
:0402fc00d805000021
:020000040000fa
:04030000d80500001c
:020000040000fa
:04030400d805000018
:020000040000fa
:04030800d805000014
:020000040000fa
:04030c00d805000010
:020000040000fa
:04031000d80500000c
:020000040000fa
:04031400d805000008
:020000040000fa
:04031800d805000004
:020000040000fa
:04031c00d805000000
:020000040000fa
:04032000d8050000fc
:020000040000fa
:04032400d8050000f8
:020000040000fa
:04032800d8050000f4
:020000040000fa
:04032c00d8050000f0
:020000040000fa
:04033000d8050000ec
:020000040000fa
:04033400d8050000e8
:020000040000fa
:04033800d8050000e4
:020000040000fa
:04033c00d8050000e0
:020000040000fa
:04034000d8050000dc
:020000040000fa
:04034400d8050000d8
:020000040000fa
:04034800d8050000d4
:020000040000fa
:04034c00d8050000d0
:020000040000fa
:04035000d8050000cc
:020000040000fa
:04035400d8050000c8
:020000040000fa
:04035800d8050000c4
:020000040000fa
:04035c00d8050000c0
:020000040000fa
:04036000d8050000bc
:020000040000fa
:04036400d8050000b8
:020000040000fa
:04036800d8050000b4
:020000040000fa
:04036c00d8050000b0
:020000040000fa
:04037000d8050000ac
:020000040000fa
:04037400d8050000a8
:020000040000fa
:04037800d8050000a4
:020000040000fa
:04037c00d8050000a0
:020000040000fa
:04038000d80500009c
:020000040000fa
:04038400d805000098
:020000040000fa
:04038800d805000094
:020000040000fa
:04038c00d805000090
:020000040000fa
:04039000d80500008c
:020000040000fa
:04039400d805000088
:020000040000fa
:04039800d805000084
:020000040000fa
:04039c00d805000080
:020000040000fa
:0403a000d80500007c
:020000040000fa
:0403a400d805000078
:020000040000fa
:0403a800d805000074
:020000040000fa
:0403ac00d805000070
:020000040000fa
:0403b000d80500006c
:020000040000fa
:0403b400d805000068
:020000040000fa
:0403b800d805000064
:020000040000fa
:0403bc00d805000060
:020000040000fa
:0403c000d80500005c
:020000040000fa
:0403c400d805000058
:020000040000fa
:0403c800d805000054
:020000040000fa
:0403cc00d805000050
:020000040000fa
:0403d000d80500004c
:020000040000fa
:0403d400d805000048
:020000040000fa
:0403d800d805000044
:020000040000fa
:0403dc00d805000040
:020000040000fa
:0403e000d80500003c
:020000040000fa
:0403e400d805000038
:020000040000fa
:0403e800d805000034
:020000040000fa
:0403ec00d805000030
:020000040000fa
:0403f000d80500002c
:020000040000fa
:0403f400d805000028
:020000040000fa
:0403f800d805000024
:020000040000fa
:0403fc00d805000020
:020000040000fa
:100400004ff720000e7f22000e0188000000000040
:10041000000020000000e000020032000001200087
:100420002002880014000700e30107000000e0003c
:1004300003003a006011290001002000020037008b
:100440000000200001002000810f70000100320038
:1004500014000700000020000000e000020032004d
:100460000000020000000000ec8902000000000013
:100470000040da000000fe004440a900e0802000b7
:100480000000e000030032000020200090018800fe
:100490004440a800000006008a1f78008b1f7800e7
:1004a00000000600a1028800800478000000eb0034
:1004b0001f003700e284440054a0b4009905ba003c
:1004c000e284440054a0b4009906ba00e2844400d7
:1004d00054a0b4000006eb00476fde00fd07b20039
:1004e000ae018800636ce10003003a00eaff0700f8
:1004f0000000eb000e003700606ce10008003a00dd
:10050000004deb000a05e800020039003420ec0041
:100510000af0a0008b05e900f9ff3e000400370057
:100520006168e100010032000086eb000b0007006b
:1005300019c7ba001905ba000e04e00003003a001a
:100540000a00e000dbff3a0000000600fe07b200f0
:10055000ae0288008a047800f5ff37000cd0a300b3
:10056000e20f4d001c00390089027800354dba00b9
:100570000a05e800020039003420ec000af0a0006f
:100580008b05e9000f003200254dba000a05e8008e
:10059000020039003420ec000af0a0008b05e900cd
:1005a000080032000c00e0000600320015cdba0051
:1005b0000a05e800020039003420ec000af0a0002f
:1005c0008b05e9008984e80054a0b4000b00e0002a
:1005d000e2ff3a00000006009902ba00055d7800cb
:1005e0008b05e900f7ff3200c82ade00055d7800c0
:1005f0008b05e900f3ff32000c00e000f1ff320050
:1006000019ddba00eeff37003a7804000000000060
:100610004678040000000000c878040000000000d4
:10062000d478040000000000a0780400000000005e
:1006300076790400000000008279040000000000c8
:10064000ac79040000000000b8790400000000004c
:100650003a79040000000000e87a0400000000007d
:10066000fa7a040000000000307b04000000000063
:10067000387a040000000000447a04000000000002
:10068000807a0400000000008c7a04000000000062
:10069000127a0400000000000c7b0400000000003f
:1006a0001e7b0400000000004882040000000000df
:1006b0005e7c040000000000a07c0400000000003c
:1006c0000e7e040000000000727d040000000000a7
:1006d000507f0400000000007c8c0400000000003b
:1006e000fa8c0400000000002c8d040000000000c3
:1006f000be8c040000000000148d04000000000007
:100700008e8d0400000000003600f800809fbe00bf
:10071000829fbe00849fbe00869fbe000000fa003c
:10072000e847070010f72000104078008040e800fc
:1007300010f720000148780000f7200011c0b30036
:100740000148780084e0a9000080fa004f03be0051
:100750004f02be004f01be004f00be003600f90040
:10076000004006003600f800809fbe00829fbe0059
:10077000849fbe00869fbe000000fa009c470700d1
:1007800030f72000104078008040e80030f720006b
:100790000148780020f7200011c0b300014878001c
:1007a0008460a9000080fa004f03be004f02be0023
:1007b0004f01be004f00be003600f90000400600a9
:1007c0003600f8008020a9000000eb00da4807009e
:1007d0003600f800dc4807008040a9001000200027
:1007e000d54807003600f8008060a90020002000ee
:1007f000d14807003600f8008080a90030002000b2
:10080000cd480700809fbe000000fa00c17980003b
:1008100000202000008060000000e00002003200a4
:1008200097e0a9001f00370087e0a90018003700f3
:10083000b0798000104078000080fb00a011880093
:10084000b07980000000e800b0798800b1798000bc
:1008500020f42000808f500002003a00a0f3200016
:10086000b0798800c07980000080a100c07988003c
:10087000b1798000a0798000808f500004003a0098
:10088000c07980000090a000c07988000500370082
:100890009111800000202000008060000000e00036
:1008a000e3ff32000080fa004f00be000040060067
:1008b000809fbe000000fa00180037008079800099
:1008c000b111800081407800014878008079800073
:1008d0000000e8008079880081798000a0f4200081
:1008e000808f500002003a0020f4200080798800b8
:1008f000c07980000010a100c07988008179800053
:1009000090798000808f500004003a00c079800008
:100910000000a000c079880004003700901180001a
:10092000610060000000e000e4ff3a0087c0a90019
:100930000080fa004f00be0000400600801f7800d3
:100940000000fa0090118000620060000000e000ea
:10095000010032003222a9008c40a9000080fa0078
:100960004f00780000400600809fbe000000fa00a3
:10097000917a800000202000008060000000e000ec
:10098000020032009580a9001f0037008580a90071
:1009900018003700807a8000104078000080fb004b
:1009a00020118800807a80000000e800807a8800aa
:1009b000817a8000c0f52000808f500002003a004c
:1009c00040f52000807a8800907a80000080a100a5
:1009d000907a8800817a8000707a8000808f500041
:1009e00004003a00907a80000090a000907a88007d
:1009f00005003700111180000020200000806000f9
:100a00000000e000e3ff32000080fa004f00be006b
:100a100000400600809fbe000000fa00180037006a
:100a2000507a8000311180008140780001487800c0
:100a3000507a80000000e800507a8800517a8000e7
:100a400040f62000808f500002003a00c0f52000e0
:100a5000507a8800907a80000010a100907a880077
:100a6000517a8000607a8000808f500004003a0044
:100a7000907a80000000a000907a8800040037007f
:100a800010118000610060000000e000e4ff3a0007
:100a90008560a9000080fa004f00be0000400600fb
:100aa000801f78000000fa001011800062006000d2
:100ab0000000e000010032002222a9008c20a900e1
:100ac0000080fa004f007800004006003200f80075
:100ad0003400f800881f780018002000a801880062
:100ae00008202000980188004f0478000000fa00d8
:100af00085a0a9000080fa003400f9003200f90056
:100b0000004006003600f800809fbe00829fbe00b5
:100b1000849fbe00869fbe000000fa008660a90088
:100b2000000000007f470700f3e8b700f3c8bf00ec
:100b30000004e00005003200f2c8bf000004e0003d
:100b400002003a00f3c8bf00f2e8b700ee47070022
:100b500000000000000000000080fa004f03be000b
:100b60004f02be004f01be004f00be003600f9002c
:100b700000400600809fbe000000fa008bc0a90064
:100b8000104780000000a000104788003046800019
:100b90004146800061004000e08048003046880007
:100ba000414688000080fa004f00be000040060069
:100bb0000040da000000fe000000050003f0a20083
:100bc000889fbe008a9fbe008c1f78002c01070002
:100bd000330133006450e1004f0032006420e10033
:100be0005200320003826c0007003b000905d00070
:100bf0000306d000820f54000c065d00020039008d
:100c000002003200890178000306780085825500d1
:100c100004003d000003fd008103fd008502ea00a1
:100c20008b854200840f720002003b0060001000c0
:100c3000e08018006011b8000005eb007a28e100a0
:100c40000a00390006007800c75ddd00f707b20032
:100c5000878075002d003700828171000a017800bd
:100c6000610560008180d1000080d3008502e90029
:100c7000f9ff3b00060440008784480002003b0067
:100c800060041400e0841c000988a30007003200ff
:100c90008a81710082817100610164008904d10040
:100ca0000884d3008b05e800170037000978a300fb
:100cb00013003a000b00e000130034008b05e9003c
:100cc0000804440089844c000a4474000978a30095
:100cd0000d003a000b00e000070034008b05e9002e
:100ce0000804440089844c0001003a000b002000f5
:100cf0000978a300f7ff32000001eb000200370083
:100d0000828171000a017800a20007000cf0a700a0
:100d100001f0a000eb0037006420e10002003a007f
:100d2000838f6c00eb0033000801be000200be00a0
:100d3000e4003700889fbe008a9fbe008c1f7800a9
:100d4000cf000700d600330003866c006450e1003a
:100d50002e0032006420e100330032006150e100d7
:100d60002f0032006120e1003100320085855500fe
:100d7000eb07b00009002000080420000500370040
:100d80000804440089844c000a0031000603430033
:100d900087834b000001530081815b00f8ff330023
:100da0000203be000800a0000804440089844c002f
:100db000f6ff3900c639dd008301730001003200ff
:100dc000130020008904d1000884d3000998a300ef
:100dd000050032000800a7000300a0008904d1002c
:100de0000884d3008b05e8008904d1000884d3006f
:100df0000001eb000281d2006600070001f0a100b3
:100e00000cf0a70001f0a000ae0037006420e10064
:100e1000b00032000801be000200be00f7ff37003c
:100e20006120e100ab0032006000b800f3ff370042
:100e30000000200001f82700f0ff3700839f6800c2
:100e40000100e00002003d0060001000e08018009a
:100e50000300e00002003d0060011100e081190084
:100e6000e20007004f00e00002003b0060001000bd
:100e7000e08018000000060014002000ee0037009b
:100e8000f4ff2f00ec0037000001be0067000700f0
:100e90000470a70003f0a1006509b100160032003c
:100ea0000d0035006828e10006003500f0ff2f0036
:100eb000f1ff27000300e00013003b0001002800c1
:100ec0000000050000004000818048008502e90024
:100ed000fcff3a0008003700f88f420002003c0097
:100ee0008000eb00000005008100d1000080d300ed
:100ef0008502e800fcff3a000300e00002003b002e
:100f000060001000e0801800000006000001be0034
:100f1000460007000470a70003f0a10003f8a30037
:100f200013003a006509b1001000320009003500d5
:100f30006928e100020035000100280000000500da
:100f400000004000818048008502e900fcff3a0073
:100f500000000600f88f4200050035008100d10036
:100f60000080d3008502e800fcff3a000000060084
:100f70008000eb00000005004f89de008201780050
:100f8000c80037006011b800d60037000400200008
:100f9000a900370081002000618055000b003d0052
:100fa0000b00200061fe2f000100e1001d00340055
:100fb00082817100610164008904d1000884d3003a
:100fc0000000e800faff3a007100200061006400b0
:100fd0000300700002006000090032006104440058
:100fe000e0844c000988a500050032008b05e8006c
:100ff0006808e10002003a008904d1000884d300a7
:10100000f20f20000258e10005003d00c75ddd0041
:10101000f907b2008980750008007800000006001a
:101020000bf827008b00780000000500c70ade00df
:10103000f107b200f50fb20008003200e1cf420024
:10104000020032000170a00024000500810f700032
:10105000010032000408050044000500810f700003
:1010600002003a00140005008502e900000040007b
:1010700081c04800fcff3b000170a0002400050077
:101080000004be00e9ff07000003be000405be0027
:101090000200be00e5ff0700844f75000000060057
:1010a0000200be006450e100050036006420e1004b
:1010b000020036000968a30001003a000800be00e3
:1010c0000160a0004f0678004f05be004f04be002f
:1010d00000000600f0ff2f00f1ff2700f9ff3700a6
:1010e000811f78000100e00002003d006000100058
:1010f000e08018000300e00002003d0060011100e4
:10110000e0811900490007004f00e00002003b00a9
:1011100060001000e080180000000600889fbe00fc
:101120008a9fbe008c1f7800d5ff0700dcff3300cc
:1011300003866c006450e100240032006420e1006a
:10114000270032006150e100220032006120e100fe
:10115000210032008b854200eb07b1000134b8005a
:10116000003ab8000804420089844a00013ab800f5
:101170000030b8008880400009014a0004003300b4
:101180000000400081804800020149008b05e90011
:10119000c909dd0083017000010032001300200046
:1011a000c814de004814dd004709de001200b2005a
:1011b000c808de000884700076ff070001f0a10077
:1011c0000cf0a70001f0a000beff37006120e10095
:1011d000c0ff32000801be000200be00f7ff37006a
:1011e0006150e100fcff3a00baff37006022b8000e
:1011f000060220000000d0008180d2000482d200cc
:101200008582d2000000a0000202520083825a00b0
:10121000030031000202420083824a000000a10064
:101220000603e900f3ff3a0000000600efff0700a5
:101230000400be0000000600889fbe008a9fbe001a
:10124000841f78008eff07004f00780011003300e4
:10125000f0ff2f00838f6c0006003b000405650043
:101260000a00a7000800370009f0a60010002000bf
:1012700008003700820f5400838f5c0003003900a0
:101280001000200001003e000000200009f0a7002f
:101290000000ea004f05be004f04be000000e00061
:1012a00000000600881f7800030478000300e000b7
:1012b00007003d0060001000e08018006001190088
:1012c000e081190002003b0001f02d00030037000f
:1012d0000400070008f0a70001f0a0004f04780008
:1012e00000000600889fbe008a9fbe00008270003a
:1012f0000402710004827100260032000004be0066
:101300000200be006011b8006b09200095022000a9
:101310000182cf000a0039000541b1000082cf00f0
:10132000070039000541b1000982cf0004003900ef
:101330000541b1000882cf00010039000541b1002c
:1013400005425200120032000a003b008281710007
:10135000610164008100d1000080d3008984d30042
:101360000884d3008b05e8000442e800f7ff3a0048
:10137000070037000804440089844c00000048003e
:10138000818048008b05e9000442e900f9ff3a003a
:1013900000ff07004f05be004f04be00000006001e
:020000040000fa
:1013a000000000000000000089d20000de3a0000ca
:1013b000524900009d3b0000728a00000e3c000074
:1013c000ac8b00005b3c0000be300000993c00008c
:1013d00039b40000c83c000048500000fc3c00004c
:1013e0009a990000193d00007dae0000363d0000d6
:1013f000f4fd0000543d0000d8f00000743d0000f2
:10140000964300008b3d00009a7700009c3d000051
:10141000e9480000ae3d000080b70000c03d00007c
:10142000f38e0000d33d000042cf0000e63d0000f7
:10143000daac0000fa3d0000a7790000073e00008a
:101440004ed10000113e0000645d00001c3e000013
:10145000b0030000273e0000a1f80000313e00006c
:1014600091ed00003c3e000027310000483e0000a6
:10147000f38e0000533e0000f70600005f3e0000c0
:1014800068b300006a3e0000107a0000763e00005b
:10149000772d0000813e0000022b0000873e0000f7
:1014a000c44200008d3e0000865a0000933e0000ba
:1014b000637f0000993e00005bb100009f3e00008a
:1014c0006ff00000a53e00009f3c0000ac3e000015
:1014d000ce880000b23e000019e20000b83e0000d5
:1014e000643b0000bf3e0000cba10000c53e0000f1
:1014f0004d150000cc3e0000ce880000d23e00001a
:1015000050fc0000d83e0000d26f0000df3e00001b
:101510006ff00000e53e00000d710000ec3e0000a1
:10152000aaf10000f23e0000637f0000f93e0000d7
:1015300000000000003f00004f400000033f00009b
:101540002b870000063f00007ac70000093f00001b
:10155000c80700000d3f000017480000103f0000c2
:10156000d8810000133f000099bb0000163f000027
:101570005af50000193f00001b2f00001d3f00001e
:101580004e620000203f0000f38e0000233f000069
:1015900099bb0000263f0000b1e10000293f000098
:1015a000c80700002d3f000052270000303f000018
:1015b0004f400000333f0000bd520000363f0000a6
:1015c0009e5e0000393f00007f6a00003c3f000043
:1015d000446900003f3f00007c610000423f000082
:1015e00026530000453f0000423e0000483f0000f7
:1015f000431c00004b3f0000b6f300004d3f0000cd
:101600009cc40000503f0000d8810000533f000000
:10161000143f0000563f0000a7e80000583f0000bc
:10162000ac8b00005b3f0000962100005e3f000095
:1016300065aa0000603f000018260000633f00001c
:10164000228e0000653f000010e90000673f0000a7
:10165000e33600006a3f00000d7100006c3f00009f
:101660008d9700006e3f0000f2b00000703f000058
:1016700021b00000723f000018950000743f000088
:1016800066660000763f00007e1d0000783f000087
:101690005eba0000793f00007a3600007b3f000010
:1016a000d19100007c3f0000d6c500007d3f0000c6
:1016b0006dc500007e3f0000979000007f3f000056
:1016c00000000000803f000000000000000000005b
:1016d000524900009d390000524900009d3a000027
:1016e000c36400002a3b0000750200009a3b000022
:1016f000d7340000ef3b0000c36400002a3c000028
:1017000042600000653c00002b180000953c000082
:1017100011c70000ba3c000042600000e53c000038
:1017200027a00000093d0000789c0000223d000039
:1017300012a500003d3d00001a5100005a3d000076
:1017400090a00000783d0000287e00008c3d000045
:10175000bf7d00009d3d0000a01a0000af3d0000cd
:10176000a5bd0000c13d0000f4fd0000d43d000017
:10177000f90f0000e93d000048bf0000fd3d0000fa
:1017800027a00000093e00004faf0000143e0000fb
:101790001b0d0000203e0000569f00002b3e000065
:1017a0006b9a0000373e000026e40000433e000034
:1017b0004e620000503e00001b2f00005d3e000006
:1017c000553000006a3e000034800000773e000083
:1017d00025750000823e000083510000893e000014
:1017e00017480000903e0000c74b0000973e0000e5
:1017f000ad6900009e3e0000cba10000a53e0000a8
:1018000004e70000ac3e000058390000b43e000080
:10181000e3a50000bb3e00006f120000c33e0000c5
:1018200031990000ca3e0000f31f0000d23e0000c4
:10183000ecc00000d93e0000ca540000e13e0000a8
:10184000de020000e93e0000d7a30000f03e0000e9
:10185000ec510000f83e000000000000003f0000d6
:101860000ad70000033f000014ae0000073f00004d
:10187000917e00000b3f00009b5500000f3f0000d1
:1018800018260000133f000007f00000163f00007c
:1018900068b300001a3f0000c97600001e3f000038
:1018a0000e2d0000223f000054e30000253f000001
:1018b0007e8c0000293f00001b2f00002d3f000000
:1018c00029cb0000303f00001d5a0000343f0000cb
:1018d00082e20000373f00003f5700003b3f00001e
:1018e0006dc500003e3f0000f31f0000423f0000b6
:1018f000eb730000453f000039b40000483f000092
:101900006de700004b3f0000f70600004f3f00006e
:1019100065190000523f00002b180000553f0000e1
:1019200047030000583f00002cd400005a3f00003d
:10193000f69700005d3f000017480000603f000080
:1019400001de0000623f000042600000653f0000d1
:101950004bc80000673f0000ac1c00006a3f00005d
:10196000485000006c3f00003b7000006e3f0000dc
:10197000696f0000703f0000ee5a0000723f0000e7
:10198000af250000743f000039d60000753f00000d
:10199000fe650000773f0000fed40000783f0000a5
:1019a000c72900007a3f00003f5700007b3f00003e
:1019b0007f6a00007c3f00006d5600007d3f000004
:1019c000242800007e3f0000fbcb00007e3f00008b
:1019d0009b5500007f3f00005bb100007f3f00008f
:1019e00057ec00007f3f000000000000803f000037
:1019f000d204000000000000010000005f000000b1
:101a0000050000004c4f0000320000000000000004
:101a1000740400004c4e0000320000000000000082
:101a20002a0300004c4100005200000000000000aa
:101a30007a050000434f0000320000000000000063
:101a4000fc0300004c4e00004700000000000000b6
:101a5000cc0100004f74000068000000000000008e
:101a6000e8030000b50e000000000000780500004b
:101a70000000000000000000000000000000000066
:101a80000000000038ff0000ffff00000000000021
:101a9000000000000000000000000000102700000f
:101aa00000000000102700000000000000000000ff
:101ab00000000000000000000000000010270000ef
:101ac00000000000102700000000000000000000df
:101ad0000000000000000000000000000000000006
:101ae00000000000000000000000000000000000f6
:101af00000000000000000000000000000000000e6
:101b000000000000000000000000000000000000d5
:101b100000000000000000000000000000000000c5
:101b200000000000000000000000000000000000b5
:101b30000000000000000000000000009001000014
:101b40002c010000c800000064000000000000003c
:101b50000000000010270000102700000000000017
:101b60000000000010270000102700000000000007
:101b7000000000001027000010270000204e000089
:101b800000000000ab00000000000000c0d4000016
:101b900001000000cb03000000000000204e000008
:101ba00000000000ab00000000000000c0d40000f6
:101bb00001000000cb03000000000000e80300006b
:101bc00000000000d007000000000000e803000053
:101bd00000000000d007000000000000b603000075
:101be000003c0000000000002c010000000000008c
:101bf00000c100008140000001c0000080410000e1
:101c000001c000008041000000c1000081400000d0
:101c100001c000008041000000c1000081400000c0
:101c200000c100008140000001c0000080410000b0
:101c300001c000008041000000c1000081400000a0
:101c400000c100008140000001c000008041000090
:101c500000c100008140000001c000008041000080
:101c600001c000008041000000c100008140000070
:101c700001c000008041000000c100008140000060
:101c800000c100008140000001c000008041000050
:101c900000c100008140000001c000008041000040
:101ca00001c000008041000000c100008140000030
:101cb00000c100008140000001c000008041000020
:101cc00001c000008041000000c100008140000010
:101cd00001c000008041000000c100008140000000
:101ce00000c100008140000001c0000080410000f0
:101cf00001c000008041000000c1000081400000e0
:101d000000c100008140000001c0000080410000cf
:101d100000c100008140000001c0000080410000bf
:101d200001c000008041000000c1000081400000af
:101d300000c100008140000001c00000804100009f
:101d400001c000008041000000c10000814000008f
:101d500001c000008041000000c10000814000007f
:101d600000c100008140000001c00000804100006f
:101d700000c100008140000001c00000804100005f
:101d800001c000008041000000c10000814000004f
:101d900001c000008041000000c10000814000003f
:101da00000c100008140000001c00000804100002f
:101db00001c000008041000000c10000814000001f
:101dc00000c100008140000001c00000804100000f
:101dd00000c100008140000001c0000080410000ff
:101de00001c000008041000000c1000081400000ef
:101df00000c00000c1010000c303000002c20000d7
:101e0000c606000007c7000005c50000c4040000a6
:101e1000cc0c00000dcd00000fcf0000ce0e000056
:101e20000aca0000cb0b0000c909000008c8000066
:101e3000d818000019d900001bdb0000da1a0000d6
:101e40001ede0000df1f0000dd1d00001cdc0000a6
:101e500014d40000d5150000d717000016d60000d6
:101e6000d212000013d3000011d10000d0100000e6
:101e7000f030000031f1000033f30000f2320000d6
:101e800036f60000f7370000f535000034f40000a6
:101e90003cfc0000fd3d0000ff3f00003efe000056
:101ea000fa3a00003bfb000039f90000f838000066
:101eb00028e80000e9290000eb2b00002aea0000d6
:101ec000ee2e00002fef00002ded0000ec2c0000a6
:101ed000e424000025e5000027e70000e6260000d6
:101ee00022e20000e3230000e121000020e00000e6
:101ef000a060000061a1000063a30000a2620000d6
:101f000066a60000a7670000a565000064a40000a5
:101f10006cac0000ad6d0000af6f00006eae000055
:101f2000aa6a00006bab000069a90000a868000065
:101f300078b80000b9790000bb7b00007aba0000d5
:101f4000be7e00007fbf00007dbd0000bc7c0000a5
:101f5000b474000075b5000077b70000b6760000d5
:101f600072b20000b3730000b171000070b00000e5
:101f700050900000915100009353000052920000d5
:101f800096560000579700005595000094540000a5
:101f90009c5c00005d9d00005f9f00009e5e000055
:101fa0005a9a00009b5b0000995900005898000065
:101fb00088480000498900004b8b00008a4a0000d5
:101fc0004e8e00008f4f00008d4d00004c8c0000a5
:101fd00044840000854500008747000046860000d5
:101fe00082420000438300004181000080400000e5
:101ff0003031000032330000343500003637000045
:10200000383900006162000063640000656600000a
:1020100067680000696a00006b6c00006d6e00006c
:102020006f7000007172000073740000757600001c
:1020300077780000797a00002e2d00003a20000009
:1020400047480000430000003f0600005b4f0000cf
:10205000666d00007d0700007f6f0000777c000048
:10206000395e0000797100006f740000060e0000f8
:102070007a380000003700005c73000067500000f1
:102080006d7800003e000000000000006e5b000064
:1020900040400000480000003d760000393000005c
:1020a000313200003334000035360000373800008c
:1020b000396100006263000064650000666700002b
:1020c000686900006a6b00006c6d00006e6f0000b4
:1020d0007071000072730000747500007677000064
:1020e000787900007a410000424300004445000036
:1020f00046470000484900004a4b00004c4d000094
:102100004e4f000050510000525300005455000043
:1021100056570000585900005a0000003f000000c8
:1021200006000000db000000cf000000e600000019
:10213000ed000000fd00000007000000ff000000af
:10214000ef0000005804000078040000d8000000f0
:102150008e080000fb000000710000008f010000ed
:10216000f4000000060000000e00000070060000f1
:10217000300000003603000037000000dc000000e3
:1021800071020000870100003100000069040000b6
:10219000c80a00003e000000300a0000360c0000b3
:1021a000000f0000000b000048080000860a000035
:1021b000fd0200003900000000000000790000006e
:1021c00071000000bd000000f600000006000000e5
:1021d0000e0000007006000038000000360300000a
:1021e000360500003f000000f30000003f0400003f
:1021f0007106000069040000000000003e000000bd
:10220000300a0000360c0000000f00008e010000b4
:10221000090a00006373000036360000002d00003c
:10222000303000002d0000000020000020200000c1
:1022300020200000202000002000000020200000be
:1022400020200000002000007073000064000000e7
:10225000777700003100000077770000320000003f
:10226000777900003100000077790000320000002b
:1022700020200000667300000020000020200000e5
:102280006c000000202000002068000000200000fa
:1022900020200000640000002020000048620000b0
:1022a00000200000616c0000300000002068000089
:1022b0002d75000000200000682d00006400000063
:1022c000207000002d75000000200000702d00001f
:1022d00064000000616c0000317500000020000007
:1022e000637900006c000000206300007948000062
:1022f00000200000796c00006c00000020790000d4
:102300006c48000000200000736300006c000000b7
:102310002073000074610000206e00006f720000e6
:10232000002000007374000061200000747300003e
:102330007400000020650000706400002020000090
:102340006e6f000000200000657000006420000037
:10235000796500007300000020200000626c00001e
:10236000202000002020000000200000736c0000ee
:102370007000000020720000667000000000000085
:1023800030310000323300003435000036370000b1
:102390003839000061620000636400006566000077
:1023a000000000000100000000000000000000002c
:0c23b000000000000040000090ff000052
:020000040000fa
:1023bc000200fa00004f78001e80fb00e10f500075
:1023cc000c003200e10f500003003c000000e00064
:1023dc00060032000d003700e20f500007003200fb
:1023ec00e30f5000070032000800370010002000f7
:1023fc0007003700a0002000050037004006200031
:10240c0003003700803e200001003700803e200092
:10241c000080fa00000006000a00fa00300798005d
:10242c00410798006000b800008fbe006000b80043
:10243c00754007007b400700008fbe000900370085
:10244c0035410700404798004e4090000004e000e2
:10245c000a00320010002000704107007140070094
:10246c00008fbe003e0090008000eb00be0f5000bd
:10247c00ae8f5800f2ff3e00010037000000000054
:10248c004e009000ce409000014878001e0078006d
:10249c000080fa00000006000600fa001007980001
:1024ac0041479800524798001e009000104f78004a
:1024bc00ce4090005e40900080cf50000300390069
:1024cc00ce409000014f7800070037001e4fe80007
:1024dc005e4090009e40780080cf50000200360095
:1024ec00ce409000014f7800b9c8bf000004e00056
:1024fc00050032001e4078000004e00002003a00a3
:10250c0010c0b300004f78001e0090001e487800e9
:10251c000080fa00000006000800fa00200798006e
:10252c00614798002e0090009000780011079800e9
:10253c006e409000e34f50000200360030c0b300f4
:10254c00604798006e40900099ff07009e00900035
:10255c0000017800110009008280d8000001780089
:10256c00d0cc2c000010b8004308de006a00b90083
:10257c0000007800000f51006e4090008cff0700a7
:10258c009e0078000180b900000078009e00900049
:10259c0000805000100798001e0fe8001e00780005
:1025ac00e90f5000020036000000eb00000f78002d
:1025bc006e4090007eff07009e0078000180b900fd
:1025cc00000078009e0090000080400010079800ea
:1025dc002e0090009e009000010878000080fa0008
:1025ec00000006000800fa002007980061479800d8
:1025fc002e00900010007800100798006e4090009c
:10260c00e34f500007003e000e80e800ee409000c3
:10261c00c1ff07009e0090002e009000010878007a
:10262c00250037006e409000e44f500016003a0031
:10263c002e009000a0409000014f78001e4fe80043
:10264c001e407800e34f5000020036000040eb00c3
:10265c00004f78002e009000304090000004e00005
:10266c00050032001e407800e24f50000200360098
:10267c000040eb00004f78002e0090009e40780048
:10268c00214098000c0037002e009000b0409000c4
:10269c00014f78001e4fe8001e407800e14f5000bb
:1026ac00020036000040eb00004f78002e00900036
:1026bc009e407800314098000080fa00000006002f
:1026cc000000fa0000c1b300aae8b700ab68ef0045
:1026dc00a828ef00ac68ef000080fa0000000600ac
:1026ec000200fa0000c2b300aae8b700ab68ef0022
:1026fc00e1478000010f78001e007800e50f5000c4
:10270c000200360050002000000f7800ae28ef00c9
:10271c00b028ef00e08a20001e087800ac68ef00bb
:10272c000080fa00000006000200fa0000c3b300ab
:10273c00aae8b700ab68ef00408f2000000f7800cc
:10274c00ae28ef00b028ef00e08a20009e00780051
:10275c00a10090008140780001487800ac68ef003f
:10276c000080fa00000006000600fa0020c0b3004a
:10277c00abe8b700408f2000000f78001e007800f7
:10278c008020900070189000100798002107980086
:10279c001e009000ae009000e9150700100798008d
:1027ac00210798001e009000ae009000b0458800f4
:1027bc00c1458800ac68ef000080fa0000000600fc
:1027cc000600fa0010c0b300abe8b700408f200041
:1027dc00000f78001e00780050199000e01990004e
:1027ec0012079800230798001e009000ae0090007e
:1027fc00d315070010079800210798001e009000c1
:10280c00ae009000b0458800c1458800ac68ef0070
:10281c000080fa00000006000600fa0000c4b300b5
:10282c00aae8b700ab68ef00408f2000000f7800db
:10283c001e00780050219000e021900012079800b3
:10284c00230798001e009000ae009000bc150700f6
:10285c0010079800210798001e009000ae00900011
:10286c00b0458800c1458800b9c8bf000004e0002d
:10287c000300320010c0b300ace8b7000100370011
:10288c00ac68ef000080fa00000006000800fa00b7
:10289c00604798007147980000c5b300aae8b700dc
:1028ac00ab68ef006e419000c18b2000824878002d
:1028bc00fe409000d38b20008149780040af20006f
:1028cc00000f78007e4090000004e0000b003a00fe
:1028dc00e28a20006e4090008080fb009e01780010
:1028ec00400320000088b90000007800640040001c
:1028fc00634078000049780019003700bcc8bf005d
:10290c008080fb00bdc8bf000080fb000000e90018
:10291c001e017800c301dd00400320000088b900cf
:10292c000000780000804100680040000000410079
:10293c001001be0012079800230798001e0090009b
:10294c00ae0090007e150700100798002107980034
:10295c001e009000ae009000b0458800c145880074
:10296c00a668ef00ac68ef000080fa0000000600db
:10297c000800fa00604798007147980000c6b30041
:10298c00aae8b700ab68ef006e419000c18b200045
:10299c0082487800fe409000d38b2000814978005b
:1029ac0060b92000000f78007e4090000004e00029
:1029bc000b003a00e28a20006e4090008080fb0001
:1029cc009e017800400320000088b90000007800c8
:1029dc00640040006340780000497800190037001b
:1029ec00bcc8bf008080fb00bdc8bf000080fb00de
:1029fc000000e9001e017800c301dd004003200047
:102a0c000088b90000007800008041006800400098
:102a1c00000041001001be00120798002307980027
:102a2c001e009000ae00900045150700100798009e
:102a3c00210798001e009000ae009000b045880061
:102a4c00c1458800ac68ef000080fa000000060069
:102a5c000800fa00604798007147980000cab3005c
:102a6c00aae8b700ab68ef006e419000c18b200064
:102a7c0082487800fe409000d38b2000814978007a
:102a8c0080c32000000f78007e4090000004e0001e
:102a9c000b003a00e28a20006e4090008080fb0020
:102aac009e017800400320000088b90000007800e7
:102abc00640040006340780000497800190037003a
:102acc00bcc8bf008080fb00bdc8bf000080fb00fd
:102adc000000e9001e017800c301dd004003200066
:102aec000088b900000078000080410068004000b8
:102afc00000041001001be00120798002307980047
:102b0c001e009000ae0090000d15070010079800f5
:102b1c00210798001e009000ae009000b045880080
:102b2c00c1458800ac68ef000080fa000000060088
:102b3c000800fa00604798007147980010cab3006b
:102b4c00aae8b700ab68ef006e419000c18b200083
:102b5c0082487800fe409000d38b20008149780099
:102b6c00a0cd2000000f78007e4090000004e00013
:102b7c000b003a00e28a20006e4090008080fb003f
:102b8c009e017800400320000088b9000000780006
:102b9c006400400063407800004978001900370059
:102bac00bcc8bf008080fb00bdc8bf000080fb001c
:102bbc000000e9001e017800c301dd004003200085
:102bcc000088b900000078000080410068004000d7
:102bdc00000041001001be00120798002307980066
:102bec001e009000ae009000d5140700100798004e
:102bfc00210798001e009000ae009000b0458800a0
:102c0c00c1458800ac68ef000080fa0000000600a7
:102c1c000200fa00004f780060cab300aae8b700bf
:102c2c001e417800b18a200082487800ac68ef0021
:102c3c00a668ef000080fa00000006000200fa000f
:102c4c00004f780070cab300aae8b7001e417800a4
:102c5c00b18a200082487800ac68ef00a668ef00cb
:102c6c000080fa00000006000400fa0020479800db
:102c7c0000c7b300aae8b7002e419000b18a20002b
:102c8c0082487800408f2000000f7800abc8bf004e
:102c9c000080fb009e0078003005b0000000400072
:102cac00610078008000eb00704588008145880049
:102cbc00ac68ef00a668ef000080fa000000060088
:102ccc000400fa002047980000c8b300aae8b70037
:102cdc002e419000b18a200082487800408f20005d
:102cec00000f7800ae28ef00b028ef00e28a200039
:102cfc00abc8bf000080fb009e0178006e00b900dd
:102d0c00000078006007b000630078000040780095
:102d1c0000497800ac68ef000080fa000000060063
:102d2c000a00fa00004f980000c9b300aae8b700e7
:102d3c000e499000b18a200082487800408f200014
:102d4c0020079800abc8bf000080fb000000d1003a
:102d5c0060479800abc8bf000080fb0061006000ba
:102d6c00004078000004e0000a0032006e40900041
:102d7c000080fb002e0190006e00b900000078006e
:102d8c002007b00000004100301f780020177800a9
:102d9c00090037006e4090000080fb002e0190006f
:102dac006e00b90000007800e006b00000004100a1
:102dbc00301f7800201778001e00be00601407003a
:102dcc00008fbe001e00be00b0458800c1458800c3
:102ddc00ac68ef000080fa00000006000800fa0062
:102dec006047980000cbb300aae8b7006e41900092
:102dfc00b18a2000824878006000b800008fbe00c5
:102e0c00408f200020079800abc8bf000080fb005b
:102e1c00e10f50000f003200e10f500003003c00a6
:102e2c000000e0000600320020003700e20f5000e6
:102e3c000d003200e30f5000100032001b00370071
:102e4c002e00900030b19000c0b19000028fbe00f7
:102e5c000f0037002e00900050b19000e0b19000b0
:102e6c00028fbe000a0037002e00900070b1900057
:102e7c0080b99000028fbe00050037002e00900034
:102e8c0010b99000a0b99000028fbe0000000000a5
:102e9c001e00be002a140700008fbe001e00be00dc
:102eac00b0458800c1458800ac68ef000080fa008e
:102ebc00000006000200fa0000ccb300aae8b7003c
:102ecc00ab68ef00408f2000000f78001e007800e8
:102edc0030b890008000eb00704588008145880078
:102eec00ac68ef000080fa00000006000000fa0059
:102efc0000cfb300aae8b700ab68ef00e08a20006f
:102f0c00814380008140780001487800ac68ef0074
:102f1c000080fa00000006000000fa0010cfb30099
:102f2c00aae8b700ab68ef00e08a2000c19e200041
:102f3c009140780001487800ac68ef000080fa00fe
:102f4c00000006000000fa0020cfb300aae8b7008a
:102f5c00ab68ef00e08a2000d19e20009140780001
:102f6c0001487800ac68ef000080fa000000060011
:102f7c000000fa0030cab300aae8b700ab68ef0053
:102f8c00ae28ef00b028ef00e08a2000714f8000df
:102f9c0001087800ac68ef000080fa000000060021
:102fac000000fa0040cab300aae8b700ab68ef0013
:102fbc00ae28ef00b028ef00e08a2000814f80009f
:102fcc0001087800ac68ef000080fa0000000600f1
:102fdc000000fa00aa68ef00ab68ef00ae28ef0023
:102fec00b028ef00b628ef00b828ef00ac68ef006f
:102ffc00bc68ef00bd68ef00a828ef000080fa0065
:10300c00000006000000fa00abc8bf000080fb0007
:10301c000000e900e10f500005003e0042c0b30083
:10302c008040eb00c08a20001bfd07000100370028
:10303c00000000000080fa00000006000000fa000a
:10304c00abc8bf00e14f500004003a0032c0b300df
:10305c008040eb00c08a20000ffd07000080fa00c2
:10306c00000006000000fa00bdc8bf000004e0002c
:10307c000400320042c0b3008040eb00c08a200044
:10308c0005fd07000080fa00000006000000fa00b1
:10309c00bdc8bf000004e0000400320042c0b30011
:1030ac008040eb00c08a2000fbfc07000080fa0087
:1030bc00000006000000fa00bdc8bf000004e000dc
:1030cc000400320042c0b3008040eb00c08a2000f4
:1030dc00f1fc07000080fa00000006000000fa0076
:1030ec00bdc8bf000004e0000400320042c0b300c1
:1030fc008040eb00c08a2000e7fc07000080fa004b
:10310c00000006000200fa00abc8bf006f4f600061
:10311c001e4fe8001e407800e34f500002003600be
:10312c000040eb00004f7800b18a200091407800fd
:10313c0000cfb30000c06000abe8b700abc8bf0065
:10314c001e407000abe8b7000080fa0000000600db
:10315c000200fa00abc8bf006f4f60001e4fe800c2
:10316c001e407800ea4f5000020036000040eb0091
:10317c00004f7800b18a20009140780000cfb30056
:10318c0000c06000abe8b700abc8bf001e407000c9
:10319c00abe8b7000080fa00000006000000fa005f
:1031ac00aac8bf000080fb0001072000810f50005f
:1031bc004600320001072000810f500018003c002f
:1031cc0001032000810f5000350032000103200064
:1031dc00810f500008003c00f00f50002900320015
:1031ec0001022000810f50002b0032000000e00093
:1031fc00220032005000370001052000810f5000e2
:10320c002e00320001062000810f50002d003200ec
:10321c0001042000810f50002300320046003700cb
:10322c00110a2000810f500034003200110a2000d6
:10323c00810f500007003c0001092000810f500055
:10324c0027003200010a2000810f500029003200b3
:10325c0039003700610a2000810f5000350035001d
:10326c00710a2000810f500026003400010b200051
:10327c00810f5000290032002f003700a1ff0700fa
:10328c002d00370032c0b3008040eb00c08a200014
:10329c0081fc07002800370068ff07002600370074
:1032ac0058ff07002400370052c0b3008040eb00e9
:1032bc00c08a200078fc07001f00370069ff070058
:1032cc001d00370085ff07001b00370032c0b3001c
:1032dc008040eb00c08a20006ffc0700160037000e
:1032ec0042c0b3008040eb00c08a20006afc07009b
:1032fc001100370065ff07000f0037006dff070056
:10330c000d003700a6c8bf000004a2000080fb001f
:10331c0000407800a6e8b7000700370042c0b300b1
:10332c008040eb00c08a20005bfc0700000000001e
:10333c0001003700000000000080fa0000000600c9
:10334c000200fa00b18a20009140780000cfb3004f
:10335c0000cf60001e80fb004400de00004f7800b0
:10336c001e4fe8001e407800e34f5000020036006c
:10337c000040eb00004f78009e4078004000200099
:10338c000008dd00004f7800abc8bf006f40600044
:10339c00abe8b700abc8bf001e407000abe8b7008d
:1033ac000080fa00000006000000fa00acc8bf0064
:1033bc0080407800808a200057fc07000080fa00cb
:1033cc00000006000400fa00704580008145800072
:1033dc0061004000e080480070458800814588000d
:1033ec0072458000834580005000200001002000c1
:1033fc00800f5100818f590002003400ae28ef007d
:10340c00b028ef0070458000814580000080e80006
:10341c00c300dd00408f20000080400010007800c9
:10342c008000eb00008fbe001e00be00c41207001f
:10343c00008fbe001e01be00b2458800c345880047
:10344c00ac68ef000080fa00000006000000fa00f3
:10345c00abc8bf000080fb000000e000030032009e
:10346c00e10f50000300320007003700d5ff0700c2
:10347c0005003700c18a200091407800e08a2000c6
:10348c0025fc0700000000000080fa000000060088
:10349c000200fa00abc8bf000080fb000000e00097
:1034ac00050032000000e00017003500e20f50006c
:1034bc0017003c000f003700e08a2000000f780056
:1034cc001e007800104078008040e8001e00780054
:1034dc00014878001e00780010407800e14f500041
:1034ec000d0036001e0078008040eb00014878008b
:1034fc000a003700acc8bf0080407800608b200009
:10350c0038fc0700050037000000000003003700fe
:10351c000000000001003700000000000080fa00ed
:10352c00000006000000fa00acc8bf008040780024
:10353c00608b20002bfc07000080fa0000000600c6
:10354c000200fa00bdc8bf000004e00010003a0001
:10355c00e08a2000104f78001e4fe8001e407800d3
:10356c00e54f5000020036000040eb00004f7800a1
:10357c001e407800e14f500002003a0020c0b3001a
:10358c00004f7800e08a20001e48780006003700c3
:10359c00acc8bf0080407800608b200011fc070095
:1035ac0010c0b300a6e8b7000080fa0000000600c7
:1035bc000200fa00bdc8bf000004e00010003a0091
:1035cc00e08a2000104f78001e4fe8001e40780063
:1035dc00e54f5000020036000040eb00004f780031
:1035ec001e407800e14f500002003a0020c0b300aa
:1035fc00004f7800e08a20001e4878000400370055
:10360c00acc8bf0080407800608b2000f5fb070041
:10361c000080fa00000006000200fa00bdc8bf00de
:10362c000004e00010003a00e08a2000104f7800ff
:10363c001e4fe8001e407800e54f50000200360097
:10364c000040eb00004f78001e407800e14f500026
:10365c0002003a0020c0b300004f7800e08a20003e
:10366c001e48780004003700acc8bf0080407800ca
:10367c00608b2000dbfb07000080fa0000000600d6
:10368c000200fa00bdc8bf000004e00010003a00c0
:10369c00e08a2000104f78001e4fe8001e40780092
:1036ac00e54f5000020036000040eb00004f780060
:1036bc001e407800e14f500002003a0020c0b300d9
:1036cc00004f7800e08a20001e4878000400370084
:1036dc00acc8bf0080407800608b2000c1fb0700a5
:1036ec000080fa00000006000000fa00c18a2000e9
:1036fc0091407800e08a200087fb07000080fa00e8
:10370c00000006000200fa00e08a2000000f78009a
:10371c001e007800104078008040e8001e00780001
:10372c00014878001e00780010407800e34f5000ec
:10373c00030036001e0078008040eb000148780042
:10374c000080fa00000006000000fa00acc8bf00c0
:10375c0080407800608b2000a2fb07000080fa00fc
:10376c00000006000000fa00acc8bf0080407800e2
:10377c00608b20009bfb07000080fa000000060015
:10378c000000fa00acc8bf0080407800608b2000bd
:10379c0094fb07000080fa00000006000200fa000b
:1037ac007045800081458000000f78004038200073
:1037bc009e007800808f500003003a00603b200090
:1037cc00000f78000200370040382000000f78000e
:1037dc001e0078008000eb00704588008145880051
:1037ec000080fa00000006000200fa00e08a2000c7
:1037fc00000f78001e007800104078000004e000f4
:10380c0004003a001e00780011c0b3000148780093
:10381c00030037001e0078008040eb000148780060
:10382c000080fa00000006000200fa00e08a200086
:10383c00000f78001e007800104078000004e000b3
:10384c00040032001e0078008040eb000148780034
:10385c00030037001e00780011c0b3000148780047
:10386c000080fa00000006000200fa00e08a200046
:10387c00000f78001e00780010407800ea4f5000ce
:10388c0004003a001e007800e1c1b3000148780042
:10389c000b0037001e00780010407800fe4f5000df
:1038ac0004003a001e007800c1c3b3000148780040
:1038bc00030037001e007800a1c0b3000148780057
:1038cc000080fa00000006000200fa00e08a2000e6
:1038dc00100f78001e007800e60f50002000320018
:1038ec00e60f500007003e00e20f500016003200b9
:1038fc00e40f5000170032000000e0000f0032000f
:10390c0026003700f40f50001b003200f40f50005b
:10391c0003003e00ea0f5000140032001f00370075
:10392c0081022000810f500016003200c1032000dc
:10393c00810f5000160032001800370020002000c4
:10394c00000f78001800370040002000000f7800ae
:10395c001500370060002000000f780012003700bf
:10396c00a0002000000f78000f003700400120005d
:10397c00000f78000c00370080022000000f780048
:10398c0009003700c0032000000f78000600370044
:10399c0040062000000f7800030037000000eb0009
:1039ac00000f780000000000e08a20001e0878005c
:1039bc000080fa00000006000200fa00e08a2000f5
:1039cc00100f78001e007800e60f50002000320027
:1039dc00e60f500007003e00e20f500016003200c8
:1039ec00e40f500017003200e10f50000f003200be
:1039fc0026003700f40f50001b003200f40f50006b
:103a0c0003003e00ea0f5000140032001f00370084
:103a1c0081022000810f500016003200c1032000eb
:103a2c00810f5000160032001800370020002000d3
:103a3c00000f78001800370040002000000f7800bd
:103a4c001500370060002000000f780012003700ce
:103a5c00a0002000000f78000f003700400120006c
:103a6c00000f78000c00370080022000000f780057
:103a7c0009003700c0032000000f78000600370053
:103a8c0040062000000f78000300370010002000d3
:103a9c00000f780000000000e08a20001e0878006b
:103aac000080fa00000006000000fa00aac8bf005f
:103abc000080fb00010a2000810f500063003200df
:103acc00010a2000810f500028003c000104200056
:103adc00810f50005100320001042000810f500072
:103aec000e003c00f00f500046003200f00f50006a
:103afc0003003c000000e000400032006b00370087
:103b0c0001022000810f5000400032000103200010
:103b1c00810f50003f003200640037000107200085
:103b2c00810f50004300320001072000810f50002c
:103b3c0007003c0001052000810f500039003200c5
:103b4c0001062000810f500038003200570037006a
:103b5c0001082000810f50003800320001092000bc
:103b6c00810f50003700320050003700710a2000de
:103b7c00810f50000d003c00610a2000810f5000a5
:103b8c0036003d00310a2000810f50004300320006
:103b9c00410a2000810f500042003200110a20001f
:103bac00810f50002b00320040003700010f200025
:103bbc00810f500033003200010f2000810f5000a4
:103bcc0007003c00010b2000810f5000290032003f
:103bdc00010c2000810f5000280032003300370008
:103bec00110f2000810f500028003200210f2000ff
:103bfc00810f5000270032002c003700d0fd070049
:103c0c002a003700e8fd0700280037000ffe0700e8
:103c1c00260037001efe07002400370041fe070077
:103c2c002200370046fe07002000370060fe070028
:103c3c001e003700acfe07001c003700b1fe070069
:103c4c001a003700c0fe07001800370072fe07008c
:103c5c00160037008afe070014003700a6c8bf0004
:103c6c000004a2000080fb0000407800a6e8b7002a
:103c7c000e003700c2fe07000c003700c7fe07001d
:103c8c000a003700d8fe070008003700e6fe0700e0
:103c9c0006003700f4fe0700040037000aff070097
:103cac000200370044ff0700000000000080fa000b
:103cbc00000006000000fa00aac8bf00f04f500038
:103ccc0087003a004045800051082000810f5000c9
:103cdc005d00320051082000810f500024003e008e
:103cec0061022000810f500075003200610220003b
:103cfc00810f50000d003e00f00f500058003200b4
:103d0c00f00f500003003e00e60f5000510032004f
:103d1c0073003700f20f50006700320041022000a0
:103d2c00810f50003a0032006d003700a1022000d4
:103d3c00810f50005b003200a1022000810f500067
:103d4c0004003e0071022000810f50005e00320022
:103d5c006300370081032000810f500030003200d7
:103d6c0021042000810f50002b0032005c00370032
:103d7c00810a2000810f50002b003200810a2000a4
:103d8c00810f500011003e00210a2000810f5000cd
:103d9c003a003200210a2000810f500004003e003e
:103dac00110a2000810f5000300032004c00370007
:103dbc00310a2000810f500034003200410a2000eb
:103dcc00810f50003400320045003700c10b200039
:103ddc00810f500036003200c10b2000810f5000c3
:103dec0004003e00910a2000810f500012003200a6
:103dfc003b003700012b2000810f500034003200b3
:103e0c00112b2000810f500033003200340037009a
:103e1c0033fa07003200370043fa0700300037004e
:103e2c007dfa07002e0037008040eb000040eb00cd
:103e3c0096fa07002a0037008040eb000040eb00a8
:103e4c00cbfa0700260037000040eb0086fb07008a
:103e5c00230037000040eb0099fb070020003700df
:103e6c000040eb00aefb07001d0037008040eb006c
:103e7c000040eb00f6fa0700190037008040eb0019
:103e8c000040eb002afb0700150037000040eb0058
:103e9c005ffb0700120037000040eb0067fb0700d8
:103eac000f0037000040eb00ccfb07000c00370084
:103ebc0000fc07000a0037000cfc07000800370064
:103ecc0015fc0700060037001efc07000400370035
:103edc0027fc07000200370031fc0700000000003f
:103eec000080fa00000006000600fa000040eb001b
:103efc00004f7800408f200010079800408f200062
:103f0c00200798001e009000961707001e019000d5
:103f1c0010219800212198001e009000ca1707005c
:103f2c001e0190003021980041219800e10f2000e3
:103f3c002e009000463807000210200000002500db
:103f4c00110020009b370700031020002e01900069
:103f5c000000250011002000ab37070003102000e3
:103f6c002e019000000025001100200051370700a1
:103f7c00011020002e0090001d380700004f780023
:103f8c001e4078000080fa00000006000000fa00d5
:103f9c00abc8bf000004e00011003a00704580007f
:103fac008145800090458800a1458800904580009f
:103fbc00a14580000080e800c300dd00408f200098
:103fcc0000804000100078008000eb0070458800f5
:103fdc0081458800ac68ef0010c0b300abe8b700b7
:103fec000080fa00000006000a00fa00004f98005a
:103ffc00408f2000000f7800abc8bf000080fb0092
:10400c00e10f50000c003200e20f5000150032009e
:10401c000000e0001e003a00e08a20001007980023
:10402c001e009000104078008080fb001e0078007d
:10403c002100980016003700b0458000c145800073
:10404c001210070020079800310798001e00780016
:10405c002e019000be019000521898006318980031
:10406c000b003700b0458000c145800007100700e9
:10407c0020079800310798002e009000be00900099
:10408c001e017800701998000121980000000000b2
:10409c0095ff07000e4890000004e000020032007b
:1040ac00cbfb070017003700abc8bf000040e8008f
:1040bc00abe8b700abc8bf00e24f500001003600c0
:1040cc00ab68ef00abc8bf000080fb00e10f5000f5
:1040dc0006003200e20f5000060032000000e00043
:1040ec0007003a0090f9070006003700b4f9070002
:1040fc00040037009cf907000000000001003700a5
:10410c00000000000080fa00000006001000fa0019
:10411c00604f98000040eb00004f7800bdc8bf0016
:10412c000004e0001d003a00bcc8bf008080fb000a
:10413c00400320000088b90000007800e400400033
:10414c0040af20000080400090407800114798005c
:10415c00e08a200090407800214798009e40900013
:10416c002e40900080cf50005b00320010c0b30096
:10417c00004f7800bcc8bf008080fb0040032000cb
:10418c000088b9008000780080af200000804000db
:10419c00ae409000014878004f003700b0458000d9
:1041ac00c1458000b90f070020079800310798001f
:1041bc00bcc8bf008080fb00bdc8bf000080fb00f6
:1041cc000000e9004301dd00400320000088b90035
:1041dc000000780000004100e800400040af2000e3
:1041ec00008040001000be00400798005107980066
:1041fc004e019000de0190002e009000be00900059
:10420c00800f5100818f590003003a00a6c8bf00ef
:10421c000004e00030003200bcc8bf008081fb000d
:10422c00bdc8bf000080fb000001e9002e0090001b
:10423c00be0090004312dd00420320000299b90039
:10424c000201780082014200c2af200002814100cd
:10425c000089be00bcc8bf008080fb00bdc8bf0089
:10426c000080fb000000e900028120002201900088
:10427c000000e800c301dd00400320000088b90005
:10428c00000078008080410080af2000008040005a
:10429c0002087800bcc8bf008080fb00bdc8bf000e
:1042ac000080fb000000e900028120003201900038
:1042bc00c301dd00400320000088b9000000780035
:1042cc008080410020b0200000804000020878006f
:1042dc0010c0b300004f78001e4078000004e000ce
:1042ec001b003200200a2000600798006e0090002e
:1042fc000080e9008000780040af200054370700b0
:10430c00ee01900042af20008040eb0080ed2000d9
:10431c003a350700ee019000429f20008040eb00f0
:10432c0080ed2000e33407006e0090000040780020
:10433c0000417800419f200040af20001129070068
:10434c000000e00001003a0000000000a668ef0049
:10435c006e4890000004e000020032001cfb0700d5
:10436c001b003700bdc8bf000040e800bde8b70027
:10437c00bcc8bf008080fb00400320000088b9004f
:10438c0000007800e400400040af200000804000b6
:10439c0090407800bdc8bf0080cf500008003100ad
:1043ac00bd68ef00bcc8bf000040e800bce8b70027
:1043bc00bcc8bf00e24f500001003600bc68ef00e3
:1043cc00d18b200091407800bcc8bf002ff90700aa
:1043dc000080fa00000006001000fa00604f980000
:1043ec000040eb00004f7800bdc8bf000004e000a7
:1043fc001d003a00bcc8bf008080fb0040032000b9
:10440c000088b90000007800e400400060b920008a
:10441c00008040009040780011479800e08a20000e
:10442c0090407800214798009e4090002e409000cc
:10443c0080cf50005800320010c0b300004f7800fd
:10444c00bcc8bf008080fb00400320000088b9007e
:10445c0080007800a0b9200000804000ae409000a1
:10446c00014878004c003700b0458000c145800001
:10447c00060f07002007980031079800bcc8bf0042
:10448c008080fb00bdc8bf000080fb000000e9007d
:10449c004301dd00400320000088b90000007800d3
:1044ac0000004100e800400060b92000008040009e
:1044bc001000be0040079800510798004e01900074
:1044cc00de0190002e009000be009000800f510085
:1044dc00818f590030003200bcc8bf008081fb00c6
:1044ec00bdc8bf000080fb000001e9002e00900059
:1044fc00be0090004312dd00420320000299b90077
:10450c000201780082014200e2b9200002814100e0
:10451c000089be00bcc8bf008080fb00bdc8bf00c6
:10452c000080fb000000e900828120002201900045
:10453c000000e800c301dd00400320000088b90042
:10454c000000780080804100a0b92000008040006d
:10455c0002087800bcc8bf008080fb00bdc8bf004b
:10456c000080fb000000e9008281200032019000f5
:10457c00c301dd00400320000088b9000000780072
:10458c008080410040ba2000008040000208780082
:10459c0010c0b300004f78001e4078000004e0000b
:1045ac0011003200200a2000600798006e00900075
:1045bc000080e9008000780060b92000a436070074
:1045cc00ee01900062b920008040eb0060ee20000c
:1045dc008a340700ee019000429f20008040eb00df
:1045ec0060ee2000333407006e4890000004e000b9
:1045fc000200320076fa07001b003700bdc8bf006e
:10460c000040e800bde8b700bcc8bf008080fb00dc
:10461c00400320000088b90000007800e40040004e
:10462c0060b920000080400090407800bdc8bf00f9
:10463c0080cf500008003100bd68ef00bcc8bf003f
:10464c000040e800bce8b700bcc8bf00e24f500017
:10465c0001003600bc68ef00d18b2000914078003f
:10466c00bcc8bf00c2f807000080fa0000000600ba
:10467c001000fa00604f98000040eb00004f7800eb
:10468c00bdc8bf000004e0001d003a00bcc8bf005c
:10469c008080fb00400320000088b90000007800f7
:1046ac00e400400080c3200000804000904078006f
:1046bc0011479800e08a200090407800214798002c
:1046cc009e4090002e40900080cf50005800320049
:1046dc0010c0b300004f7800bcc8bf008080fb0046
:1046ec00400320000088b90080007800c0c320007f
:1046fc0000804000ae409000014878004c0037002c
:10470c00b0458000c1458000600e0700200798006e
:10471c0031079800bcc8bf008080fb00bdc8bf003b
:10472c000080fb000000e9004301dd004003200095
:10473c000088b9000000780000004100e80040004b
:10474c0080c32000008040001000be00400798008d
:10475c00510798004e019000de0190002e00900051
:10476c00be009000800f5100818f59003000320044
:10477c00bcc8bf008081fb00bdc8bf000080fb002f
:10478c000001e9002e009000be0090004312dd00f5
:10479c00420320000299b900020178008201420014
:1047ac0002c42000028141000089be00bcc8bf00c9
:1047bc008080fb00bdc8bf000080fb000000e9004a
:1047cc0002822000220190000000e800c301dd00fd
:1047dc00400320000088b900000078008080410070
:1047ec00c0c320000080400002087800bcc8bf0095
:1047fc008080fb00bdc8bf000080fb000000e9000a
:10480c000282200032019000c301dd004003200031
:10481c000088b900000078008080410060c420004e
:10482c00008040000208780010c0b300004f7800f0
:10483c001e4078000004e00011003200200a200025
:10484c00600798006e0090000080e90080007800fe
:10485c0080c32000fe350700ee01900082c32000cb
:10486c008040eb0040ef2000e4330700ee019000a5
:10487c00429f20008040eb0040ef20008d3307006a
:10488c006e4890000004e00002003200d0f90700ee
:10489c001b003700bdc8bf000040e800bde8b700f2
:1048ac00bcc8bf008080fb00400320000088b9001a
:1048bc0000007800e400400080c32000008040002d
:1048cc0090407800bdc8bf0080cf50000800310078
:1048dc00bd68ef00bcc8bf000040e800bce8b700f2
:1048ec00bcc8bf00e24f500001003600bc68ef00ae
:1048fc00d18b200091407800bcc8bf0054f8070051
:10490c000080fa00000006001000fa00604f9800ca
:10491c000040eb00004f7800bdc8bf000004e00071
:10492c001d003a00bcc8bf008080fb004003200083
:10493c000088b90000007800e4004000a0cd200001
:10494c00008040009040780011479800e08a2000d9
:10495c0090407800214798009e4090002e40900097
:10496c0080cf50005800320010c0b300004f7800c8
:10497c00bcc8bf008080fb00400320000088b90049
:10498c0080007800e0cd200000804000ae40900018
:10499c00014878004c003700b0458000c1458000cc
:1049ac00ba0d07002007980031079800bcc8bf005b
:1049bc008080fb00bdc8bf000080fb000000e90048
:1049cc004301dd00400320000088b900000078009e
:1049dc0000004100e8004000a0cd20000080400015
:1049ec001000be0040079800510798004e0190003f
:1049fc00de0190002e009000be009000800f510050
:104a0c00818f590030003200bcc8bf008081fb0090
:104a1c00bdc8bf000080fb000001e9002e00900023
:104a2c00be0090004312dd00420320000299b90041
:104a3c00020178008201420022ce20000281410056
:104a4c000089be00bcc8bf008080fb00bdc8bf0091
:104a5c000080fb000000e90082822000220190000f
:104a6c000000e800c301dd00400320000088b9000d
:104a7c000000780080804100e0cd200000804000e4
:104a8c0002087800bcc8bf008080fb00bdc8bf0016
:104a9c000080fb000000e9008282200032019000bf
:104aac00c301dd00400320000088b900000078003d
:104abc008080410080ce20000080400002087800f9
:104acc0010c0b300004f78001e4078000004e000d6
:104adc0011003200200a2000600798006e00900040
:104aec000080e90080007800a0cd20005835070038
:104afc00ee019000a2cd20008040eb0020f02000c1
:104b0c003e330700ee019000429f20008040eb00f6
:104b1c0020f02000e73207006e4890000004e0000f
:104b2c00020032002af907001b003700bdc8bf0085
:104b3c000040e800bde8b700bcc8bf008080fb00a7
:104b4c00400320000088b90000007800e400400019
:104b5c00a0cd20000080400090407800bdc8bf0070
:104b6c0080cf500008003100bd68ef00bcc8bf000a
:104b7c000040e800bce8b700bcc8bf00e24f5000e2
:104b8c0001003600bc68ef00d18b2000914078000a
:104b9c00bcc8bf00e6f707000080fa000000060062
:104bac000600fa0040479800a6c8bf000004e000c9
:104bbc001200320052448000634480007044800034
:104bcc0081448000000151008181590070448000b3
:104bdc0081448000001f510001975900abc8bf00f1
:104bec000080fb00c300dd00e09b20000080400043
:104bfc003e1878002e107800bbfc07004e40900049
:104c0c000004e00002003200f1f807000900370050
:104c1c00abc8bf000040e800abe8b700abc8bf00b2
:104c2c00e14f500001003600ab68ef00abc8bf008d
:104c3c00f7f707000080fa00000006000600fa00f3
:104c4c0040479800a6c8bf000004e00012003200e4
:104c5c0092448000a3448000b0448000c144800092
:104c6c000001510081815900b0448000c144800092
:104c7c00001f510001975900abc8bf000080fb001a
:104c8c00c300dd00e09c2000008040003e1878004e
:104c9c002e10780094fc07004e4090000004e000b9
:104cac0002003200caf8070009003700abc8bf0089
:104cbc000040e800abe8b700abc8bf00e14f5000c4
:104ccc0001003600ab68ef00abc8bf00dbf7070094
:104cdc000080fa00000006000600fa004047980029
:104cec00408f2000000f7800e08a20001007980009
:104cfc00abc8bf000080fb009e00900091007800c4
:104d0c001e0178003005b00000004000000041009a
:104d1c000108780074fc07004e4090000004e0008d
:104d2c0002003200aaf8070009003700abc8bf0028
:104d3c000040e800abe8b700abc8bf00e34f500041
:104d4c0001003600ab68ef00abc8bf00c6f7070028
:104d5c000080fa00000006000600fa0040479800a8
:104d6c00408f2000000f7800e08a20001007980088
:104d7c00abc8bf000080fb009e0090009140780003
:104d8c000181fb009e0178006e00b90000007800e4
:104d9c00008041006007b0000208780052fc070058
:104dac004e4090000004e0000200320088f807003a
:104dbc0009003700abc8bf000040e800abe8b70003
:104dcc00abc8bf00e34f500001003600ab68ef00ea
:104ddc00abc8bf00baf707000080fa00000006005d
:104dec000a00fa00004f9800408f2000000f780056
:104dfc00b0458000c1458000a40c07001007980046
:104e0c0021079800abc8bf000080fb000000d10058
:104e1c0060479800abc8bf000080fb0061006000d9
:104e2c00004078000004e0000b0032006e4090005f
:104e3c000080fb001e0178006e00b90000007800b5
:104e4c00000041002007b0001e019000ae01900050
:104e5c000288be000a0037006e4090000080fb0004
:104e6c001e0178006e00b9000000780000004100bf
:104e7c00e006b0001e019000ae0190000288be005a
:104e8c0019fc07000e4890000004e00002003200fc
:104e9c004ff8070009003700abc8bf000040e8001e
:104eac00abe8b700abc8bf00e74f500001003600bd
:104ebc00ab68ef00abc8bf0099f707000080fa00a1
:104ecc00000006000800fa0060479800408f2000a0
:104edc00000f7800b0458000c14580006b0c0700c6
:104eec001007980021079800abc8bf000080fb009a
:104efc00e10f500010003200e10f500003003c00a5
:104f0c000000e000060032001d003700e20f5000e8
:104f1c000f003200e30f500013003200180037006e
:104f2c001e0078001e019000ae01900032b0980077
:104f3c0043b09800120037001e0078001e0190004c
:104f4c00ae01900052b0980063b098000c0037008e
:104f5c001e0078001e019000ae01900072b0980007
:104f6c0003b89800060037001e0078001e01900060
:104f7c00ae01900012b8980023b898000000000011
:104f8c00d9fb07006e4090000004e00002003200e4
:104f9c000ff8070009003700abc8bf000040e8005d
:104fac00abe8b700abc8bf00e34f500001003600c0
:104fbc00ab68ef00abc8bf0088f707000080fa00b1
:104fcc00000006000000fa00abc8bf000004e000bf
:104fdc0007003a0070458000814580000000780091
:104fec00e0478800c0fb0700f9f707001000370006
:104ffc0090458000a145800072458000834580006b
:10500c00020178000080e800c300dd00408f200022
:10501c00008040000208780090458000a145800087
:10502c0000007800e0478800affb0700e8f70700b6
:10503c000080fa00000006000600fa00408f2000f5
:10504c00000f7800b0458000c14580000f0c0700b0
:10505c0010079800210798001e0078001e01900090
:10506c00ae01900052209800632098009efb070030
:10507c00d7f707000080fa00000006000200fa00d3
:10508c00408f2000000f7800704580008145800023
:10509c00800078001e00780031b8980092fb070061
:1050ac00cbf707000080fa00000006000200fa00af
:1050bc00e08a2000000f78001e0078001040780075
:1050cc000080fb0080438800c1f707000080fa00d5
:1050dc00000006000200fa00e08a2000000f7800b1
:1050ec001e00780090407800c09e20000148780097
:1050fc007dfb0700b6f707000080fa0000000600f1
:10510c000200fa00e08a2000000f78001e007800f0
:10511c0090407800d09e20000148780072fb070078
:10512c00abf707000080fa00000006000000fa0050
:10513c00e08a200010007800704f88006afb07009e
:10514c00a3f707000080fa00000006000000fa0038
:10515c00e08a200010007800804f880062fb070076
:10516c009bf707000080fa00000006000000fa0020
:10517c00aac8bf000080fb00010a2000810f50006c
:10518c0074003200010a2000810f500028003c00fe
:10519c0001042000810f5000570032000104200050
:1051ac00810f50000e003c00f00f50004b003200fd
:1051bc00f00f500003003c000000e00047003200fc
:1051cc007900370001022000810f500045003200a9
