:020000040000fa
:080000000002040000000000f2
:020000040000fa
:04000800e00500000f
:020000040000fa
:04000c00e803000005
:020000040000fa
:04001000fa030000ef
:020000040000fa
:04001400f0030000f5
:020000040000fa
:0400180002040000de
:020000040000fa
:04001c00e0050000fb
:020000040000fa
:04002000e0050000f7
:020000040000fa
:04002400e0050000f3
:020000040000fa
:04002800e0050000ef
:020000040000fa
:04002c00e0050000eb
:020000040000fa
:04003000e0050000e7
:020000040000fa
:04003400ba0300000b
:020000040000fa
:04003800e0050000df
:020000040000fa
:04003c00e0050000db
:020000040000fa
:04004000e0050000d7
:020000040000fa
:040044008c03000029
:020000040000fa
:04004800e0050000cf
:020000040000fa
:04004c00e0050000cb
:020000040000fa
:04005000e0050000c7
:020000040000fa
:040054001205000091
:020000040000fa
:04005800bc040000e4
:020000040000fa
:04005c006e0500002d
:020000040000fa
:04006000e0050000b7
:020000040000fa
:04006400e0050000b3
:020000040000fa
:04006800e0050000af
:020000040000fa
:04006c00e0050000ab
:020000040000fa
:04007000e0050000a7
:020000040000fa
:040074008a050000f9
:020000040000fa
:04007800e00500009f
:020000040000fa
:04007c00e00500009b
:020000040000fa
:04008000e005000097
:020000040000fa
:04008400e005000093
:020000040000fa
:04008800e00500008f
:020000040000fa
:04008c00e00500008b
:020000040000fa
:04009000e005000087
:020000040000fa
:04009400e005000083
:020000040000fa
:04009800e00500007f
:020000040000fa
:04009c00e00500007b
:020000040000fa
:0400a00060040000f8
:020000040000fa
:0400a4000a0400004a
:020000040000fa
:0400a800e00500006f
:020000040000fa
:0400ac00e00500006b
:020000040000fa
:0400b000e005000067
:020000040000fa
:0400b400e005000063
:020000040000fa
:0400b800e00500005f
:020000040000fa
:0400bc00e00500005b
:020000040000fa
:0400c000e005000057
:020000040000fa
:0400c400e005000053
:020000040000fa
:0400c800e00500004f
:020000040000fa
:0400cc00e00500004b
:020000040000fa
:0400d000e005000047
:020000040000fa
:0400d400e005000043
:020000040000fa
:0400d800e00500003f
:020000040000fa
:0400dc00e00500003b
:020000040000fa
:0400e000e005000037
:020000040000fa
:0400e400e005000033
:020000040000fa
:0400e800e00500002f
:020000040000fa
:0400ec00e00500002b
:020000040000fa
:0400f000e005000027
:020000040000fa
:0400f400e005000023
:020000040000fa
:0400f800e00500001f
:020000040000fa
:0400fc00e00500001b
:020000040000fa
:04010000e005000016
:020000040000fa
:04010400e005000012
:020000040000fa
:04010800e00500000e
:020000040000fa
:04010c00e00500000a
:020000040000fa
:04011000e005000006
:020000040000fa
:04011400e005000002
:020000040000fa
:04011800e0050000fe
:020000040000fa
:04011c00e0050000fa
:020000040000fa
:04012000c205000014
:020000040000fa
:04012400e0050000f2
:020000040000fa
:04012800e0050000ee
:020000040000fa
:04012c005805000072
:020000040000fa
:04013000a604000021
:020000040000fa
:04013400e0050000e2
:020000040000fa
:04013800e0050000de
:020000040000fa
:04013c00e0050000da
:020000040000fa
:04014000e0050000d6
:020000040000fa
:04014400e0050000d2
:020000040000fa
:04014800e0050000ce
:020000040000fa
:04014c00e0050000ca
:020000040000fa
:04015000e0050000c6
:020000040000fa
:04015400e0050000c2
:020000040000fa
:04015800e0050000be
:020000040000fa
:04015c00e0050000ba
:020000040000fa
:04016000e0050000b6
:020000040000fa
:04016400e0050000b2
:020000040000fa
:04016800e0050000ae
:020000040000fa
:04016c00e0050000aa
:020000040000fa
:04017000e0050000a6
:020000040000fa
:04017400e0050000a2
:020000040000fa
:04017800e00500009e
:020000040000fa
:04017c00e00500009a
:020000040000fa
:04018000e005000096
:020000040000fa
:04018400e005000092
:020000040000fa
:04018800e00500008e
:020000040000fa
:04018c00e00500008a
:020000040000fa
:04019000e005000086
:020000040000fa
:04019400e005000082
:020000040000fa
:04019800e00500007e
:020000040000fa
:04019c00e00500007a
:020000040000fa
:0401a000e005000076
:020000040000fa
:0401a400e005000072
:020000040000fa
:0401a800e00500006e
:020000040000fa
:0401ac00e00500006a
:020000040000fa
:0401b000e005000066
:020000040000fa
:0401b400e005000062
:020000040000fa
:0401b800e00500005e
:020000040000fa
:0401bc00e00500005a
:020000040000fa
:0401c000e005000056
:020000040000fa
:0401c400e005000052
:020000040000fa
:0401c800e00500004e
:020000040000fa
:0401cc00e00500004a
:020000040000fa
:0401d000e005000046
:020000040000fa
:0401d400e005000042
:020000040000fa
:0401d800e00500003e
:020000040000fa
:0401dc00e00500003a
:020000040000fa
:0401e000e005000036
:020000040000fa
:0401e400e005000032
:020000040000fa
:0401e800e00500002e
:020000040000fa
:0401ec00e00500002a
:020000040000fa
:0401f000e005000026
:020000040000fa
:0401f400e005000022
:020000040000fa
:0401f800e00500001e
:020000040000fa
:0401fc00e00500001a
:020000040000fa
:04020800e00500000d
:020000040000fa
:04020c00e005000009
:020000040000fa
:04021000e005000005
:020000040000fa
:04021400e005000001
:020000040000fa
:04021800e0050000fd
:020000040000fa
:04021c00e0050000f9
:020000040000fa
:04022000e0050000f5
:020000040000fa
:04022400e0050000f1
:020000040000fa
:04022800e0050000ed
:020000040000fa
:04022c00e0050000e9
:020000040000fa
:04023000e0050000e5
:020000040000fa
:04023400e0050000e1
:020000040000fa
:04023800e0050000dd
:020000040000fa
:04023c00e0050000d9
:020000040000fa
:04024000e0050000d5
:020000040000fa
:04024400e0050000d1
:020000040000fa
:04024800e0050000cd
:020000040000fa
:04024c00e0050000c9
:020000040000fa
:04025000e0050000c5
:020000040000fa
:04025400e0050000c1
:020000040000fa
:04025800e0050000bd
:020000040000fa
:04025c00e0050000b9
:020000040000fa
:04026000e0050000b5
:020000040000fa
:04026400e0050000b1
:020000040000fa
:04026800e0050000ad
:020000040000fa
:04026c00e0050000a9
:020000040000fa
:04027000e0050000a5
:020000040000fa
:04027400e0050000a1
:020000040000fa
:04027800e00500009d
:020000040000fa
:04027c00e005000099
:020000040000fa
:04028000e005000095
:020000040000fa
:04028400e005000091
:020000040000fa
:04028800e00500008d
:020000040000fa
:04028c00e005000089
:020000040000fa
:04029000e005000085
:020000040000fa
:04029400e005000081
:020000040000fa
:04029800e00500007d
:020000040000fa
:04029c00e005000079
:020000040000fa
:0402a000e005000075
:020000040000fa
:0402a400e005000071
:020000040000fa
:0402a800e00500006d
:020000040000fa
:0402ac00e005000069
:020000040000fa
:0402b000e005000065
:020000040000fa
:0402b400e005000061
:020000040000fa
:0402b800e00500005d
:020000040000fa
:0402bc00e005000059
:020000040000fa
:0402c000e005000055
:020000040000fa
:0402c400e005000051
:020000040000fa
:0402c800e00500004d
:020000040000fa
:0402cc00e005000049
:020000040000fa
:0402d000e005000045
:020000040000fa
:0402d400e005000041
:020000040000fa
:0402d800e00500003d
:020000040000fa
:0402dc00e005000039
:020000040000fa
:0402e000e005000035
:020000040000fa
:0402e400e005000031
:020000040000fa
:0402e800e00500002d
:020000040000fa
:0402ec00e005000029
:020000040000fa
:0402f000e005000025
:020000040000fa
:0402f400e005000021
:020000040000fa
:0402f800e00500001d
:020000040000fa
:0402fc00e005000019
:020000040000fa
:04030000e005000014
:020000040000fa
:04030400e005000010
:020000040000fa
:04030800e00500000c
:020000040000fa
:04030c00e005000008
:020000040000fa
:04031000e005000004
:020000040000fa
:04031400e005000000
:020000040000fa
:04031800e0050000fc
:020000040000fa
:04031c00e0050000f8
:020000040000fa
:04032000e0050000f4
:020000040000fa
:04032400e0050000f0
:020000040000fa
:04032800e0050000ec
:020000040000fa
:04032c00e0050000e8
:020000040000fa
:04033000e0050000e4
:020000040000fa
:04033400e0050000e0
:020000040000fa
:04033800e0050000dc
:020000040000fa
:04033c00e0050000d8
:020000040000fa
:04034000e0050000d4
:020000040000fa
:04034400e0050000d0
:020000040000fa
:04034800e0050000cc
:020000040000fa
:04034c00e0050000c8
:020000040000fa
:04035000e0050000c4
:020000040000fa
:04035400e0050000c0
:020000040000fa
:04035800e0050000bc
:020000040000fa
:04035c00e0050000b8
:020000040000fa
:04036000e0050000b4
:020000040000fa
:04036400e0050000b0
:020000040000fa
:04036800e0050000ac
:020000040000fa
:04036c00e0050000a8
:020000040000fa
:04037000e0050000a4
:020000040000fa
:04037400e0050000a0
:020000040000fa
:04037800e00500009c
:020000040000fa
:04037c00e005000098
:020000040000fa
:04038000e005000094
:020000040000fa
:04038400e005000090
:020000040000fa
:04038800e00500008c
:020000040000fa
:04038c00e005000088
:020000040000fa
:04039000e005000084
:020000040000fa
:04039400e005000080
:020000040000fa
:04039800e00500007c
:020000040000fa
:04039c00e005000078
:020000040000fa
:0403a000e005000074
:020000040000fa
:0403a400e005000070
:020000040000fa
:0403a800e00500006c
:020000040000fa
:0403ac00e005000068
:020000040000fa
:0403b000e005000064
:020000040000fa
:0403b400e005000060
:020000040000fa
:0403b800e00500005c
:020000040000fa
:0403bc00e005000058
:020000040000fa
:0403c000e005000054
:020000040000fa
:0403c400e005000050
:020000040000fa
:0403c800e00500004c
:020000040000fa
:0403cc00e005000048
:020000040000fa
:0403d000e005000044
:020000040000fa
:0403d400e005000040
:020000040000fa
:0403d800e00500003c
:020000040000fa
:0403dc00e005000038
:020000040000fa
:0403e000e005000034
:020000040000fa
:0403e400e005000030
:020000040000fa
:0403e800e00500002c
:020000040000fa
:0403ec00e005000028
:020000040000fa
:0403f000e005000024
:020000040000fa
:0403f400e005000020
:020000040000fa
:0403f800e00500001c
:020000040000fa
:0403fc00e005000018
:020000040000fa
:100400008ffc20000e7f22000e01880000000000fb
:10041000000020000000e000020032000001200087
:100420002002880014000700e70107000000e00038
:1004300003003a00c09b29000100200002003700a1
:100440000000200001002000810f70000100320038
:1004500014000700000020000000e000020032004d
:1004600000000200000000004294020000000000b2
:100470000040da000000fe004440a9000083200094
:100480000000e000030032000020200090018800fe
:100490004440a800000006008a1f78008b1f7800e7
:1004a00000000600a1028800800478000000eb0034
:1004b0001f003700e284440054a0b4009905ba003c
:1004c000e284440054a0b4009906ba00e2844400d7
:1004d00054a0b4000006eb00476fde00fd07b20039
:1004e000ae018800636ce10003003a00eaff0700f8
:1004f0000000eb000e003700606ce10008003a00dd
:10050000004deb000a05e800020039003420ec0041
:100510000af0a0008b05e900f9ff3e000400370057
:100520006168e100010032000086eb000b0007006b
:1005300019c7ba001905ba000e04e00003003a001a
:100540000a00e000dbff3a0000000600fe07b200f0
:10055000ae0288008a047800f5ff37000cd0a300b3
:10056000e20f4d001c00390089027800354dba00b9
:100570000a05e800020039003420ec000af0a0006f
:100580008b05e9000f003200254dba000a05e8008e
:10059000020039003420ec000af0a0008b05e900cd
:1005a000080032000c00e0000600320015cdba0051
:1005b0000a05e800020039003420ec000af0a0002f
:1005c0008b05e9008984e80054a0b4000b00e0002a
:1005d000e2ff3a00000006009902ba00055d7800cb
:1005e0008b05e900f7ff3200c82ade00055d7800c0
:1005f0008b05e900f3ff32000c00e000f1ff320050
:1006000019ddba00eeff3700a87f040000000000eb
:10061000b47f0400000000003680040000000000e9
:1006200042800400000000000e8004000000000072
:10063000e480040000000000f080040000000000de
:100640001a81040000000000268104000000000060
:10065000a880040000000000568204000000000092
:1006600068820400000000009e8204000000000078
:10067000a681040000000000b28104000000000018
:10068000ee81040000000000fa8104000000000078
:1006900080810400000000007a8204000000000055
:1006a0008c820400000000009a8c0400000000000e
:1006b000cc830400000000000e8404000000000051
:1006c0007c85040000000000e084040000000000bd
:1006d000be86040000000000d48604000000000074
:1006e000528704000000000084870400000000001e
:1006f0004488040000000000168704000000000089
:100700006c87040000000000e68704000000000081
:10071000c2880400000000003600f800809fbe0080
:10072000829fbe00849fbe00869fbe000000fa002c
:10073000374c070050fc2000104078008040e80053
:1007400050fc20000148780040fc200011c0b3009c
:100750000148780084e0a9000080fa004f03be0041
:100760004f02be004f01be004f00be003600f90030
:10077000004006003600f800809fbe00829fbe0049
:10078000849fbe00869fbe000000fa00eb4b07006e
:1007900070fc2000104078008040e80070fc2000d1
:1007a0000148780060fc200011c0b30001487800c7
:1007b0008460a9000080fa004f03be004f02be0013
:1007c0004f01be004f00be003600f9000040060099
:1007d0003600f8008020a9000000eb00294d07003a
:1007e0003600f8002b4d07008040a90010002000c3
:1007f000244d07003600f8008060a900200020008a
:10080000204d07003600f8008080a900300020004d
:100810001c4d0700809fbe000000fa00c17c8000d4
:1008200000202000008060000000e0000200320094
:1008300097e0a9001f00370087e0a90018003700e3
:10084000b07c8000104078000080fb00a011880080
:10085000b07c80000000e800b07c8800b17c8000a3
:1008600020fa2000808f500002003a00a0f92000fa
:10087000b07c8800c07c80000080a100c07c880023
:10088000b17c8000a07c8000808f500004003a0082
:10089000c07c80000090a000c07c8800050037006c
:1008a0009111800000202000008060000000e00026
:1008b000e3ff32000080fa004f00be000040060057
:1008c000809fbe000000fa0018003700807c800086
:1008d000b11180008140780001487800807c800060
:1008e0000000e800807c8800817c8000a0fa200065
:1008f000808f500002003a0020fa2000807c88009f
:10090000c07c80000010a100c07c8800817c800039
:10091000907c8000808f500004003a00c07c8000f2
:100920000000a000c07c8800040037009011800007
:10093000610060000000e000e4ff3a0087c0a90009
:100940000080fa004f00be0000400600801f7800c3
:100950000000fa0090118000620060000000e000da
:10096000010032003222a9008c40a9000080fa0068
:100970004f00780000400600809fbe000000fa0093
:10098000917d800000202000008060000000e000d9
:10099000020032009580a9001f0037008580a90061
:1009a00018003700807d8000104078000080fb0038
:1009b00020118800807d80000000e800807d880094
:1009c000817d8000c0fb2000808f500002003a0033
:1009d00040fb2000807d8800907d80000080a10089
:1009e000907d8800817d8000707d8000808f500028
:1009f00004003a00907d80000090a000907d880067
:100a000005003700111180000020200000806000e8
:100a10000000e000e3ff32000080fa004f00be005b
:100a200000400600809fbe000000fa00180037005a
:100a3000507d8000311180008140780001487800ad
:100a4000507d80000000e800507d8800517d8000ce
:100a500040fc2000808f500002003a00c0fb2000c4
:100a6000507d8800907d80000010a100907d88005e
:100a7000517d8000607d8000808f500004003a002e
:100a8000907d80000000a000907d88000400370069
:100a900010118000610060000000e000e4ff3a00f7
:100aa0008560a9000080fa004f00be0000400600eb
:100ab000801f78000000fa001011800062006000c2
:100ac0000000e000010032002222a9008c20a900d1
:100ad0000080fa004f007800004006003200f80065
:100ae0003400f800881f780018002000a801880052
:100af00008202000980188004f0478000000fa00c8
:100b000085a0a9000080fa003400f9003200f90045
:100b1000004006003600f800809fbe00829fbe00a5
:100b2000849fbe00869fbe000000fa008660a90078
:100b300000000000ce4b07000be9b7000bc9bf0057
:100b40000004e000050032000ac9bf000004e00014
:100b500002003a000bc9bf000ae9b7003d4c07008c
:100b600000000000000000000080fa004f03be00fb
:100b70004f02be004f01be004f00be003600f9001c
:100b800000400600809fbe000000fa008bc0a90054
:100b9000d04780000000a000d0478800f0468000c9
:100ba0000147800061004000e0804800f046880076
:100bb000014788000080fa004f00be000040060098
:100bc0000040da000000fe000000050003f0a20073
:100bd000889fbe008a9fbe008c1f78002c010700f2
:100be000330133006450e1004f0032006420e10023
:100bf0005200320003826c0007003b000905d00060
:100c00000306d000820f54000c065d00020039007c
:100c100002003200890178000306780085825500c1
:100c200004003d000003fd008103fd008502ea0091
:100c30008b854200840f720002003b0060001000b0
:100c4000e08018006011b8000005eb007a28e10090
:100c50000a00390006007800c75ddd00f707b20022
:100c6000878075002d003700828171000a017800ad
:100c7000610560008180d1000080d3008502e90019
:100c8000f9ff3b00060440008784480002003b0057
:100c900060041400e0841c000988a30007003200ef
:100ca0008a81710082817100610164008904d10030
:100cb0000884d3008b05e800170037000978a300eb
:100cc00013003a000b00e000130034008b05e9002c
:100cd0000804440089844c000a4474000978a30085
:100ce0000d003a000b00e000070034008b05e9001e
:100cf0000804440089844c0001003a000b002000e5
:100d00000978a300f7ff32000001eb000200370072
:100d1000828171000a017800a20007000cf0a70090
:100d200001f0a000eb0037006420e10002003a006f
:100d3000838f6c00eb0033000801be000200be0090
:100d4000e4003700889fbe008a9fbe008c1f780099
:100d5000cf000700d600330003866c006450e1002a
:100d60002e0032006420e100330032006150e100c7
:100d70002f0032006120e1003100320085855500ee
:100d8000eb07b00009002000080420000500370030
:100d90000804440089844c000a0031000603430023
:100da00087834b000001530081815b00f8ff330013
:100db0000203be000800a0000804440089844c001f
:100dc000f6ff3900c639dd008301730001003200ef
:100dd000130020008904d1000884d3000998a300df
:100de000050032000800a7000300a0008904d1001c
:100df0000884d3008b05e8008904d1000884d3005f
:100e00000001eb000281d2006600070001f0a100a2
:100e10000cf0a70001f0a000ae0037006420e10054
:100e2000b00032000801be000200be00f7ff37002c
:100e30006120e100ab0032006000b800f3ff370032
:100e40000000200001f82700f0ff3700839f6800b2
:100e50000100e00002003d0060001000e08018008a
:100e60000300e00002003d0060011100e081190074
:100e7000e20007004f00e00002003b0060001000ad
:100e8000e08018000000060014002000ee0037008b
:100e9000f4ff2f00ec0037000001be0067000700e0
:100ea0000470a70003f0a1006509b100160032002c
:100eb0000d0035006828e10006003500f0ff2f0026
:100ec000f1ff27000300e00013003b0001002800b1
:100ed0000000050000004000818048008502e90014
:100ee000fcff3a0008003700f88f420002003c0087
:100ef0008000eb00000005008100d1000080d300dd
:100f00008502e800fcff3a000300e00002003b001d
:100f100060001000e0801800000006000001be0024
:100f2000460007000470a70003f0a10003f8a30027
:100f300013003a006509b1001000320009003500c5
:100f40006928e100020035000100280000000500ca
:100f500000004000818048008502e900fcff3a0063
:100f600000000600f88f4200050035008100d10026
:100f70000080d3008502e800fcff3a000000060074
:100f80008000eb00000005004f89de008201780040
:100f9000c80037006011b800d600370004002000f8
:100fa000a900370081002000618055000b003d0042
:100fb0000b00200061fe2f000100e1001d00340045
:100fc00082817100610164008904d1000884d3002a
:100fd0000000e800faff3a007100200061006400a0
:100fe0000300700002006000090032006104440048
:100ff000e0844c000988a500050032008b05e8005c
:101000006808e10002003a008904d1000884d30096
:10101000f20f20000258e10005003d00c75ddd0031
:10102000f907b2008980750008007800000006000a
:101030000bf827008b00780000000500c70ade00cf
:10104000f107b200f50fb20008003200e1cf420014
:10105000020032000170a00024000500810f700022
:10106000010032000408050044000500810f7000f3
:1010700002003a00140005008502e900000040006b
:1010800081c04800fcff3b000170a0002400050067
:101090000004be00e9ff07000003be000405be0017
:1010a0000200be00e5ff0700844f75000000060047
:1010b0000200be006450e100050036006420e1003b
:1010c000020036000968a30001003a000800be00d3
:1010d0000160a0004f0678004f05be004f04be001f
:1010e00000000600f0ff2f00f1ff2700f9ff370096
:1010f000811f78000100e00002003d006000100048
:10110000e08018000300e00002003d0060011100d3
:10111000e0811900490007004f00e00002003b0099
:1011200060001000e080180000000600889fbe00ec
:101130008a9fbe008c1f7800d5ff0700dcff3300bc
:1011400003866c006450e100240032006420e1005a
:10115000270032006150e100220032006120e100ee
:10116000210032008b854200eb07b1000134b8004a
:10117000003ab8000804420089844a00013ab800e5
:101180000030b8008880400009014a0004003300a4
:101190000000400081804800020149008b05e90001
:1011a000c909dd0083017000010032001300200036
:1011b000c814de004814dd004709de001200b2004a
:1011c000c808de000884700076ff070001f0a10067
:1011d0000cf0a70001f0a000beff37006120e10085
:1011e000c0ff32000801be000200be00f7ff37005a
:1011f0006150e100fcff3a00baff37006022b800fe
:10120000060220000000d0008180d2000482d200bb
:101210008582d2000000a0000202520083825a00a0
:10122000030031000202420083824a000000a10054
:101230000603e900f3ff3a0000000600efff070095
:101240000400be0000000600889fbe008a9fbe000a
:10125000841f78008eff07004f00780011003300d4
:10126000f0ff2f00838f6c0006003b000405650033
:101270000a00a7000800370009f0a60010002000af
:1012800008003700820f5400838f5c000300390090
:101290001000200001003e000000200009f0a7001f
:1012a0000000ea004f05be004f04be000000e00051
:1012b00000000600881f7800030478000300e000a7
:1012c00007003d0060001000e08018006001190078
:1012d000e081190002003b0001f02d0003003700ff
:1012e0000400070008f0a70001f0a0004f047800f8
:1012f00000000600889fbe008a9fbe00008270002a
:101300000402710004827100260032000004be0055
:101310000200be006011b8006b0920009502200099
:101320000182cf000a0039000541b1000082cf00e0
:10133000070039000541b1000982cf0004003900df
:101340000541b1000882cf00010039000541b1001c
:1013500005425200120032000a003b0082817100f7
:10136000610164008100d1000080d3008984d30032
:101370000884d3008b05e8000442e800f7ff3a0038
:10138000070037000804440089844c00000048002e
:10139000818048008b05e9000442e900f9ff3a002a
:1013a00000ff07004f05be004f04be00000006000e
:020000040000fa
:1013b000000000000000000089d20000de3a0000ba
:1013c000524900009d3b0000728a00000e3c000064
:1013d000ac8b00005b3c0000be300000993c00007c
:1013e00039b40000c83c000048500000fc3c00003c
:1013f0009a990000193d00007dae0000363d0000c6
:10140000f4fd0000543d0000d8f00000743d0000e1
:10141000964300008b3d00009a7700009c3d000041
:10142000e9480000ae3d000080b70000c03d00006c
:10143000f38e0000d33d000042cf0000e63d0000e7
:10144000daac0000fa3d0000a7790000073e00007a
:101450004ed10000113e0000645d00001c3e000003
:10146000b0030000273e0000a1f80000313e00005c
:1014700091ed00003c3e000027310000483e000096
:10148000f38e0000533e0000f70600005f3e0000b0
:1014900068b300006a3e0000107a0000763e00004b
:1014a000772d0000813e0000022b0000873e0000e7
:1014b000c44200008d3e0000865a0000933e0000aa
:1014c000637f0000993e00005bb100009f3e00007a
:1014d0006ff00000a53e00009f3c0000ac3e000005
:1014e000ce880000b23e000019e20000b83e0000c5
:1014f000643b0000bf3e0000cba10000c53e0000e1
:101500004d150000cc3e0000ce880000d23e000009
:1015100050fc0000d83e0000d26f0000df3e00000b
:101520006ff00000e53e00000d710000ec3e000091
:10153000aaf10000f23e0000637f0000f93e0000c7
:1015400000000000003f00004f400000033f00008b
:101550002b870000063f00007ac70000093f00000b
:10156000c80700000d3f000017480000103f0000b2
:10157000d8810000133f000099bb0000163f000017
:101580005af50000193f00001b2f00001d3f00000e
:101590004e620000203f0000f38e0000233f000059
:1015a00099bb0000263f0000b1e10000293f000088
:1015b000c80700002d3f000052270000303f000008
:1015c0004f400000333f0000bd520000363f000096
:1015d0009e5e0000393f00007f6a00003c3f000033
:1015e000446900003f3f00007c610000423f000072
:1015f00026530000453f0000423e0000483f0000e7
:10160000431c00004b3f0000b6f300004d3f0000bc
:101610009cc40000503f0000d8810000533f0000f0
:10162000143f0000563f0000a7e80000583f0000ac
:10163000ac8b00005b3f0000962100005e3f000085
:1016400065aa0000603f000018260000633f00000c
:10165000228e0000653f000010e90000673f000097
:10166000e33600006a3f00000d7100006c3f00008f
:101670008d9700006e3f0000f2b00000703f000048
:1016800021b00000723f000018950000743f000078
:1016900066660000763f00007e1d0000783f000077
:1016a0005eba0000793f00007a3600007b3f000000
:1016b000d19100007c3f0000d6c500007d3f0000b6
:1016c0006dc500007e3f0000979000007f3f000046
:1016d00000000000803f000000000000000000004b
:1016e000524900009d390000524900009d3a000017
:1016f000c36400002a3b0000750200009a3b000012
:10170000d7340000ef3b0000c36400002a3c000017
:1017100042600000653c00002b180000953c000072
:1017200011c70000ba3c000042600000e53c000028
:1017300027a00000093d0000789c0000223d000029
:1017400012a500003d3d00001a5100005a3d000066
:1017500090a00000783d0000287e00008c3d000035
:10176000bf7d00009d3d0000a01a0000af3d0000bd
:10177000a5bd0000c13d0000f4fd0000d43d000007
:10178000f90f0000e93d000048bf0000fd3d0000ea
:1017900027a00000093e00004faf0000143e0000eb
:1017a0001b0d0000203e0000569f00002b3e000055
:1017b0006b9a0000373e000026e40000433e000024
:1017c0004e620000503e00001b2f00005d3e0000f6
:1017d000553000006a3e000034800000773e000073
:1017e00025750000823e000083510000893e000004
:1017f00017480000903e0000c74b0000973e0000d5
:10180000ad6900009e3e0000cba10000a53e000097
:1018100004e70000ac3e000058390000b43e000070
:10182000e3a50000bb3e00006f120000c33e0000b5
:1018300031990000ca3e0000f31f0000d23e0000b4
:10184000ecc00000d93e0000ca540000e13e000098
:10185000de020000e93e0000d7a30000f03e0000d9
:10186000ec510000f83e000000000000003f0000c6
:101870000ad70000033f000014ae0000073f00003d
:10188000917e00000b3f00009b5500000f3f0000c1
:1018900018260000133f000007f00000163f00006c
:1018a00068b300001a3f0000c97600001e3f000028
:1018b0000e2d0000223f000054e30000253f0000f1
:1018c0007e8c0000293f00001b2f00002d3f0000f0
:1018d00029cb0000303f00001d5a0000343f0000bb
:1018e00082e20000373f00003f5700003b3f00000e
:1018f0006dc500003e3f0000f31f0000423f0000a6
:10190000eb730000453f000039b40000483f000081
:101910006de700004b3f0000f70600004f3f00005e
:1019200065190000523f00002b180000553f0000d1
:1019300047030000583f00002cd400005a3f00002d
:10194000f69700005d3f000017480000603f000070
:1019500001de0000623f000042600000653f0000c1
:101960004bc80000673f0000ac1c00006a3f00004d
:10197000485000006c3f00003b7000006e3f0000cc
:10198000696f0000703f0000ee5a0000723f0000d7
:10199000af250000743f000039d60000753f0000fd
:1019a000fe650000773f0000fed40000783f000095
:1019b000c72900007a3f00003f5700007b3f00002e
:1019c0007f6a00007c3f00006d5600007d3f0000f4
:1019d000242800007e3f0000fbcb00007e3f00007b
:1019e0009b5500007f3f00005bb100007f3f00007f
:1019f00057ec00007f3f000000000000803f000027
:101a0000d204000000000000010000005f000000a0
:101a1000050000004c4f00003200000000000000f4
:101a2000740400004c4e0000320000000000000072
:101a30002a0300004c41000052000000000000009a
:101a40007a050000434f0000320000000000000053
:101a5000fc0300004c4e00004700000000000000a6
:101a6000cc01000020200000500000000000000019
:101a7000e8030000b50e000000000000780500003b
:101a80000000000000000000000000000000000056
:101a90000000000000000000000000000000000046
:101aa00000000000000000000000000010270000ff
:101ab00000000000102700000000000000000000ef
:101ac00000000000000000000000000010270000df
:101ad0000000000010270000000000007017000048
:101ae00000000000140000000000000000000000e2
:101af0000000000000000000e803000000000000fb
:101b000014000000000000000100000000000000c0
:101b1000000000002003000000000000050000009d
:101b200000000000020000000000000000000000b3
:101b3000c8000000000000000500000000000000d8
:101b4000030000000000000000000000e8030000a7
:101b50000000000000000000000000000000000085
:101b60000000000010270000102700000000000007
:101b700000000000102700001027000000000000f7
:101b8000000000001027000010270000204e000079
:101b900000000000fd04000000000000c0d40000b0
:101ba00001000000f01d000000000000204e0000b9
:101bb00000000000fd04000000000000c0d4000090
:101bc00001000000f01d0000000000000000000007
:101bd00000000000d007000000000000000000002e
:101be00000000000d007000000000000000000001e
:101bf000000000000000000000000000b60300002c
:101c0000003c0000000000002c010000000000006b
:101c100000c100008140000001c0000080410000c0
:101c200001c000008041000000c1000081400000b0
:101c300001c000008041000000c1000081400000a0
:101c400000c100008140000001c000008041000090
:101c500001c000008041000000c100008140000080
:101c600000c100008140000001c000008041000070
:101c700000c100008140000001c000008041000060
:101c800001c000008041000000c100008140000050
:101c900001c000008041000000c100008140000040
:101ca00000c100008140000001c000008041000030
:101cb00000c100008140000001c000008041000020
:101cc00001c000008041000000c100008140000010
:101cd00000c100008140000001c000008041000000
:101ce00001c000008041000000c1000081400000f0
:101cf00001c000008041000000c1000081400000e0
:101d000000c100008140000001c0000080410000cf
:101d100001c000008041000000c1000081400000bf
:101d200000c100008140000001c0000080410000af
:101d300000c100008140000001c00000804100009f
:101d400001c000008041000000c10000814000008f
:101d500000c100008140000001c00000804100007f
:101d600001c000008041000000c10000814000006f
:101d700001c000008041000000c10000814000005f
:101d800000c100008140000001c00000804100004f
:101d900000c100008140000001c00000804100003f
:101da00001c000008041000000c10000814000002f
:101db00001c000008041000000c10000814000001f
:101dc00000c100008140000001c00000804100000f
:101dd00001c000008041000000c1000081400000ff
:101de00000c100008140000001c0000080410000ef
:101df00000c100008140000001c0000080410000df
:101e000001c000008041000000c1000081400000ce
:101e100000c00000c1010000c303000002c20000b6
:101e2000c606000007c7000005c50000c404000086
:101e3000cc0c00000dcd00000fcf0000ce0e000036
:101e40000aca0000cb0b0000c909000008c8000046
:101e5000d818000019d900001bdb0000da1a0000b6
:101e60001ede0000df1f0000dd1d00001cdc000086
:101e700014d40000d5150000d717000016d60000b6
:101e8000d212000013d3000011d10000d0100000c6
:101e9000f030000031f1000033f30000f2320000b6
:101ea00036f60000f7370000f535000034f4000086
:101eb0003cfc0000fd3d0000ff3f00003efe000036
:101ec000fa3a00003bfb000039f90000f838000046
:101ed00028e80000e9290000eb2b00002aea0000b6
:101ee000ee2e00002fef00002ded0000ec2c000086
:101ef000e424000025e5000027e70000e6260000b6
:101f000022e20000e3230000e121000020e00000c5
:101f1000a060000061a1000063a30000a2620000b5
:101f200066a60000a7670000a565000064a4000085
:101f30006cac0000ad6d0000af6f00006eae000035
:101f4000aa6a00006bab000069a90000a868000045
:101f500078b80000b9790000bb7b00007aba0000b5
:101f6000be7e00007fbf00007dbd0000bc7c000085
:101f7000b474000075b5000077b70000b6760000b5
:101f800072b20000b3730000b171000070b00000c5
:101f900050900000915100009353000052920000b5
:101fa0009656000057970000559500009454000085
:101fb0009c5c00005d9d00005f9f00009e5e000035
:101fc0005a9a00009b5b0000995900005898000045
:101fd00088480000498900004b8b00008a4a0000b5
:101fe0004e8e00008f4f00008d4d00004c8c000085
:101ff00044840000854500008747000046860000b5
:1020000082420000438300004181000080400000c4
:102010003031000032330000343500003637000024
:1020200038390000616200006364000065660000ea
:1020300067680000696a00006b6c00006d6e00004c
:102040006f700000717200007374000075760000fc
:1020500077780000797a00002e2d00003a200000e9
:1020600047480000432a0000003f0000065b0000d4
:102070004f6600006d7d0000077f00006f77000055
:102080007c3900005e790000716f0000740600006a
:102090000e7a000038000000375c00007367000013
:1020a000506d0000783e000000000000006e00004f
:1020b0005b40000040480000003d00007639000011
:1020c000613000003132000033340000353600004a
:1020d0003738000039610000626300006465000069
:1020e00066670000686900006a6b00006c6d0000a4
:1020f0006e6f000070710000727300007475000054
:1021000076770000787900007a41000042430000b1
:102110004445000046470000484900004a4b000083
:102120004c4d00004e4f0000505100005253000033
:102130005455000056570000585900005a2000001e
:10214000000000003f00000006000000db0000006f
:10215000cf000000e6000000ed000000fd000000e0
:1021600007000000ff000000ef000000580400001e
:1021700078040000d80000008e080000fb0000007a
:10218000710000008f010000f40000000600000054
:102190000e00000070060000300000003603000052
:1021a00037000000dc000000710200008701000021
:1021b0003100000069040000c80a00003e00000071
:1021c000300a0000360c0000000f0000000b000079
:1021d00048080000860a0000fd02000039000000e7
:1021e000000000007900000071000000bd00000048
:1021f000f6000000060000000e000000700600005f
:102200003800000036030000360500003f000000e3
:10221000f30000003f0400007106000069040000a4
:10222000000000003e000000300a0000360c0000f4
:10223000000f00008e010000090a000000000000ed
:102240006373000036360000002d000030300000bf
:102250002d000000002000002020000020200000b1
:10226000202000002000000020200000202000008e
:102270000020000070730000640000007777000009
:10228000310000007777000032000000777900000d
:1022900031000000777900003200000020200000ab
:1022a0006673000000200000202000006c00000089
:1022b00020200000206800000020000020200000f6
:1022c00064000000202000004862000000200000a0
:1022d000616c000030000000206800002d750000d7
:1022e00000200000682d0000640000002070000045
:1022f0002d75000000200000702d0000640000001b
:10230000206100006c3100000020000063790000b3
:102310006c000000206300007948000000200000ed
:10232000796c00006c000000207900006c4800000f
:102330000063000079300000340000006379000081
:1023400032300000007900006c30000034000000e2
:10235000796c000032300000002000007363000040
:102360006c0000002073000074610000206e00000b
:102370006f720000002000007374000061200000f4
:102380007473000074000000206500007064000099
:10239000202000006e6f000000200000657000002b
:1023a0006420000079650000730000002020000018
:1023b000626c0000202000002020000000200000af
:1023c000736c000070000000207200006670000056
:1023d00000000000303100003233000034350000ce
:1023e0003637000038390000616200006364000085
:1023f0006566000000000000010000000000000011
:1024000000000000000000000040000090ff0000fd
:020000040000fa
:102410000200fa00004f78001e80fb00e10f500020
:102420000c003200e10f500003003c000000e0000f
:10243000060032000d003700e20f500007003200a6
:10244000e30f5000070032000800370010002000a2
:1024500007003700a00020000500370040062000dc
:1024600003003700803e200001003700803e20003e
:102470000080fa00000006000a00fa003007980009
:10248000410798006000b800008fbe006000b800ef
:10249000b3440700b9440700008fbe0009003700ad
:1024a00073450700404798004e4090000004e0004c
:1024b0000a00320010002000ae450700af440700bc
:1024c000008fbe003e0090008000eb00be0f500069
:1024d000ae8f5800f2ff3e00010037000000000000
:1024e0004e009000ce409000014878001e00780019
:1024f0000080fa00000006000600fa0010079800ad
:1025000041479800524798001e009000104f7800f5
:10251000ce4090005e40900080cf50000300390014
:10252000ce409000014f7800070037001e4fe800b2
:102530005e4090009e40780080cf50000200360040
:10254000ce409000014f7800c1c8bf000004e000f9
:10255000050032001e4078000004e00002003a004e
:1025600010c0b300004f78001e0090001e48780095
:102570000080fa00000006000800fa00200798001a
:10258000614798002e009000900078001107980095
:102590006e409000e34f50000200360030c0b300a0
:1025a000604798006e40900099ff07009e009000e1
:1025b00000017800110009008280d8000001780035
:1025c000d0cc2c000010b8004308de006a00b9002f
:1025d00000007800000f51006e4090008cff070053
:1025e0009e0078000180b900000078009e009000f5
:1025f00000805000100798001e0fe8001e007800b1
:10260000e90f5000020036000000eb00000f7800d8
:102610006e4090007eff07009e0078000180b900a8
:10262000000078009e009000008040001007980095
:102630002e0090009e009000010878000080fa00b3
:10264000000006000800fa00200798006147980083
:102650002e00900010007800100798006e40900047
:10266000e34f500007003e000e80e800ee4090006f
:10267000c1ff07009e0090002e0090000108780026
:10268000250037006e409000e44f500016003a00dd
:102690002e009000a0409000014f78001e4fe800ef
:1026a0001e407800e34f5000020036000040eb006f
:1026b000004f78002e009000304090000004e000b1
:1026c000050032001e407800e24f50000200360044
:1026d0000040eb00004f78002e0090009e407800f4
:1026e000214098000c0037002e009000b040900070
:1026f000014f78001e4fe8001e407800e14f500067
:10270000020036000040eb00004f78002e009000e1
:102710009e407800314098000080fa0000000600da
:102720001000fa00400798005107980062079800cf
:10273000634f980010c0b300004f78000000eb001a
:1027400010079800a1902000914078004147980020
:10275000de0090006e009000808f500061003d0010
:10276000d14307006000b800fd43070005003700b3
:1027700000000000030037000000000001003700e7
:102780000000000040012000304888001e40780012
:102790000004e000220032000040eb00004f78000f
:1027a0006e4890000004e0000e0032004e009000e1
:1027b000100078008000e8004e00900001087800ca
:1027c0004e009000900078006e009000808f5000c6
:1027d000120034004e009000de00900001087800e6
:1027e0000e0037004e009000900078005e009000d0
:1027f000808f500004003c004e009000ee009000de
:1028000001087800050037004e00900010007800a5
:102810008000e9004e009000010878002d1f07009d
:1028200093440700404798000ac9bf00ce4090007b
:1028300080cf50002d003a00d043070030079800a9
:10284000be009000803e2000808f50000b003e00b4
:10285000be0090001e00900080805000700c200090
:10286000808f5000c2ff3600be0090001107980014
:1028700010c0b300004f7800c2ff3700be009000c8
:10288000007d2000808f50000b003e00be009000b5
:102890001e0090008080500030062000808f500085
:1028a000b5ff3600be0090001107980010c0b300bd
:1028b000004f7800b3ff3700be0090001e0090006c
:1028c0008080500010032000808f5000acff360045
:1028d000be0090001107980010c0b300004f7800b0
:1028e000a8ff3700000000000100370000000000d2
:1028f0000080fa00000006000000fa0000c1b300ea
:10290000b2e8b700b368ef00b028ef00b468ef009a
:102910000080fa00000006000200fa0000c2b300c6
:10292000b2e8b700b368ef00a1488000010f78005b
:102930001e007800e50f5000020036005000200015
:10294000000f7800b628ef00b828ef00608b200059
:102950001e087800b468ef000080fa00000006004e
:102960000200fa0000c3b300b2e8b700b368ef009a
:10297000c0902000000f7800b628ef00b828ef00c4
:10298000608b20009e007800a100900081407800bc
:1029900001487800b468ef000080fa0000000600eb
:1029a0000600fa0020c0b300b3e8b700c0902000d2
:1029b000000f78001e0078008020900070189000b2
:1029c00010079800210798001e009000ae009000ac
:1029d000c616070010079800210798001e009000f7
:1029e000ae009000f045880001468800b468ef0012
:1029f0000080fa00000006000600fa0010c0b300d4
:102a0000b3e8b700c0902000000f78001e007800e7
:102a100050199000e01990001207980023079800c1
:102a20001e009000ae009000b0160700100798003e
:102a3000210798001e009000ae009000f04588002d
:102a400001468800b468ef000080fa00000006002c
:102a50000600fa0000c4b300b2e8b700b368ef00a4
:102a6000c0902000000f78001e00780050219000d8
:102a7000e02190001207980023079800608b200047
:102a80009e009000010878000080fa000000060017
:102a90000800fa00604798007147980000c5b3002d
:102aa000b2e8b700b368ef006e419000418c20009f
:102ab00082487800fe409000538c200081497800c5
:102ac00040b12000000f78007e4090000004e0003c
:102ad0000b003a00628b20006e4090008080fb006b
:102ae0009e017800400320000088b90000007800b3
:102af0006400400063407800004978001900370006
:102b0000c4c8bf008080fb00c5c8bf000080fb00b8
:102b10000000e9001e017800c301dd004003200031
:102b20000088b90000007800008041006800400083
:102b3000000041001001be00120798002307980012
:102b40001e009000ae009000681607001007980065
:102b5000210798001e009000ae009000f04588000c
:102b600001468800ae68ef00b468ef000080fa000c
:102b7000000006000800fa006047980071479800be
:102b800000c6b300b2e8b700b368ef006e41900032
:102b9000418c200082487800fe409000538c200039
:102ba0008149780060bc2000000f78007e409000d2
:102bb0000004e0000b003a00628b20006e409000a1
:102bc0008080fb009e017800400320000088b9004f
:102bd00000007800640040006340780000497800fd
:102be00019003700c4c8bf008080fb00c5c8bf0003
:102bf0000080fb000000e9001e017800c301dd0039
:102c0000400320000088b9000000780000804100e7
:102c100068004000000041001001be00120798004b
:102c2000230798001e009000ae0090002f160700aa
:102c300010079800210798001e009000ae00900039
:102c4000f045880001468800ae68ef00b468ef00e8
:102c50000080fa00000006000800fa0060479800b3
:102c60007147980000cab300b2e8b700b368ef003c
:102c70006e419000418c200082487800fe40900018
:102c8000538c20008149780080c72000000f780015
:102c90007e4090000004e0000b003a00628b2000b0
:102ca0006e4090008080fb009e0178004003200071
:102cb0000088b9000000780064004000634078009c
:102cc0000049780019003700c4c8bf008080fb00ad
:102cd000c5c8bf000080fb000000e9001e017800ad
:102ce000c301dd00400320000088b9000000780027
:102cf0000080410068004000000041001001be005b
:102d000012079800230798001e009000ae00900064
:102d1000f615070010079800210798001e00900084
:102d2000ae009000f045880001468800b468ef00ce
:102d3000ae68ef000080fa00000006000800fa000c
:102d4000604798007147980010cab300b2e8b70016
:102d5000b368ef006e419000418c200082487800fb
:102d6000fe409000538c200081497800a0d22000c2
:102d7000000f78007e4090000004e0000b003a0055
:102d8000628b20006e4090008080fb009e017800e6
:102d9000400320000088b900000078006400400073
:102da000634078000049780019003700c4c8bf00ac
:102db0008080fb00c5c8bf000080fb000000e90068
:102dc0001e017800c301dd00400320000088b90027
:102dd00000007800008041006800400000004100d1
:102de0001001be0012079800230798001e009000f3
:102df000ae009000bd15070010079800210798004d
:102e00001e009000ae009000f0458800014688004a
:102e1000ae68ef00b468ef000080fa000000060022
:102e20000200fa00004f780060cab300b2e8b700b1
:102e30001e417800318b200082487800b468ef0092
:102e4000ae68ef000080fa00000006000200fa0001
:102e5000004f780070cab300b2e8b7001e41780096
:102e6000318b200082487800b468ef00ae68ef0034
:102e70000080fa00000006000400fa0020479800d5
:102e800000c7b300b2e8b7002e419000318b20009c
:102e900082487800c0902000000f7800b3c8bf00bf
:102ea0000080fb009e0078003005b000000040006c
:102eb000610078008000eb00b0458800c1458800c3
:102ec000b468ef00ae68ef000080fa000000060072
:102ed0000400fa002047980000c8b300b2e8b70029
:102ee0002e419000318b200082487800c090200055
:102ef000000f7800b628ef00b828ef00628b2000a2
:102f0000b3c8bf000080fb009e0178006e00b900ce
:102f1000000078006007b00063007800004078008f
:102f200000497800b468ef000080fa000000060055
:102f30000a00fa00004f980000c9b300b2e8b700d9
:102f40000e499000318b200082487800c09020000c
:102f500020079800b3c8bf000080fb000000d1002c
:102f600060479800b3c8bf000080fb0061006000ac
:102f7000004078000004e0000a0032006e4090003b
:102f80000080fb002e0190006e00b9000000780068
:102f90002007b00000004100301f780020177800a3
:102fa000090037006e4090000080fb002e01900069
:102fb0006e00b90000007800e006b000000041009b
:102fc000301f7800201778001e00be00471507004c
:102fd000008fbe001e00be00f0458800014688003c
:102fe000b468ef000080fa00000006000800fa0054
:102ff0006047980000cbb300b2e8b7006e41900084
:10300000318b2000824878006000b800008fbe003d
:10301000c090200020079800b3c8bf000080fb00cc
:10302000e10f50000f003200e10f500003003c00a0
:103030000000e0000600320020003700e20f5000e0
:103040000d003200e30f5000100032001b0037006b
:103050002e00900030b19000c0b19000028fbe00f1
:103060000f0037002e00900050b19000e0b19000aa
:10307000028fbe000a0037002e00900070b1900051
:1030800080b99000028fbe00050037002e0090002e
:1030900010b99000a0b99000028fbe00000000009f
:1030a0001e00be0011150700008fbe001e00be00ee
:1030b000f045880001468800b468ef000080fa00ff
:1030c000000006000400fa00204798000000eb0012
:1030d000000f780080cab300b2e8b7002e4190001c
:1030e000318b200082487800b3c8bf000080fb000d
:1030f000e10f50000d003200e10f500003003c00d2
:103100000000e0000600320011003700e20f50001e
:1031100009003200e30f50000a0032000c003700b3
:1031200011508000010f7800090037002250800004
:10313000020f78000600370031508000010f780040
:103140000300370042508000020f780000000000aa
:10315000608b20001e087800b468ef000080fa0041
:10316000000006000200fa0000ccb300b2e8b7008d
:10317000b368ef00c0902000000f78001e007800b8
:1031800070b890008000eb00b0458800c145880011
:10319000b468ef000080fa00000006000000fa00aa
:1031a00000cfb300b2e8b700b368ef00608b200037
:1031b000a14380008140780001487800b468ef00a6
:1031c0000080fa00000006000000fa0010cfb300f3
:1031d000b2e8b700b368ef00608b2000c1a0200008
:1031e0009140780001487800b468ef000080fa0050
:1031f000000006000000fa0020cfb300b2e8b700dc
:10320000b368ef00608b2000d1a0200091407800cf
:1032100001487800b468ef000080fa000000060062
:103220000000fa0030cab300b2e8b700b368ef009c
:10323000b628ef00b828ef00608b200071508000a6
:1032400001087800b468ef000080fa000000060072
:103250000000fa0040cab300b2e8b700b368ef005c
:10326000b628ef00b828ef00608b20008150800066
:1032700001087800b468ef000080fa000000060042
:103280000000fa00b268ef00b368ef00b628ef0064
:10329000b828ef00be28ef00c028ef00b468ef00a8
:1032a000c468ef00c568ef00b028ef000080fa00a6
:1032b000000006000000fa00608b200013c0b3007d
:1032c000823e200081c12f0015fd07000080fa001a
:1032d000000006000000fa00b3c8bf000080fb0039
:1032e0000000e900e10f500005003e0042c0b300bd
:1032f0008040eb00408b20007ffc0700010037007e
:10330000000000000080fa00000006000000fa0043
:10331000b3c8bf00e14f500004003a0032c0b30010
:103320008040eb00408b200073fc07000080fa0017
:10333000000006000000fa00c5c8bf000004e0005d
:103340000400320042c0b3008040eb00408b2000fc
:1033500069fc07000080fa00000006000000fa0087
:10336000c5c8bf000004e0000400320042c0b30042
:103370008040eb00408b20005ffc07000080fa00db
:10338000000006000000fa00c5c8bf000004e0000d
:103390000400320042c0b3008040eb00408b2000ac
:1033a00055fc07000080fa00000006000000fa004b
:1033b000c5c8bf000004e0000400320042c0b300f2
:1033c0008040eb00408b20004bfc07000080fa009f
:1033d000000006000200fa00b3c8bf006f4f600093
:1033e0001e4fe8001e407800e34f500002003600f8
:1033f0000040eb00004f7800318b200091407800b6
:1034000000cfb30000c06000b3e8b700b3c8bf008e
:103410001e407000b3e8b7000080fa00000006000c
:103420000200fa00b3c8bf006f4f60001e4fe800f3
:103430001e407800ea4f5000020036000040eb00ca
:10344000004f7800318b20009140780000cfb3000e
:1034500000c06000b3e8b700b3c8bf001e407000f2
:10346000b3e8b7000080fa00000006000000fa0090
:10347000608b20008041eb00823e2000c1e02f00e5
:10348000a7fc07000080fa00000006000000fa0018
:10349000b2c8bf000080fb0001072000810f500070
:1034a0004700320001072000810f500018003c0047
:1034b00001032000810f5000390032000103200079
:1034c000810f500008003c00f00f50002d0032002a
:1034d00001022000810f50002f0032000000e000a8
:1034e000260032005300370001052000810f5000f4
:1034f0002f00320001062000810f50002e00320004
:1035000001042000810f50002700320049003700dd
:10351000110a2000810f500035003200110a2000ee
:10352000810f500007003c0001092000810f50006e
:1035300028003200010a2000810f50002a003200ca
:103540003c003700810a2000810f50003500320016
:10355000810a2000810f500004003c00610a200015
:10356000810f50003200350023003700010b20008e
:10357000810f5000260032002e00370095ff070013
:103580002c00370032c0b3008040eb00408b20009d
:10359000d9fb0700270037005cff07002500370034
:1035a0004cff07002300370042ff070021003700cf
:1035b00060ff07001f0037007cff07001d00370079
:1035c00032c0b3008040eb00408b2000cafb0700f4
:1035d0001800370042c0b3008040eb00408b200051
:1035e000c5fb0700130037005cff07001100370020
:1035f00064ff07000f003700aec8bf000004a20040
:103600000080fb0000407800aee8b70009003700fa
:1036100042c0b3008040eb00408b2000b6fb0700a7
:103620000400370091ff0700000000000100370090
:10363000000000000080fa00000006000200fa000e
:10364000318b20009140780000cfb30000cf6000a4
:103650001e80fb004400de00004f78001e4fe80093
:103660001e407800e34f5000020036000040eb009f
:10367000004f78009e407800400020000008dd00e8
:10368000004f7800b3c8bf006f406000b3e8b700d8
:10369000b3c8bf001e407000b3e8b7000080fa0056
:1036a000000006000000fa00b4c8bf0080407800a7
:1036b000008b2000b0fb07000080fa00000006002d
:1036c0000400fa00b0458000c14580006100400060
:1036d000e0804800b0458800c1458800b2458000c0
:1036e000c34580005000200001002000800f5100e1
:1036f000818f590002003400b628ef00b828ef008f
:10370000b0458000c14580000080e800c300dd00b6
:10371000c090200000804000100078008000eb0086
:10372000008fbe001e00be0070130700008fbe0099
:103730001e01be00f245880003468800b468ef0011
:103740000080fa00000006000000fa00b3c8bf00c5
:103750000080fb000000e00003003200e10f500099
:103760000300320007003700d5ff070005003700cf
:10377000418b200091407800608b20007efb070089
:10378000000000000080fa00000006000200fa00bd
:10379000b3c8bf000080fb000000e000050032005d
:1037a0000000e00017003500e20f500017003c0059
:1037b0000f003700608b2000000f78001e0078009b
:1037c000104078008040e8001e0078000148780032
:1037d0001e00780010407800e14f50000d003600c8
:1037e0001e0078008040eb00014878000a00370096
:1037f000b4c8bf0080407800e08b200091fb070038
:103800000500370000000000030037000000000042
:1038100001003700000000000080fa0000000600f0
:103820000000fa00608b20008041eb00823e200007
:1038300081c12f00bafb07000080fa0000000600db
:103840000200fa00c5c8bf000004e00010003a0002
:10385000608b2000104f78001e4fe8001e4078005b
:10386000e54f5000020036000040eb00004f7800aa
:103870001e407800e14f500002003a0020c0b30023
:10388000004f7800608b20001e487800060037004b
:10389000b4c8bf0080407800e08b200069fb0700bf
:1038a00010c0b300aee8b7000080fa0000000600c8
:1038b0000200fa00c5c8bf000004e00010003a0092
:1038c000608b2000104f78001e4fe8001e407800eb
:1038d000e54f5000020036000040eb00004f78003a
:1038e0001e407800e14f500002003a0020c0b300b3
:1038f000004f7800608b20001e48780006003700db
:10390000b4c8bf0080407800e08b20004dfb07006a
:1039100010c0b300aee8b7000080fa000000060057
:103920000200fa00c5c8bf000004e00010003a0021
:10393000608b2000104f78001e4fe8001e4078007a
:10394000e54f5000020036000040eb00004f7800c9
:103950001e407800e14f500002003a0020c0b30042
:10396000004f7800608b20001e487800060037006a
:10397000b4c8bf0080407800e08b200031fb070016
:1039800010c0b300aee8b7000080fa0000000600e7
:103990000200fa00c5c8bf000004e00010003a00b1
:1039a000608b2000104f78001e4fe8001e4078000a
:1039b000e54f5000020036000040eb00004f780059
:1039c0001e407800e14f500002003a0020c0b300d2
:1039d000004f7800608b20001e48780006003700fa
:1039e000b4c8bf0080407800e08b200015fb0700c2
:1039f00010c0b300aee8b7000080fa000000060077
:103a00000000fa00418b200091407800608b20007c
:103a1000d9fa07000080fa00000006000200fa0050
:103a2000608b2000000f78001e00780010407800a6
:103a30008040e8001e007800014878001e007800f1
:103a400010407800e34f5000030036001e0078005d
:103a50008040eb00014878000080fa00000006007a
:103a60000000fa00b4c8bf0080407800e08b20005e
:103a7000f4fa07000080fa00000006000000fa00d7
:103a8000b4c8bf0080407800e08b2000edfa07004a
:103a90000080fa00000006000000fa00b4c8bf0071
:103aa00080407800e08b2000e6fa07000080fa00f2
:103ab000000006000000fa00608b200013c0b30075
:103ac000823e2000c1e02f0015fb07000080fa00b5
:103ad000000006000200fa00b0458000c1458000e9
:103ae000000f7800403820009e007800808f500042
:103af00003003a00603b2000000f7800020037000e
:103b000040382000000f78001e0078008000eb0095
:103b1000b0458800c14588000080fa00000006001a
:103b20000200fa00608b2000000f78001e00780071
:103b3000104078000004e00004003a001e00780005
:103b400011c0b30001487800030037001e00780060
:103b50008040eb00014878000080fa000000060079
:103b60000200fa00608b2000000f78001e00780031
:103b7000104078000004e000040032001e007800cd
:103b80008040eb0001487800030037001e007800f9
:103b900011c0b300014878000080fa000000060060
:103ba0000200fa00608b2000000f78001e007800f1
:103bb00010407800ea4f500004003a001e007800e0
:103bc000e1c1b300014878000b0037001e00780007
:103bd00010407800fe4f500004003a001e007800ac
:103be000c1c3b30001487800030037001e0078000d
:103bf000a1c0b300014878000080fa000000060070
:103c00000200fa00608b2000100f78001e00780080
:103c1000e60f500020003200e60f500007003e0083
:103c2000e20f500016003200e40f5000170032007f
:103c30000000e0000f00320026003700f40f5000b3
:103c40001b003200f40f500003003e00ea0f50004a
:103c5000140032001f00370081022000810f500045
:103c600016003200c1032000810f50001600320000
:103c70001800370020002000000f780018003700df
:103c800040002000000f7800150037006000200081
:103c9000000f780012003700a0002000000f78000d
:103ca0000f00370040012000000f78000c003700a3
:103cb00080022000000f780009003700c0032000b8
:103cc000000f78000600370040062000000f780043
:103cd000030037000000eb00000f78000000000038
:103ce000608b20001e0878000080fa0000000600ab
:103cf0000200fa00608b2000100f78001e00780090
:103d0000e60f500020003200e60f500007003e0092
:103d1000e20f500016003200e40f5000170032008e
:103d2000e10f50000f00320026003700f40f500062
:103d30001b003200f40f500003003e00ea0f500059
:103d4000140032001f00370081022000810f500054
:103d500016003200c1032000810f5000160032000f
:103d60001800370020002000000f780018003700ee
:103d700040002000000f7800150037006000200090
:103d8000000f780012003700a0002000000f78001c
:103d90000f00370040012000000f78000c003700b2
:103da00080022000000f780009003700c0032000c7
:103db000000f78000600370040062000000f780052
:103dc0000300370010002000000f78000000000002
:103dd000608b20001e0878000080fa0000000600ba
:103de0000000fa00b2c8bf000080fb00010a2000fa
:103df000810f50006a003200010a2000810f50003c
:103e000028003c0001042000810f500058003200bf
:103e100001042000810f50000e003c00f00f500004
:103e20004d003200f00f500003003c000000e000a5
:103e3000470032007600370001022000810f500059
:103e40004700320001032000810f5000460032007d
:103e50006f00370001072000810f50004a00320038
:103e600001072000810f500007003c0001052000e1
:103e7000810f50004000320001062000810f5000e9
:103e80003f0032006200370001082000810f50001f
:103e90003f00320001092000810f50003e00320037
:103ea0005b003700810a2000810f5000540032006f
:103eb000810a2000810f500011003c00410a2000bf
:103ec000810f50004c003200410a2000810f500049
:103ed00007003c00110a2000810f50003200320020
:103ee000310a2000810f50004100320048003700a5
:103ef000610a2000810f5000440035002c0037007b
:103f0000010f2000810f500033003200010f20000c
:103f1000810f500007003c00010b2000810f500072
:103f200029003200010c2000810f500028003200cf
:103f300037003700110f2000810f50002800320099
:103f4000210f2000810f5000270032003000370081
:103f5000bafd07002e003700d2fd07002c00370005
:103f6000f9fd07002a00370008fe07002800370087
:103f70002bfe07002600370031fe07002400370023
:103f80004bfe0700220037009dfe0700200037008f
:103f9000a2fe07001e003700b1fe07001c0037001c
:103fa0005ffe07001a00370079fe0700180037008f
:103fb000aec8bf000004a2000080fb0000407800f3
:103fc000aee8b70012003700b3fe0700100037005c
:103fd000c0fe07000e003700d1fe07000c003700be
:103fe000dffe07000a003700edfe0700080037007b
:103ff00003ff0700060037003dff070004003700fd
:10400000acfe0700000000000100370000000000c7
:104010000080fa00000006000000fa00b2c8bf00ed
:10402000f04f50008d003a008045800001072000cd
:10403000810f50008600320001072000810f5000e0
:1040400024003e0061022000810f50007800320001
:1040500061022000810f50000d003e00f00f500063
:104060005b003200f00f500003003e00e60f5000ee
:104070005400320079003700f20f50006a0032001d
:1040800041022000810f50003d00320073003700d4
:10409000a1022000810f50005e003200a10220002a
:1040a000810f500004003e0071022000810f50007b
:1040b000610032006900370081032000810f500049
:1040c0003300320021042000810f50002e00320006
:1040d00062003700410a2000810f50004a00320080
:1040e000410a2000810f500011003e00110a2000fb
:1040f000810f500039003200110a2000810f50005a
:1041000004003e0051082000810f50002a003200b8
:1041100052003700210a2000810f50003300320086
:10412000310a2000810f5000340032004b0037006c
:10413000c10b2000810f500039003200c10b20005c
:10414000810f500007003e00810a2000810f5000bf
:1041500011003200910a2000810f5000120032003d
:104160003e003700012b2000810f50003400320048
:10417000112b2000810f5000330032003700370030
:10418000e5f9070035003700f5f90700330037007f
:104190002ffa0700310037008040eb000040eb00b1
:1041a0003bfa07002d0037008040eb000040eb0099
:1041b00070fa0700290037000040eb002efb0700d3
:1041c000260037000040eb0041fb070023003700ca
:1041d0000040eb0056fb0700200037008040eb005a
:1041e0000040eb009cfa07001c0037008040eb0009
:1041f0000040eb00d1fa0700180037000040eb0048
:1042000007fb0700150037000040eb000ffb07001d
:10421000120037000040eb0074fb07000f0037006e
:10422000d0fb07000d003700dcfb07000b00370058
:10423000e5fb070009003700eefb07000700370029
:10424000f7fb07000500370001fc070003003700fb
:104250000040eb009bfb0700000000000080fa001c
:10426000000006000600fa000040eb00004f780056
:10427000c090200010079800c090200020079800f0
:104280001e009000341907001e01900010219800b4
:10429000212198001e009000681907001e0190005f
:1042a0003021980041219800611020002e009000dc
:1042b000bd3b0700821020000000250011002000f7
:1042c000123b0700831020002e0190000000250003
:1042d00011002000223b0700831020002e019000d7
:1042e0000000250011002000c83a070081102000be
:1042f0002e009000943b0700004f78001e4078008d
:104300000080fa00000006000000fa00b3c8bf00f9
:104310000004e00011003a00b0458000c145800073
:10432000d0458800e1458800d0458000e145800007
:104330000080e800c300dd00c09020000080400045
:10434000100078008000eb00b0458800c14588006f
:10435000b468ef0010c0b300b3e8b7000080fa0003
:10436000000006000a00fa00004f9800c0902000ec
:10437000000f7800b3c8bf000080fb00e10f5000c1
:104380000c003200e20f5000150032000000e00087
:104390001e003a00608b2000100798001e0090005d
:1043a000104078008080fb001e00780021009800fb
:1043b00016003700f0458000014680009e1007007f
:1043c00020079800310798001e0078002e01900009
:1043d000be01900052189800631898000b00370037
:1043e000f0458000014680009310070020079800e8
:1043f000310798002e009000be0090001e0178004a
:1044000070199800012198000000000095ff070036
:104410000e4890000004e0000200320098fb070004
:1044200017003700b3c8bf000040e800b3e8b7008a
:10443000b3c8bf00e24f500001003600b368ef0080
:10444000b3c8bf000080fb00e10f5000060032003f
:10445000e20f5000060032000000e00007003a00c2
:104460003ff907000600370063f907000400370032
:104470004bf90700000000000100370000000000b9
:104480000080fa00000006001000fa00604f98005b
:104490000040eb00004f7800c5c8bf000004e000fa
:1044a0001d003a00c4c8bf008080fb00400320000c
:1044b0000088b90000007800e400400040b120000e
:1044c000008040009040780011479800608b2000e9
:1044d00090407800214798009e4090002e40900028
:1044e00080cf50005b00320010c0b300004f780056
:1044f000c4c8bf008080fb00400320000088b900d2
:104500008000780080b1200000804000ae40900024
:10451000014878004f003700f045800001468000d8
:10452000451007002007980031079800c4c8bf0055
:104530008080fb00c5c8bf000080fb000000e900d0
:104540004301dd00400320000088b900000078002e
:1045500000004100e800400040b120000080400021
:104560001000be0040079800510798004e019000cf
:10457000de0190002e009000be009000800f5100e0
:10458000818f590003003a00aec8bf000004e0006c
:1045900030003200c4c8bf008081fb00c5c8bf0026
:1045a0000080fb000001e9002e009000be0090009a
:1045b0004312dd00420320000299b9000201780095
:1045c00082014200c2b12000028141000089be0088
:1045d000c4c8bf008080fb00c5c8bf000080fb00ce
:1045e0000000e90002812000220190000000e800a4
:1045f000c301dd00400320000088b90000007800fe
:104600008080410080b120000080400002087800d6
:10461000c4c8bf008080fb00c5c8bf000080fb008d
:104620000000e9000281200032019000c301dd009a
:10463000400320000088b90000007800808041001d
:1046400020b22000008040000208780010c0b300b3
:10465000004f78001e4078000004e0001b0032008c
:10466000200b2000600798006e0090000080e90099
:104670008000780040b12000cb3a0700ee019000a6
:1046800042b120008040eb0080f320008939070010
:10469000ee01900042a120008040eb0080f320005a
:1046a000323907006e009000004078000041780029
:1046b00041a1200040b12000ec2b07000000e000e9
:1046c00001003a0000000000ae68ef006e48900064
:1046d0000004e00002003200e9fa07001b00370086
:1046e000c5c8bf000040e800c5e8b700c4c8bf00a7
:1046f0008080fb00400320000088b90000007800a3
:10470000e400400040b1200000804000904078006c
:10471000c5c8bf0080cf500008003100c568ef0059
:10472000c4c8bf000040e800c4e8b700c4c8bf0068
:10473000e24f500001003600c468ef00518c2000a9
:1047400091407800c4c8bf00d1f807000080fa008b
:10475000000006001000fa00604f98000040eb00d7
:10476000004f7800c5c8bf000004e0001d003a00fb
:10477000c4c8bf008080fb00400320000088b9004f
:1047800000007800e400400060bc20000080400091
:104790009040780061479800608b2000904078003e
:1047a00071479800ee4090007e40900080cf50000e
:1047b0005b00320010c0b300004f7800c4c8bf00d7
:1047c0008080fb00400320000088b9008000780052
:1047d000a0bc200000804000fe409000014878000e
:1047e0004f003700f045800001468000920f07001f
:1047f0001007980021079800c4c8bf008080fb0004
:10480000c5c8bf000080fb000000e9004301dd00d7
:10481000400320000088b90000007800000041003b
:10482000e800400060bc2000008040001000be0096
:1048300040079800510798004e019000de0190005b
:104840001e009000ae009000800f5100818f590033
:1048500003003a00aec8bf000004e00030003200a0
:10486000c4c8bf008081fb00c5c8bf000080fb003a
:104870000001e9001e009000ae0090004312dd0030
:10488000420320000299b90002017800820142002f
:10489000e2bc2000028141000089be00c4c8bf0004
:1048a0008080fb00c5c8bf000080fb000000e9005d
:1048b00082812000220190000000e800c301dd0099
:1048c000400320000088b90000007800808041008b
:1048d000a0bc20000080400002087800c4c8bf00cf
:1048e0008080fb00c5c8bf000080fb000000e9001d
:1048f0008281200032019000c301dd0040032000ce
:104900000088b900000078008080410040bd200090
:10491000008040000208780010c0b300004f78000b
:104920001e4078000004e00012003200200b20003e
:10493000600798006e0090000080e9008000780019
:1049400060bc2000183a0700ee01900062bc200015
:104950008040eb0060f42000d6380700ee019000a4
:1049600042a120008040eb0060f420007f38070067
:10497000ae68ef001e4078000004e000280032001e
:104980000040eb00004f7800c4c8bf000004e00006
:1049900023003a00c5c8bf00e14f50000a003a00aa
:1049a0001e009000ae009000a05d8800b15d880000
:1049b0005042800061428000c05d8800d15d880067
:1049c00010c0b300004f7800c4c8bf008080fb0057
:1049d000400320000088b90000007800e400400097
:1049e00060bc20000080400090407800c5c8bf0037
:1049f00080cf50000a003a001e009000ae009000e8
:104a0000e05d8800f15d88005042800061428000d6
:104a1000005e8800115e880010c0b300004f78006f
:104a20001e4078000004e0001b003200200b200034
:104a3000600798006e0090000080e9008000780018
:104a400040b12000d8390700ee01900042b12000ab
:104a50008040eb0080f3200096380700ee019000c4
:104a600042a120008040eb0080f320003f38070087
:104a70006e009000004078000041780041a12000c5
:104a800040b12000f92a07000000e00001003a00d0
:104a900000000000ae68ef000040eb00004f78001f
:104aa000ae68ef006e4890000004e00002003200a3
:104ab000f3f907001b003700c5c8bf000040e8003d
:104ac000c5e8b700c4c8bf008080fb0040032000d9
:104ad0000088b90000007800e400400060bc2000bd
:104ae0000080400090407800c5c8bf0080cf5000d3
:104af00008003100c568ef00c4c8bf000040e800ee
:104b0000c4e8b700c4c8bf00e24f5000010036003f
:104b1000c468ef00518c200091407800c4c8bf00e9
:104b200014f807000080fa00000006001000fa00e8
:104b3000604f98000040eb00004f7800c5c8bf00f0
:104b40000004e0001d003a00c4c8bf008080fb00e4
:104b5000400320000088b90000007800e400400015
:104b600080c72000008040009040780011479800e6
:104b7000608b200090407800214798009e40900074
:104b80002e40900080cf50005b00320010c0b30078
:104b9000004f7800c4c8bf008080fb0040032000a5
:104ba0000088b90080007800c0c720000080400065
:104bb000ae409000014878004f003700f04580007b
:104bc000014680009c0e07002007980031079800de
:104bd000c4c8bf008080fb00c5c8bf000080fb00c8
:104be0000000e9004301dd00400320000088b90017
:104bf0000000780000004100e800400080c720006d
:104c0000008040001000be00400798005107980047
:104c10004e019000de0190002e009000be0090003a
:104c2000800f5100818f590003003a00aec8bf00c9
:104c30000004e00030003200c4c8bf008081fb00e7
:104c4000c5c8bf000080fb000001e9002e009000f5
:104c5000be0090004312dd00420320000299b9001b
:104c6000020178008201420002c820000281410056
:104c70000089be00c4c8bf008080fb00c5c8bf005b
:104c80000080fb000000e900028220002201900069
:104c90000000e800c301dd00400320000088b900e7
:104ca0000000780080804100c0c7200000804000e4
:104cb00002087800c4c8bf008080fb00c5c8bf00e0
:104cc0000080fb000000e900028220003201900019
:104cd000c301dd00400320000088b9000000780017
:104ce0008080410060c820000080400002087800f9
:104cf00010c0b300004f78001e4078000004e000b0
:104d000012003200200b2000600798006e00900017
:104d10000080e9008000780080c720002239070069
:104d2000ee01900082c720008040eb0040f520009b
:104d3000e0370700ee01900042a120008040eb0028
:104d400040f5200089370700ae68ef006e489000fc
:104d50000004e0000200320049f907001b003700a0
:104d6000c5c8bf000040e800c5e8b700c4c8bf0020
:104d70008080fb00400320000088b900000078001c
:104d8000e400400080c72000008040009040780090
:104d9000c5c8bf0080cf500008003100c568ef00d3
:104da000c4c8bf000040e800c4e8b700c4c8bf00e2
:104db000e24f500001003600c468ef00518c200023
:104dc00091407800c4c8bf00a3f707000080fa0034
:104dd000000006001000fa00604f98000040eb0051
:104de000004f7800c5c8bf000004e0001d003a0075
:104df000c4c8bf008080fb00400320000088b900c9
:104e000000007800e4004000a0d2200000804000b4
:104e10009040780011479800608b20009040780007
:104e2000214798009e4090002e40900080cf500077
:104e30005b00320010c0b300004f7800c4c8bf0050
:104e40008080fb00400320000088b90080007800cb
:104e5000e0d2200000804000ae4090000148780081
:104e60004f003700f045800001468000f20d07003a
:104e70002007980031079800c4c8bf008080fb005d
:104e8000c5c8bf000080fb000000e9004301dd0051
:104e9000400320000088b9000000780000004100b5
:104ea000e8004000a0d22000008040001000be00ba
:104eb00040079800510798004e019000de019000d5
:104ec0002e009000be009000800f5100818f59008d
:104ed00003003a00aec8bf000004e000300032001a
:104ee000c4c8bf008081fb00c5c8bf000080fb00b4
:104ef0000001e9002e009000be0090004312dd008a
:104f0000420320000299b9000201780082014200a8
:104f100022d32000028141000089be00c4c8bf0026
:104f20008080fb00c5c8bf000080fb000000e900d6
:104f300082822000220190000000e800c301dd0011
:104f4000400320000088b900000078008080410004
:104f5000e0d220000080400002087800c4c8bf00f2
:104f60008080fb00c5c8bf000080fb000000e90096
:104f70008282200032019000c301dd004003200046
:104f80000088b900000078008080410080d32000b4
:104f9000008040000208780010c0b300004f780085
:104fa0001e4078000004e00012003200200b2000b8
:104fb000600798006e0090000080e9008000780093
:104fc000a0d2200078380700ee019000a2d2200085
:104fd0008040eb0020f6200036370700ee019000fd
:104fe00042a120008040eb0020f62000df360700c1
:104ff000ae68ef006e4890000004e000020032004e
:105000009ff807001b003700c5c8bf000040e8003c
:10501000c5e8b700c4c8bf008080fb004003200083
:105020000088b90000007800e4004000a0d2200011
:105030000080400090407800c5c8bf0080cf50007d
:1050400008003100c568ef00c4c8bf000040e80098
:10505000c4e8b700c4c8bf00e24f500001003600ea
:10506000c468ef00518c200091407800c4c8bf0094
:1050700032f707000080fa00000006000600fa0080
:1050800040479800aec8bf000004e00013003200a3
:10509000724480008344800090448000a1448000da
:1050a000000151008181590090448000a14480009a
:1050b000001f510001975900b3c8bf000080fb00da
:1050c000c300dd00609d2000008040003e18780095
:1050d0002e10780063fc0700ae68ef004e40900091
:1050e0000004e0000200320065f807000900370004
:1050f000b3c8bf000040e800b3e8b700b3c8bf00c2
:10510000e14f500001003600b368ef00b3c8bf00a4
:1051100043f707000080fa00000006000600fa00ce
:1051200040479800aec8bf000004e0001300320002
:10513000b2448000c3448000d0448000e144800039
:105140000001510081815900d0448000e144800079
:10515000001f510001975900b3c8bf000080fb0039
:10516000c300dd00609e2000008040003e187800f3
:105170002e1078003bfc0700ae68ef004e40900018
:105180000004e000020032003df80700090037008b
:10519000b3c8bf000040e800b3e8b700b3c8bf0021
:1051a000e14f500001003600b368ef00b3c8bf0004
:1051b00026f707000080fa00000006000600fa004b
:1051c00040479800c0902000000f7800608b2000be
:1051d00010079800b3c8bf000080fb009e0090003d
