:020000040000fa
:080000000002040000000000f2
:020000040000fa
:040008006c03000085
:020000040000fa
:04000c006c03000081
:020000040000fa
:040010006c0300007d
:020000040000fa
:040014006c03000079
:020000040000fa
:040018006c03000075
:020000040000fa
:04001c006c03000071
:020000040000fa
:040020006c0300006d
:020000040000fa
:040024006c03000069
:020000040000fa
:040028006c03000065
:020000040000fa
:04002c006c03000061
:020000040000fa
:040030006c0300005d
:020000040000fa
:040034008242000004
:020000040000fa
:040038006c03000055
:020000040000fa
:04003c006c03000051
:020000040000fa
:040040006c0300004d
:020000040000fa
:04004400fc43000079
:020000040000fa
:040048006c03000045
:020000040000fa
:04004c006c03000041
:020000040000fa
:040050006c0300003d
:020000040000fa
:040054006c03000039
:020000040000fa
:040058006c03000035
:020000040000fa
:04005c006c03000031
:020000040000fa
:040060006c0300002d
:020000040000fa
:040064006c03000029
:020000040000fa
:040068006c03000025
:020000040000fa
:04006c006c03000021
:020000040000fa
:040070006c0300001d
:020000040000fa
:040074006c03000019
:020000040000fa
:040078006c03000015
:020000040000fa
:04007c006c03000011
:020000040000fa
:040080006c0300000d
:020000040000fa
:040084006c03000009
:020000040000fa
:040088006c03000005
:020000040000fa
:04008c006c03000001
:020000040000fa
:040090006c030000fd
:020000040000fa
:040094006c030000f9
:020000040000fa
:040098006c030000f5
:020000040000fa
:04009c006c030000f1
:020000040000fa
:0400a0006c030000ed
:020000040000fa
:0400a4006c030000e9
:020000040000fa
:0400a8006c030000e5
:020000040000fa
:0400ac006c030000e1
:020000040000fa
:0400b0006c030000dd
:020000040000fa
:0400b4006c030000d9
:020000040000fa
:0400b8006c030000d5
:020000040000fa
:0400bc006c030000d1
:020000040000fa
:0400c0006c030000cd
:020000040000fa
:0400c4006c030000c9
:020000040000fa
:0400c8006c030000c5
:020000040000fa
:0400cc006c030000c1
:020000040000fa
:0400d0006c030000bd
:020000040000fa
:0400d4006c030000b9
:020000040000fa
:0400d8006c030000b5
:020000040000fa
:0400dc006c030000b1
:020000040000fa
:0400e0006c030000ad
:020000040000fa
:0400e4006c030000a9
:020000040000fa
:0400e8006c030000a5
:020000040000fa
:0400ec006c030000a1
:020000040000fa
:0400f0006c0300009d
:020000040000fa
:0400f4006c03000099
:020000040000fa
:0400f8006c03000095
:020000040000fa
:0400fc006c03000091
:020000040000fa
:040100006c0300008c
:020000040000fa
:040104006c03000088
:020000040000fa
:040108006c03000084
:020000040000fa
:04010c006c03000080
:020000040000fa
:040110006c0300007c
:020000040000fa
:040114006c03000078
:020000040000fa
:040118006c03000074
:020000040000fa
:04011c006c03000070
:020000040000fa
:04012000643e000039
:020000040000fa
:040124006c03000068
:020000040000fa
:040128006c03000064
:020000040000fa
:04012c006c03000060
:020000040000fa
:040130006c0300005c
:020000040000fa
:040134006c03000058
:020000040000fa
:040138006c03000054
:020000040000fa
:04013c006c03000050
:020000040000fa
:040140006c0300004c
:020000040000fa
:040144006c03000048
:020000040000fa
:040148006c03000044
:020000040000fa
:04014c006c03000040
:020000040000fa
:040150006c0300003c
:020000040000fa
:040154006c03000038
:020000040000fa
:040158006c03000034
:020000040000fa
:04015c006c03000030
:020000040000fa
:040160006c0300002c
:020000040000fa
:040164006c03000028
:020000040000fa
:040168006c03000024
:020000040000fa
:04016c006c03000020
:020000040000fa
:040170006c0300001c
:020000040000fa
:040174006c03000018
:020000040000fa
:040178006c03000014
:020000040000fa
:04017c006c03000010
:020000040000fa
:040180006c0300000c
:020000040000fa
:040184006c03000008
:020000040000fa
:040188006c03000004
:020000040000fa
:04018c006c03000000
:020000040000fa
:040190006c030000fc
:020000040000fa
:040194006c030000f8
:020000040000fa
:040198006c030000f4
:020000040000fa
:04019c006c030000f0
:020000040000fa
:0401a0006c030000ec
:020000040000fa
:0401a4006c030000e8
:020000040000fa
:0401a8006c030000e4
:020000040000fa
:0401ac006c030000e0
:020000040000fa
:0401b0006c030000dc
:020000040000fa
:0401b4006c030000d8
:020000040000fa
:0401b8006c030000d4
:020000040000fa
:0401bc006c030000d0
:020000040000fa
:0401c0006c030000cc
:020000040000fa
:0401c4006c030000c8
:020000040000fa
:0401c8006c030000c4
:020000040000fa
:0401cc006c030000c0
:020000040000fa
:0401d0006c030000bc
:020000040000fa
:0401d4006c030000b8
:020000040000fa
:0401d8006c030000b4
:020000040000fa
:0401dc006c030000b0
:020000040000fa
:0401e0006c030000ac
:020000040000fa
:0401e4006c030000a8
:020000040000fa
:0401e8006c030000a4
:020000040000fa
:0401ec006c030000a0
:020000040000fa
:0401f0006c0300009c
:020000040000fa
:0401f4006c03000098
:020000040000fa
:0401f8006c03000094
:020000040000fa
:0401fc006c03000090
:020000040000fa
:040208006c03000083
:020000040000fa
:04020c006c0300007f
:020000040000fa
:040210006c0300007b
:020000040000fa
:040214006c03000077
:020000040000fa
:040218006c03000073
:020000040000fa
:04021c006c0300006f
:020000040000fa
:040220006c0300006b
:020000040000fa
:040224006c03000067
:020000040000fa
:040228006c03000063
:020000040000fa
:04022c006c0300005f
:020000040000fa
:040230006c0300005b
:020000040000fa
:040234006c03000057
:020000040000fa
:040238006c03000053
:020000040000fa
:04023c006c0300004f
:020000040000fa
:040240006c0300004b
:020000040000fa
:040244006c03000047
:020000040000fa
:040248006c03000043
:020000040000fa
:04024c006c0300003f
:020000040000fa
:040250006c0300003b
:020000040000fa
:040254006c03000037
:020000040000fa
:040258006c03000033
:020000040000fa
:04025c006c0300002f
:020000040000fa
:040260006c0300002b
:020000040000fa
:040264006c03000027
:020000040000fa
:040268006c03000023
:020000040000fa
:04026c006c0300001f
:020000040000fa
:040270006c0300001b
:020000040000fa
:040274006c03000017
:020000040000fa
:040278006c03000013
:020000040000fa
:04027c006c0300000f
:020000040000fa
:040280006c0300000b
:020000040000fa
:040284006c03000007
:020000040000fa
:040288006c03000003
:020000040000fa
:04028c006c030000ff
:020000040000fa
:040290006c030000fb
:020000040000fa
:040294006c030000f7
:020000040000fa
:040298006c030000f3
:020000040000fa
:04029c006c030000ef
:020000040000fa
:0402a0006c030000eb
:020000040000fa
:0402a4006c030000e7
:020000040000fa
:0402a8006c030000e3
:020000040000fa
:0402ac006c030000df
:020000040000fa
:0402b0006c030000db
:020000040000fa
:0402b4006c030000d7
:020000040000fa
:0402b8006c030000d3
:020000040000fa
:0402bc006c030000cf
:020000040000fa
:0402c0006c030000cb
:020000040000fa
:0402c4006c030000c7
:020000040000fa
:0402c8006c030000c3
:020000040000fa
:0402cc006c030000bf
:020000040000fa
:0402d0006c030000bb
:020000040000fa
:0402d4006c030000b7
:020000040000fa
:0402d8006c030000b3
:020000040000fa
:0402dc006c030000af
:020000040000fa
:0402e0006c030000ab
:020000040000fa
:0402e4006c030000a7
:020000040000fa
:0402e8006c030000a3
:020000040000fa
:0402ec006c0300009f
:020000040000fa
:0402f0006c0300009b
:020000040000fa
:0402f4006c03000097
:020000040000fa
:0402f8006c03000093
:020000040000fa
:0402fc006c0300008f
:020000040000fa
:040300006c0300008a
:020000040000fa
:040304006c03000086
:020000040000fa
:040308006c03000082
:020000040000fa
:04030c006c0300007e
:020000040000fa
:040310006c0300007a
:020000040000fa
:040314006c03000076
:020000040000fa
:040318006c03000072
:020000040000fa
:04031c006c0300006e
:020000040000fa
:040320006c0300006a
:020000040000fa
:040324006c03000066
:020000040000fa
:040328006c03000062
:020000040000fa
:04032c006c0300005e
:020000040000fa
:040330006c0300005a
:020000040000fa
:040334006c03000056
:020000040000fa
:040338006c03000052
:020000040000fa
:04033c006c0300004e
:020000040000fa
:040340006c0300004a
:020000040000fa
:040344006c03000046
:020000040000fa
:040348006c03000042
:020000040000fa
:04034c006c0300003e
:020000040000fa
:040350006c0300003a
:020000040000fa
:040354006c03000036
:020000040000fa
:040358006c03000032
:020000040000fa
:04035c006c0300002e
:020000040000fa
:040360006c0300002a
:020000040000fa
:040364006c03000026
:020000040000fa
:040368006c03000022
:020000040000fa
:04036c006c0300001e
:020000040000fa
:040370006c0300001a
:020000040000fa
:040374006c03000016
:020000040000fa
:040378006c03000012
:020000040000fa
:04037c006c0300000e
:020000040000fa
:040380006c0300000a
:020000040000fa
:040384006c03000006
:020000040000fa
:040388006c03000002
:020000040000fa
:04038c006c030000fe
:020000040000fa
:040390006c030000fa
:020000040000fa
:040394006c030000f6
:020000040000fa
:040398006c030000f2
:020000040000fa
:04039c006c030000ee
:020000040000fa
:0403a0006c030000ea
:020000040000fa
:0403a4006c030000e6
:020000040000fa
:0403a8006c030000e2
:020000040000fa
:0403ac006c030000de
:020000040000fa
:0403b0006c030000da
:020000040000fa
:0403b4006c030000d6
:020000040000fa
:0403b8006c030000d2
:020000040000fa
:0403bc006c030000ce
:020000040000fa
:0403c0006c030000ca
:020000040000fa
:0403c4006c030000c6
:020000040000fa
:0403c8006c030000c2
:020000040000fa
:0403cc006c030000be
:020000040000fa
:0403d0006c030000ba
:020000040000fa
:0403d4006c030000b6
:020000040000fa
:0403d8006c030000b2
:020000040000fa
:0403dc006c030000ae
:020000040000fa
:0403e0006c030000aa
:020000040000fa
:0403e4006c030000a6
:020000040000fa
:0403e8006c030000a2
:020000040000fa
:0403ec006c0300009e
:020000040000fa
:0403f0006c0300009a
:020000040000fa
:0403f4006c03000096
:020000040000fa
:0403f8006c03000092
:020000040000fa
:0403fc006c0300008e
:020000040000fa
:100400006fd921000e7f22000e018800000000003d
:10041000000020000000e000020032000001200087
:100420002002880014000700ad0007000000e00073
:1004300003003a0040712400010020000200370050
:100440000000200001002000810f70000100320038
:1004500014000700000020000000e000020032004d
:100460000000020000000000fe4402000000000046
:100470000040da000000fe004440a900c017200040
:100480000000e000030032000020200090018800fe
:100490004440a800000006008a1f78008b1f7800e7
:1004a00000000600a1028800800478000000eb0034
:1004b0001f003700e284440054a0b4009905ba003c
:1004c000e284440054a0b4009906ba00e2844400d7
:1004d00054a0b4000006eb00476fde00fd07b20039
:1004e000ae018800636ce10003003a00eaff0700f8
:1004f0000000eb000e003700606ce10008003a00dd
:10050000004deb000a05e800020039003420ec0041
:100510000af0a0008b05e900f9ff3e000400370057
:100520006168e100010032000086eb000b0007006b
:1005300019c7ba001905ba000e04e00003003a001a
:100540000a00e000dbff3a0000000600fe07b200f0
:10055000ae0288008a047800f5ff37000cd0a300b3
:10056000e20f4d001c00390089027800354dba00b9
:100570000a05e800020039003420ec000af0a0006f
:100580008b05e9000f003200254dba000a05e8008e
:10059000020039003420ec000af0a0008b05e900cd
:1005a000080032000c00e0000600320015cdba0051
:1005b0000a05e800020039003420ec000af0a0002f
:1005c0008b05e9008984e80054a0b4000b00e0002a
:1005d000e2ff3a00000006009902ba00055d7800cb
:1005e0008b05e900f7ff3200c82ade00055d7800c0
:1005f0008b05e900f3ff32000c00e000f1ff320050
:1006000019ddba00eeff3700bc4404000000000012
:10061000c830040000000000943504000000000011
:10062000a035040000000000f635040000000000c2
:100630000236040000000000d03504000000000075
:1006400070360400000000007c360400000000004a
:10065000a636040000000000b236040000000000ce
:100660003636040000000000b63704000000000029
:10067000fe37040000000000063704000000000000
:1006800012370400000000004e3704000000000094
:100690005a37040000000000e236040000000000a9
:1006a000da37040000000000983804000000000061
:1006b000da38040000000000483a0400000000009e
:1006c000ac390400000000008a3b04000000000078
:1006d000a0210400000000000040da000000fe003d
:1006e00000000500839f68000100e00002003d005b
:1006f00060001000e08018000300e00002003d00f0
:1007000060011100e0811900140007004f00e000b3
:1007100002003b0060001000e080180000000600ae
:10072000811f78000100e00002003d006000100021
:10073000e08018000300e00002003d0060011100ad
:10074000e0811900150007004f00e00002003b00a7
:1007500060001000e0801800000006006022b80071
:10076000060220000000d0008180d2000482d20066
:100770008582d2000000a0000202520083825a004b
:10078000030031000202420083824a000000a100ff
:100790000603e900f3ff3a0000000600efff070040
:1007a0000400be0000000600090037003042780057
:1007b000b1417800834f5200040032001000200045
:1007c000060031000080eb00000006000201e90095
:1007d0000200e000f5ff3a000000eb000000060018
:1007e0008001780002003700815978000201e90099
:0c07f0000200e000fcff3a0000000600e0
:020000040000fa
:1007fc003031000032330000343500003637000051
:10080c003839000061620000636400006566000016
:10081c0067680000696a00006b6c00006d6e000078
:10082c006f70000071720000737400007576000028
:10083c0077780000797a00002e2d00003a20000015
:10084c0047480000003f0000065b00004f660000b8
:10085c006d7d0000077f00006f7700007c39000081
:10086c005e790000716f0000740600000e7a0000c3
:10087c0038000000375c000073670000506d00000a
:10088c00783e000000000000006e00005b4000009d
:10089c0040480000003d000076300000313200007e
:1008ac003334000035360000373800003961000061
:1008bc006263000064650000666700006869000000
:1008cc006a6b00006c6d00006e6f000070710000b0
:1008dc007273000074750000767700007879000060
:1008ec007a410000424300004445000046470000a6
:1008fc00484900004a4b00004c4d00004e4f000090
:10090c00505100005253000054550000565700003f
:10091c00585900005a0000003f000000060000007b
:10092c00db000000cf000000e6000000ed0000003e
:10093c00fd00000007000000ff000000ef000000b9
:10094c005804000078040000d80000008e08000055
:10095c00fb000000710000008f010000f40000009b
:10096c00060000000e0000007006000030000000c1
:10097c003603000037000000dc00000071020000ac
:10098c00870100003100000069040000c80a000063
:10099c003e000000300a0000360c0000000f000082
:1009ac00000b000048080000860a0000fd02000051
:1009bc003900000000000000790000007100000008
:1009cc00bd000000f6000000060000000e00000054
:1009dc0070060000380000003603000036050000e9
:1009ec003f000000f30000003f040000710600000f
:1009fc0069040000000000003e000000300a000006
:100a0c00360c0000000f00008e010000090a0000e7
:100a1c001111000022220000333300004444000076
:100a2c005555000066660000777700008888000046
:100a3c0099990000aaaa0000bbbb0000cccc000016
:100a4c00dddd0000eeee0000cecd0000acab000012
:100a5c00494400004c45000000a50000a5a500007d
:100a6c00a5a50000a5a50000a5a50000a5a5000052
:100a7c00a5a50000a5a50000a5a50000a5a5000042
:100a8c00a50000004e4100004d450000003700005d
:100a9c0037370000373700003737000037000000c9
:100aac0031320000330000001122000033440000fa
:100abc00303100003233000034350000363700008e
:100acc003839000061620000636400006566000054
:100adc0000000000736100006d6c00007065000088
:080aec000000000004000000fe
:020000040000fa
:100af4000800fa00404798005147980032079800d0
:100b04004e409000e74f500034003e00de4090001d
:100b1400f0c3b30080cf500032003e004e4090003e
:100b24000080fb00c200dd005e4090000080fb00fe
:100b34004400de00004078000080fb00008040009c
:100b4400000f78005e4090000080fb006f006000a2
:100b5400100798003e0090000000e0000f003200f3
:100b64001e0078008000400020d521000080400055
:100b7400900078001e009000120020000010dd009c
:100b8400810070001e0078000001400020d5210083
:100b94000000410001087800130037001e007800af
:100ba4008000400020d521000080400090007800a3
:100bb4001e009000120020000010dd000080ea00fa
:100bc400808060001e0078000001400020d52100d4
:100bd4000000410001087800030037000000000015
:100be40001003700000000000080fa000000060049
:100bf4000400fa002047980031479800ae40900066
:100c040010c3b30080cf50009c013e0011c3b30059
:100c14002e40900000cf50001e80fb00cf80de00ed
:100c24001203200003002000820f5000838f58001d
:100c340093013e00006001003100370037003700a7
:100c44003d00370043003700490037004f003700ac
:100c5400550037005b00370061003700670037003c
:100c64006d00370073003700790037007f003700cc
:100c7400850037008b00370091003700970037005c
:100c84009d003700a3003700a9003700af003700ec
:100c9400b5003700bb003700c1003700c70037007c
:100ca400cd003700d3003700d9003700df0037000c
:100cb400e5003700eb003700f1003700f70037009c
:100cc400fd00370003013700090137000f01370029
:100cd400150137001b0137002101370027013700b8
:100ce4002d01370033013700390137003f01370048
:100cf400450137004b0137005101370057013700d8
:100d04003e4090000080fb0000017800f1c3b30076
:100d140070c0b30076ff0700590137003e409000d1
:100d24000080fb0000017800f1c3b30060c0b30091
:100d34006fff0700520137003e4090000080fb0027
:100d440000017800f1c3b30050c0b30068ff07008e
:100d54004b0137003e4090000080fb00000178000a
:100d6400f1c3b3000040eb0061ff0700440137000a
:100d74003e4090000080fb0000017800f1c3b30006
:100d840010c0b3005aff07003d0137003e409000f9
:100d94000080fb0000017800f1c3b30020c0b30061
:100da40053ff0700360137003e4090000080fb00ef
:100db40000017800f1c3b30030c0b3004cff07005a
:100dc4002f0137003e4090000080fb0000017800b6
:100dd400f1c3b30040c0b30045ff0700280137004a
:100de4003e4090000080fb0000017800e1c3b300a6
:100df40040c0b3003eff0700210137003e40900091
:100e04000080fb0000017800e1c3b30030c0b300f0
:100e140037ff07001a0137003e4090000080fb00b6
:100e240000017800e1c3b30020c0b30030ff070025
:100e3400130137003e4090000080fb000001780061
:100e4400e1c3b30010c0b30029ff07000c01370051
:100e54003e4090000080fb0000017800e1c3b30035
:100e64000040eb0022ff0700050137003e409000e0
:100e74000080fb0000017800e1c3b30050c0b30060
:100e84001bff0700fe0037003e4090000080fb007f
:100e940000017800e1c3b30060c0b30014ff070091
:100ea400f70037003e4090000080fb00000178000e
:100eb400e1c3b30070c0b3000dff0700f0003700ba
:100ec4003e4090000080fb0000017800d1c3b300d5
:100ed40070c0b30006ff0700e90037003e409000f1
:100ee4000080fb0000017800d1c3b30060c0b300f0
:100ef400fffe0700e20037003e4090000080fb0048
:100f040000017800d1c3b30050c0b300f8fe07005d
:100f1400db0037003e4090000080fb0000017800b9
:100f2400d1c3b3000040eb00f1fe0700d40037004a
:100f34003e4090000080fb0000017800d1c3b30064
:100f440010c0b300eafe0700cd0037003e40900019
:100f54000080fb0000017800d1c3b30020c0b300bf
:100f6400e3fe0700c60037003e4090000080fb000f
:100f740000017800d1c3b30030c0b300dcfe070029
:100f8400bf0037003e4090000080fb000001780065
:100f9400d1c3b30040c0b300d5fe0700b80037008a
:100fa4003e4090000080fb0000017800c1c3b30004
:100fb40040c0b300cefe0700b10037003e409000b1
:100fc4000080fb0000017800c1c3b30030c0b3004f
:100fd400c7fe0700aa0037003e4090000080fb00d7
:100fe40000017800c1c3b30020c0b300c0fe0700f5
:100ff400a30037003e4090000080fb000001780011
:10100400c1c3b30010c0b300b9fe07009c00370091
:101014003e4090000080fb0000017800c1c3b30093
:101024000040eb00b2fe0700950037003e40900000
:101034000080fb0000017800c1c3b30050c0b300be
:10104400abfe07008e0037003e4090000080fb009e
:1010540000017800c1c3b30060c0b300a4fe070060
:10106400870037003e4090000080fb0000017800bc
:10107400c1c3b30070c0b3009dfe070080003700f9
:101084003e4090000080fb0000017800b1c3b30033
:1010940070c0b30096fe0700790037003e40900010
:1010a4000080fb0000017800b1c3b30060c0b3004e
:1010b4008ffe0700720037003e4090000080fb0066
:1010c40000017800b1c3b30050c0b30088fe07002c
:1010d4006b0037003e4090000080fb000001780068
:1010e400b1c3b3000040eb0081fe07006400370089
:1010f4003e4090000080fb0000017800b1c3b300c3
:1011040010c0b3007afe07005d0037003e40900037
:101114000080fb0000017800b1c3b30020c0b3001d
:1011240073fe0700560037003e4090000080fb002d
:1011340000017800b1c3b30030c0b3006cfe0700f7
:101144004f0037003e4090000080fb000001780013
:10115400b1c3b30040c0b30065fe070048003700c8
:101164003e4090000080fb0000017800a1c3b30062
:1011740040c0b3005efe0700410037003e409000cf
:101184000080fb0000017800a1c3b30030c0b300ad
:1011940057fe07003a0037003e4090000080fb00f5
:1011a40000017800a1c3b30020c0b30050fe0700c3
:1011b400330037003e4090000080fb0000017800bf
:1011c400a1c3b30010c0b30049fe07002c003700d0
:1011d4003e4090000080fb0000017800a1c3b300f2
:1011e4000040eb0042fe0700250037003e4090001f
:1011f4000080fb0000017800a1c3b30050c0b3001d
:101204003bfe07001e0037003e4090000080fb00bc
:1012140000017800a1c3b30060c0b30034fe07002e
:10122400170037003e4090000080fb00000178006a
:10123400a1c3b30070c0b3002dfe07001000370037
:101244003e4090000080fb0000017800e1c2b30042
:1012540070c0b30026fe0700090037003e4090002e
:101264000080fb0000017800e1c2b30060c0b3005d
:101274001ffe07000000000001003700000000000e
:101284000080fa00000006000400fa0020479800dd
:10129400ae40900020c6b30080cf5000020036005c
:1012a40030c6b300204798002e4090000080fb0019
:1012b4000000d100204798000040eb00004f780068
:1012c4000400370011c0b3001e40780048fe070038
:1012d4001e4fe8002e4090009e40780080cf5000c2
:1012e400f8ff3900040037008040eb001e4078000e
:1012f4003ffe07001e4fe80010c3b3009e40780075
:1013040080cf5000f8ff36000080fa00000006008d
:101314000200fa000040eb00004f780004003700a0
:101324008040eb001e40780031fe07001e4fe800ad
:1013340010c3b3009e40780080cf5000f8ff360001
:101344000080fa00000006000200fa00004f780056
:10135400114798001e407800e34f50000200360009
:1013640040c0b300004f78001e80fb00e10f500026
:101374001f003200e10f500003003c000000e000b9
:101384000600320021003700e20f50001100320045
:10139400e30f5000080032001c0037001e4090008c
:1013a4000080fb000001780021c3b30030c0b3000b
:1013b400cffd0700150037001e4090000080fb00a1
:1013c40000017800e1c2b30040c0b300c8fd0700cb
:1013d4000e0037001e4090000080fb0000017800e2
:1013e400e1c2b30030c0b300c1fd070007003700fd
:1013f4001e4090000080fb000001780021c3b30070
:1014040040c0b300bafd0700000000000080fa00ed
:10141400000006000400fa0020479800ae40900047
:1014240030c6b30080cf50000200360040c6b3007f
:10143400204798002e4090008080fb0090012000ff
:1014440000017800110009008280d800204798002c
:101454002e4090000004e00002003a0010c0b300e7
:10146400204798000040eb00004f7800040037004c
:1014740011c0b3001e407800b3ff07001e4fe80000
:101484002e4090009e40780080cf5000f8ff390035
:10149400040037008040eb001e407800aaff0700dc
:1014a4001e4fe8001e407800e34f5000f9ff36005d
:1014b4000080fa00000006000200fa000040eb0081
:1014c400004f7800040037008040eb001e40780095
:1014d4009dff07001e4fe8001e407800e34f5000b8
:1014e400f9ff36000080fa00000006000200fa004e
:1014f400004f7800114798001e407800e34f5000d9
:101504000200360040c0b300004f78001e80fb008c
:10151400e10f500011003200e10f500003003c00c5
:101524000000e0000600320021003700e20f500006
:1015340011003200e30f5000160032001c00370087
:101544001e4090000080fb0000017800e1c2b3005f
:1015540050c0b30066fd0700150037001e40900020
:101564000080fb0000017800e1c2b3000040eb0002
:101574005ffd07000e0037001e4090000080fb0056
:1015840000017800e1c2b30010c0b30058fd0700a9
:10159400070037001e4090000080fb000001780027
:1015a400f1c2b3000040eb0051fd07000000000051
:1015b4000080fa00000006000400fa0020479800aa
:1015c400ae40900030c6b30080cf50000200360019
:1015d40040c6b300204798002e4090008080fb0056
:1015e4009001200000017800110009008280d800d9
:1015f400204798002e4090000004e00002003a00ca
:1016040010c0b300204798000040eb00004f780062
:101614000400370011c0b3001e407800b3ff070078
:101624001e4fe8002e4090009e40780080cf50006e
:10163400f8ff3900040037008040eb001e407800ba
:10164400aaff07001e4fe8001e407800e34f500039
:10165400f9ff36000080fa00000006000200fa00dc
:101664000040eb00004f7800040037008040eb009e
:101674001e4078009dff07001e4fe8001e407800c2
:10168400e34f5000f9ff36000080fa000000060026
:101694000200fa00004f7800114798001e407800bd
:1016a4000004e0000200320010c0b300004f7800d4
:1016b4001e80fb000000e00009003200e10f500032
:1016c4000e003a001e4090000080fb0000017800ec
:1016d400e1c2b30020c0b30005fd070007003700d6
:1016e4001e4090000080fb000001780021c3b3007d
:1016f40020c0b300fefc0700000000000080fa00d8
:10170400000006000200fa00004f780030c6b30063
:101714009e40780080cf50000200360040c6b300df
:10172400004f78009e80fb00200320000001780019
:10173400110009008280d800004f78001e40780014
:101744000004e00002003a0010c0b300004f78002b
:101754001e407800e24f500007003a0011c0b30069
:101764000040eb00caff070011c0b30010c0b30073
:10177400c7ff07000300370011c0b3000040eb00af
:10178400c3ff07000080fa00000006000000fa0012
:101794008040eb000040eb00bdff07008040eb0001
:1017a40010c0b300baff07000080fa000000060072
:1017b4000200fa00004f78001e80fb006100600008
:1017c4000001780091c2b30070c0b300c8fc0700e8
:1017d4001e80fb00620060000001780091c2b3002b
:1017e40060c0b300c2fc07001e80fb006400600000
:1017f4000001780091c2b30050c0b300bcfc0700e4
:101804001e80fb00680060000001780091c2b300f4
:101814000040eb00b6fc07009e80fb0000022000a5
:101824000080600000017800f1c2b30070c0b30012
:10183400affc07009e80fb000004200000806000d5
:1018440000017800f1c2b30060c0b300a8fc070037
:101854001e80fb007000600000017800f1c2b3003c
:1018640050c0b300a2fc07000080fa00000006008c
:101874000200fa00004f78001e4078000004e000e7
:10188400050032000208200081c2b3000040eb00d2
:1018940097fc0700040037000001eb0081c2b3008d
:1018a4000040eb0092fc07000080fa0000000600f4
:1018b4000200fa00004f78001e80fb006100600007
:1018c40000017800c1c0b30070c0b30088fc0700f9
:1018d4001e80fb006200600000017800c1c0b300fc
:1018e40060c0b30082fc07001e80fb00640060003f
:1018f40000017800c1c0b30050c0b3007cfc0700f5
:101904001e80fb006800600000017800c1c0b300c5
:101914000040eb0076fc07009e80fb0000022000e4
:10192400008060000001780081c2b30070c0b30081
:101934006ffc07009e80fb00000420000080600014
:101944000001780081c2b30060c0b30068fc0700e6
:101954001e80fb00700060000001780081c2b300ab
:1019640050c0b30062fc07000080fa0000000600cb
:101974000200fa00004f78001e4078000004e000e6
:101984000500320002082000b1c0b3000040eb00a3
:1019940057fc0700040037000001eb00b1c0b3009e
:1019a4000040eb0052fc07000080fa000000060033
:1019b4000200fa00004f78001e80fb006100600006
:1019c40000017800a1c0b30070c0b30048fc070058
:1019d4001e80fb006200600000017800a1c0b3001b
:1019e40060c0b30042fc07001e80fb00640060007e
:1019f40000017800a1c0b30050c0b3003cfc070054
:101a04001e80fb006800600000017800a1c0b300e4
:101a14000040eb0036fc07009e80fb000002200023
:101a24000080600000017800b1c0b30070c0b30052
:101a34002ffc07009e80fb00000420000080600053
:101a440000017800b1c0b30060c0b30028fc0700f7
:101a54001e80fb007000600000017800b1c0b3007c
:101a640050c0b30022fc07000080fa00000006000a
:101a74000200fa00004f78001e4078000004e000e5
:101a8400050032000208200071c2b3000040eb00e0
:101a940017fc0700040037000001eb0071c2b3001b
:101aa4000040eb0012fc07000080fa000000060072
:101ab4000200fa00004f78001e80fb006100600005
:101ac4000001780061c2b30070c0b30008fc0700d5
:101ad4001e80fb00620060000001780061c2b30058
:101ae40060c0b30002fc07001e80fb0064006000bd
:101af4000001780061c2b30050c0b300fcfb0700d2
:101b04001e80fb00680060000001780061c2b30021
:101b14000040eb00f6fb07009e80fb000002200063
:101b2400008060000001780071c2b30070c0b3008f
:101b3400effb07009e80fb00000420000080600093
:101b44000001780071c2b30060c0b300e8fb070075
:101b54001e80fb00700060000001780071c2b300b9
:101b640050c0b300e2fb07000080fa00000006004a
:101b74000200fa00004f78001e80fb006100600044
:101b84000001780091c2b30010c0b300d8fb070075
:101b94001e80fb00620060000001780091c2b30067
:101ba40020c0b300d2fb07001e80fb00640060006d
:101bb4000001780091c2b30030c0b300ccfb070031
:101bc4001e80fb00680060000001780091c2b30031
:101bd40040c0b300c6fb07009e80fb00000220004b
:101be4000080600000017800f1c2b30010c0b300af
:101bf400bffb07009e80fb00000420000080600003
:101c040000017800f1c2b30020c0b300b8fb0700a4
:101c14001e80fb007000600000017800f1c2b30078
:101c240030c0b300b2fb07000080fa0000000600d9
:101c34000200fa00004f78001e4078000004e00023
:101c4400050032000208200081c2b30040c0b30086
:101c5400a7fb0700040037000001eb0081c2b300ba
:101c640040c0b300a2fb07000080fa000000060099
:101c74000200fa00004f78001e80fb006100600043
:101c840000017800c1c0b30010c0b30098fb070086
:101c94001e80fb006200600000017800c1c0b30038
:101ca40020c0b30092fb07001e80fb0064006000ac
:101cb40000017800c1c0b30030c0b3008cfb070042
:101cc4001e80fb006800600000017800c1c0b30002
:101cd40040c0b30086fb07009e80fb00000220008a
:101ce400008060000001780081c2b30010c0b3001e
:101cf4007ffb07009e80fb00000420000080600042
:101d04000001780081c2b30020c0b30078fb070053
:101d14001e80fb00700060000001780081c2b300e7
:101d240030c0b30072fb07000080fa000000060018
:101d34000200fa00004f78001e4078000004e00022
:101d44000500320002082000b1c0b30040c0b30057
:101d540067fb0700040037000001eb00b1c0b300cb
:101d640040c0b30062fb07000080fa0000000600d8
:101d74000200fa00004f78001e80fb006100600042
:101d840000017800a1c0b30010c0b30058fb0700e5
:101d94001e80fb006200600000017800a1c0b30057
:101da40020c0b30052fb07001e80fb0064006000eb
:101db40000017800a1c0b30030c0b3004cfb0700a1
:101dc4001e80fb006800600000017800a1c0b30021
:101dd40040c0b30046fb07009e80fb0000022000c9
:101de4000080600000017800b1c0b30010c0b300ef
:101df4003ffb07009e80fb00000420000080600081
:101e040000017800b1c0b30020c0b30038fb070064
:101e14001e80fb007000600000017800b1c0b300b8
:101e240030c0b30032fb07000080fa000000060057
:101e34000200fa00004f78001e4078000004e00021
:101e4400050032000208200071c2b30040c0b30094
:101e540027fb0700040037000001eb0071c2b30048
:101e640040c0b30022fb07000080fa000000060017
:101e74000200fa00004f78001e80fb006100600041
:101e84000001780061c2b30010c0b30018fb070062
:101e94001e80fb00620060000001780061c2b30094
:101ea40020c0b30012fb07001e80fb00640060002a
:101eb4000001780061c2b30030c0b3000cfb07001e
:101ec4001e80fb00680060000001780061c2b3005e
:101ed40040c0b30006fb07009e80fb000002200008
:101ee400008060000001780071c2b30010c0b3002c
:101ef400fffa07009e80fb000004200000806000c1
:101f04000001780071c2b30020c0b300f8fa0700e2
:101f14001e80fb00700060000001780071c2b300f5
:101f240030c0b300f2fa07000080fa000000060097
:101f34000200fa00004f78000080fa00000006005a
:101f44000200fa00004f78000001eb0021c2b30048
:101f540010c0b300e6fa07000001eb0031c2b30081
:101f640010c0b300e2fa07001e4078000004e0004d
:101f7400050032001200200011c3b30010c0b300ea
:101f8400dbfa0700040037000001eb0011c3b300c3
:101f940010c0b300d6fa07000080fa000000060063
:101fa4000200fa00004f78000001eb0011c3b300f7
:101fb40010c0b300cefa07000001eb0031c2b30039
:101fc40010c0b300cafa07001e4078000004e00005
:101fd400050032001200200021c2b30010c0b3007b
:101fe400c3fa0700040037000001eb0021c2b3006c
:101ff40010c0b300befa07000080fa00000006001b
:102004000200fa00004f78000001eb0011c3b30096
:1020140010c0b300b6fa07001e4078000004e000c8
:10202400090032001200200021c2b30010c0b30026
:10203400affa07001200200021c2b30010c0b300a1
:10204400abfa0700080037000001eb0031c2b3000f
:1020540010c0b300a6fa07000001eb0031c2b300c0
:1020640010c0b300a2fa07000080fa0000000600c6
:102074000200fa00004f78000001eb0011c3b30026
:1020840020c0b3009afa07000001eb0031c2b3008c
:1020940020c0b30096fa07000001eb0031c2b30080
:1020a40030c0b30092fa07001e4078000004e0003c
:1020b400050032001200200031c2b30040c0b3005a
:1020c4008bfa0700040037000001eb0031c2b300b3
:1020d40040c0b30086fa07000080fa000000060042
:1020e4000200fa00004f78000001eb0011c3b300b6
:1020f40020c0b3007efa07000001eb0031c2b30038
:1021040030c0b3007afa07000001eb0031c2b3001b
:1021140040c0b30076fa07001e4078000004e000d7
:10212400050032001200200021c2b30020c0b30019
:102134006ffa0700040037000001eb0021c2b3006e
:1021440020c0b3006afa07000080fa00000006000d
:102154000200fa00004f78000001eb0011c3b30045
:1021640020c0b30062fa07000001eb0031c2b300e3
:1021740040c0b3005efa07001e4078000004e0008f
:10218400090032001200200021c2b30020c0b300b5
:1021940057fa07001200200031c2b30030c0b30068
:1021a40053fa0700080037000001eb0021c2b30016
:1021b40020c0b3004efa07000001eb0031c2b300a7
:1021c40030c0b3004afa07000080fa00000006009d
:1021d4000200fa00004f78000001eb0021c2b300b6
:1021e40020c0b30042fa07000001eb0031c2b30083
:1021f40030c0b3003efa07000001eb0031c2b30067
:1022040040c0b3003afa07001e4078000004e00022
:10221400050032001200200011c3b30020c0b30037
:1022240033fa0700040037000001eb0011c3b300c8
:1022340020c0b3002efa07000080fa000000060058
:102244000200fa00000f78009e00780061806000b0
:102254000001780011c3b30070c0b30024fa070072
:102264009e007800628060000001780031c2b300f3
:1022740070c0b3001efa07009e00780064806000fe
:102284000001780031c2b30050c0b30018fa07004f
:102294009e007800688060000001780031c2b300bd
:1022a4000040eb0012fa07009e0078007080600086
:1022b4000001780011c3b3000040eb000cfa0700e2
:1022c400000220001e0060000001780011c3b3006a
:1022d40060c0b30006fa0700000420001e0060007e
:1022e4000001780011c3b30050c0b30000fa070026
:1022f400000820001e0060000001780031c2b30015
:1023040060c0b300faf90700001020001e0060004e
:102314000001780021c2b30060c0b300f4f90700e3
:10232400002020001e0060000001780021c2b300dc
:1023340070c0b300eef90700004020001e006000ea
:102344000001780021c2b30050c0b300e8f90700cf
:10235400008020001e0060000001780021c2b3004c
:102364000040eb00e2f907000080fa0000000600dc
:102374000200fa00000f78009e007800618060007f
:102384000001780041c0b30070c0b300d8f9070061
:102394009e007800628060000001780021c1b300d3
:1023a40070c0b300d2f907009e007800648060001a
:1023b4000001780021c1b30050c0b300ccf907007c
:1023c4009e007800688060000001780021c1b3009d
:1023d4000040eb00c6f907009e00780070806000a2
:1023e4000001780041c0b3000040eb00c0f90700d1
:1023f400000220001e0060000001780041c0b3000c
:1024040060c0b300baf90700000420001e00600099
:102414000001780041c0b30050c0b300b4f9070014
:10242400000820001e0060000001780021c1b300f4
:1024340060c0b300aef90700001020001e00600069
:102444000001780071c3b30060c0b300a8f90700ad
:10245400002020001e0060000001780071c3b3005a
:1024640070c0b300a2f90700004020001e00600005
:102474000001780071c3b30050c0b3009cf9070099
:10248400008020001e0060000001780071c3b300ca
:102494000040eb0096f907000080fa0000000600f7
:1024a4000200fa00000f78009e007800618060004e
:1024b4000001780031c1b30070c0b3008cf907008b
:1024c4009e007800628060000001780091c0b30033
:1024d40070c0b30086f907009e0078006480600035
:1024e4000001780091c0b30050c0b30080f9070028
:1024f4009e007800688060000001780091c0b300fd
:102504000040eb007af907009e00780070806000bc
:102514000001780031c1b3000040eb0074f90700fa
:10252400000220001e0060000001780031c1b300e9
:1025340060c0b3006ef90700000420001e006000b4
:102544000001780031c1b30050c0b30068f907003e
:10255400000820001e0060000001780091c0b30054
:1025640060c0b30062f90700001020001e00600084
:102574000001780081c0b30060c0b3005cf90700bb
:10258400002020001e0060000001780081c0b3001c
:1025940070c0b30056f90700004020001e00600020
:1025a4000001780081c0b30050c0b30050f90700a7
:1025b400008020001e0060000001780081c0b3008c
:1025c4000040eb004af907000080fa000000060012
:1025d4000200fa00004f78001e80fb0061006000da
:1025e4000001780071c3b30010c0b30040f90700c4
:1025f4001e80fb00620060000001780071c3b3001c
:1026040020c0b3003af907001e80fb00640060009c
:102614000001780071c3b30030c0b30034f907007f
:102624001e80fb00680060000001780071c3b300e5
:1026340040c0b3002ef907009e80fb00000220007a
:10264400008060000001780041c0b30010c0b300f6
:1026540027f907009e80fb00000420000080600032
:102664000001780041c0b30020c0b30020f9070086
:102674001e80fb00700060000001780041c0b300c0
:1026840030c0b3001af907000080fa000000060009
:102694000200fa00004f78001e80fb006100600019
:1026a4000001780031c1b30010c0b30010f9070075
:1026b4001e80fb00620060000001780031c1b3009d
:1026c40020c0b3000af907001e80fb00640060000c
:1026d4000001780031c1b30030c0b30004f9070031
:1026e4001e80fb00680060000001780031c1b30067
:1026f40040c0b300fef807009e80fb0000022000eb
:10270400008060000001780021c1b30010c0b30054
:10271400f7f807009e80fb000004200000806000a2
:102724000001780021c1b30020c0b300f0f8070015
:102734001e80fb00700060000001780021c1b3001e
:1027440030c0b300eaf807000080fa000000060079
:102754000200fa00004f78001e80fb006100600058
:102764000001780091c0b30010c0b300e0f8070086
:102774001e80fb00620060000001780091c0b3007d
:1027840020c0b300daf807001e80fb00640060007c
:102794000001780091c0b30030c0b300d4f8070042
:1027a4001e80fb00680060000001780091c0b30047
:1027b40040c0b300cef807009e80fb00000220005a
:1027c400008060000001780081c0b30010c0b30035
:1027d400c7f807009e80fb00000420000080600012
:1027e4000001780081c0b30020c0b300c0f8070026
:1027f4001e80fb00700060000001780081c0b300ff
:1028040030c0b300baf807000080fa0000000600e8
:102814000200fa00004f78001e4078000004e00037
:10282400050032000208200021c1b30040c0b300fb
:10283400aff80700040037000001eb0021c1b3002a
:1028440040c0b300aaf807000080fa0000000600a8
:102854000200fa00004f78001e4078000004e000f7
:10286400050032000208200041c0b30040c0b3009c
:102874009ff80700040037000001eb0041c0b300db
:1028840040c0b3009af807000080fa000000060078
:102894000200fa00004f78001e4078000004e000b7
:1028a400050032001200200031c2b30020c0b30082
:1028b4008ff80700040037000001eb0031c2b300b9
:1028c40020c0b3008af807000080fa000000060068
:1028d4000200fa00004f78001e4078000004e00077
:1028e400050032001200200081c0b30040c0b300d4
:1028f4007ff80700040037000001eb0081c0b3003b
:1029040040c0b3007af807000080fa000000060017
:102914000200fa00004f7800114798001e80fb0067
:102924000000e00003003200e10f50000400320018
:10293400060037001e409000b5ff07000300370073
:102944001e409000c2ff0700000000000080fa0053
:10295400000006000000fa000040eb00acff070096
:102964000040eb00baff07000080fa0000000600f8
:102974000400fa00204798000040eb00004f780064
:10298400070037001e80fb00e13f2800e14078008b
:102994002e40900080cf5000060032001e4fe80009
:1029a400a0c2b3009e40780080cf5000f5ff3600ef
:1029b4000100370000000000a0c2b3009e40780070
:1029c40080cf500004003e001e80fb00914228008e
:1029d40061417800124798001e4090000080fa0080
:1029e400000006000600fa00404798000040eb0093
:1029f400004f7800070037001e80fb003145280097
:102a0400e14078004e40900080cf50000600320034
:102a14001e4fe800e0c3b3009e40780080cf500012
:102a2400f5ff36000100370000000000e0c3b300ea
:102a34009e40780080cf500006003e001e80fb00c0
:102a44008000400020492800008040009000780069
:102a5400110798001e0090000080fa000000060094
:102a64000000fa000040eb0081fb07000040eb008f
:102a7400bffb07000040eb00fdfb07000040eb003c
:102a84006bfc07000040eb00a9fc07000040eb00d2
:102a9400e7fc07000080fa00000006000200fa00cc
:102aa400004f7800114798001e80fb00e20f500091
:102ab40014003200e20f500005003c000000e0006a
:102ac4000a003200e10f50000b00320019003700f9
:102ad400e50f500011003200e60f500012003200e2
:102ae400e40f50000a003200120037001e4090002c
:102af4005ffb07000f0037001e4090009cfb07009f
:102b04000c0037001e409000d9fb07000900370075
:102b14001e40900046fc0700060037001e4090004f
:102b240083fc0700030037001e409000c0fc070030
:102b3400000000000080fa00000006000400fa0013
:102b440020479800314798003e40900088ff0700d6
:102b5400004f78002e4090000080fb00e30f5000ef
:102b64001b003200e30f500007003c00e10f50004f
:102b740011003200e10f500012003c000000e000a0
:102b84000a00320021003700e50f50001600320021
:102b9400e50f500011003500e60f5000150032001b
:102ba400e70f500016003200180037001e4078006e
:102bb400fffa0700150037001e4078003cfb0700b1
:102bc400120037001e40780079fb07000f00370021
:102bd4001e407800b6fb07000c0037001e4078004a
:102be400e3fb0700090037001e40780020fc0700c3
:102bf400060037001e4078005dfc07000300370024
:102c04001e4078009afc0700000000000080fa00d3
:102c1400000006000400fa0020479800314798009d
:102c24003e40900052ff0700004f78002e40900075
:102c34000080fb00e10f500007003200e20f50005b
:102c4400080032000000e0000a003a001e4078004c
:102c54005ffe0700080037001e4078008cfe070066
:102c6400050037001e407800b9fe07000000000090
:102c740001003700000000000080fa000000060098
:102c84000400fa0020479800314798003e40900025
:102c940054ff0700000f78002e4090000080fb00d6
:102ca400e10f500007003200e20f5000080032002c
:102cb4000000e0000a003a001e00780060fd0700f2
:102cc400080037001e007800a9fd07000500370042
:102cd4001e007800f2fd070000000000010037002c
:102ce400000000000080fa00000006000400fa0062
:102cf400100798000040eb00004f780009003700ef
:102d04001e00900010407800804078001e4078003b
:102d1400c0ff07001e0090000000e80010079800a4
:102d24001e4fe8001e009000104078000004e000f0
:102d3400030032001e407800e24f5000f0ff3600de
:102d44000080fa00000006000400fa001007980052
:102d54000040eb00004f7800090037001e0090008f
:102d640010407800804078001e407800c4ff0700bf
:102d74001e0090000000e800100798001e4fe800b5
:102d84001e009000104078000004e00003003200b0
:102d94001e407800e24f5000f0ff36000080fa0039
:102da400000006000600fa0020479800314798000a
:102db400424798002e409000e14f50000c003e0026
:102dc4003e409000e34f50000b003e002e40900028
:102dd40000404000804078003e40900000cf40001a
:102de400ce4090001e40780054ff070003003700d7
:102df4000000000001003700000000000080fa001d
:102e0400000006000400fa00100798000040eb00e0
:102e1400004f7800090037001e0090001040780031
:102e2400804078001e40780044ff07001e00900098
:102e34000000e800100798001e4fe8001e009000f4
:102e4400104078000004e000030032001e407800c7
:102e5400e34f5000f0ff36000080fa000000060047
:102e64000400fa00100798000040eb00004f7800bf
:102e7400090037001e009000904078001e41780041
:102e8400644041002dff07001e0090000000e80090
:102e9400100798001e4fe8001e00900010407800b4
:102ea4000004e000030032001e407800e34f5000ad
:102eb400f0ff36000080fa00000006000400fa006b
:102ec400100798000040eb00004f7800090037001d
:102ed4001e00900010407800804078001e4078006a
:102ee40016ff07001e0090000000e800100798007d
:102ef4001e4fe8001e009000104078000004e0001f
:102f0400030032001e407800e74f5000f0ff360007
:102f14000080fa00000006000000fa0090ea800039
:102f2400802c8800a0ea8000902c8800b0ea800001
:102f3400a02c8800c0ea8000b02c8800d0ea800071
:102f4400c02c8800e0ea8000d02c8800f0ea8000e1
:102f5400e02c880000eb8000f02c880010eb80004f
:102f6400002d880020eb8000102d880030eb8000bd
:102f7400202d880040eb8000302d880050eb80002d
:102f8400402d880060eb8000502d880070eb80009d
:102f9400602d880080eb8000702d880090eb80000d
:102fa400802d8800a0eb8000902d8800b0eb80007d
:102fb400a02d8800c0eb8000b02d8800d0eb8000ed
:102fc400c02d8800e0eb8000d02d8800f0eb80005d
:102fd400e02d880000ec8000f02d880010ec8000cb
:102fe400002e880020ec8000102e880030ec800039
:102ff400202e880040ec8000302e880050ec8000a9
:10300400402e880060ec8000502e880070ec800018
:10301400602e880080ec8000702e88000080fa000a
:10302400000006000400fa00100798000040eb00be
:10303400004f7800070037001e80fb00800040002e
:1030440020d52100008040009e00900001087800f7
:103054001e4fe8001e407800ff4f5000f6ff360078
:103064000080fa00000006000000fa00212c800015
:1030740070fe2f0000806000202c880085a5a90028
:1030840084c5a90084a5a900202c80007000b30089
:10309400202c880081e5a800012c800070fc2f0002
:1030a400808060008002200001007000002c8800f5
:1030b400012c8000c0ff2f00008060000010a000e1
:1030c400002c88008045a80086c5a900312c80000a
:1030d40000ff2f00008060003000b300302c880017
:1030e40083e5a800112c8000f07f2c008080600014
:1030f4000080210001007000102c88008305a900c5
:103104008325a9008345a900112c8000000c200010
:1031140001007000102c8800112c80000003200096
:1031240001007000102c8800112c800080ff2f00fb
:1031340000806000102c880000f12100402c8800e1
:10314400c0002000502c8800c03c2c00602c88005b
:1031540060c82f00702c88000080eb00b1ff0700ce
:103164006dff07000080fa00000006000000fa006e
:103174000080fa00000006000000fa000080fa0057
:10318400000006000000fa00801780000040a10043
:1031940080178800a01780000040a000a0178800b6
:1031a4000080fa00000006000000fa00aeff0700ed
:1031b40085e5a8004e170700651707000080fa0090
:1031c400000006001000fa0020079800310798005c
:1031d4004207980053079800640798007507980001
:1031e40060022000bb120700000f78001e00780068
:1031f4000000e0000e0032004e009000000040008d
:10320400b4120700800078001e007800410898007e
:103214001e007800400890000000e00004003a001e
:103224001e0078001f1307000000eb00000f780059
:103234001e0078000000e000120032004e009000f2
:103244008000eb000001eb00821f78009e037800f1
:103254007e039000ee0290005e0290000001be002a
:10326400be0090002e0090000b0007008f87e9003d
:103274001e0078006b000700100020001007980063
:10328400020037000080eb00100798001e00900039
:103294000080fa00000006001400fa0020079800dd
:1032a4003107980042079800530798006407980074
:1032b40075079800060f9800170f98004e009000ad
:1032c40000004000800078001e0890004008900034
:1032d40001017800510a200040f507001e08900003
:1032e400c0089000110798001e089000c0089000c4
:1032f4004e019000f0ff2700000041000000400054
:10330400808040001e089000710898000000eb00c7
:10331400000f78000d0037003e0090001e004000b2
:10332400904078001e0890001e0040007a00400083
:10333400014878003e0090001e00400010407800d4
:103344000004e000050032001e0fe8001e007800b3
:10335400e30f5000f0ff36000100370000000000ca
:103364001e0890008040eb00515898007e009000a9
:10337400e30f500002003600300020007007980070
:103384001e089000fe009000310898001e0890006e
:103394000080e8008f1407001e0890006c004000b5
:1033a4008c1407001e0890009e08900041009800ad
:1033b4007e009000e40010001e0890006100980058
:1033c4001e0890009e089000110898001e099000a5
:1033d4006000b80000119800111198001e089000b8
:1033e4008040eb00416098006e019000ae009000b8
:1033f4001e009000ab130700800078001e089000a8
:10340400010878000e0890000000e000030032007c
:103414000e0890009e089000010878000080fa00d1
:10342400000006000200fa00000f780019140700db
:10343400204180000000e80020418800f040800026
:103444000000e00007003a009e007800f140880088
:1034540020418000e10f50000d003a00c203070034
:103464000b003700504180000000e00008003a00e3
:10347400f0408000b00890001e00780030089000f2
:10348400808f500002003e009e007800f1408800ca
:10349400904180000000e800904188001e00780000
:1034a400b008900040418000808f50000300360037
:1034b4001e00780030089000404188001e81e8001a
:1034c4001e007800300890006a00b900800078007f
:1034d40020cc2100008040008200780044140700c2
:1034e400f9130700504180000000e0000900320099
:1034f400f0408000b00890001e0078003008900072
:10350400808f500003003100da4702000000000001
:10351400000000000080fa00000006000c00fa0021
:1035240040079800510798000000eb00000f780056
:103534008701070031418000110798004e00900078
:10354400900078005e009000008040002007980002
:103554004e009000900078001e009000808f500074
:103564000c0036004e009000900078002e00900071
:10357400808f500012003600ae0090001e009000b4
:10358400808f50000e00360010002000000f7800dd
:103594000b0037004e009000900078002e00900041
:1035a400808f500004003e00ae0090001e0090008a
:1035b400808f50000200360010002000000f7800b9
:1035c4004e009000ae009000010878001e007800c4
:1035d4000000e00005003200ae0090001e009000e4
:1035e400008050008000eb00860507005e010700a4
:1035f400300798003e0090000000e00003003a000d
:10360400da47020000000000000000000080fa0019
:10361400000006000400fa00100798000000eb0008
:10362400000f78001e0090000000e0000600320049
:10363400470107008000eb001e00900071050700a1
:1036440049010700000f78001e0078000000e00028
:1036540003003a00da470200000000000000000006
:103664000080fa00000006000c00fa0040079800f1
:10367400510798000000eb00000f78005e009000f6
:10368400e30f50000200360030002000500798007d
:10369400801307004e0090000000e00002003a0092
:1036a400f0408000010037004e00900010079800a1
:1036b4001e009000b008900021079800ae00900012
:1036c4005e009000808f500048003200de009000c1
:1036d4002e009000808f50000c003600f0408000d7
:1036e4009e009000808f50000e003200f040800059
:1036f400b00890005e009000808f500009003e00ea
:1037040010002000000f780006003700f040800011
:103714009e009000808f500002003a0010002000ac
:10372400000f78001e009000b00890003107980048
:103734001e009000de009000310898001e009000ea
:10374400600090000000e000040035005e0090007e
:10375400e40010001e009000610098001e0090001c
:10376400500190003e0090006a00b900800078008b
:1037740020cc210000804000800f510015003a0049
:103784001e0090000080e800e91307001e0090006e
:10379400b008900040418000808f50000300360044
:1037a4001e00900030089000404188001e009000e8
:1037b4000081e8001e009000300890006a00b90003
:1037c4008000780020cc2100008040008200780036
:1037d400871307001e0078000000e0000300320099
:1037e400da47020000000000000000003613070062
:1037f4000080fa00000006000400fa001007980098
:10380400241307001e0090000000e00002003a00ac
:10381400f0408000010037001e009000000f780087
:103824001e80e800c21307001e00780020089000e4
:103834000000e000030032009e0078006c8040002d
:10384400bb1307001e80e8008000780080d02100b0
:10385400671307001c130700504180000000e000bc
:10386400030032000b130700de02070016130700e3
:10387400f04080009e007800808f50000e003a00d7
:10388400504180000000e00004003200da470200ea
:1038940000000000000000000700370041e880003d
:1038a40020418000808f500002003a001e28ef0063
:1038b40001003700910107000080fa0000000600b3
:1038c4000600fa00200798000000eb00000f7800c3
:1038d400ae009000110798001e009000d0009000e8
:1038e40080d02100808f50000b003a001e00900011
:1038f400a0089000e0cf2100808f50000600320025
:103904001e009000200890000000e00002003a0031
:1039140010002000000f78001e0078000080fa00dc
:10392400000006000400fa00100798009e009000b2
:10393400010f78001e0078000000e000260032002d
:10394400f04080009e007800808f500022003200fa
:10395400d01207001e007800d9ff07000000e00025
:103964001c0032001e80e800711307001e0078005e
:10397400b008900040418000808f50000300360062
:103984001e00780030089000404188001e81e80045
:103994001e007800300890006a00b90080007800aa
:1039a40020cc210000804000820078001013070022
:1039b4001e007800b0089000f040800030089000ad
:1039c400808f500003003900da4702000000000035
:1039d40000000000bc1207000080fa00000006008e
:1039e4000800fa00300798000000eb00000f780090
:1039f400be009000110798000000eb00200798001b
:103a04001e009000aeff07000000e0002600320018
:103a1400c04180000000e0001e003a001e0090003b
:103a2400b0089000f040800030089000808f500073
:103a34000200390010002000000f78001e009000e2
:103a44000080e8003a1307001e009000b0089000c0
:103a540040418000808f5000030036001e0090001b
:103a640030089000404188001e0090000081e8006a
:103a74001e009000300890006a00b90080007800b1
:103a840020cc21000080400082007800d81207007a
:103a9400050037001e0090006c0040008000780094
:103aa400e0cf2100d21207001e0078000080fa0047
:103ab400000006000200fa00658320000002eb000b
:103ac4008001eb0032072000e1522800001a220096
:103ad400bcfd0700000f78001e007800e10f5000c5
:103ae4000d003a0011028000f0f12f000080600008
:103af4000050a00010028800000000000000000038
:103b04000080eb00a0418800100020005041880094
:103b14002628ef00301207000080fa00000006009b
:103b24000000fa0011028000f0f12f000080600014
:103b34000050a000100288000000000000000000f7
:103b44002a28ef003c1207000080fa00000006005b
:103b54000000fa00c04180000000e800c041880075
:103b64000080fa00000006000600fa000000eb00e6
:103b7400000f78000000eb001007980045120700c2
:103b8400c04180000000e900c0418800c0418000bd
:103b94000000e00045003a00204180000000e00001
:103ba400420032002100370020e8800030009000fd
:103bb400000f78009e0078006c804000dc12070043
:103bc4001e80e800da1207001e007800b00890009a
:103bd40040418000808f5000030036001e007800b2
:103be40030089000404188001e81e8001e007800e3
:103bf400300890006a00b9008000780020cc2100d1
:103c04000080400082007800791207001e007800ce
:103c1400b0089000f040800030089000808f500081
:103c2400020039001000200070418800f0e7800095
:103c34000000e000dcff3a001e0078000000e00015
:103c440001003200e701070061418000210798006c
:103c54002e0090000000e0000c0032003800070045
:103c64000000e000020032001000200070418800d3
:103c74002e0090000000e900200798002e0090001c
:103c84000000e000f5ff3a002c28ef0070418000ae
:103c94000000e0000500320010002000100798002a
:103ca400da470200000000000000000006120700ce
:103cb4001e0090000080fa00000006000200fa00d6
:103cc400f411070031418000010f7800fe11070054
:103cd4001e0078000080fa00000006000400fa00cc
:103ce4000000eb00000f78003141800011079800bc
:103cf4001e0090000080fa00000006000000fa0098
:103d0400204180000080fa00000006000400fa0050
:103d1400100798001e0090000000e00002003a0026
:103d2400f0408000010037001e009000000f780072
:103d34009e0078007a8040000080fa0000000600af
:103d44000a00fa000000eb00000f7800c041800078
:103d54000000e0005e003a00304180000000e8000e
:103d6400100798009e009000314188001e009000ca
:103d74000000e0000a003a00014180002107980099
:103d84001041800000418800ae009000114188007d
:103d9400804180000000e800804188009101070014
:103da400a04180009e009000808f50003c003900ac
:103db400010037000000000000418000100078007e
:103dc4000000e00003003a000080eb00a0418800fe
:103dd4003300370000418000300090003000900034
:103de400300798003e009000900090004107980032
:103df4009e0090004e009000808f50000300310020
:103e0400ce009000a1418800250037003e009000bc
:103e14000080e800461207003e0090002008900051
:103e24000000e000030032003e0090006c004000ff
:103e34003f1207003e009000b0089000404180000f
:103e4400808f5000030036003e0090003008900040
:103e5400404188003e0090000081e8003e00900050
:103e6400300890006a00b9008000780020cc21005e
:103e74000080400082007800dd1107003e009000c1
:103e8400b0089000f040800030089000808f50000f
:103e9400c8ff390010002000000f7800c6ff37006b
:103ea400f0408000300890006a00b900800078007b
:103eb40020cc21000080400010007800e10f500069
:103ec4000600360010002000000f780003003700c1
:103ed400604180000000e80060418800704180007b
:103ee4000000e0000200320010002000000f780003
:103ef4001e0078000080fa00000006000600fa00a8
:103f0400c04180000000e0000300320010002000e7
:103f140070418800390037002e28ef00f0408000ff
:103f240070089000100798001e0090007400500064
:103f34001007980042012000315328001e00900011
:103f440018f207000000e00004003200f040800096
:103f5400fa004000f0408000d71207004141800081
:103f6400010f7800010037001e0fe9001e007800e1
:103f74006a00b9008000780020cc21000080400055
:103f8400100078000000e000f7ff32001e00780007
:103f94006a00b9008000780020cc21000080400035
:103fa400200798002e0090001000900090009000d0
:103fb4002e009000110098002e00900090009000b8
:103fc4002e00900064004000808f500005003a00ed
:103fd4002e00900010009000900090002e009000a1
:103fe400110098002e009000100090003000900006
:103ff400f04088009e007800414188000080fa006b
:10400400000006000400fa00000f78001107980071
:10401400f04080006c004000800078001e007800b2
:1040240091110700110020001e009000f502070006
:104034000080fa00000006000600fa00000f780075
:104044001107980022079800f04080001e0190009c
:10405400010028008280700061009800f040800018
:104064006c004000800078001e007800601107009a
:10407400110020002e009000e20207000080fa00e8
:10408400000006000600fa00200798002e009000a9
:104094003000900030009000100798001e0090003f
:1040a4006c004000a2110700c04180000000e00045
:1040b40016003a001e0090000080e8009c110700e2
:1040c4001e009000b008900040418000808f500096
:1040d400030036001e009000300890004041880024
:1040e4001e0090000081e8001e009000300890003f
:1040f4006a00b9008000780020cc210000804000d4
:10410400820078003a110700050037001e00900075
:104114006c00400080007800e0cf210034110700db
:104124001e009000b0089000f0408000300890001d
:10413400808f50000500360010002000000f78002a
:104144001000200070418800020037000000eb00de
:10415400000f78001e0078000080fa0000000600be
:104164000800fa002007980031079800be0090006c
:1041740000002800810070002e00900001087800e3
:104184002e00900030009000100798002e00900040
:10419400671107001e0090000080e800641107000a
:1041a4001e009000b008900040418000808f5000b5
:1041b400030036001e009000300890004041880043
:1041c4001e0090000081e8001e009000300890005e
:1041d4006a00b9008000780020cc210000804000f3
:1041e40082007800021107001e009000b0089000c1
:1041f400f040800030089000808f500005003600a9
:1042040010002000000f780010002000704188008a
:10421400020037000000eb00000f78001e00780059
:104224000080fa00000006000200fa00000f780087
:10423400814180001e00780001087800314180002f
:104244001e007800110098000080fa0000000600ab
:104254000800fa0020079800310798008d10070025
:1042640031418000110798003e0090001000780052
:10427400e10f400003003a000000eb00000f78005b
:10428400250037002e0090009000780080418000c7
:10429400808f5000080032002e00900090009000a3
:1042a4001e009000808f500003003e00100020008c
:1042b400000f7800180037002e00900010009000c6
:1042c4009e009000808050003e0090001000780016
:1042d400808f50000e0031003e0090009000780066
:1042e4002e009000100190001e009000000051006c
:1042f400808040003e009000010878002e0090006d
:10430400c9ff07000000eb00000f7800020037002f
:1043140010002000000f78006b1007001e007800ca
:104324000080fa00000006000000fa0010002000df
:10433400704188000080fa00000006000200fa00c4
:10434400000f78002400070010e68000e10f500001
:1043540003003600da4702000000000000000000fd
:10436400da110700f7ff37000200fa000000eb0043
:10437400000f7800070037001e0078006a00b900bb
:104384008000780020cc21000080400078100700d5
:104394001e0fe8001e007800e30f5000f6ff360001
:1043a400a0ce21007210070040cf2100701007003a
:1043b400e0cf21006e10070080d021006c100700b0
:1043c400a0ce21000041880040cf21001041880088
:1043d4000080fa00000006000000fa000080fa00e5
:1043e400000006000200fa0000418000100078007e
:1043f4000000e00003003a000080eb00a0418800c8
:104404000700370000418000300090003000900029
:10441400000f78001e00780010009000a041880072
:104424000080fa00000006000200fa00f04080005c
:10443400e0009000010f7800f0408000f14080001f
:10444400b1089000e4801000610098001e0078001c
:104454000080fa00000006000800fa002007980017
:10446400310798000b100700f04080009010900076
:1044740000109000e00f5000e08f58000c003a004c
:10448400f040800011c0b300416098003e009000ed
:104494000000e00006003200110020003e00900001
:1044a400d8010700da470200000000000000000005
:1044b40005100700f70f0700f0408000001190007e
:1044c40090119000028fbe001e00be00e00f50004d
:1044d400e08f58000f0032002e0090000000e00032
:1044e40005003200f24080006000b800001198001e
:1044f4001111980007003700f24080000082eb00a1
:104504008082eb003e004200ae804a000011980019
:1045140011119800f04080008040eb004160980049
:10452400e90f07001e00be000080fa00000006002c
:104534000e00fa001007980021079800320798002f
:10454400430798005407980065079800d10f0700a7
:10455400f040800040609000e24f500022003200a2
:10456400f440800004119000941190001e0090000b
:10457400ae0090000080ea008180ea0082027800a8
:1045840003017800800178000100780083826200d2
:10459400000061008000eb00c000dd00000020008e
:1045a4000001be006128b800000171008181710022
:1045b4000212980013129800f040800011c0b3005a
:1045c400416098006e0090000000e0000600320098
:1045d400110020006e0090008a010700da470200f3
:1045e4000000000000000000b70f0700a90f07003b
:1045f4005e0090000000e00005003200f040800002
:1046040090109000001090005e0190000089be00a0
:10461400f040800040609000e14f500003003a00f9
:104624000000eb00000f780018003700f440800011
:1046340004119000941190003e009000ce00900070
:104644000080ea008180ea00820278000301780099
:10465400800178000100780083826200000061001c
:104664008000eb00c000dd00000020000001be005f
:104674006128b80000017100818171000212980064
:104684001312980010002000000f7800f040800002
:104694008040eb00416098008b0f07001e007800fb
:1046a4000080fa00000006001000fa0030079800ad
:1046b4004207980053079800610798007407980010
:1046c40010002000000f7800be0090001107980031
:1046d400700f07007e0090000000e000050032002b
:1046e4001e00900090109000001090007e01900039
:1046f4000089be001e00900040619000424798006f
:104704001e00900021c0b300416098006e0090002c
:10471400e20f500017003200e20f500005003e0087
:104724000000e0002e003200e10f500006003200cd
:104734002c003700e30f500017003200e40f500044
:104744001b003200270037001e009000001190006b
:10475400901190004e009000de0090000000710067
:10476400818071001e0190000011980011119800c1
:104774001c0037001e009000901090000010900064
:1047840061004000e08048001e0190000011980084
:1047940011119800130037001e0090004e01900084
:1047a400de01900002109800131098000d003700ed
:1047b4004e409000e24f5000060032001e00900070
:1047c4004e019000de019000021098001310980032
:1047d400040037000000eb00000f780001003700f0
:1047e400000000004e409000e14f50001e003a00cf
:1047f4001e0090000080e800cd0f07001e0090000e
:10480400b008900040418000808f500003003600c3
:104814001e00900030089000404188001e00900067
:104824000081e8001e009000300890006a00b90082
:104834008000780020cc21000080400082007800b5
:104844006b0f07001e009000b0089000f04080003d
:1048540030089000808f500003003600da470200d1
:104864000000000000000000170f07001e00780081
:104874000080fa00000006001400fa0040079800c7
:10488400520798006307980071079800040f980076
:10489400150f980010002000000f7800ce00900043
:1048a400110798000000eb00200798000e08900004
:1048b4000000e000050032001e00900090109000ff
:1048c400001090000e0990000089be001e009000a8
:1048d40040619000624798001e00900021c0b30020
:1048e400416098007e009000e20f500017003200f3
:1048f400e20f500005003e000000e0002e003200f0
:10490400e10f5000060032002c003700e30f500086
:1049140017003200e40f50001b003200270037005c
:104924001e00900000119000901190005e00900015
:10493400ee00900000007100818071001e01900063
:1049440000119800111198001c0037001e009000ff
:10495400901090000010900061004000e08048003a
:104964001e019000001198001111980013003700e7
:104974001e0090005e019000ee019000021098006d
:10498400131098000d0037006e409000e24f500065
:10499400060032001e0090005e019000ee019000bf
:1049a4000210980013109800040037000000eb0078
:1049b400000f780001003700000000006e409000f6
:1049c400e14f50002d003a00c04180000000e0009b
:1049d40016003a001e0090000080e800540f070003
:1049e4001e009000b008900040418000808f50006d
:1049f400030036001e0090003008900040418800fb
:104a04001e0090000081e8001e0090003008900015
:104a14006a00b9008000780020cc210000804000aa
:104a240082007800f20e0700050037001e00900097
:104a34006c00400080007800e0cf2100ec0e0700fd
:104a44001e009000b0089000f040800030089000f4
:104a5400808f5000090036001e0890000000e0001e
:104a6400040032001e0890001100200001087800a4
:104a74000200370010002000704188001e007800fa
:104a84000080fa00000006000a00fa0030079800cf
:104a940041079800be009000010f78000000eb0071
:104aa400100798001e007800c060900041479800ed
:104ab4001e00780021c0b300416098001e007800f9
:104ac400901090000010900061004000e0804800c9
:104ad4001e01780000119800111198004e409000ba
:104ae400e14f50002b003a00c04180000000e0007c
:104af40014003a001e80e8000d0f07001e00780025
:104b0400b008900040418000808f500003003600c0
:104b14001e00780030089000404188001e81e800a3
:104b24001e007800300890006a00b9008000780008
:104b340020cc21000080400082007800ac0e0700e9
:104b4400050037009e0078006c80400080007800eb
:104b5400e0cf2100a60e07001e007800b0089000e8
:104b6400f040800030089000808f5000090036002b
:104b74004e0090000000e000040032004e0090005f
:104b84001100200001087800020037001000200006
:104b9400704188000080fa00000006000600fa0058
:104ba400200798002e0090000000e00002003a0068
:104bb400f0408000010037002e009000100798009c
:104bc400340e07001e00900040609000e24f500039
:104bd40006003a001e0090008040eb0041609800ff
:104be40010002000000f7800020037000000eb00e6
:104bf400000f7800340e07001e0078000080fa00d1
:104c0400000006000800fa00200798003107980009
:104c140031418000010f7800f04080000080e800fe
:104c2400c30e07002e009000e10f400009003a0077
:104c34003e0090000000e00006003200f0408000da
:104c44000080e8008000780080d02100680e070012
:104c5400180037002e0090001e0040001007980036
:104c6400f04080009e009000110098001e0090000b
:104c74009e0f500005003100f04080008080e80065
:104c840010418000780e07000a003700f0408000d1
:104c94008080e80000418000730e0700a04180007e
:104ca4009e009000808f5000020031009e00900012
:104cb400a14188000080fa00000006000600fa0006
:104cc40010079800414798001e00900020009000b3
:104cd400000001001e009000700090000000010020
:104ce4001e009000d00890004e409000010001008a
:104cf400004f7800a0002000d71007001e0090008d
:104d0400000890000000010020002000d2100700dd
:104d14001e4078000080fa00000006000600fa0039
:104d2400200798000000eb00100798000040eb00fb
:104d3400004f78002e009000200090000000010039
:104d4400a0002000c41007002e0090007000900006
:104d5400000001002e009000d008900030c1b30084
:104d64000100010050002000bb1007002e0090003d
:104d7400d008900000c0eb0001000100004f780053
:104d84001e80fb00100798001e0090004800dd0004
:104d94001007980050002000af1007002e0090006c
:104da400d008900000c0eb0001000100004f780023
:104db4009e80fb001e009000010070001007980008
:104dc400a0002000a41007002e009000000890000e
:104dd40000000100200020009f1007001e0090002a
:104de4000080fa00000006000a00fa00100798008c
:104df4004147980032079800034f98000e489000ee
:104e04000004e0002e0032001e00900020009000fc
:104e1400000001001e0090007000900000000100de
:104e240000c4b300104798004e409000ef4060006b
:104e34001e40900000c07000104798001e009000b3
:104e4400d00890001e409000010001001e00900058
:104e5400d00890000e4890000040e90001000100d5
:104e64000040eb00004f7800090037001e0090005e
:104e7400d00890003e00900010407800010001002e
:104e84003e0090000000e800300798001e4fe80044
:104e94000e4890009e40780080cf5000f3ff390008
:104ea400a00020006c1007001e0090000008900075
:104eb40000000100200020006710070001003700f7
:104ec400000000000080fa00000006000c00fa0058
:104ed400200798006147980042079800234f9800e4
:104ee4002e4890000004e000310032002e009000b3
:104ef40020009000000001002e009000700090003f
:104f04000000010000c2b300104798006e409000fa
:104f1400ef4060001e40900000c0700010479800f1
:104f24002e009000d00890001e4090000100010067
:104f3400204798002e009000d00890002e48900042
:104f44000040e90001000100204798000040eb0008
:104f5400004f78000a0037002e009000d00890001f
:104f640000c0eb0001000100ce00900080487800f2
:104f74004e0090000000e800400798001e4fe80033
:104f84002e4890009e40780080cf5000f2ff3900f8
:104f9400a0002000301007002e00900000089000b0
:104fa40000000100200020002b1007000100370042
:104fb400000000000080fa00000006000200fa0071
:104fc400000f78001e00780020009000000001000f
:104fd4001e00780070009000000001001e007800a0
:104fe400d008900000c6b30001000100c0122000e8
:104ff4002d1007001e00780000089000000001003a
:1050040020002000141007000080fa0000000600b1
:105014000600fa001007980041479800524798008c
:1050240013c0b3000e0178008040eb001e00900016
:10503400a6ff07004e40900067406000e740600014
:10504400300020000008dd001e41780071ccb30060
:105054008140610000c07000004f78005e40900005
:1050640067406000674060001e41780081cfb30054
:105074008140610000c07000004f78009e407800bd
:105084001e0090004158980013c0b3000e01780030
:105094008040eb001e00900053ff07000080fa00e0
:1050a400000006000600fa00100798004147980027
:1050b40013c0b3000e0178008040eb001e00900086
:1050c40082ff07004e409000e34060006000200033
:1050d4000008dd009e407800f143b20000c070007b
:1050e400004f78009e4078001e00900041589800c0
:1050f40013c0b3000e0178008040eb001e00900046
:1051040039ff07000080fa00000006000600fa00dc
:105114001007980041479800ce409000014f780056
:1051240013c0b3000e01780011c0b3001e0090003c
:105134002dff07000080fa00000006000600fa00b8
:10514400100798004147980013c0b3000e0178007f
:1051540021c0b3001e0090005cff07004e40900089
:10516400e34f50000200360030c0b30040479800bf
:105174004e409000e14f500005003e009e407800f4
:10518400f0c9b30000c06000004f7800050037008c
:105194009e407800f0c9b30000c060000054a00035
:1051a400004f78004e40900063406000e340600090
:1051b400300020000008dd001e41780071ceb300ed
:1051c4008140610000c07000004f780013c0b3003c
